:020000041000EA
:1000000000B5324B212058609868022188439860DF
:10001000D860186158612E4B002199600221596106
:100020000121F02299502B49196001219960352056
:1000300000F044F80222904214D00621196600F024
:1000400034F8196E01211966002018661A6600F04E
:100050002CF8196E196E196E052000F02FF8012189
:100060000842F9D1002199601B49196000215960AB
:100070001A491B48016001219960EB211966A021F2
:10008000196600F012F800219960164914480160C1
:100090000121996001BC002800D000471248134993
:1000A000086003C880F30888084703B5996A0420EC
:1000B0000142FBD001200142F8D103BD02B5186610
:1000C0001866FFF7F2FF186E186E02BD00000240BE
:1000D000000000180000070000035F00212200005C
:1000E000F4000018222000A00001001008ED00E03C
:1000F00000000000000000000000000074B24E7A12
:1001000000200420F7010010C3010010C5010010F9
:10011000C1010010C1010010C1010010C101001097
:10012000C1010010C1010010C1010010C701001081
:10013000C1010010C1010010C9010010CB01001065
:10014000CD010010CD010010CD010010CD01001037
:10015000CD010010CD010010CD010010CD01001027
:10016000CD010010CD010010CD010010CD01001017
:10017000CD010010CD010010CD010010CD01001007
:10018000CD010010CD010010CD010010CD010010F7
:10019000CD010010CD010010CD010010CD010010E7
:1001A000CD010010CD010010CD010010CD010010D7
:1001B000CD010010CD010010CD010010CD010010C7
:1001C00000BE00BE00BE00BE00BE00BEEFF3058054
:1001D000103800BEF2EB8871D80200100403001042
:1001E0003402001090A31AE700202249086006C8D4
:1001F00081F30888104720480068002835D10DA4F5
:100200000ECC002902D000F012F8F9E71B491C4A75
:10021000002000E001C19142FCD11A4988471A49E7
:1002200088471A49884700BEFDE701C901C29A42C2
:10023000FBD3704704030010C0000020F8A1002089
:100240003CA4001000A2002080B50020BCB7001024
:100250000000042000000420BCB70010001004209F
:1002600000100420000000007047094800F014F856
:100270000047000008ED00E0000000D080B500203D
:10028000D0180220B55000206D280020A951002070
:10029000575600000000000001B40248844601BC2B
:1002A000604700BF4952002006005250ABB3605374
:1002B000B8B1002006005250861C0302C8B10020CD
:1002C000060052505422A29DD4B100200500525085
:0802D000DE65F468BCB7001004
:1002D800CC020010C0020010B4020010E0B10020EF
:1002E800A8020010ECB10020F8B10020B0B3002043
:0C02F800BCB3002034B2002040B2002053
:10030400F8B5C0460448054B10B5834203D0044BEE
:10031400002B00D0984710BD80B5002080B5002088
:100324000000000006480749091A8B10C90FC918B4
:1003340010B5491003D0044B002B00D0984710BDD2
:1003440080B5002080B500200000000010B5074CE7
:100354002378002B09D1FFF7D5FF054B002B02D0E2
:10036400044800E000BF0123237010BDC0B8002082
:1003740000000000F8A10020054B10B5002B03D0AD
:100384000449054800E000BFFFF7CCFF10BDC0469C
:1003940000000000C4B80020F8A10020F0B54E46CB
:1003A4004546DE465746E0B5037805001A00803A14
:1003B400D2B289468FB01F2A09D90A0001320192AC
:1003C4000B701D2B0ED8D2499A008A58974602F01A
:1003D400C1FD040020000FB0F0BCBB46B246A946E4
:1003E400A046F0BDFF234A46CA4C1370F2E702232D
:1003F4004B444A469A46002353704278831C561E47
:10040400002A00D10EE3012201923E329146D0220D
:1004140012060124934615E000220121012004F074
:1004240071FC52464146280002F0C6FD002E00D160
:10043400DFE243460134DB193C19721E002E00D161
:10044400D0E216005A1C1D7890464B464A460827AF
:100454002B402A4201D00733DF086BB2002BDBDAD2
:1004640002235A46002101209362002204F04AFC30
:1004740052464146280002F09FFD002E00D1D3E2EF
:10048400019B01349C46BC446346BA4401934346F1
:10049400D3E7A14B1A78022A00D0C0E24278DA7678
:1004A4009B7E934200D8BAE20E2001F02FFF01F0A8
:1004B400F1FD4A4600235370030A9070D370030C75
:1004C400000E964C1371507184E7934A4378924618
:1004D4009376002B65D08178504611770022828470
:1004E400012B01D101F053F9EA78C1844277521803
:1004F400022B27D0544628792285A0771218032B83
:1005040020D068796285E0771218042B1AD05646F9
:100514002024A879B28530551218052B12D0212435
:10052400E879F28530551218062B0BD02224287A4C
:10053400328630551218072B04D02324687A728629
:1005440030551218521A51468A86497F521A51461A
:10055400CA86022B25D05146897F521A51460A87F2
:10056400032B1ED0C97F521A51464A87042B18D038
:1005740050462021415C521A8287052B11D021213B
:10058400415C521AC287062B0BD02221415C521ABD
:1005940040214252072B04D01D39415C521A42219A
:1005A400425201331C0401231C435A4B0022494686
:1005B4009C464A7064440DE7574A1378012B01D1D5
:1005C40000F0BFFC022B00D038E24378D376927E51
:1005D4009A4200D832E2082001F098FEEB78A8781D
:1005E4001B02034328794E4C000403436879000638
:1005F400184301F0BDFD00234A465370EAE6464B1A
:100604009A461B789B46012B01D100F0D6FE022BA3
:1006140001D100F050FE00234A460320537093702A
:10062400D3702B799B0700D40DE28024394BE4026C
:100634009C4604436444CDE683784178C2781B0227
:100644000B430179120413430906194300D120E234
:10065400344B994200D839E201222F4B5A705A6028
:1006640000234A46304C5370B4E600234A462F4CCC
:1006740093705370AEE62A238178427809020A43C4
:100684005343013BFDD100234A46294C5370A1E654
:100694000025214BD0241D7001232406A3620022CF
:1006A4000021002004F02EFB02230022A36200217B
:1006B400012004F027FB04230022A362002102206E
:1006C40004F020FB08230022A3620021032004F08D
:1006D40019FB20230022A3620021052004F012FB51
:1006E40080230022A3620021072004F00BFB4B4669
:1006F400104C5D706EE64478012C00D1AEE1022C02
:1007040001D100F0D9FE00244B465C700A4C61E62E
:10071400D0AE0020010001005CB9002006000200F8
:10072400020006009FACB9030200050003000100AB
:100734000200030002000100020002004378012BC2
:10074400A1D9FF234A46D54C537043E64278F12A97
:1007540001D100F034FF00D951E1042A01D100F0A5
:100764003BFFF02A01D001F0F2F933234A46CC4C86
:100774009370323B4A4653702CE603224378C949AE
:100784001A405B070132DB0F0A764B764A46002398
:10079400C54C53701EE6811C4078002800D149E105
:1007A4000123C41DE408013424041C43BF4B9C46AC
:1007B400644402F0D5FB0023DCE702234B449B4650
:1007C4004A46002353704778831C002F00D129E147
:1007D4000122012401923E329146A04617E00736D9
:1007E400F608731C9A4628005A4621006DB201F09F
:1007F40031FBD044A319002D05DA019AB344944681
:10080400B44462460192013F002F00D1E9E01D7813
:100814004E465C1C4B462E402B42E0D10923082651
:100824009A46E0E7431C0B939E4B9A461B780A9327
:10083400012B00D19AE3022B00D166E18278C31C1C
:10084400002A00D154E10220102406E00C4207D112
:100854000133013A002A00D14AE119780842F5D15E
:100864000533F6E743788F4A914C1373C378817844
:100874001B020B431382437901791B020B435382FE
:1008840000234A465370A5E58178C47842780079FC
:100894006B7900020443A8791B0423430006034335
:1008A400012004000C40A346084206D0D0242406AC
:1008B400104201D100F03BFE6061022006000E40B0
:1008C4000196084206D0D0242406104201D100F03B
:1008D40031FE6061042007000F4008420BD0D02590
:1008E4002D062C691600A4460324A643340066464C
:1008F40074402040E86148B2002804DAD0248025FE
:100904002406A5626562002B3AD020250D40694972
:1009140002958B4200D90B00D509A8465D465608BE
:100924006549B2469608B4468C6A5609002D01D032
:1009340000F0D8FD002E01D000F067FF002801DB95
:1009440001F093F8D025029A0120019E2D06002A79
:100954002FD1002E04D06A685208024092450BD170
:10096400002F04D06A6892080240944504D16A6852
:10097400D2090240904503D08A6A121B9342E8D8F8
:10098400D02202201206556853685468034002308E
:100994000440033823432840034308205168526825
:1009A40001400B4380210A4013434A46434C537091
:1009B40010E5002E04D06A685208024092450BD11B
:1009C400002F04D06A6892080240944504D16A68F2
:1009D400D20902409045D3D08A6A121B9342E8D8C8
:1009E400CEE74446019B24041C43304B9C4664449C
:1009F400F0E400220121012004F084F919E5FE2A23
:100A040001D100F0F3FDFF2A01D001F0A0F840234A
:100A14004A46937000232A4CD3700233AAE6FF237C
:100A24004A465370204CD5E400220121012004F0F1
:100A340069F925E58020234C4000BAE6FF234A46A5
:100A44001B4C5370C6E4EB78AC781B021C43174B69
:100A540001349C46A40404436444BBE4114BD025F4
:100A64001C7002232D066C626C616B626B617E33B9
:100A74006B626B617C3BAB6200220021022004F0BC
:100A840041F92023002200210520AB6204F03AF949
:100A94003AE6FF234A460C4C53709BE402000300E1
:100AA400030002005CB90020020002000100010002
:100AB40002000600C0C62D000040054002000700E9
:100AC400040002000200220002000500DB4B9A46EB
:100AD400002352465370DA4BC81804F007FD01286E
:100AE40003D00321013004F001FD53465860B7E5FB
:100AF400002249464A708A700B9A9C1A02232404E5
:100B04001C43D04B9C46644464E44B460333099332
:100B140000235246CC4C23704378D376927E9A427B
:100B240001D800F0C1FDC31C9B4683780693002BBB
:100B340001D101F007F800239846049307935B461C
:100B4400039343460293039B5A1C1D7801232B40B5
:100B54000A3305930223934608922B4200D1BDE049
:100B6400029B002B31D053461B8A079A9846059B5B
:100B7400934200D0D0E0EB0600D5CDE047460DAE61
:100B840009E0002F01D100F005FD2378013F002B7F
:100B940001D000F0FFFC3100280001F0F5FC022830
:100BA400EFD00300012B01D000F0B7FF0D9B099992
:100BB4001A0A0B704A701A0C1B0ECB70029B8A70B7
:100BC4000A1D002B00D0ABE10992EB0600D5D1E061
:100BD400059B079A934202D0180001F097FB5346F5
:100BE4001E8A09E0002E01D100F0ACFC2378013EFE
:100BF400002B01D000F0A6FC0021280001F0C4FC69
:100C04000228EFD00290012801D000F081FF059B5B
:100C14006DB207935B460393002D0BDA53469B6832
:100C240009991A0A0B704A701A0C1B0ECB700B1D13
:100C34008A700993049B013304932378002B01D019
:100C440000F004FE069B013B0693002B00D07AE7DC
:100C5400039B9B46029B9846079B0A2B02D00A20C3
:100C640001F054FB4346002B01D100F0F6FD53463E
:100C74000DAF1D8A09E0002D01D100F0FEFD23789F
:100C8400013D002B01D000F0F8FD39000E2001F0E9
:100C94007BFC0228EFD0012801D000F04AFF0D9B15
:100CA40009991A0A0B704A701A0C1B0ECB706B460A
:100CB4008A701A7C0B1D09930A904B465A700A9A43
:100CC4009A705B460B9A9C1A099B2404019A9B1AFE
:100CD4001C435C4B9C466444FFF77CFB029B002B4B
:100CE40000D0F3E05A465B4651781B7892780902AB
:100CF400194312045B461143039ADB7805320392CD
:100D040020221B060B430D932A4200D1B7E0524622
:100D14005361002302938DE7079B0A2B02D00A201C
:100D240001F0F4FA47460DAE09E0002F01D100F0BE
:100D340011FC2378013F002B01D000F011FC31009D
:100D44000E2001F021FC0228EFD00A220792002293
:100D54000300029226E753469B681A0A4A711A0C4A
:100D64008A710A000B7108321B0ECB710992EB06D3
:100D740000D4DDE05B461A785B781B021A435B46BD
:100D84009B781B0413435A46D27812061A43039BDA
:100D940093460533089353465B8A079A9846059B06
:100DA400934202D0180001F0B1FA53461E8A07E0BC
:100DB400002E00D16BE32378013E002B00D066E3C4
:100DC4000021280001F0E0FB0228F1D003000128F3
:100DD40001D000F079FE0DAE53461F8A05E0002FC6
:100DE40040D02278013F002A3CD13100280001F094
:100DF400CBFB03000228F2D0012833D152460D9BCD
:100E0400526913405A469A4201D100F001FC43460C
:100E1400002B06D00122524294462378E044002B52
:100E2400DAD0029B98461123089A9346059A0792B2
:100E3400022110205D46069A0FE0C0465CB90020EE
:100E44009FACB90301000100C4180220304207D14D
:100E54000135013A002A00D1CFE32E783142F5D191
:100E64000535F6E75146029A496990460D9A0A40BB
:100E740059469142D8D010230343DBB2D4E7059BF3
:100E8400079A934202D0180001F040FA53460DAE7F
:100E94001F8A07E0002F00D18AE32378013F002B4B
:100EA40000D07DE33100280001F06EFB0228F1D070
:100EB4000300012801D000F00BFE6DB2002D00DA12
:100EC40056E3059B079300230293B3E6079B0A2B83
:100ED40002D00A2001F01AFA53461B8A0DAE1F00F5
:100EE40005E0002F27D02378013F002B23D13100C8
:100EF4000E2001F049FB0228F3D00300012801D0A1
:100F040000F011FE0D9B09991A0A0B704A701A0C15
:100F14001B0ECB700B1D09930A238A700793E1E61D
:100F24006BB2002B00DA16E70992EB0600D521E735
:100F34005B4603937EE6029A030090460A220592DA
:100F440072E7C278837812021A4303790DA91B044D
:100F54001A43437900201B0613430D9302F09EF9B4
:100F640000234A46C24C5370FFF734FA4B4603330E
:100F740005930023BF4C2370C31C984683780393C6
:100F8400002B01D100F062FD002300270693029399
:100F940043460020B8461F007B1C9B460493022353
:100FA4003E78334200D1B1E04346002B2BD0534668
:100FB4001D8A11233340012B08D189E0002D00D173
:100FC40032E12378013D002B00D02DE10E200DA944
:100FD40002F064F90228F1D000239846012800D0D9
:100FE400D0E00D9B05991A0A0B704A701A0C1B0E5F
:100FF400CB7043468A700A1D002B03D073B240465F
:10100400002B6CDB0592F30600D4BDE05B465A78F6
:101014001978120211435A469B78D2781B040B4369
:1010240012061A437B1D0493534693465F8AF307C3
:1010340013D553461D8A07E0002D00D1A2E0237882
:10104400013D002B00D09DE00021300002F026F984
:101054000228F1D0012800D094E053461D8A05E00F
:10106400002D48D02378013D002B44D130000DA938
:1010740002F014F902000228F2D001283BD15246B2
:101084000D9B526913409B4500D10DE1002F00D107
:101094000EE12378013F002BDFD047461030049B3C
:1010A4000222984610214546039B06E0314207D1AF
:1010B4000135013B002B00D158E22E783242F5D1A4
:1010C4000535F6E7002D5DD02378013D002B59D17D
:1010D40030000DA902F0E2F80228F3D07EE753466F
:1010E4009B681A0A0B714A711A0C1B0E8A71CB7118
:1010F4000831059187E751460D9B496947460B40E6
:101104009B45CCD010201043C0B2C8E74346002B07
:1011140000D08BE05A465B4651781B78090219438C
:101124005B469278DB781204114320221B060B43A2
:101134000D930537324200D195E0524653610023A6
:1011440001209846029B013302932378002B00D0A0
:1011540094E2039B013B0393002B00D01CE73B006C
:1011640047469846012800D164E2C3B20A934B462D
:10117400029A5A700A9A9A7043460B9A9C1A24044B
:10118400059BA3E547468AE753461D8AF3070CD51A
:101194004346002B35D000235F460693D2E7002D4B
:1011A400F0D02378013D002BECD130000DA902F0E2
:1011B40075F80228F3D00128E4D176B2002E0BDAB8
:1011C40053469B6805991A0A0B704A701A0C1B0E39
:1011D400CB700B1D8A7005930D9B05991A0A0B7031
:1011E4004A701A0C1B0ECB700B1D059300235F462F
:1011F4008A700693A6E7002D16D02378013D002BB4
:10120400C0D10021300002F049F80228F3D00128AF
:10121400B8D176B2002E00DA34E20023069301330B
:1012240098465F468EE70497002738E753461D8AA1
:1012340005E0002DA6D02378013D002BA2D10E207D
:101244000DA902F02BF80228F3D001289AD10D9BA6
:1012540005991A0A0B704A701A0C1B0ECB700B1DE1
:101264008A70059356E753461B8A1D000BE0C0465F
:1012740002000600C4180220002D00D15DE123788D
:10128400013D002BCFD130000DA902F007F8022850
:10129400F2D00128C7D176B2002E00DAFBE0012398
:1012A4000693002398464DE70023049F069349E7DD
:1012B40047461120F3E64B46043303931E000023F4
:1012C4005246D64C23704378D376927E9A4200D805
:1012D4003CE1C37882781B021343049300D135E1C7
:1012E400037998460123424613400A3318000693B3
:1012F40001F00CF85B464246134200D0D6E26B1D67
:1013040005930023029323004446A8461D000DAF15
:1013140005994A780B7812021A438B781B041A43F6
:10132400CB781B0613430D930B1D059353461E8A5E
:1013340005E0002E3BD02B78013E002B37D139003D
:10134400200001F021F90228F3D0012801D000F097
:101354002EFC029B01330293049B013B0493002B5C
:10136400D6D1069B2C0045460A2B02D00A2000F059
:10137400CDFF53461E8A05E0002E09D02378013E96
:10138400002B05D100210E2001F0FEF80228F3D035
:101394008346029BDAB21B0ADBB249464A705A46BC
:1013A4008B70CA70039B019A981AFFF73AF9029B53
:1013B4004546DAB21B0ADBB2EFE74B4604331E00A4
:1013C40004930023954C82782370C3781B02134343
:1013D400039300D1D7E1037998469B0700D56AE1CE
:1013E4000022431DCB46250081464446984602927E
:1013F4000DAF4246434652781B7812021A434346C5
:101404009978DB7809040A431B0613430D930423DC
:101414009C465346E0441E8A05E0002E34D02B78C7
:10142400013E002B30D13900200001F037FF0228A3
:10143400F3D0012828D1029B01330293039B013B83
:101444000393002BD5D153462C001E8A4D46D94612
:1014540005E0002E09D02378013E002B05D10021A0
:101464000E2001F01BFF0228F3D08346029BDAB260
:101474001B0ADBB249464A705A468B70CA70049BF9
:10148400019A981AFFF7CDF84D46D946EDE7029A2E
:1014940003009046C8E453469B6805991A0A0B70EA
:1014A4004A701A0C1B0ECB70012306930B1D059377
:1014B40000238A70984645E6594B01221C70D023BC
:1014C4001B065A625A6103325C625C615A625A6159
:1014D4001C325A625A6160325A625A61783A9A628C
:1014E400FFF712F9002E00D079E1019D002D00D004
:1014F40050E1D0263606002800DBF3E2013570689F
:10150400284082420DD1002F04D070688008284002
:10151400604506D17068C0092840804501D1FFF7B5
:101524002FFA886A001B8342E9D8FFF729FAA061E1
:10153400FFF7C3F9A061FFF7CDF9B84643462F0082
:101544000493ACE50022022390466DE400230022BC
:101554009B4622E7002290460A320300059263E488
:101564000A2205920022030090465DE4A846F9E5AC
:1015740053469B6809991A0A0B704A701A0C1B0E81
:10158400CB70059B8A7007930B1D0993002302936C
:10159400FFF750FB029A03009046079A059243E432
:1015A400039B9B465A4608920022030090463BE464
:1015B400039BB8469B465A460300089234E44A46C5
:1015C400402393700233D370333B13710023154CC3
:1015D40053710433FFF7CEF84B460622981C124988
:1015E40004F08CFA114C0623FFF7C4F802234A4690
:1015F4000F4C9370013BFFF7BDF8AB46012B01D1B3
:10160400FFF72AFB6A46DBB2127C0A93FFF755FB0D
:10161400059B0793089B0393FFF70CFBC418022058
:101624005CB9002006000200C8AE002008000200D9
:1016340003000200002F00D123E153460DAF1D8AA1
:1016440007E0002D00D18DE12378013D002B00D06F
:1016540088E139000E2001F021FE0228F1D0012892
:1016640000D021E10D9B05991A0A0B704A701A0CDF
:101674001B0ECB700B1D8A70059378E53B00474623
:1016840004930CE553469B6805991A0A0B704A703B
:101694001A0C1B0ECB7000230693013398460B1DC6
:1016A4005F468A7005934DE5831C9B460023002208
:1016B4000A93FFF702FB5B46424613421BD0534694
:1016C4001F8A230044461D00804607E0002F00D1F6
:1016D40090E12B78013F002B00D08BE1002120000A
:1016E40001F0DCFD0228F1D02B004546A0461C0089
:1016F400012800D022E2039B0DAF013B029300239B
:1017040003935B46AB4625004446B04605934346E7
:101714000493029B002B31D053461E8A05E0002E11
:1017240024D02B78013E002B20D13900200001F079
:10173400B5FD0228F3D0012800D00BE24246414611
:101744000D9B13701A0A4A701A0C8A70042294466C
:10175400049A1B0ED370039B029A01330393E04453
:10176400531E002A00D14BE10293D0E70221039BD0
:101774005D46DAB21B0A8B46DBB27BE601332342B9
:10178400CAD00E24C8E7002300229B4672E6828654
:10179400FEF707FF002F00D1E8E0D02701263F061F
:1017A4007D683540AA4214D17D686D083540AA454C
:1017B4000FD17D68AD083540AC450AD1002801DB66
:1017C400FFF7DEF87D68ED093540A84501D1FFF744
:1017D400D7F88D6A2D1BAB42E2D8FFF7D1F8002869
:1017E40000DBD1E1D020029A0006002A06D142682B
:1017F4008A6A121B9342FAD8FFF7C2F842688A6ACF
:10180400121B9342FAD8FFF7BBF8019A002A00D0C2
:10181400CDE0D0263606002800DBA2E10120029D9F
:10182400002F04D0726892080240944508D1002D1C
:1018340006D17268D2090240904501D1FFF7A0F8A1
:101844008A6A121B9342EBD8FFF79AF8039B9B46D4
:10185400029B98460123FFF7EBFA53461D8A05E0E5
:10186400002D09D02378013D002B05D100210E2045
:1018740000F08AFE0228F3D00A906B461A7CFFF728
:101884001CFA069B002B00D171E453461D8A05E027
:10189400002D09D02378013D002B05D100210E2015
:1018A40001F0FCFC0228F3D00A9060E453461F8A3E
:1018B40023004446A8461D0005E0002F73D02B7872
:1018C400013F002B6FD10021200000F05DFE0228B3
:1018D400F3D02B004546A0461C00012800D0FDE0B3
:1018E400049B0DAF013B0593002302932300444660
:1018F400A8461D000496049B0393059B002B29D046
:1019040053461E8A07E0002E00D150E52B78013E95
:10191400002B00D04BE53900200000F035FE0228F2
:10192400F1D0012800D042E10D9B04991A0A4A70B3
:101934001A0C8A700A1D0492039A0B701B0ED37042
:10194400029B059A01330293531E002A00D182E0C0
:101954000593D0E7069B0E240A2BD1D00A2000F071
:10196400D5FCCDE702230A93FFF701FCD02701261B
:101974003F067D683540AA420FD17D686D08354029
:10198400AA450AD1002801DBFEF7FAFF7D68ED09BC
:101994003540A84501D1FEF7F3FF8D6A2D1BAB42FC
:1019A400E7D8FEF7EDFF002345461A00F5E4002FC3
:1019B40030D0D0270126029D3F067A685208324073
:1019C400924511D17A689208324094450CD1002D89
:1019D4000AD1002801DBFEF7D3FF7A68D20932402E
:1019E400904501D1FEF7CCFF8A6A121B9342E4D8DA
:1019F400FEF7C6FF02239B46002345461A0039E53D
:101A04004146059B5D469B46039B0491DAB21B0A43
:101A1400DBB22FE5D0270126029D3F067A685208E3
:101A2400324092450CD1002D0AD1002801DBFEF78B
:101A3400A7FF7A68D2093240904501D1FEF7A0FF92
:101A44008A6A121B9342E9D8FEF79AFF0023029395
:101A54000A93FFF78CFB0499029B03910121DAB2EC
:101A64001B0A45468B46DBB297E4D025019A012038
:101A740056462D06002A11D16646002F01D1FEF7E5
:101A84007FFF6A6892080240964201D1FEF778FF10
:101A94008A6A121B9342F0D8FEF772FF6A685208F2
:101AA400024096420AD1002F01D1FEF769FF6A680D
:101AB40092080240944501D1FEF762FF8A6A121B24
:101AC4009342EBD8FEF75CFF029A9046FFF7ACF91D
:101AD400039A089200229046FFF7A6F90023834652
:101AE4001A005AE401257068284082420AD1002F66
:101AF40001D1FEF745FF706880082840844501D174
:101B0400FEF73EFF886A001B8342ECD8FEF738FFDD
:101B14000022029B9046FFF787F9029A9046079AA3
:101B24000592FFF781F9029A90460A220592FFF77F
:101B34007BF96B460A901A7CFFF7BFF800238346B3
:101B44001A0097E400231A000A93FFF7B6F81C4C16
:101B5400FEF710FE039B5D46DAB21B0A8346DBB236
:101B640088E40120029D002F04D07268920802408C
:101B7400944503D1002D01D1FEF702FF8A6A121B9E
:101B84009342F0D8FEF7FCFED020019A0006002A0A
:101B940006D142688A6A121B9342FAD8FEF7F0FE15
:101BA40042688A6A121B9342FAD8FEF7E9FE029B46
:101BB4004546DAB21B0A8346DBB2FFF7EEFBC046AA
:101BC40002000200F8B503787F2B04D0FEF7E6FB91
:101BD40005002800F8BD0B7044780A4D861C8F1C44
:101BE4004C70002CF5D039003000FEF7D7FB030C05
:101BF4002D180004000C013CF6183F18002CF2D1FB
:101C0400E7E7C046020002003D2010B50021012490
:101C14000022154B58602730198018611C8300205E
:101C24001A7359619A7603F0A9F8012003F0A6F813
:101C3400022003F0A3F8032003F0A0F8052003F02A
:101C44009DF8072003F09AF8D02302221B065C6259
:101C54005C615A625A6102325A625A6104329A626F
:101C640078329A625A6110BD5CB9002070B5774C25
:101C7400200004F0B7F92378180901001A01D2B240
:101C840030319F2B00D90731714B10091970002195
:101C94002170010030319F2A00D9D4E05970617855
:101CA4000D0928000A01D2B230309F2900D9BFE0C3
:101CB4000021987010096170010030319F2A00D909
:101CC400B4E0D970A1780D0928000A01D2B23030ED
:101CD4009F2900D99FE0002118711009A17001000B
:101CE40030319F2A00D994E05971E1780D09280018
:101CF4000A01D2B230309F2900D97FE000219871C7
:101D04001009E170010030319F2A00D974E0D971C3
:101D140021790D0928000A01D2B230309F2961D8F7
:101D24000021187210092171010030319F2A57D8FF
:101D3400597261790D0928000A01D2B230309F2905
:101D440044D80021987210096171010030319F2A32
:101D54003AD8D972A1790D0928000A01D2B23030DB
:101D64009F2927D8002118731009A171010030316F
:101D74009F2A1DD85973E1790D0928000A01D2B2AE
:101D840030309F290AD8002198731009E1710100AD
:101D940037319F2A00D80739D97370BD0021073025
:101DA40098731009E171010037319F2AF4D8F2E7E2
:101DB4000731DFE70021073018731009A171010012
:101DC40030319F2AD6D9F3E70731C2E70021073023
:101DD400987210096171010030319F2AB9D9F3E773
:101DE4000731A5E70021073018721009217101009D
:101DF40030319F2A9CD9F3E7073188E70021073067
:101E040098711009E170010030319F2A00D87EE7F3
:101E1400F2E7073168E70021073018711009A17053
:101E2400010030319F2A00D85EE7F2E7073148E726
:101E340000210730987010096170010030319F2A29
:101E440000D83EE7F2E7073128E7C046C017012073
:101E5400D8170220F0B53F234546DE4657464E4686
:101E6400E0B51D0083B001920540034200D1402536
:101E7400430600D4FDE0D02302221B065A618023CE
:101E8400012203400093824B91469B46FE32D023AD
:101E94008846012494461B06424604271078196993
:101EA40082004A403A40DA614A469A615A46516889
:101EB4000A00013AFDD14E465A685E610E00013EA9
:101EC400FDD16746D208D20146083A40012D00D11F
:101ED400C1E01F69B6007E4004273E40DE610E006B
:101EE4009C61013EFDD15E680F005C61013FFDD144
:101EF4006746F608F60152083E403243022D00D1EF
:101F0400BCE01E690327B2460600BE4357467E4026
:101F140004273E40DE610E009C61013EFDD15E68F7
:101F24000F005C61013FFDD1C708BA466746F60859
:101F3400F60152083E403243032D00D1A0E057463B
:101F44001E69BF007E4004273E40DE610E009C6196
:101F5400013EFDD15E680F005C61013FFDD10709C0
:101F6400BA466746F608F60152083E403243042D4D
:101F740000D171E057461E69BF007E4004273E40F1
:101F8400DE610E009C61013EFDD15E680F005C6164
:101F9400013FFDD14709BA466746F608F6015208E3
:101FA4003E403243052D00D16CE057461E69BF0008
:101FB4007E4004273E40DE610E009C61013EFDD15F
:101FC4005E680F005C61013FFDD18709BA46674630
:101FD400F608F60152083E403243062D00D153E084
:101FE40057461E69BF007E4004273E40DE610E0056
:101FF4009C61013EFDD15E680F005C61013FFDD133
:102004006746F608F60152083E40C0093243072DE0
:102014003CD01E698000704004263040D86108001E
:102024009C610138FDD158685C610139FDD100998A
:10203400083D002908D05108C208D2013A400A4399
:1020440001990A704A1C019201229246D044002D43
:1020540000D021E706E00725009B002B02D0EA40D0
:10206400019B1A7003B0F0BCBB46B246A946A04619
:10207400F0BDD02302221B069A6100E70625EBE798
:102084000525E9E70325E7E70225E5E70125E3E779
:102094005CB90020D022F0B5012302241206334893
:1020A4005461936141680D00013DFDD10D00536100
:1020B400013DFDD194610C009361013CFDD10C0004
:1020C4005361013CFDD10C009361013CFDD153618E
:1020D4000B00013BFDD1C37E002B0BD00124080073
:1020E40094610138FDD1080054610138FDD1013BF0
:1020F400002BF4D10123D0221F2400269C46012763
:1021040012060B009761013BFDD153680D00576126
:10211400013DFDD1DB08DB071E43013C7608002CA2
:10212400EFD1604602235361906108000138FDD16C
:102134006446506854610C00013CFDD164469461CE
:102144000C00013CFDD1644654610C00013CFDD1FE
:102154009361634693610B00013BFDD16346536178
:102164000139FDD1C008C0073043F0BD5CB900207F
:10217400D022F0B50123CE46474602246249120616
:1021840080B5546193618C4649680D00013DFDD1D1
:102194000D005361013DFDD194610C009361013C3C
:1021A400FDD10C005361013CFDD10C009361013C55
:1021B400FDD153610B00013BFDD16346DB7E9946A3
:1021C400002B0BD001250C009561013CFDD10C00C6
:1021D4005561013CFDD1013B002BF4D1D0220423F5
:1021E400120614692340D36101230C009361013C5E
:1021F400FDD153610C00013CFDD193610C00013C05
:10220400FDD153610C00013CFDD193610C00013CF4
:10221400FDD153610B00013BFDD101231F24042692
:1022240098460125176983007B403340D3610B0036
:102234009561013BFDD10B005561013BFDD1013C92
:102244004008002CEED163464C469B7E1F1B012F99
:1022540000D148E013698000584043460640D661E7
:1022640093610B00013BFDD1434653610B00013BDD
:10227400FDD1BB1E022F0DD0D024012024060A005C
:10228400A061013AFDD10A006061013AFDD1013B30
:10229400002BF4D1D02302221B065A61013A9A6121
:1022A40008000138FDD15A610B00013BFDD1D02358
:1022B40001221B069A6108000138FDD15A61080009
:1022C4000138FDD1022098619A6108000138FDD1DE
:1022D4005A610139FDD1196903328A43DA61C0BCFC
:1022E400B946B046F0BD02235361136980005840DB
:1022F4003040D0610B009761013BFDD10B00576169
:10230400013BFDD1D3E7C0465CB90020F0B5CE4611
:10231400474680B5854C6378002B5BD0D0230122DF
:1023240002211B0659619A615A619A615A61996145
:102334009A615A619A615A61196903328A43DA616E
:10234400E27E944610325200A2189288002A05D0E8
:102354000121013A99615961002AFAD16346E318CF
:102364001B7F591E012B0ED0D022042701251206F3
:102374001669830073403B400139D361400895617D
:1023840055610029F4D1674618377F00E419A18804
:10239400002900D1ACE0D022120613698000584015
:1023A40004231840D0610120906150611069834377
:1023B400D3614B1E012905D00121013B916151617B
:1023C400002BFAD1D02302221B065A61013A9A61EA
:1023D4005A619AE0D02202250121120655619161C9
:1023E40063681E00013EFDD11E005161013EFDD116
:1023F4001E009161013EFDD11E005161013EFDD1DF
:1024040095611D009161013DFDD11D005161013DAA
:10241400FDD11D009161013DFDD1516119000139CA
:10242400FDD104211569A943D161E17E8C461031A7
:1024340049006118898800290BD001271D00976184
:10244400013DFDD11D005761013DFDD10139002938
:10245400F4D16246A218127F551E012A18D0042214
:10246400D0219146012709060A6990464646820012
:1024740072404E463240CA611A008F61013AFDD162
:102484001A004F61013AFDD1013D4008002DEBD106
:10249400664618367600A419A188002948D0D024AD
:1024A400240622698000504004221040E06101208B
:1024B4001D00A061013DFDD1606118000138FDD10E
:1024C40020698243E2614A1E01290BD001201900D0
:1024D400A0610139FDD1190060610139FDD1013AD2
:1024E400002AF4D1D02202211206516101392AE0D6
:1024F400D02302221B065A611A698000424004203C
:1025040010400122D8619A615A61D023012202212C
:102514001B069A615A6199619A615A611969033279
:102524008A43DA61C0BCB946B046F0BD5CB900204C
:10253400D022022112065161116980004840042111
:102544000840D0610339180091610138FDD151610F
:102554001A00013AFDD1D02201211206180091611E
:102564000138FDD1180051610138FDD1022090617C
:10257400180091610138FDD15161013BFDD1042363
:1025840011698B43D361CDE7F0B5DE4657464E461D
:102594004546E0B58C4683B0384900904B78002B13
:1025A40070D0D02201230224120654619361536136
:1025B40094619361536193615361CB7E01259B4682
:1025C400002B04D0013B95615561002BFAD1D02337
:1025D400042500981B061E694208920072402A4096
:1025E400DA6101229A615E685A611C690327A04678
:1025F4000400BC432700444667402F40DF619A61D2
:102604005C685A611F69B608B946C7084846BF00E6
:1026140047402F40DF6102279A6158683E404008D6
:1026240005403543E60816402E43B2465A61012E52
:1026340000D136E15F619A615A61D02301220224FC
:102644001B069A615A619C619A615A611C69033242
:10265400A243DA61009B1B0602D5094B9B6A8B607F
:102664000A7B531E002A06D0D021012209068A6162
:102674004A61013BFBD25346D8B2B8E05CB90020B2
:1026840000400540D0240225012224066561A26190
:102694004B681E00013EFDD11E006261013EFDD16A
:1026A400A5611D00A261013DFDD11D006261013DD6
:1026B400FDD11D00A261013DFDD162611A00013A04
:1026C400FDD1CA7E01269046002A0AD01D00A661CB
:1026D400013DFDD11D006661013DFDD1013A002A95
:1026E400F4D1D02204250098120616694408A400E7
:1026F40074402C40D4610124AA4694611D00013D1C
:10270400FDD155681E0001955461013EFDD103269B
:102714000500B5432E00554617697E402E40D6610C
:102724001E009461013EFDD155681E00A946546106
:10273400013EFDD1C70850461569BF006F400740F0
:10274400D7611E009461013EFDD150681E0083468E
:102754005461013EFDD10198022786085846450878
:102764005046054048463E402E43C5082540354363
:102774000195012D00D141E0576194611D00013D97
:10278400FDD154611A00013AFDD1D0220124120670
:102794001D009461013DFDD11D005461013DFDD139
:1027A400022595611D009461013DFDD154611C0019
:1027B400013CFDD104241569AC43D461009A12068E
:1027C40002D5944A926A8A600A7B002A0DD0D024EA
:1027D400012024061900A0610139FDD119006061AE
:1027E4000139FDD1013A002AF4D16B46187903B0BE
:1027F400F0BCBB46B246A946A046F0BD00980742CD
:1028040000D1B9E001201F250026814601271C00C4
:102814009761013CFDD15468180057610138FDD11E
:10282400E408E4072643013D7608002DEFD1404635
:102834008C7E241A012C00D1EEE048461D009061E4
:10284400013DFDD14D4657685561FF081A003840D7
:10285400013AFDD1A21E022C0DD0D02701253F063E
:102864001C00BD61013CFDD11C007D61013CFDD11A
:10287400013A002AF4D1D022022412065461013C08
:1028840094611D00013DFDD154611A00013AFDD14E
:102894006246002A00D178E7C407344314604B68C9
:1028A40073E7009A174234D001221F250026904670
:1028B40001279F615A68013DD208D20716435F6120
:1028C4007608002DF5D15A468C7EA41A012C00D12D
:1028D400B9E042469A615D685A61ED081540A31E4D
:1028E400022C07D0D02401222406013BA26162619C
:1028F400002BFAD1D02302221B065A61013A9A61B5
:102904005A616346002B00D197E6EA0732431A6006
:1029140093E66246156801221F2704269146012486
:102924001869AA0042403240013FDA616D089C6197
:102934005C61002FF4D158468A7E141A012C00D110
:102944005DE01A69AD0055404A463540DD619A6143
:102954005A61A31E022C07D0D02401222406013B75
:10296400A2616261002BFAD1D02302221B065A61B4
:10297400013A9A615A6160E66046056801201F27A2
:102984000426824684461069AC00444060463440C4
:10299400D4611C009061013CFDD11C005061013CDC
:1029A400FDD1013F6D08002FEDD140468C7E241AE5
:1029B400012C40D050461769AD007D403540D561AB
:1029C4001D009061013DFDD150611A00013AFDD115
:1029D400A21E022C0DD0D02701253F061C00BD618C
:1029E400013CFDD11C007D61013CFDD1013A002A6E
:1029F400F4D1D022022412065461013CBDE6022225
:102A04005A611A69AD0055403540DD619C615C61D5
:102A140013E6C04600400540022555611D0094613F
:102A2400013DFDD157685461FF0838001A00204069
:102A3400013AFDD12CE7022757611769AD007D40AB
:102A44003540D56199E602225A619C615D685C61FA
:102A5400ED08254055E7C04630B583B006F0E8FDE3
:102A6400D02401250190240601200021404203F0D6
:102A740071FD63685B0E1D420BD080239B04A36130
:102A840003F058FD0028EFD1012101A806F07CFFD6
:102A9400EAE703F0B3FC0028EFD003F0B7FC00280A
:102AA400EBD180239B046361EAE7C04610B582B092
:102AB400FFF7AAF805F0ACFBFFF7D8F804F0AEFF77
:102AC40003F046FA0D4B8024019301236400220095
:102AD40000930B4900230B4806F0C6FA0A4B220068
:102AE40001930223094900930948002306F0BCFA24
:102AF40006F0A6FC002002B010BDC046BC170120A1
:102B040048AF0020192800208C1001204CAF002071
:102B1400852B00200020704770B51800084C04ABCA
:102B24001D882100FDF73AFC2B1C402D00D94023C1
:102B3400220000219BB2002004F0B4FC70BDC0460A
:102B4400A0B90020F0B505001400012083B00129CC
:102B540005D1137800205B069B0F022B01D003B034
:102B6400F0BD5378012BFAD1637912791B02134318
:102B7400072BF4D16B46074E9F1D3100022238000B
:102B840002F0BCFF3200210028003B88083A04F020
:102B940071F9E4E770B000207047C04610B50248F0
:102BA400097802F025FCC04650AF002010B501485A
:102BB40002F01EFC80AF00200048704730B00020B7
:102BC4000048704744B000203E2306220148C25406
:102BD4007047C046FCB3002070B5002826D00628F4
:102BE40031D81A4B8000C658300007F0F5FBC0B24C
:102BF400011C1F2815D8C9B2002821D00023144D68
:102C0400AA1CF05C0133DCB210800232A142F8D875
:102C1400C0230131C9B249009B001943280029800F
:102C240070BD1F21C9B20028E8D109E0084D074B47
:102C340002221968A81C02F061FFC1218900EDE796
:102C44000449034DEAE70020EAE7C04660B40020E7
:102C540058CC002002030000004870470CB000204C
:102C64007047C0467047C04600207047F0B54646DE
:102C7400D6464F46C0B54B7906000C00FF2B1FD13A
:102C84008B79002B1CD1CB79002B19D18020814664
:102C94004F461E491E4D0B5004300B50A846EB51B5
:102CA4002B50892504307F3F4B550F5441464B55DB
:102CB4000F542379DD00ED1A0935ADB2AA4206D2CC
:102CC40000252800E0BCBA46B146A846F0BDE37A28
:102CD40021009A4652460F4B300009311A7004F015
:102CE4003BF843464A469A5851463A409201424478
:102CF4004023300004F072F82100A27C064B30001F
:102D040010311A7004F028F8DBE7C0466CBA0020D2
:102D1400E0B90020C7180220C6180220F8B5CA0975
:102D24000024012A14D0402B10D880268422214D5F
:102D3400AB59AF580133833A1340BB4219D18923AD
:102D4400EA541D4B0124186806F034FB2000F8BD3A
:102D5400402BFBD884258826184C635901336351D2
:102D6400A35D002B12D0144B0124186806F022FB3B
:102D7400ECE7AB590133AB51AB591A4092014023F4
:102D8400521904F02BF88923EC54ECE767590C4BE7
:102D94003A401B6892019BB2121904F01FF880227A
:102DA4006359A25801339B1A5A425341DBB2A355CB
:102DB400D9E7C046E0B900208C1001206CBA00208D
:102DC40024CD0020F8B55746DE464E464546564BC0
:102DD400E0B59B46554B80269A46554C554F842367
:102DE400E258A3599A425BD08423E558833B2B4095
:102DF4009B01E25C7E2A15D1013291467E3A9046CF
:102E04004A46E254A35901359D4205D1386806F07B
:102E14006BFAA359AB42F9D043462B409B01E25CC9
:102E24007E2AEDD084220125A158434829408901F6
:102E3400443A611802F062FE8422A3580133A3507D
:102E440089239846E35C002B59D13C493A48FEF764
:102E5400B9FE5B46186006F0E3FB534684219A5999
:102E64005B589A4220D053465A4601209B59126817
:102E74001840800112043149120C504402F03EFE05
:102E8400534652469B59514601339351882300229D
:102E9400CA5406F0C1FC8423E258A3599A42A3D130
:102EA400386806F021FA9AE7534698595B4601259B
:102EB4001A682840800112042049120C504402F080
:102EC4001DFE534652469B59594601339351842360
:102ED400D2580B682A401A4992019BB2524409788D
:102EE400002003F07BFF06F097FC8423E358A259EB
:102EF4009A4200D078E7386806F0F6F96FE706F0F2
:102F04008FFBA35900200133A351A2590D4B2A4032
:102F140092011978A218402303F060FF002342466F
:102F2400A35406F079FC90E724CD00206CBA00206D
:102F3400E0B900208C100120DCB800201CB900206E
:102F4400C6180220C71802200123037000487047E6
:102F54001CB10020037801480B7070470100010088
:102F6400F0B5421E002823D0D0200227114B0025A3
:102F74005E6801240023BC4600060FE06746013D5D
:102F84001C4213D0476137008461013FFDD13700F3
:102F94004461013FFDD15B08013A09D3002DEDD115
:102FA4000B780725674601311C42EBD18761EAE7BC
:102FB400F0BDC0465CB900203F23F0B5D6464F466D
:102FC40046461C00C0B50440034200D14024030619
:102FD40000D4A7E0524B92469C46D02301210127FE
:102FE400FF251B0662469F61526810000138FDD11F
:102FF400586816005F61013EFDD14008C0012840B9
:103004008046012C00D129E1100099610138FDD1DD
:10301400586816005961013EFDD146464008C0017A
:10302400760828403043022C00D11CE11600996137
:10303400013EFDD15E685961B0461600013EFDD1E6
:1030440046467608F60140082E403043032C00D152
:103054000DE116009961013EFDD15E685961B046EB
:103064001600013EFDD146467608F60140082E4082
:103074003043042C00D1FEE016009961013EFDD1DD
:103084005E685961B0461600013EFDD14646760899
:10309400F60140082E403043052C00D1EFE0160025
:1030A4009961013EFDD15E685961B0461600013E4A
:1030B400FDD146467608F60140082E403043062CE2
:1030C40000D1E0E016009961013EFDD15E685961CE
:1030D400B0461600013EFDD146467608F60140088A
:1030E4002E403043072C00D1D1E016009961013EF7
:1030F400FDD15E685961013AFDD17208D2012A40BE
:10310400400810435246107001229046083CC244C5
:10311400002C00D066E7E0BCBA46B146A846F0BD34
:103124005CB900200E0001205B4B84465A68D02312
:103134003078022501211B06002800D07EE05D6264
:1031440067469F611700013FFDD167465F61170025
:10315400013FFDD14708012CDDD0002F00D06FE0E6
:103164005D6217009961013FFDD117005961013F6C
:10317400FDD18708022CCED0002F00D062E05D6222
:1031840017009961013FFDD117005961013FFDD13D
:10319400C708032C00D1BEE7002F00D054E05D62C5
:1031A40017009961013FFDD117005961013FFDD11D
:1031B4000709042C00D1AEE7002F00D046E05D6281
:1031C40017009961013FFDD117005961013FFDD1FD
:1031D4004709052C00D19EE7002F39D15D62170005
:1031E4009961013FFDD117005961013FFDD1870964
:1031F400062C00D18FE7002F2ED15D621700996154
:10320400013FFDD117005961013FFDD1C009072CD1
:1032140000D180E700281DD15D621000996101385A
:10322400FDD1100059610138FDD1083C0136002C54
:1032340000D170E73078002800D180E79D627FE7F5
:103244009D628EE79D629BE79D62A9E79D62B7E759
:103254009D62C4E79D62E0E79D62CFE74346D809DB
:103264005346187057E753468009187053E753467E
:10327400400918704FE75346000918704BE753464E
:10328400C008187047E753468008187043E7534650
:10329400400818703FE7C0465CB90020F8B5DE4628
:1032A400454657464E46E0B5484B05005B788B468D
:1032B400002B00D18CE0D023012202201B0698624F
:1032C4009A615A61002D00D057E158629A615A619F
:1032D400D02302222C001B065A62013A9A61A908E3
:1032E4005A61D02302221B065A62013A9A610919D3
:1032F4005A61EC08D02302221B065A62D023012211
:103304001B0609199A615A61002900D153E101325F
:103314009A62D024012302222406A361012063615E
:1033240000216262A3616361A262A3616361A2621C
:10333400002201F0E7FC254B0122187E031E04D075
:10334400013BA2616261002BFAD1D0240122240640
:10335400A26167686261A26163686261A261616877
:103364007F08884646467600B04604260221B146C8
:103374000B409C4646464B461E40330066461E4361
:10338400330062613A4013439846012B00D1E0E1D7
:103394009F1E030001228F432133002F00D156E1E9
:1033A400013BA2616261002BFAD1002201210120BC
:1033B40001F0A8FC0223A3624346DCB22000F0BC67
:1033C400BB46B246A946A046F8BDC0465CB900203B
:1033D400D0220221012012067D4B916290615B682C
:1033E4001C00013CFDD1506118000138FDD1002DB5
:1033F40000D0C0E05162D0210122090618008A6180
:103404000138FDD14A611A00013AFDD102206A084F
:1034140000D1DBE08862D021012009061C0088610C
:10342400013CFDD1486118000138FDD1A8081218EB
:10343400002800D1C7E002208862D02101200906BB
:103444001C008861013CFDD1486118000138FDD1A0
:103454000224AA18E80800D1B3E08C62D021012428
:1034640009061F008C61013FFDD14C611C00013C29
:10347400FDD11218002A00D1A0E002228A62D024D1
:10348400012224061900A2610139FDD119006261EB
:103494000139FDD1022118006162A2610138FDD118
:1034A400180062610138FDD1A1621800A2610138DF
:1034B400FDD16261013BFDD10022A1620120002106
:1034C40001F020FC424B1F7E5B68002F0CD03A00B9
:1034D40001201900A0610139FDD119006061013991
:1034E400FDD1013A002AF4D1D02401222406190086
:1034F400A2610139FDD16068190062610139FDD111
:103504001900A2610139FDD1616862618846190020
:103514000139FDD11900A2610139FDD161681E0094
:103524008C466261013EFDD10226B14646464946BB
:103534000E406146B04604264900314046464008E4
:103544003143024011438846012900D1A7E04A468D
:10355400023991433A000120213200293AD019005E
:10356400A0610139FDD1190060610139FDD1013A31
:10357400002AF4D11AE791623DE798626C089A61D7
:103584005A6100D1A4E698622C199A61A9085A617B
:1035940000D1A6E6986261189A61EC085A6100D1DC
:1035A400A8E69862D02301221B0609199A615A6180
:1035B400002900D0ABE602225A62AAE602224A623D
:1035C4005DE74C624AE70220486236E7486222E738
:1035D4005CB90020A34A527E002A03D04A462A42FC
:1035E40000D0B5E1002F0DD0D020012100061A0033
:1035F4008161013AFDD11A004161013AFDD1013FD7
:10360400002FF4D100220121012001F07BFB954B16
:103614005B7E002B14D002232B4211D1D02109064A
:103624004B62904B01205C68212322008861013A9F
:10363400FDD122004861013AFDD1013B002BF4D1B8
:10364400D02302221B069A624346DCB2B6E6854BBF
:103654005B7E002B02D0294200D071E1002807D004
:10366400D022012312060138936153610028FAD154
:1036740000220121012001F045FB7A4B5B7E002BE7
:10368400DED002232B42DBD1D02201211206536269
:103694001F33013B91615161002BFAD1D0E74A46B7
:1036A4002A4090464A462A4200D0DFE00121002FFA
:1036B4000AD01A00A161013AFDD11A006161013AF0
:1036C400FDD1013F002FF4D100220121012001F09E
:1036D40019FB5B46D02102201A68624B20248446E1
:1036E40001275B6809060EE06046886218008F6156
:1036F4000138FDD118004F610138FDD1013C9044DF
:103704005208002C11D0002AEED1D0220227012029
:1037140012065762190090610139FDD119005061F8
:103724000139FDD1013C002CF3D14246002A00D0DE
:103734001EE1D022022112065162D022012112067A
:10374400180091610138FDD15161013BFDD1012483
:10375400D8E00F002F40294236D10123002804D09D
:103764000138A36163610028FAD1002201210120FC
:1037740001F0C8FA5B46D0211A68022420230120F4
:10378400090607E0013B8C62BF1888615208486152
:10379400002B0BD0002AF5D1D022022001211206E1
:1037A400013B506291615161002BF9D1D023022277
:1037B4001B06002F00D0D9E05A62D02301221B0639
:1037C4009A6101245A6133E0002290460132202399
:1037D4000027012191464A464E46A26162687F084D
:1037E40052080A409044013BD20766611743002BFC
:1037F400F1D14346A1616268616154080C405C40A8
:1038040006230C40013C9C435B460834002B00D04B
:103814001F60002807D0D0220123120601389361CB
:1038240053610028FAD100220121012001F06AFA33
:103834002B0603D50C4B0B4A9B6A9360094B1B7BED
:10384400002B09D0D0220221120651620139013B1A
:1038540091615161002BFAD1D02302221B069A6296
:10386400ACE5C0465CB90020004005400022924609
:10387400904601322020944691464A461900A2619E
:103884000139FDD162466168490811404A466261C6
:103894001A00013AFDD1524688445208C9070A4326
:1038A400013892460028E8D162461900A261013924
:1038B400FDD161686261013BFDD143464C0814406F
:1038C4005C4006231440013C9C435B460834002BB7
:1038D40001D052461A60002F0FD0D0210122274B6D
:1038E4000906586803008A61013BFDD103004A615F
:1038F400013BFDD1013F002FF4D100220121012021
:1039040001F000FA2B0603D51D4B1C4A9B6A9360F9
:103914001A4B1B7B002B00D19EE7D02102220120F1
:1039240009064A62154A55682A008861013AFDD1A0
:103934002A004861013AFDD1013B002BF4D18BE709
:1039440021230122013BA2616261002BFAD185E6A9
:10395400212201201900A0610139FDD11900606103
:103964000139FDD1013A002AF4D13BE69A6224E7F9
:10397400D022022112069162DFE6C0465CB9002023
:1039840000400540024B9C46614489000160704739
:103994004000003410B5040000F00CFD01002000CC
:1039A400FFF7F0FF01235B426360BFF35F8F10BD3D
:1039B40010B5040000F0FEFC01002000FFF7E2FF58
:1039C40001235B42636000232372BFF35F8F10BD4A
:1039D40010B50400012000F0F9FC044B9C4660443F
:1039E40080002060BFF35F8F10BDC04640000034EC
:1039F40083680B4810B5844661446244090112018E
:103A04009A18591854684B6801209C4201D802D076
:103A14000020C0B210BD12680B689A42F9D8F7E7CB
:103A2400FFFFFF0F074810B50268EFF3108172B66D
:103A34001368002BFCD0BFF35F8F04F067FD0020F8
:103A4400002110BDA8170120F8B557464E4645463B
:103A5400DE46E0B599460CAB1C780DAB1B7806002E
:103A640090469A460768002C11D1BC7B002C42D0AA
:103A740065003B682D19033D59194B78BB73002B26
:103A840000D1FB7300238B704B700B7004E0650056
:103A94003B682D19033D5919B2682A4B9446424696
:103AA400E3181B0163441A604A465A600A9A9A60F2
:103AB4000B9ADA6000238B704B700B707B7B9B46F8
:103AC400002B2BD022005946B8687B6898473A6887
:103AD400002816D05B4658465B005B445519033BEF
:103AE400A870D118D35C002B00D06B705B460C70AF
:103AF4007B73A34513D0F0BCBB46B246A946A0468F
:103B0400F8BD5B465B005B44033BD3189C705119C2
:103B1400525D002A00D05A705B460B707C7342469B
:103B24004B46307D00F032FB051E06D05346002B79
:103B340003D12100306801F085F80E9B002BDAD008
:103B44001D70D8E7FFFFFF0FF0B5DE4657464E461F
:103B540045460023E0B58BB00893674B8200D458E8
:103B640000239B46099000F097FA626806000F0054
:103B7400EFF3108572B61368002BFCD0BFF35F8F90
:103B840023689C465B7B9946002B00D169E0A268C0
:103B94005A4B90464B441B01984443461A685B6851
:103BA40010001900801BB941002900DC63E009986A
:103BB40000F0ECFA002300229846002306920793B3
:103BC40000239A466368BFF35F8F5A461A6085F3F1
:103BD40010885346002B08D10028C4D10BB0F0BC88
:103BE400BB46B246A946A046F0BD089B4146180212
:103BF4004B461843D047626806000F00EFF3108568
:103C040072B61368002BFCD0BFF35F8F002F50DB1C
:103C140033003B4302D02369002B61D12368D97B55
:103C2400002907D04A00521819688C464946624454
:103C3400033A51709A7B002A01D14A469A734A4644
:103C4400DA734B46E168013BCA5C0132CA545B46F5
:103C540023616368BFF35F8F5A461A6085F3108847
:103C640081E700230022984600230692079300234D
:103C740000209A46A6E7002902D1002800D096E742
:103C84000021604600F05CFF43461A685B680692B8
:103C9400079343469B689A464346DB689846E36825
:103CA4004B44013B1B7808931B0203432361002010
:103CB40088E72369002BB1D0069A079B921BBB416E
:103CC400002B15DB594604910121039149460291C9
:103CD40041460191514620000091FFF7B5FEB6E739
:103CE40000F0DAF932003B0012184B41002BE9DAFC
:103CF4000122034B5242E5E7EC140120FFFFFF0FC2
:103D0400FFFFFF7F10B5144C6368002B04D00A2119
:103D14001248FFF737FE10BD2300114A1021206816
:103D240000F028FE032000F0ABF9032000F098FA1D
:103D340003200C4900F0E4F900F03CFB0A4B9C46DC
:103D440003232375D0231B061B6860446375074B4C
:103D540080006060DC60DAE77CB40020A8170120F2
:103D6400B13700200939002040000034EC14012050
:103D7400004870477CB40020F0B54E464546DE4608
:103D84005746E0B585B0019310AB1B78060003934A
:103D940000239946984600927268EFF3108B72B62E
:103DA4001368002BFCD0BFF35F8F3568AC7B002C0D
:103DB4003DD067002B683F19033FDB195A78AA737B
:103DC400002A00D1EA73B168474A8C4600980199E9
:103DD400A21812016244106051600E9991600F990B
:103DE400D16042469A705A701A706B7B9A46002BC7
:103DF40067D022001900A8686B6898472A680028D1
:103E040052D0534650465B005344D719033BB87015
:103E1400D118D35C002B00D07B7053460C706B73AD
:103E240054454FD0F3681B19013B187800E000207B
:103E34007368BFF35F8F42461A608BF31088002CBF
:103E44004FD04B46002B08D10002204305B0F0BCF4
:103E5400BB46B246A946A046F0BD039B002B3ED00C
:103E64000E9B00200F999847030004000D000B439C
:103E740035D000290ADA009A019B121BAB4100924B
:103E84000193002B0ADB039B994685E700F004F9B4
:103E940024184D4100940195002DF4DA0123134CAC
:103EA4005B4200930194EEE753465B005344033BAB
:103EB400D3189C70D119D25D002A00D05A70534691
:103EC4000B706C73307D009A019B00F05FF98146A2
:103ED4000028A7D02100306800F0B4FEA2E700203B
:103EE400B4E701204042B1E7FFFFFF0FFFFFFF7F70
:103EF400F0B5EFF30583CE46474680B505000C00C8
:103F040085B0002B12D02C4A0020536A9C4203D85F
:103F1400926A0130AA4204D305B0C0BCB946B04687
:103F2400F0BDE01A421E9041C0B2F5E7234E029361
:103F34000193234B0200009330000B00FFF71CFF9A
:103F4400031EE0DD20BF7168EFF3108772B60A68C4
:103F5400002AFCD0BFF35F8FDAB294463068427B0C
:103F640062451DD0FF221A405100894601689144E0
:103F740088464946414403398978002913D0F168B9
:103F84001B0A88464244013A1278DBB29A420FD0A7
:103F94007368BFF35F8F00221A6087F31088B2E75B
:103FA400FF221A40EBE732699342F1D13161EFE726
:103FB400614600F047FEEBE7004005407CB400207A
:103FC400E5370020F0B5EFF30582D6464F46464666
:103FD4001000C0B51038EFF3108872B6214C236876
:103FE400002BFCD0BFF35F8F0123190081401E4DCD
:103FF4001F006963AA461D4D29601D4D2E78AC46ED
:104004003500C5402F402B4209D1BFF35F8F276095
:1040140088F31088E0BCBA46B146A846F0BD5346C2
:10402400144D5F6A83005D59AF420ED3124A8E432A
:104034009B5862461670BFF35F8F0022226088F39C
:104044001088002BE6D09847E4E70C4B92009C467E
:10405400624413681360BFF35F8F0023236088F307
:104064001088D7E7280100D0004005403C70054087
:10407400CC180220AC170120480F0120D03F054086
:1040840010B50100024A034800F016F910BDC046FD
:1040940034B10020CA180220034B596A0A00986AF6
:1040A400596A8A42FAD170470040054070B504004D
:1040B4000D00124A536A1900966A536A8B42FAD168
:1040C4003000190024184D41AB4211D80ED02B00FA
:1040D4000A494A6A9A42FCD307D1084A02E0516A63
:1040E400994202D1916AA142F9D370BDA642EED998
:1040F400012301246442E5175B42E9E700400540DF
:1041040070B504000D00EFF3108672B61A4A1368F6
:10411400002BFCD0BFF35F8F002D1BD0200000F0DC
:1041240077F9164981420AD0200000F079F901217B
:10413400200000F05BF90123A340114A1360114BE6
:10414400A400E550BFF35F8F00220B4B1A6086F387
:10415400108870BD0B4BA200D5500122A2400A4921
:1041640020000B7893430B70044900F077FA002188
:10417400200000F03BF9E5E7280100D0853D002050
:1041840038600540480F0120CC180220F0B54F4696
:10419400D6464646C0B507002C4C616A0D00A66A97
:1041A400616AA942FAD18B4208D805D00120E0BC4B
:1041B400BA46B146A846F0BDB242F7D9EFF3108A29
:1041C40072B6234801680029FCD0BFF35F8F012534
:1041D400BD4020491D4C8846097889462943C9B207
:1041E4008C46414660460870391D1B48890065634A
:1041F4000A51B9000B50216A0020294219D0616A82
:104204000800A66A616A8142FAD18B4219D801D1A9
:10421400B24216D8CC4516D00C4B1F201D625D63EC
:1042240001230740BB400D4A1E38136043464A46EB
:104234001A70BFF35F8F0022054B1A608AF310884F
:10424400B5E70020F5E70120F3E7C046004005404C
:10425400280100D0CC180220AC17012080E200E035
:10426400EFF3108C72B60A490B68002BFCD0BFF335
:104274005F8F01238340074A0748136202789A43F9
:104284000270BFF35F8F00230B608CF310887047BC
:10429400280100D000400540CC180220024B1868C9
:1042A4008007C00F7047C04600C006408023DB056E
:1042B4001868000F7047C04670B5EFF3108C72B6E3
:1042C4000D4D2B68002BFCD0BFF35F8F0724CB0868
:1042D400C618C05C01230C40A3401C0004400342E8
:1042E40007D103433370BFF35F8F2C608CF31088C6
:1042F40070BD100001F07CF82C0100D0F8B54746E1
:10430400CE46884680B5EFF3108C72B6214D2C68EA
:10431400002CFCD0BFF35F8F9A422CD8D408072717
:10432400055D061901241740BC402C421FD007210B
:104334000127894609E0D408055D06194C46390071
:104344001440A1400C00294211D001329342F2D210
:1043540001204042BFF35F8F00220E4B1A608CF3A2
:10436400108800280FDBC0BCB946B046F8BD2C430A
:1043740010003470EEE7BFF35F8F00232B608CF3E3
:104384001088012040424346002BECD0089801F0ED
:104394002FF8C0462C0100D00021044B044ABFF37F
:1043A4005F8F02C39342FAD17047C046000100D028
:1043B400800100D0044A1078431CDBB2172B00D9CB
:1043C400102313707047C046A4B4002000B5054BF9
:1043D40083B00100009318221F230348FFF78EFFC8
:1043E40003B000BD58B100206010012001238340B8
:1043F400002904D0034A1360034A13607047034A38
:104404001360FBE780E200E000E100E080E100E00F
:10441400024B10309B688000C058704700ED00E0EC
:1044240070B50D00EFF3108672B60F4A1368002BB7
:10443400FCD0BFF35F8F0D4B10309B6884001B5979
:104444000B4A934203D09D4201D000F0EFFF074B8B
:104454009B681D51BFF35F8FBFF35F8F0022024B38
:104464001A6086F3108870BD240100D000ED00E0CE
:10447400CD010010F0B557464E46DE464546E0B540
:1044840085B0060002911700EFF3108B72B6674AED
:104494001368002BFCD0BFF35F8F0025644B5D577E
:1044A4009A46002D00DAA4E06B00624C03935B197A
:1044B4009B009846A146C1444B4652469B79103610
:1044C40013705D4BB2009B68019299580B1B2F2B04
:1044D40034D95A4B994200D0A4E0039B584A9C46D5
:1044E400584B6544AD006353434602336519E418E1
:1044F400554B0121043B1B1B1B055B0D13436B80B8
:10450400524BEF71AB80FF23AB71029BAB604B4608
:104514000B431900484B019A9B689950BFF35F8F76
:10452400BFF35F8F0022414B1A608BF3108805B0F4
:10453400F0BCBB46B246A946A046F0BD01200A0025
:104544008243D379BB422FD845464E461300404997
:104554001B1B5B415943090D3A4B63533A4B0235DC
:104564006519043B5B1B1B05354D5B0D2B437380A9
:104574000426B446E0444444131F1B1B4C46A1715B
:1045840002991B05A16049465B0D2B43A380314B67
:10459400E77101431360BDE75800C018800020187C
:1045A400C679BE422BD902000623D356002BF3DA78
:1045B400101D82462848804604267642B446E144CB
:1045C40050464E46361A3005400D824656461C4823
:1045D400957106439680039A944665441D4AAD003E
:1045E400641922604246A371029BA280E771A36012
:1045F40090E700F01BFF002553465D5754E7101D5C
:10460400824690884005001584464046D444664658
:1046140004302018301AE0260005400D36023043DD
:104624008046C9E700F002FF57E7C046240100D0E6
:10463400CB180220A8B4002000ED00E0CD0100104A
:1046440000E0FFFF00A1FFFFD8B4002001BDFFFF81
:10465400AAAA00000148804701BD0000F0B5DE466B
:1046640057464E464546E0B50C0083B0EFF310893B
:1046740072B6584A1368002BFCD0BFF35F8F564BB9
:104684009A68030010339F00D559544A90469542C6
:1046940032D0A54243D0524EAA1B2F2A2CD8012235
:1046A4008240924651464F4A126811400191514648
:1046B4004D4A1160BFF35F8FEFF305829346002AE2
:1046C40033D101232A009A4393689C4208D177E0AE
:1046D4004B005B189B00F3189968A1422AD01A007A
:1046E400062151560029F3DA019B002B19D05246BA
:1046F4003E4B1A603B4B1A60374B9B68DD51BFF34E
:104704005F8FBFF35F8F0022324B1A6089F31088EA
:1047140003B0F0BCBB46B246A946A046F0BD1500A6
:10472400EAE75246304B1A60E6E79342C9D000F0FC
:104734007DFEC6E706215956002921DB4A005018A0
:10474400800034188046A0689860E079D87106200B
:1047540020569871002824DBA488F01A64052415D7
:1047640044440019E0240005400D240220439880AD
:1047740052181F4B9200B6181A781970B271B3E729
:10478400594600290FD1FF3191711A499180184976
:104794000A789A71184A9B1B5B415A43120D0A709E
:1047A400A2E71648E3E7164A1649D21A083A500215
:1047B400400D01439980144952080A43DA8093E773
:1047C4000621515613000029B8DA5A46002AEAD1C4
:1047D4004546DCE7240100D000ED00E0CD010010E7
:1047E400A8B4002000E100E080E100E080E200E005
:1047F400CB18022001BDFFFFAAAA000001BD0000E2
:10480400E2B4002000F0FFFF00F8FFFF032310B51F
:104814000400074A18409446C0009C43FC3383407C
:104824006444226881409A4313000B43236010BD03
:1048340000E400E070B5EFF3058101240443EFF3D5
:10484400108C72B6214A1368002BFCD0BFF35F8F23
:104854001F4B05001F4AED1A6D416A43120D1E4D90
:104864008900AE6852B27658A6421CD00621595629
:1048740091421CD012215956914222D01E215956E0
:10488400914220D02A2159560324914210D0134B2F
:1048940019781A708171BFF35F8F00220B4B1A6075
:1048A4008CF3108870BDAB680D4C5C50EFE70024AE
:1048B4006100091989005B18FF21997109499980E0
:1048C400E5E70124F4E70224F2E7C046240100D01E
:1048D400A8B40020AAAA000000ED00E0CB18022032
:1048E400CD01001001BDFFFF054B064A1360064AC7
:1048F400136053609360D360136153619361704795
:104904008080808000E400E004E400E070B50500ED
:1049140014001600002915D00C00002A12D080685B
:104924006B689847296800280ED073009B196200B1
:10493400033B1219CB18033A9C7088188A5C002A2E
:1049440015D10670200070BD63001B197200033B73
:104954009219CB18033A9E7088188A5C002A02D1F7
:1049640004703400EEE75A7004703400EAE75A70B9
:104974000670E7E730B583600023CCB2437301339C
:10498400047342608373C4730D000068012C06D95C
:10499400421C0133DBB2137003329C42F9D1FF2174
:1049A40029404B005918002340180338437030BD88
:1049B400F8B5CE46474606000C0080B5002907D05E
:1049C4004D0003686D18033D5A195778002F04D120
:1049D4002000C0BCB946B046F8BD7900C9190339F6
:1049E4008846434459788946002159705170736848
:1049F4003A002100806898473368002814D0424662
:104A04009A18947059195B5D002B00D053700F7085
:104A1400270049463000FFF7CBFF39000200300081
:104A2400FFF774FF0400D3E7424641465D19AF70B7
:104A34009A185B5C002B00D06B701470E9E7C046D9
:104A4400F0B557464546DE464E46E0B50D006B00D0
:104A540001685B19DF1E0400C85D83B00192CA19A6
:104A6400002850D043001B18033BCB185E78B44693
:104A7400002E1AD1019E002E42D0E67B002E04D0D7
:104A840073009B19CB18033B5D70A37B002B00D1F3
:104A9400A573E57300282FD10023537003B0F0BC35
:104AA400BB46B246A946A046F0BD72006244033A32
:104AB40089184A78904600224A7091465A7001003B
:104AC40032002000FFF722FF43468246002B07D026
:104AD4005B0021684344033BCB185A78002A16D163
:104AE400424651462000FFF711FF2168019BCA1975
:104AF400002BC2D10028CFD043001B18033BCB1896
:104B040000219970C8E7019B002BB6D1C4E750007F
:104B14008018033809184878834648464870587006
:104B240041462000FFF7F2FE594680462000FFF779
:104B34003FFF414602002000FFF7E8FE8046CFE732
:104B4400F0B557464546DE464E46E0B583B0019182
:104B5400457B04006B0000685B19DF1EC15DC21950
:104B6400002952D04B005B18033BC3185E78B4464F
:104B7400002E1CD1019E002E44D0E67B002E04D0D2
:104B840073009B19C318033B5D70A37B002B00D1FA
:104B9400A573E573002931D1002328005370617394
:104BA40003B0F0BCBB46B246A946A046F0BD7200B5
:104BB4006244033A8018427890460022427091463B
:104BC4005A7020003200FFF7A1FE43468246002BB4
:104BD40007D05B0021684344033BCB185A78002A72
:104BE40017D1424651462000FFF790FE019B010079
:104BF4002068C219002BC0D10029CDD04B005B180E
:104C0400033BC31800209870C6E7019B002BB4D166
:104C1400C2E750008018033809184878834648468C
:104C24004870587041462000FFF770FE5946804690
:104C34002000FFF7BDFE414602002000FFF766FE9C
:104C44008046CEE770B5040000292CD0437B8B420C
:104C54002ED0056848004018033828188278002AA6
:104C640021D053009B18033BEA5CEE188A4202D120
:104C74001BE0002A08D053009B18033BEB185A781A
:104C84008A42F6D142785A7000230122837043701D
:104C94002000FFF7D5FE617B02002000FFF736FEFF
:104CA4006073012000E0002070BD43783370EBE7AF
:104CB40001221900FFF7C4FE60730120F4E7C04627
:104CC400094A830094464022634410B51C68C0001E
:104CD4006240C02414408022520113431C60034BE1
:104CE4009C466044416010BD04C001400040014046
:104CF400034BC0009C46604443681F201840704723
:104D0400004001400A4B80009C4604236044002973
:104D140001D00C230821002A00D10B000268534063
:104D24000C221A4080235B01184302607047C0467E
:104D340004C00140074BC0009C466044036809045A
:104D44005940C0239B02194080235B011843016032
:104D54007047C04604400140074BC0009C46604475
:104D6400036809035940C0239B01194080235B0158
:104D7400184301607047C046044001400123D0221B
:104D84008340120693629361094A83009446402249
:104D940063441968C0004A40C02111408022520176
:104DA40013431960034B9C460523604443607047DA
:104DB40004C0014000400140F8B5CE464746040017
:104DC40080B506200E0000F023FA051E51D0524B88
:104DD4005249E21853425A418023DB039C46920510
:104DE4004F4B62441A604F4B1A6010008B68984313
:104DF400FBD1494B8021E3185A4253414A4A5B0094
:104E040049009952062000F003FA3100C00000F076
:104E14006DFBC30932D14022012190466162A36235
:104E2400256BEB0736D427008026E36A00232C3752
:104E340076013E4333600620256300F0E9F94146DC
:104E4400800000F053FB236B05009846DB073BD43E
:104E54006022E36A5A406E2313403360434623635F
:104E6400802310229B013B431A60304B23630323AE
:104E7400A3642800C0BCB946B046F8BD2C4A93428E
:104E84003FD900232B492C4A6162A362256B9046CB
:104E9400EB07C8D52200C02330329B011343234AB9
:104EA40006201A60666AA26AB601B61800F0B0F964
:104EB400224900F01BFBB6020100300000F016FB93
:104EC4000021FFF7F3F8AEE72200C02330329B0144
:104ED4001343164A06201A60636AA26A9B01994624
:104EE400914400F095F94B4614499B02994600F011
:104EF400FDFA0100484600F0F9FA0021FFF7D6F860
:104F0400A6E77F2299018846104001304008190025
:104F14008044030082E7C0460080FCBF00C000401C
:104F240000E0004000F00040C81701200103000029
:104F3400FEFF0000FFFF0000C0FF3F004E0E000018
:104F440030B50C2083B000F0B9F9FFF7A7F90028B9
:104F54000ED0994B994A1A605A609A60DA601A61C5
:104F64005A619A61DA611A62954A5A6203B030BD95
:104F7400944CA06700F0AAF90122934B1A60636C69
:104F8400012BFCD10322914B1A608E4A936B012BA7
:104F9400FCD1013301218E4A8E480093043300F082
:104FA4003DF905238C4A009301218C4800F036F921
:104FB4008B4B5A68FF2A02D8802252005A60802202
:104FC4007D4C824B21691201854D1A60002907D05E
:104FD400606900F08BFA431C5800C0180338FDD2F6
:104FE400E0217F4B02201A681140802252012A439B
:104FF40011601968484003210140116004219A6836
:105004001142FCD08022802192012A4309011160BF
:10501400802252005A60734B2361734B5968FF29F5
:1050240000D85A600321684A6F4B116002399A68AC
:105034001142FCD0E0201A681040802252011A4329
:10504400106018684840032101400220116066493D
:105054008A681042FCD080229201134380221201FC
:105064001A608022614B52004A606361604B596848
:10507400FF2900D85A6080225E4BE16912015C4D21
:105084001A60002907D0606900F030FA431C580008
:10509400C0180338FDD2E02255490B681A4080231A
:1050A4005B012B431A60802380229B012B43120156
:1050B4001A608022414B52004A60E3614E4B5968AA
:1050C400FF2900D85A6080224C4B216A12014A4DB4
:1050D4001A60002907D0606900F008FA431C5800E0
:1050E400C0180338FDD2E02243490B681A408023DC
:1050F4005B012B431A60802380229B012B43120106
:105104001A60802380225B004B602C4BD202236206
:105114003B4B5968914200D25A608022394B616AF4
:105124001201374D1A60002907D0606900F0DEF9DA
:10513400431C5800C0180338FDD2E02230490B68E4
:105144001A4080235B012B431A60802380229B0139
:105154002B4312011A608023DB024B60184B6362FD
:10516400294B5A68FF2A02D8802252005A608022B2
:10517400264BA1691201244D1A60002907D06069E9
:1051840000F0B4F9431C5800C0180338FDD2E022E3
:105194001D490B681A4080235B012B431A6080234E
:1051A40080229B012B4312011A6080235B004B6019
:1051B4000E4BA361DAE6C04664100120006CDC02E9
:1051C4001BB70000008000403CB0004030B00040FD
:1051D400002F685900800240008C864700C00240BE
:1051E40030800040001BB7003C80004040597307EA
:1051F4005480004054B000406080004060B00040E3
:105204006C8000406CB000404880004048B00040D2
:10521400014B8000C058704764100120F8B50400A9
:1052240021481D0017000E0000F060F9010038004D
:1052340000F05CF9069B29041B0319432368002B27
:1052440020DB1A4B1A4DE21853425A4180235B016A
:105254009C461203174B62441A60174B1A601700DE
:10526400AB689F43FBD1C022231D92011A43212323
:105274002660A06013602368002BFCDA0823E16039
:105284001360F8BD3F2322681340B342D9D1A36809
:105294001B051B0D8342D4D1EE22E368D2021340D6
:1052A4008B42CED1EDE7C046001BB7000040FDBFE6
:1052B40000C0004000E0004000F000408023024AAB
:1052C4009B000343D362704700800540AA23064A2B
:1052D4001B0113602F230549D360054B19605368E4
:1052E400002BFCDA7047C0460040024000B0FA00D0
:1052F400006002402C4B2D4A70B51A602C4A2D4B8D
:105304002D491A6014008B689C43FBD12B4D2C4E05
:10531400B54208D2013E761BB60808CD9847230053
:105324000134B342F9D1FFF70BFE264A214B1A6030
:10533400214A9368DB43DB01DD09002BF9D14022CC
:10534400214B224C224E9A675A671A67DA66B44296
:1053540008D223682000002B20D00C34FEF728FB51
:10536400B442F6D31B4E1C4CC022A168300000F09E
:10537400C5FBA660FFF710F8FFF7B6FAFEF7C2FC0C
:10538400164C174EB44208D2013E361BB60808CC60
:1053940098472B0001359E42F9D170BD0834FEF7C1
:1053A400F9FAB442D5D3DDE700E00040BFCDFBFEFF
:1053B400FE7F3C0000F0004000C0004064B50020C7
:1053C40074B50020FFFFFF0100F0014054B5002038
:1053D40064B500200000002000ED00E074B500205A
:1053E40080B5002000BEFDE710B5FFF7FBFFC04607
:1053F4000FB400B5084883B000F0B2FC049B002B46
:1054040007D005A91800019100F01EF8034800F028
:10541400A7FC0120FFF7E6FF74B100207CAF002059
:1054240010B50148FFF7E4FF84B1002010B501482E
:10543400FFF7DEFF94B1002010B5002800D110BDA5
:1054440000F042FCFBE7C04610B5094A03001468AB
:1054540084B0002C08D0012200910648524203A9CE
:10546400A047012004B010BD00F07AFC0020F9E749
:10547400E0140120F951002001480421014B184790
:10548400F0B4002069520020142310B501001888DC
:1054940004331B88984710BD162310B501001888E3
:1054A40002331B88984710BDF8B54746CE4680B5F1
:1054B4000F1E19D014239946043304000025012635
:1054C40098464B461888434621681B88984701C470
:1054D400431E9841013540420640AF42F1D13000AD
:1054E400C0BCB946B046F8BD0126F8E7114A936F2F
:1054F4009B0813D210665166002905D0FFE7FFE729
:10550400FFE7516F106F704704B5002801D00020E9
:10551400C04304F05FFF002104BDC046F0B5146E23
:10552400556E576F166FFFF7E5FF1466556657679C
:105534001667F0BD000000D094464A4A926F920864
:10554400624601D228E0C046F0B5464E346E756E10
:10555400776F366F00F020F89446424A1466556619
:10556400576716676246F0BD94463E4A926F9208AA
:10557400624601D254E0C046F0B53A4E346E756EC0
:10558400776F366F00F04CF89446364A14665566C9
:10559400576716676246F0BD002B24DB11D0002943
:1055A4003EDA00B5C943404200D1013100F038F879
:1055B400C943404200D10131DB43524200D101339F
:1055C40000BD002AEBD1002801D1002905D000201C
:1055D400C90FC90701D1C043410800B504F0FAFE60
:1055E4000022002300BD00B500290ADBDB43524240
:1055F40000D1013300F014F8C943404200D1013115
:1056040000BDC943404200D10131DB43524200D1C5
:10561400013300F005F8DB43524200D1013300BDF1
:10562400002923D1002B18D1002A0CD0BC460D4FE1
:1056340038667A6600210023FFE7FFE7FFE77A6F09
:10564400386F67467047002801D00748010000B54D
:1056540004F0C0FE0022002300BD02000B00002065
:1056640000217047000000D0FFFFFFFF002B00D097
:10567400BFE0130C28D1002AE7D080B4114F39665B
:105684007A66FFE7FFE730B4040C7B6F396F1B04C5
:1056940023433B667A66FFE7FFE7FFE7C04684B231
:1056A4007B6F3D6F1B0423433B667A66FFE7FFE78E
:1056B400C04600232C042D0C7A6F386F0019694101
:1056C400B0BC7047000000D0F0B594460025140E1D
:1056D40001D112020835140F01D112010435940FBF
:1056E40001D192000235D40F01D152000135D40BFF
:1056F4000134254F7C66254C3C660E0C93B2FFE7C3
:10570400FFE7FFE73C6F6643360C7703BE467343FF
:10571400DF0B5B04C01AB941130C7343DB18C91ABD
:10572400CE086643360CB64493B273431F0F1B0175
:10573400C01AB941130C73431F0B1B05C01AB9419E
:10574400860D8F023E436643360C092D24DB520A34
:105754007243801A7703460A6643360C16235B1B92
:10576400DE40DF40BF1964466643821B7046043541
:1057740006330100D940A840C01900D30131A24228
:1057840006D20023F0BD0000000000D0FFFFFFFFA1
:10579400121B0130F3D3F1E709277F1BFE40644657
:1057A400A2B27243801A00D20139220C7243130C44
:1057B4001204821A99410B00704604351337010014
:1057C400F940A840801900D30131002B02D1A24234
:1057D4000AD2F0BD013000D30131121BFAD2013BD1
:1057E400F8D1A24200D2F0BD013000D30131121B26
:1057F400F7E7F0B51C0C00D080E00CB400251C0ABF
:1058040004D11B02160E3343120208351C0B04D1BB
:105814001B01160F3343120104359C0B04D19B006A
:10582400960F334392000235DC0B02D192185B4190
:1058340001351C00971864410134464F7C66464C80
:105844003C660E0CFFE7FFE7FFE7C0463C6F66438C
:10585400360C7703BE4697B27743C01B00D201399A
:10586400C01B00D201399FB27743C91BC91B170C57
:1058740077437E04FF0B801BB941CE086643360C88
:105884000C2D33DBB644120B1F053A431B0B97B2A6
:105894007743C01B00D201399FB27743C91B170C51
:1058A40077433E043F0C801BB941860D8F023E4373
:1058B400664329277F1BFE400C3D7746AF40BF1946
:1058C40030BCA2B2ABB272437343801A9941220C2A
:1058D4007243130C1204801A994102000B00013721
:1058E400001BA941F9D2781E0021F0BD0C277F1BB3
:1058F400FE4077467F0BAF40FF19E0E700245D1CB4
:1059040007D0144F7D663966FFE7FFE7FFE7FFE73F
:105914003C6F95B29EB265436643401BB141150C82
:105924001E0C6543664336042F0C3E432D04401B76
:10593400B141994204D202000B0020000021F0BDC5
:1059440001D19042F7D3801A994101349942F2D39C
:10595400F6E70000000000D0FFFFFFFF132370B53F
:105964001D78012D15D010DD1C48FFF795FD1C4C4A
:1059740001008022200000F0C1F8022D06D0194851
:10598400FFF782FD184B186070BD154C174BA364CC
:10599400F5E7164B124C23606360A360E360236158
:1059A4006361A361E36123626362A362E3622363CD
:1059B4006363A363E36323646364A364E3642365AD
:1059C4006365A365E36523666366A366E36623678D
:1059D4006367A367E367A364D1E7C0465344000049
:1059E40080B600204C330000A4170120B1570020DA
:1059F40007B5604601880A0A0230DF2AFAD1C9B223
:105A0400820804D3028840880004104300E0006840
:105A1400014A5050039007BD80B6002051434343D0
:105A2400C9188C46110C83B24B4310B4040C614367
:105A340092B280B2504362431C041B0C001910BC88
:105A440059411304120CC0185141614470470000BD
:105A5400132310B512481C78FFF71EFD0100012C1A
:105A64000AD003DD80220F4800F048F80E48FFF703
:105A74000BFD0E4B186010BD0A4C5422200000F0A0
:105A84003DF80B4B6365A365E36523666366A36614
:105A9400E36623676367A367E3672362E361E5E77C
:105AA4005346000080B700204C330000A4170120A7
:105AB4007558002007B5604601880A0A0230DF2ABB
:105AC400FAD1C9B2820804D3028840880004104382
