:020000041000EA
:1000000000B5324B212058609868022188439860DF
:10001000D860186158612E4B002199600221596106
:100020000121F02299502B49196001219960352056
:1000300000F044F80222904214D00621196600F024
:1000400034F8196E01211966002018661A6600F04E
:100050002CF8196E196E196E052000F02FF8012189
:100060000842F9D1002199601B49196000215960AB
:100070001A491B48016001219960EB211966A021F2
:10008000196600F012F800219960164914480160C1
:100090000121996001BC002800D000471248134993
:1000A000086003C880F30888084703B5996A0420EC
:1000B0000142FBD001200142F8D103BD02B5186610
:1000C0001866FFF7F2FF186E186E02BD00000240BE
:1000D000000000180000070000035F00212200005C
:1000E000F4000018222000A00001001008ED00E03C
:1000F00000000000000000000000000074B24E7A12
:1001000000200420F7010010C3010010C5010010F9
:10011000C1010010C1010010C1010010C101001097
:10012000C1010010C1010010C1010010C701001081
:10013000C1010010C1010010C9010010CB01001065
:10014000CD010010CD010010CD010010CD01001037
:10015000CD010010CD010010CD010010CD01001027
:10016000CD010010CD010010CD010010CD01001017
:10017000CD010010CD010010CD010010CD01001007
:10018000CD010010CD010010CD010010CD010010F7
:10019000CD010010CD010010CD010010CD010010E7
:1001A000CD010010CD010010CD010010CD010010D7
:1001B000CD010010CD010010CD010010CD010010C7
:1001C00000BE00BE00BE00BE00BE00BEEFF3058054
:1001D000103800BEF2EB8871D80200100403001042
:1001E0003402001090A31AE700202249086006C8D4
:1001F00081F30888104720480068002835D10DA4F5
:100200000ECC002902D000F012F8F9E71B491C4A75
:10021000002000E001C19142FCD11A4988471A49E7
:1002200088471A49884700BEFDE701C901C29A42C2
:10023000FBD3704704030010C0000020608600203C
:10024000A488001060860020F0990020349C0010E3
:100250000000042000000420349C00100010042042
:1002600000100420000000007047094800F014F856
:100270000047000008ED00E0000000D0F0990020E9
:1002800044FD0120A53400203516002099350020BA
:10029000575600000000000001B40248844601BC2B
:1002A000604700BF3936002006005250ABB36053A0
:1002B0002096002006005250861C03023096002033
:1002C000060052505422A29D3C9600200500525038
:0802D000DE65F468349C0010A7
:1002D800CC020010C0020010B402001048960020A2
:1002E800A80200105496002060960020189800205C
:0C02F800249800209C960020A89600206E
:10030400F8B5C0460448054B10B5834203D0044BEE
:10031400002B00D0984710BDF0990020F0990020E0
:100324000000000006480749091A8B10C90FC918B4
:1003340010B5491003D0044B002B00D0984710BDD2
:10034400F0990020F09900200000000010B5074C3F
:100354002378002B09D1FFF7D5FF054B002B02D0E2
:10036400044800E000BF0123237010BD309D00202D
:100374000000000060860020054B10B5002B03D060
:100384000449054800E000BFFFF7CCFF10BDC0469C
:1003940000000000349D002060860020024B58437A
:1003A4000138FDD17047C046C3A20000F0B54546F0
:1003B400DE4657464E46E0B5037804001A00803AFC
:1003C400D2B20D008FB01F2A08D94A1C01920B70BB
:1003D4001D2B12D8C5499A008A58974601F0B4FCDF
:1003E400040020000FB0F0BCBB46B246A946A046AC
:1003F400F0BDFF236B70BE4CF3E7FF23BD4C2B70A5
:10040400EFE70023BC4CAB706B70EAE72A238178DA
:10041400427809020A435343013BFDD10023B74C00
:100424006B70DEE7B64B1A78022A01D100F0E1FCCA
:10043400FF23B44C6B70D4E7B14B98461B789A46B3
:10044400022B00D12EE2002303206B70AB70EB7003
:1004540023799B0700D4FCE18024A64BE4029C464C
:1004640004436444BDE7431C0A93A54B98461B7898
:100474000B93022B00D19AE28278C31C002A00D18C
:10048400D2E10220102406E00C4207D10133013AE4
:10049400002A00D1C8E119780842F5D10533F6E7FE
:1004A4004378974A974C1373C37881781B020B43A4
:1004B4001382437901791B020B43538200236B702F
:1004C4008FE701228E4B904C1A7000236B7088E7E3
:1004D4004278013A012A00D8B2E101236B708AE71D
:1004E400874A437890461376002B62D08178404641
:1004F400917600224284012B01D100F011FDE278B3
:100504008184C2765218022B25D046462079F28483
:1005140030771218032B1ED0607932857077121849
:10052400042B18D0A0797285B0771218052B12D03D
:10053400E079B285F0771218062B0CD047462026B6
:10054400207AFA85B8551218072B04D0607A212432
:100554003A8638551218521A41464A86C97E521AAA
:1005640041468A86022B24D04146097F521A4146CD
:10057400CA86032B1DD0497F521A41460A87042B91
:1005840017D0897F521A41464A87052B11D0C97F5B
:10059400521A41468A87062B0BD040462021415CE3
:1005A400521AC287072B04D02121415C521A4021E0
:1005B400425201331C0401231C434E4B00229C462F
:1005C4006A7064440DE7AB1C9B4600236B7047784C
:1005D400831C002F00D10EE70122012401923E3238
:1005E4009146A04617E00736F608731C9A46280081
:1005F4005A4621006DB200F021FFD044A319002D0A
:1006040005DA019AB3449446B44462460192013F28
:10061400002F00D100E11D784E465C1C4B462E4055
:100624002B42E0D1092308269A46E0E782784178F4
:10063400C37812020A4301791B041A4309061143C1
:1006440000D111E1314B994200D811E101222C4B28
:100654005A705A6000232E4C6B70C2E60179C3783D
:100664004279090219438379120411431B060B438F
:1006740037D0202604248278417802201640B346DD
:1006840056B20296234E144010400194B34200D94E
:1006940033004C08A4468C08A1461F4E4C09A246C0
:1006A400CC09A046B76AD40700D5F3E04146002937
:1006B40001D000F038FC6146002901D100F06AFC49
:1006C4004946002901D000F0EDFC59465446002863
:1006D40001D000F006FC002903D0002C01D000F06A
:1006E40000FC00230D4C6B707BE6C0463093002069
:1006F40002000200010001000300010002000300E7
:10070400CC9D002002000600020001009FACB9034A
:1007140002000500C0C62D0000400540020007008D
:10072400C14B1A78022A00D063E642785A761B7EBF
:10073400934200D85DE60E2000F08AFF00F0DAFE56
:1007440000236B70030AA870EB70030C000EB74C07
:100754002B71687145E6811C4078002875D001230F
:10076400C41DE408013424041C43B14B9C46644476
:1007740001F0F0FA00236B7033E64378012B00D8C4
:100784004CE6FF23AB4C6B702BE64278F12A00D188
:100794005BE32BD8042A00D14DE3F02A01D000F00A
:1007A40023FD3223AB70313BA34C6B7019E6FF235E
:1007B4006B704178831C4A1E002900D11BE601247A
:1007C4003F2504E0013473180C19013A1DD32800A5
:1007D4005E1C1B78082118401D4201D00730C10857
:1007E4005BB2002BEEDA33000134EEE7FE2A00D1CF
:1007F40038E3FF2A01D000F0F7FC4023AB7000235C
:10080400EB7002338D4C6B70EBE5894B01209C46F9
:10081400240404436444E4E54446019B24041C4347
:10082400834B9C466444DCE500226A70AA700A9AF1
:100834009C1A022324041C437D4B9C466444D0E54B
:100844000221794A6B701170D5E580207C4C400000
:100854008EE7774BA1789C46E47824020C4301345C
:10086400A40404436444BCE5FF23764C6B70B8E5F0
:100874006D4B9846002342465370734BC81803F0DF
:100884002DF8012803D00321013003F027F8434653
:100894005860DFE6002900D123E7B26AD21B9342F5
:1008A400FBD81EE72B1D03939946684B9B460023F8
:1008B4005A461370424643785376127E9A4200D8C1
:1008C400EAE2C37882781B021343049300D1E3E283
:1008D400012307793B400A331800069300F0B8FE61
:1008E40053463B4200D077E3631D002241469846BD
:1008F4005B4602920DAAA146AB4614001D00059169
:100904004246434651781B7809021943434692787C
:10091400DB78120411431B060B430D9304239C46FE
:10092400059BE0441E8A07E0002E00D17CE22B7870
:10093400013E002B00D077E22100380000F0F8FEE1
:100944000228F1D0012801D000F02CFC029B0133D5
:100954000293049B013B0493002BD1D1059B4C468D
:1009640098462B005D469B46069B0A2B02D00A2024
:1009740000F06EFE43465F461E8A05E0002E09D055
:100984003B78013E002B05D100210E2000F0D0FE63
:100994000228F3D08246029BDAB21B0ADBB2AB70A8
:1009A40053466A70EB70019A039B981A50E5EB1C4E
:1009B4000993264B9B4600235A46137042464378BC
:1009C4005376127E9A4200D8F8E2C31C9A46837882
:1009D4000593002B00D1DCE300239946049307938D
:1009E400534603934B465E46AB460293039B5A1C05
:1009F4001C78012392460892022223400A3306936C
:100A0400224200D19DE0029A002A00D1B7E042467A
:100A1400128A9146079A934200D0E4E0E30600D597
:100A2400E1E04D460DAF1BE0CC9D00200600020026
:100A340001000100020003000300020004000200A0
:100A440002002200020005009FACB90338FD01201A
:100A5400002D00D14DE23378013D002B00D048E257
:100A64003900200000F064FE0228F1D00300012BBD
:100A740000D03FE20D9B09991A0A0B704A701A0CB8
:100A84001B0ECB70029B8A700A1D002B76D063B2BA
:100A9400002B00DA15E10992E30600D520E1534664
:100AA4000393049B013304933378002B00D08BE22F
:100AB400059B013B0593002B98D1039B5D469A4609
:100AC400029BB3469946079B0A2B02D00A2000F0EA
:100AD400BFFD4B46002B00D122E343461C8A0DABDD
:100AE4001E005F4607E0002C00D12EE33B78013C5A
:100AF400002B00D029E331000E2000F019FE02285B
:100B0400F1D0012800D048E30D9B09991A0A0B7013
:100B14004A701A0C1B0ECB706B468A701A7C0B1D24
:100B2400099303000B90AB7053466A700A9A9C1A9F
:100B3400099B019A2404981AD14B04439C466444AB
:100B44004FE4029B002B00D090E05246534651786C
:100B54001B78927809021943120453461143039AED
:100B6400DB780532039220221B060B430D932242AD
:100B740056D0424653610023029392E70992E3065A
:100B840000D5ADE0079A069B9A4202D0180000F007
:100B94005FFD43461F8A07E0002F00D169E13378E7
:100BA400013F002B00D064E10021200000F0C0FDD3
:100BB4000228F1D00290012800D005E3069B64B21C
:100BC400079353460393002C00DB6AE743469B6874
:100BD40009991A0A0B704A701A0C1B0ECB700B1D64
:100BE4008A7009935DE7079B0A2B02D00A2000F064
:100BF4002FFD4D460DAF07E0002D00D150E13378B5
:100C0400013D002B00D053E139000E2000F090FD8F
:100C14000228F1D00A22079200220300029226E75A
:100C2400069B079A934202D0180000F011FD434638
:100C34000DAF1D8A07E0002D00D162E13378013D3C
:100C4400002B00D064E13900200000F071FD02287F
:100C5400F1D00300012800D05BE164B2002C00DA7B
:100C64002EE1069B0793002302931AE7079B0A2BA6
:100C740002D00A2000F0ECFC43461B8A0DAF1D0095
:100C840007E0002D00D1ACE03378013D002B00D00B
:100C9400A7E039000E2000F04BFD0228F1D003003C
:100CA400012800D09EE00D9B09991A0A0B704A7026
:100CB4001A0C1B0ECB700B1D09930A238A70079321
:100CC40043E743469B681A0A4A711A0C8A710A0060
:100CD4000B7108321B0ECB710992E30600D4DEE6D9
:100CE40053465A7819781202114352469B78D278A7
:100CF4001B040B4312061A43039B924605330893C5
:100D040043465B8A079A9946069B934202D0180091
:100D140000F09EFC43461F8A05E0002F5BD0337829
:100D2400013F002B57D10021200000F001FD0228D3
:100D3400F3D00300012800D051E20DAF43461D8AD1
:100D440005E0002D38D03278013D002A34D1390035
:100D5400200000F0EDFC03000228F2D001282BD182
:100D640042460D9B5269134052469A4200D10CE10F
:100D74004B46002B06D00122524294463378E1447C
:100D8400002BDBD0029B5D469946B3461123089A9B
:100D94009246069A0792022110205446059A06E0CC
:100DA400304207D10134013A002A00D1E4E0267828
:100DB4003142F5D10534F6E74146029A4969914634
:100DC4000D9A5D460A405146B3469142DFD0102346
:100DD4000343DBB2DBE7029A5D4603009146B34668
:100DE400D5E70300029A5D4691460A22B34606926D
:100DF400CDE742785A761B7E934201D8FFF718FB61
:100E0400082000F025FCE378A0781B020343207936
:100E14000004034360791B4C0006184300F0AAFB4E
:100E240000236B70FFF7DDFA029B4C46DAB21B0A13
:100E34005D46DBB2B3E506221349A81C03F056F85D
:100E44000623124C6B70FFF7CCFA4023AB700233CD
:100E5400EB70333B2B7100236B7104330C4C6B70C0
:100E6400FFF7BFFA0223AB70013B0A4C6B70FFF72C
:100E7400B8FA00225D460223B346914687E7C0468E
:100E8400010001000200060028930020080002006F
:100E94000600020003000200002300229A467EE5B9
:100EA400002291460A325D460300B34606926EE77D
:100EB4000A22069200225D460300B346914666E785
:100EC40043469B6809991A0A0B704A701A0C1B0E48
:100ED400CB70069B8A7007930B1D09930023029322
:100EE400DFE5B26AD21B9A4201D2FFF7F0FBFFF7AB
:100EF400F8FB0300029A5D469146079AB3460692B0
:100F040045E7039AA94603005D460892B3463EE7C7
:100F14000300039A5D4608920022B346914636E7E1
:100F24004286FFF746FB5146002900D0CEE06246D8
:100F34004946019C002A10D0002808D1002C01D079
:100F4400002904D1029A002A01DBFFF7CAFBB26A26
:100F5400D21B9A42F0D3FFF7C4FB002C01D0002926
:100F640004D1029A002A01DBFFF7BBFBB26AD21B51
:100F74009A42F2D3FFF7B5FBA246012B00D1A2E5BA
:100F84006A46DBB2127C0B93CDE5069B0793089B64
:100F9400039386E55246019C002A00D0ACE0494602
:100FA400002C01D1FFF79DFB002901D1FFF799FB2C
:100FB400B26AD21B9A42F3D3FFF793FB831C9A467F
:100FC400002300220B93AEE5039B5D469A46029BE9
:100FD400B34699460123DEE643461E8A5B46A34692
:100FE4001C0007E0002E00D196E02378013E002B80
:100FF40000D091E00021380000F09AFB0228F1D0E3
:1010040023005C469B46012800D0E3E0049B0022B9
:10101400013B02934B46414698465B4604920DAA17
:10102400A146AB4614001D00059143460393029B61
:10103400002B2FD0059B1E8A05E0002E23D02B7891
:10104400013E002B1FD12100380000F071FB022863
:10105400F3D0012800D0AEE0424641460D9B137008
:101064001A0A4A701A0C8A7004229446039A1B0EB8
:10107400D370049B029A01330493E044531E002A64
:101084007BD00293D1E7049B4C46DAB21B0A5D463F
:10109400DBB284E4069B0E270A2BCBD00A2000F097
:1010A400D7FAC7E70621584654460A40002A07D112
:1010B400002801D1FFF715FB002C01D1FFF711FB2C
:1010C400B16AC91B8B42F1D8FFF70BFB49460029D3
:1010D4003FD159466446002807D0002C05D0B26A97
:1010E400D21B9342F7D8FFF7FCFA0029F7D1029AF2
:1010F400002AF4DBFFF7F5FA59464846002C01D0E4
:10110400002803D1002901D1FFF7EBFAB26AD21B00
:101114009A42F3D3FFF7E5FA00235C461A003EE453
:1011240043465E461C8A05E0002C09D03378013C16
:10113400002B05D100210E2000F0FAFA0228F3D08A
:101144006B460B901A7C0300EDE46B461A7C0B9BF8
:10115400E9E4242164460A40002807D0002C05D085
:10116400B16AC91B8B42F7D8FFF7BBFA002AF7D143
:1011740002990029F4DBFFF7B4FA414603910121F7
:10118400049B4C46DAB21B0A5D468A46DBB2FFF783
:1011940006FC00231A000B93C5E46B460B901A7CE3
:1011A4000300C0E4029B4C46DAB21B0A5D46824649
:1011B400DBB2FFF7F4FB049B4C46DAB21B0A5D4634
:1011C4008246DBB2FFF7EBFB00225D469146B34655
:1011D400029BDCE5002382461A00FFF7E0FB029A3B
:1011E4005D469146B346D2E5014C6B70FFF7F9F8C2
:1011F40002000200F8B503787F2B04D0FFF7D6F87D
:1012040005002800F8BD0B7044780A4D861C8F1C1D
:101214004C70002CF5D039003000FFF7C7F8030CF0
:101224002D180004000C013CF6183F18002CF2D1D4
:10123400E7E7C046020002003D2000210022044BE3
:101244005860273019801A73186159611A767047EB
:10125400CC9D002070B5774C200003F0BBF82378B8
:10126400180901001A01D2B230319F2B00D907317D
:10127400714B1009197000212170010030319F2A2F
:1012840000D9D4E0597061780D0928000A01D2B25E
:1012940030309F2900D9BFE0002198701009617097
:1012A400010030319F2A00D9B4E0D970A1780D092A
:1012B40028000A01D2B230309F2900D99FE00021D2
:1012C40018711009A170010030319F2A00D994E0EF
:1012D4005971E1780D0928000A01D2B230309F29F2
:1012E40000D97FE0002198711009E17001003031CC
:1012F4009F2A00D974E0D97121790D0928000A01C7
:10130400D2B230309F2961D800211872100921719E
:10131400010030319F2A57D8597261790D0928008C
:101324000A01D2B230309F2944D8002198721009A2
:101334006171010030319F2A3AD8D972A1790D091F
:1013440028000A01D2B230309F2927D8002118730F
:101354001009A171010030319F2A1DD85973E17918
:101364000D0928000A01D2B230309F290AD8002181
:1013740098731009E171010037319F2A00D80739A9
:10138400D97370BD0021073098731009E171010011
:1013940037319F2AF4D8F2E70731DFE7002107301D
:1013A40018731009A171010030319F2AD6D9F3E7CF
:1013B4000731C2E7002107309872100961710100FA
:1013C40030319F2AB9D9F3E70731A5E70021073067
:1013D400187210092171010030319F2A9CD9F3E75A
:1013E400073188E70021073098711009E170010086
:1013F40030319F2A00D87EE7F2E7073168E7002101
:10140400073018711009A170010030319F2A00D8EB
:101414005EE7F2E7073148E70021073098701009CA
:101424006170010030319F2A00D83EE7F2E70731AE
:1014340028E7C04634FC00204CFC01203F2319005F
:1014440070B50140034200D1402180240026284D7C
:1014540004406B6818000138FDD118000138FDD133
:10146400012900D13EE018000138FDD118000138EF
:10147400FDD1022900D135E018000138FDD1180052
:101484000138FDD103292DD018000138FDD11800F1
:101494000138FDD1042925D018000138FDD11800E8
:1014A4000138FDD105291DD018000138FDD11800DF
:1014B4000138FDD1062915D018000138FDD11800D6
:1014C4000138FDD107290DD018000138FDD1013BA9
:1014D400FDD10839002C01D016700132002900D04A
:1014E400B7E703E0002C01D00023137070BDC046A1
:1014F400CC9D00201E4A536819000139FDD1190002
:101504000139FDD119000139FDD119000139FDD18D
:1015140019000139FDD119000139FDD1527E002A8B
:1015240008D019000139FDD119000139FDD1013A62
:10153400002AF6D11F2219000139FDD11900013901
:10154400FDD1013A002AF6D11A00013AFDD11A0060
:10155400013AFDD11A00013AFDD11A00013AFDD138
:101564001A00013AFDD1013BFDD100207047C0466D
:10157400CC9D002010B5354C63681A00013AFDD1AA
:101584001A00013AFDD11A00013AFDD11A00013ABC
:10159400FDD11A00013AFDD11A00013AFDD1607E55
:1015A400021E08D019000139FDD119000139FDD1FD
:1015B400013A002AF6D11A00013AFDD11A00013A83
:1015C400FDD11A00013AFDD11A00013AFDD11A00E9
:1015D400013AFDD11A00013AFDD11F221900013947
:1015E400FDD119000139FDD1013A002AF6D1217E3D
:1015F4001A00091A012900D122E0013AFDD11A008A
:10160400013AFDD18A1E022908D019000139FDD101
:1016140019000139FDD1013A002AF6D11A00013A24
:10162400FDD11A00013AFDD11A00013AFDD11A0088
:10163400013AFDD11A00013AFDD1013BFDD110BDA3
:10164400013AFDD11A00013AFDD1EDE7CC9D00200D
:1016540010B536484378002B00D010BD43681A00FB
:10166400013AFDD11A00013AFDD11A00013AFDD127
:101674001A00013AFDD11A00013AFDD11A00013ACB
:10168400FDD11A00013AFDD11A00013AFDD1447E80
:1016940022001032520082185288002A08D0190001
:1016A4000139FDD119000139FDD1013A002AF6D1E1
:1016B4000219917E4A1E012908D019000139FDD171
:1016C40019000139FDD1013A002AF6D11834640019
:1016D400001941881A00002917D0013AFDD11A00D7
:1016E400013AFDD14A1E012908D019000139FDD162
:1016F40019000139FDD1013A002AF6D11A00013A44
:10170400FDD11A00013AFDD104E0013AFDD11A00DD
:10171400013AFDD11A00013AFDD11A00013AFDD176
:101724001A00013AFDD1013BFDD196E7CC9D002082
:1017340010B5304C6378002B06D0030602D52E4B2F
:101744009B6AA360002010BD63681A00013AFDD1B2
:101754001A00013AFDD11A00013AFDD11A00013AEA
:10176400FDD11A00013AFDD11A00013AFDD1627E81
:10177400002A08D019000139FDD119000139FDD121
:10178400013A002AF6D11A00013AFDD11A00013AB1
:10179400FDD11A00013AFDD11A00013AFDD11A0017
:1017A400013AFDD11A00013AFDD11A00013AFDD1E6
:1017B4001A00013AFDD11A00013AFDD11A00013A8A
:1017C400FDD11A00013AFDD11A00013AFDD10206F9
:1017D40002D5094A926AA260227B002A00D1B1E7AD
:1017E40019000139FDD119000139FDD1013A002A4E
:1017F400F6D1A7E7CC9D00200040054030B583B06A
:1018040006F00EF9D02401250190240601200021C0
:10181400404203F097F863685B0E1D420BD08023AF
:101824009B04A36103F07EF80028EFD1012101A8F5
:1018340006F0A2FAEAE702F0D9FF0028EFD002F09E
:10184400DDFF0028EBD180239B046361EAE7C046F7
:1018540000B583B001A90648FFF76AFF04230021FD
:1018640001AA002004F016F8C82006F0D7FAF1E720
:101874001600070010B582B004F0C2FEFFF7EAFCC0
:1018840004F0C4FA02F05CFDFFF7D6FCFA20400035
:10189400FEF784FD134B802401930323640022008C
:1018A400009311490023114805F0D6FD104B220086
:1018B400019302230F4900930F48002305F0CCFD48
:1018C40005F0B6FF0D4B2200019301230C49009350
:1018D4000C48002305F0C0FD05F0AAFF002002B06B
:1018E40010BDC04630FC0020A8930020BD15002088
:1018F400FCF40020AC9300207919002050F900205A
:10190400B0930020111600200020704770B5180015
:10191400084C04AB1D882100FEF748FD2B1C402D0C
:1019240000D94023220000219BB2002003F0B2FF23
:1019340070BDC046109E0020F0B5050014000120C3
:1019440083B0012905D1137800205B069B0F022B7D
:1019540001D003B0F0BD5378012BFAD16379127929
:101964001B021343072BF4D16B46074E9F1D310016
:101974000222380002F0BAFA3200210028003B8823
:10198400083A03F06FFCE4E7D89400207047C0469F
:1019940010B50248097801F023FFC046B89300202F
:1019A40010B5014801F01CFFE8930020004870477F
:1019B4009894002000487047AC9400203E230622EF
:1019C4000148C2547047C0466498002070B500288E
:1019D40026D0062831D81A4B8000C658300006F0AD
:1019E4002FFFC0B2011C1F2815D8C9B2002821D06E
:1019F4000023144DAA1CF05C0133DCB210800232C7
:101A0400A142F8D8C0230131C9B249009B0019434F
:101A14002800298070BD1F21C9B20028E8D109E03F
:101A2400084D074B02221968A81C02F05FFAC12175
:101A34008900EDE70449034DEAE70020EAE7C046E0
:101A4400C8980020C8B00020020300000048704776
:101A5400749400207047C0467047C0460020704709
:101A6400F0B54646D6464F46C0B54B7906000C0045
:101A7400FF2B1FD18B79002B1CD1CB79002B19D1D3
:101A8400802081464F461E491E4D0B5004300B509A
:101A9400A846EB512B50892504307F3F4B550F54FA
:101AA40041464B550F542379DD00ED1A0935ADB28B
:101AB400AA4206D200252800E0BCBA46B146A84690
:101AC400F0BDE37A21009A4652460F4B30000931AB
:101AD4001A7003F039FB43464A469A5851463A4035
:101AE400920142444023300003F070FB2100A27CA9
:101AF400064B300010311A7003F026FBDBE7C046BA
:101B0400DC9E0020509E00203BFD01203AFD012078
:101B1400F8B5CA090024012A14D0402B10D8802615
:101B24008422214DAB59AF580133833A1340BB4251
:101B340019D18923EA541D4B0124186805F032FE9B
:101B44002000F8BD402BFBD884258826184C635907
:101B540001336351A35D002B12D0144B0124186888
:101B640005F020FEECE7AB590133AB51AB591A40F9
:101B740092014023521903F029FB8923EC54ECE72A
:101B840067590C4B3A401B6892019BB2121903F03F
:101B94001DFB80226359A25801339B1A5A425341B8
:101BA400DBB2A355D9E7C046509E0020FCF40020C8
:101BB400DC9E002094B10020F8B55746DE464E4620
:101BC4004546564BE0B59B46554B80269A46554CA8
:101BD400554F8423E258A3599A425BD08423E55895
:101BE400833B2B409B01E25C7E2A15D10132914656
:101BF4007E3A90464A46E254A35901359D4205D1A6
:101C0400386805F069FDA359AB42F9D043462B402F
:101C14009B01E25C7E2AEDD084220125A158434831
:101C240029408901443A611802F060F98422A358DA
:101C34000133A35089239846E35C002B59D13C49D6
:101C44003A48FFF7D7FA5B46186005F0E1FE5346C1
:101C540084219A595B589A4220D053465A4601200F
:101C64009B5912681840800112043149120C5044E7
:101C740002F03CF9534652469B5951460133935165
:101C840088230022CA5405F0BFFF8423E258A359D5
:101C94009A42A3D1386805F01FFD9AE75346985934
:101CA4005B4601251A682840800112042049120C61
:101CB400504402F01BF9534652469B59594601338E
:101CC40093518423D2580B682A401A4992019BB23B
:101CD40052440978002003F079FA05F095FF842333
:101CE400E358A2599A4200D078E7386805F0F4FC2A
:101CF4006FE705F08DFEA35900200133A351A259CB
:101D04000D4B2A4092011978A218402303F05EFA81
:101D140000234246A35405F077FF90E794B10020D6
:101D2400DC9E0020509E0020FCF400204C9D0020EE
:101D34008C9D00203AFD01203BFD0120012303700E
:101D44000048704784950020037801480B70704761
:101D540001000100431E002809D0054A51680A0009
:101D6400013AFDD10A00013AFDD1013BF7D2704797
:101D7400CC9D0020024B9C46614489000160704761
:101D84004000003410B5040000F00CFD01002000F8
:101D9400FFF7F0FF01235B426360BFF35F8F10BD69
:101DA40010B5040000F0FEFC01002000FFF7E2FF84
:101DB40001235B42636000232372BFF35F8F10BD76
:101DC40010B50400012000F0F9FC044B9C4660446B
:101DD40080002060BFF35F8F10BDC0464000003418
:101DE40083680B4810B584466144624409011201BA
:101DF4009A18591854684B6801209C4201D802D0A3
:101E04000020C0B210BD12680B689A42F9D8F7E7F7
:101E1400FFFFFF0F074810B50268EFF3108172B699
:101E24001368002BFCD0BFF35F8F04F067FD002024
:101E3400002110BD1CFC0020F8B557464E4645460F
:101E4400DE46E0B599460CAB1C780DAB1B7806005A
:101E540090469A460768002C11D1BC7B002C42D0D6
:101E640065003B682D19033D59194B78BB73002B52
:101E740000D1FB7300238B704B700B7004E0650082
:101E84003B682D19033D5919B2682A4B94464246C2
:101E9400E3181B0163441A604A465A600A9A9A601E
:101EA4000B9ADA6000238B704B700B707B7B9B4624
:101EB400002B2BD022005946B8687B6898473A68B3
:101EC400002816D05B4658465B005B445519033B1B
:101ED400A870D118D35C002B00D06B705B460C70DB
:101EE4007B73A34513D0F0BCBB46B246A946A046BB
:101EF400F8BD5B465B005B44033BD3189C705119EF
:101F0400525D002A00D05A705B460B707C734246C7
:101F14004B46307D00F032FB051E06D05346002BA5
:101F240003D12100306801F085F80E9B002BDAD034
:101F34001D70D8E7FFFFFF0FF0B5DE4657464E464B
:101F440045460023E0B58BB00893674B8200D45814
:101F540000239B46099000F097FA626806000F0080
:101F6400EFF3108572B61368002BFCD0BFF35F8FBC
:101F740023689C465B7B9946002B00D169E0A268EC
:101F84005A4B90464B441B01984443461A685B687D
:101F940010001900801BB941002900DC63E0099896
:101FA40000F0ECFA002300229846002306920793DF
:101FB40000239A466368BFF35F8F5A461A6085F31D
:101FC40010885346002B08D10028C4D10BB0F0BCB4
:101FD400BB46B246A946A046F0BD089B414618023E
:101FE4004B461843D047626806000F00EFF3108594
:101FF40072B61368002BFCD0BFF35F8F002F50DB49
:1020040033003B4302D02369002B61D12368D97B81
:10201400002907D04A00521819688C464946624480
:10202400033A51709A7B002A01D14A469A734A4670
:10203400DA734B46E168013BCA5C0132CA545B4621
:1020440023616368BFF35F8F5A461A6085F3108873
:1020540081E7002300229846002306920793002379
:1020640000209A46A6E7002902D1002800D096E76E
:102074000021604600F05CFF43461A685B680692E4
:10208400079343469B689A464346DB689846E36851
:102094004B44013B1B7808931B020343236100203C
:1020A40088E72369002BB1D0069A079B921BBB419A
:1020B400002B15DB594604910121039149460291F5
:1020C40041460191514620000091FFF7B5FEB6E765
:1020D40000F0DAF932003B0012184B41002BE9DA28
:1020E4000122034B5242E5E760F90020FFFFFF0F96
:1020F400FFFFFF7F10B5144C6368002B04D00A2146
:102104001248FFF737FE10BD2300114A1021206842
:1021140000F028FE032000F0ABF9032000F098FA49
:1021240003200C4900F0E4F900F03CFB0A4B9C4608
:1021340003232375D0231B061B6860446375074B78
:1021440080006060DC60DAE7E49800201CFC00207A
:10215400A11B0020F91C00204000003460F900207D
:1021640000487047E4980020F0B54E464546DE46E8
:102174005746E0B585B0019310AB1B780600039376
:1021840000239946984600927268EFF3108B72B65A
:102194001368002BFCD0BFF35F8F3568AC7B002C39
:1021A4003DD067002B683F19033FDB195A78AA73A7
:1021B400002A00D1EA73B168474A8C460098019915
:1021C400A21812016244106051600E9991600F9937
:1021D400D16042469A705A701A706B7B9A46002BF3
:1021E40067D022001900A8686B6898472A680028FD
:1021F40052D0534650465B005344D719033BB87042
:10220400D118D35C002B00D07B7053460C706B73D9
:1022140054454FD0F3681B19013B187800E00020A7
:102224007368BFF35F8F42461A608BF31088002CEB
:102234004FD04B46002B08D10002204305B0F0BC20
:10224400BB46B246A946A046F0BD039B002B3ED038
:102254000E9B00200F999847030004000D000B43C8
:1022640035D000290ADA009A019B121BAB41009277
:102274000193002B0ADB039B994685E700F004F9E0
:1022840024184D4100940195002DF4DA0123134CD8
:102294005B4200930194EEE753465B005344033BD7
:1022A400D3189C70D119D25D002A00D05A705346BD
:1022B4000B706C73307D009A019B00F05FF98146CE
:1022C4000028A7D02100306800F0B4FEA2E7002067
:1022D400B4E701204042B1E7FFFFFF0FFFFFFF7F9C
:1022E400F0B5EFF30583CE46474680B505000C00F4
:1022F40085B0002B12D02C4A0020536A9C4203D88C
:10230400926A0130AA4204D305B0C0BCB946B046B3
:10231400F0BDE01A421E9041C0B2F5E7234E02938D
:102324000193234B0200009330000B00FFF71CFFC6
:10233400031EE0DD20BF7168EFF3108772B60A68F0
:10234400002AFCD0BFF35F8FDAB294463068427B38
:1023540062451DD0FF221A4051008946016891440C
:1023640088464946414403398978002913D0F168E5
:102374001B0A88464244013A1278DBB29A420FD0D3
:102384007368BFF35F8F00221A6087F31088B2E787
:10239400FF221A40EBE732699342F1D13161EFE752
:1023A400614600F047FEEBE700400540E49800205A
:1023B400D51B0020F0B5EFF30582D6464F464646BE
:1023C4001000C0B51038EFF3108872B6214C2368A2
:1023D400002BFCD0BFF35F8F0123190081401E4DF9
:1023E4001F006963AA461D4D29601D4D2E78AC4619
:1023F4003500C5402F402B4209D1BFF35F8F2760C2
:1024040088F31088E0BCBA46B146A846F0BD5346EE
:10241400144D5F6A83005D59AF420ED3124A8E4356
:102424009B5862461670BFF35F8F0022226088F3C8
:102434001088002BE6D09847E4E70C4B92009C46AA
:10244400624413681360BFF35F8F0023236088F333
:102454001088D7E7280100D0004005403C700540B3
:1024640040FD012020FC0020B8F30020D03F0540AF
:1024740010B50100024A034800F016F910BDC04629
:102484009C9500203EFD0120034B596A0A00986A7E
:10249400596A8A42FAD170470040054070B5040079
:1024A4000D00124A536A1900966A536A8B42FAD194
:1024B4003000190024184D41AB4211D80ED02B0026
:1024C4000A494A6A9A42FCD307D1084A02E0516A8F
:1024D400994202D1916AA142F9D370BDA642EED9C4
:1024E400012301246442E5175B42E9E7004005400B
:1024F40070B504000D00EFF3108672B61A4A136823
:10250400002BFCD0BFF35F8F002D1BD0200000F008
:1025140077F9164981420AD0200000F079F90121A7
:10252400200000F05BF90123A340114A1360114B12
:10253400A400E550BFF35F8F00220B4B1A6086F3B3
:10254400108870BD0B4BA200D5500122A2400A494D
:1025540020000B7893430B70044900F077FA0021B4
:10256400200000F03BF9E5E7280100D075210020A8
:1025740038600540B8F3002040FD0120F0B54F4617
:10258400D6464646C0B507002C4C616A0D00A66AC3
:10259400616AA942FAD18B4208D805D00120E0BC77
:1025A400BA46B146A846F0BDB242F7D9EFF3108A55
:1025B40072B6234801680029FCD0BFF35F8F012560
:1025C400BD4020491D4C8846097889462943C9B233
:1025D4008C46414660460870391D1B488900656376
:1025E4000A51B9000B50216A0020294219D0616AAE
:1025F4000800A66A616A8142FAD18B4219D801D1D6
:10260400B24216D8CC4516D00C4B1F201D625D6318
:1026140001230740BB400D4A1E38136043464A4617
:102624001A70BFF35F8F0022054B1A608AF310887B
:10263400B5E70020F5E70120F3E7C0460040054078
:10264400280100D040FD012020FC002080E200E0B1
:10265400EFF3108C72B60A490B68002BFCD0BFF361
:102664005F8F01238340074A0748136202789A4325
:102674000270BFF35F8F00230B608CF310887047E8
:10268400280100D00040054040FD0120024B18689D
:102694008007C00F7047C04600C006408023DB059A
:1026A4001868000F7047C04670B5EFF3108C72B60F
:1026B4000D4D2B68002BFCD0BFF35F8F0724CB0894
:1026C400C618C05C01230C40A3401C000440034214
:1026D40007D103433370BFF35F8F2C608CF31088F2
:1026E40070BD100001F07CF82C0100D0F8B547460D
:1026F400CE46884680B5EFF3108C72B6214D2C6817
:10270400002CFCD0BFF35F8F9A422CD8D408072743
:10271400055D061901241740BC402C421FD0072137
:102724000127894609E0D408055D06194C4639009D
:102734001440A1400C00294211D001329342F2D23C
:1027440001204042BFF35F8F00220E4B1A608CF3CE
:10275400108800280FDBC0BCB946B046F8BD2C4336
:1027640010003470EEE7BFF35F8F00232B608CF30F
:102774001088012040424346002BECD0089801F019
:102784002FF8C0462C0100D00021044B044ABFF3AB
:102794005F8F02C39342FAD17047C046000100D054
:1027A400800100D0044A1078431CDBB2172B00D9F7
:1027B400102313707047C0460C99002000B5054BD8
:1027C40083B00100009318221F230348FFF78EFFF4
:1027D40003B000BDC0950020D0F400200123834045
:1027E400002904D0034A1360034A13607047034A64
:1027F4001360FBE780E200E000E100E080E100E03C
:10280400024B10309B688000C058704700ED00E018
:1028140070B50D00EFF3108672B60F4A1368002BE3
:10282400FCD0BFF35F8F0D4B10309B6884001B59A5
:102834000B4A934203D09D4201D000F0EFFF074BB7
:102844009B681D51BFF35F8FBFF35F8F0022024B64
:102854001A6086F3108870BD240100D000ED00E0FA
:10286400CD010010F0B557464E46DE464546E0B56C
:1028740085B0060002911700EFF3108B72B6674A19
:102884001368002BFCD0BFF35F8F0025644B5D57AA
:102894009A46002D00DAA4E06B00624C03935B19A6
:1028A4009B009846A146C1444B4652469B7910363C
:1028B40013705D4BB2009B68019299580B1B2F2B30
:1028C40034D95A4B994200D0A4E0039B584A9C4601
:1028D400584B6544AD006353434602336519E4180D
:1028E400554B0121043B1B1B1B055B0D13436B80E4
:1028F400524BEF71AB80FF23AB71029BAB604B4635
:102904000B431900484B019A9B689950BFF35F8FA2
:10291400BFF35F8F0022414B1A608BF3108805B020
:10292400F0BCBB46B246A946A046F0BD01200A0051
:102934008243D379BB422FD845464E4613004049C3
:102944001B1B5B415943090D3A4B63533A4B023508
:102954006519043B5B1B1B05354D5B0D2B437380D5
:102964000426B446E0444444131F1B1B4C46A17187
:1029740002991B05A16049465B0D2B43A380314B93
:10298400E77101431360BDE75800C01880002018A8
:10299400C679BE422BD902000623D356002BF3DAA4
:1029A400101D82462848804604267642B446E144F7
:1029B40050464E46361A3005400D824656461C484F
:1029C400957106439680039A944665441D4AAD006A
:1029D400641922604246A371029BA280E771A3603E
:1029E40090E700F01BFF002553465D5754E7101D88
:1029F400824690884005001584464046D444664685
:102A040004302018301AE0260005400D3602304309
:102A14008046C9E700F002FF57E7C046240100D012
:102A24003FFD01201099002000ED00E0CD010010D1
:102A340000E0FFFF00A1FFFF4099002001BDFFFF60
:102A4400AAAA00000148804701BD0000F0B5DE4697
:102A540057464E464546E0B50C0083B0EFF3108967
:102A640072B6584A1368002BFCD0BFF35F8F564BE5
:102A74009A68030010339F00D559544A90469542F2
:102A840032D0A54243D0524EAA1B2F2A2CD8012261
:102A94008240924651464F4A126811400191514674
:102AA4004D4A1160BFF35F8FEFF305829346002A0E
:102AB40033D101232A009A4393689C4208D177E0DA
:102AC4004B005B189B00F3189968A1422AD01A00A6
:102AD400062151560029F3DA019B002B19D05246E6
:102AE4003E4B1A603B4B1A60374B9B68DD51BFF37A
:102AF4005F8FBFF35F8F0022324B1A6089F3108817
:102B040003B0F0BCBB46B246A946A046F0BD1500D2
:102B1400EAE75246304B1A60E6E79342C9D000F028
:102B24007DFEC6E706215956002921DB4A005018CC
:102B3400800034188046A0689860E079D871062037
:102B440020569871002824DBA488F01A6405241503
:102B540044440019E0240005400D240220439880D9
:102B640052181F4B9200B6181A781970B271B3E755
:102B7400594600290FD1FF3191711A4991801849A2
:102B84000A789A71184A9B1B5B415A43120D0A70CA
:102B9400A2E71648E3E7164A1649D21A083A500241
:102BA400400D01439980144952080A43DA8093E79F
:102BB4000621515613000029B8DA5A46002AEAD1F0
:102BC4004546DCE7240100D000ED00E0CD01001013
:102BD4001099002000E100E080E100E080E200E0E4
:102BE4003FFD012001BDFFFFAAAA000001BD0000B6
:102BF4004A99002000F0FFFF00F8FFFF032310B5FF
:102C04000400074A18409446C0009C43FC338340A8
:102C14006444226881409A4313000B43236010BD2F
:102C240000E400E070B5EFF3058101240443EFF301
:102C3400108C72B6214A1368002BFCD0BFF35F8F4F
:102C44001F4B05001F4AED1A6D416A43120D1E4DBC
:102C54008900AE6852B27658A6421CD00621595655
:102C640091421CD012215956914222D01E2159560C
:102C7400914220D02A2159560324914210D0134B5B
:102C840019781A708171BFF35F8F00220B4B1A60A1
:102C94008CF3108870BDAB680D4C5C50EFE70024DA
:102CA4006100091989005B18FF219971094999800C
:102CB400E5E70124F4E70224F2E7C046240100D04A
:102CC40010990020AAAA000000ED00E03FFD0120B9
:102CD400CD01001001BDFFFF054B064A1360064AF3
:102CE400136053609360D3601361536193617047C1
:102CF4008080808000E400E004E400E070B505001A
:102D040014001600002915D00C00002A12D0806887
:102D14006B689847296800280ED073009B196200DD
:102D2400033B1219CB18033A9C7088188A5C002A5A
:102D340015D10670200070BD63001B197200033B9F
:102D44009219CB18033A9E7088188A5C002A02D123
:102D540004703400EEE75A7004703400EAE75A70E5
:102D64000670E7E730B583600023CCB243730133C8
:102D7400047342608373C4730D000068012C06D988
:102D8400421C0133DBB2137003329C42F9D1FF21A0
:102D940029404B005918002340180338437030BDB4
:102DA400F8B5CE46474606000C0080B5002907D08A
:102DB4004D0003686D18033D5A195778002F04D14C
:102DC4002000C0BCB946B046F8BD7900C919033922
:102DD4008846434459788946002159705170736874
:102DE4003A002100806898473368002814D042468E
:102DF4009A18947059195B5D002B00D053700F70B2
:102E0400270049463000FFF7CBFF390002003000AD
:102E1400FFF774FF0400D3E7424641465D19AF70E3
:102E24009A185B5C002B00D06B701470E9E7C04605
:102E3400F0B557464546DE464E46E0B50D006B00FC
:102E440001685B19DF1E0400C85D83B00192CA19D2
:102E5400002850D043001B18033BCB185E78B446BF
:102E6400002E1AD1019E002E42D0E67B002E04D003
:102E740073009B19CB18033B5D70A37B002B00D11F
:102E8400A573E57300282FD10023537003B0F0BC61
:102E9400BB46B246A946A046F0BD72006244033A5E
:102EA40089184A78904600224A7091465A70010067
:102EB40032002000FFF722FF43468246002B07D052
:102EC4005B0021684344033BCB185A78002A16D18F
:102ED400424651462000FFF711FF2168019BCA19A1
:102EE400002BC2D10028CFD043001B18033BCB18C2
:102EF40000219970C8E7019B002BB6D1C4E75000AC
:102F04008018033809184878834648464870587032
:102F140041462000FFF7F2FE594680462000FFF7A5
:102F24003FFF414602002000FFF7E8FE8046CFE75E
:102F3400F0B557464546DE464E46E0B583B00191AE
:102F4400457B04006B0000685B19DF1EC15DC2197C
:102F5400002952D04B005B18033BC3185E78B4467B
:102F6400002E1CD1019E002E44D0E67B002E04D0FE
:102F740073009B19C318033B5D70A37B002B00D126
:102F8400A573E573002931D10023280053706173C0
:102F940003B0F0BCBB46B246A946A046F0BD7200E1
:102FA4006244033A80184278904600224270914667
:102FB4005A7020003200FFF7A1FE43468246002BE0
:102FC40007D05B0021684344033BCB185A78002A9E
:102FD40017D1424651462000FFF790FE019B0100A5
:102FE4002068C219002BC0D10029CDD04B005B183A
:102FF400033BC31800209870C6E7019B002BB4D193
:10300400C2E75000801803380918487883464846B8
:103014004870587041462000FFF770FE59468046BC
:103024002000FFF7BDFE414602002000FFF766FEC8
:103034008046CEE770B5040000292CD0437B8B4238
:103044002ED0056848004018033828188278002AD2
:1030540021D053009B18033BEA5CEE188A4202D14C
:103064001BE0002A08D053009B18033BEB185A7846
:103074008A42F6D142785A70002301228370437049
:103084002000FFF7D5FE617B02002000FFF736FE2B
:103094006073012000E0002070BD43783370EBE7DB
:1030A40001221900FFF7C4FE60730120F4E7C04653
:1030B400094A830094464022634410B51C68C0004A
:1030C4006240C02414408022520113431C60034B0D
:1030D4009C466044416010BD04C001400040014072
:1030E400034BC0009C46604443681F20184070474F
:1030F400004001400A4B80009C46042360440029A0
:1031040001D00C230821002A00D10B00026853408F
:103114000C221A4080235B01184302607047C046AA
:1031240004C00140074BC0009C4660440368090486
:103134005940C0239B02194080235B01184301605E
:103144007047C04604400140074BC0009C466044A1
:10315400036809035940C0239B01194080235B0184
:10316400184301607047C046044001400123D02247
:103174008340120693629361094A83009446402275
:1031840063441968C0004A40C021114080225201A2
:1031940013431960034B9C46052360444360704706
:1031A40004C0014000400140F8B5CE464746040043
:1031B40080B506200E0000F023FA051E51D0524BB4
:1031C4005249E21853425A418023DB039C4692053C
:1031D4004F4B62441A604F4B1A6010008B6898433F
:1031E400FBD1494B8021E3185A4253414A4A5B00C0
:1031F40049009952062000F003FA3100C00000F0A3
:103204006DFBC30932D14022012190466162A36261
:10321400256BEB0736D427008026E36A00232C377E
:1032240076013E4333600620256300F0E9F9414608
:10323400800000F053FB236B05009846DB073BD46A
:103244006022E36A5A406E2313403360434623638B
:10325400802310229B013B431A60304B23630323DA
:10326400A3642800C0BCB946B046F8BD2C4A9342BA
:103274003FD900232B492C4A6162A362256B9046F7
:10328400EB07C8D52200C02330329B011343234AE5
:1032940006201A60666AA26AB601B61800F0B0F990
:1032A400224900F01BFBB6020100300000F016FBBF
:1032B4000021FFF7F3F8AEE72200C02330329B0170
:1032C4001343164A06201A60636AA26A9B01994650
:1032D400914400F095F94B4614499B02994600F03D
:1032E400FDFA0100484600F0F9FA0021FFF7D6F88C
:1032F400A6E77F2299018846104001304008190052
:103304008044030082E7C0460080FCBF00C0004048
:1033140000E0004000F000403CFC002001030000FD
:10332400FEFF0000FFFF0000C0FF3F004E0E000044
:1033340030B50C2083B000F0B9F9FFF7A7F90028E5
:103344000ED0994B994A1A605A609A60DA601A61F1
:103354005A619A61DA611A62954A5A6203B030BDC1
:10336400944CA06700F0AAF90122934B1A60636C95
:10337400012BFCD10322914B1A608E4A936B012BD3
:10338400FCD1013301218E4A8E480093043300F0AE
:103394003DF905238C4A009301218C4800F036F94D
:1033A4008B4B5A68FF2A02D8802252005A6080222E
:1033B4007D4C824B21691201854D1A60002907D08A
:1033C400606900F08BFA431C5800C0180338FDD222
:1033D400E0217F4B02201A681140802252012A43C7
:1033E40011601968484003210140116004219A6862
:1033F4001142FCD08022802192012A4309011160EC
:10340400802252005A60734B2361734B5968FF2921
:1034140000D85A600321684A6F4B116002399A68D8
:103424001142FCD0E0201A681040802252011A4355
:103434001060186848400321014002201160664969
:103444008A681042FCD08022920113438022120128
:103454001A608022614B52004A606361604B596874
:10346400FF2900D85A6080225E4BE16912015C4D4D
:103474001A60002907D0606900F030FA431C580034
:10348400C0180338FDD2E02255490B681A40802346
:103494005B012B431A60802380229B012B43120182
:1034A4001A608022414B52004A60E3614E4B5968D6
:1034B400FF2900D85A6080224C4B216A12014A4DE0
:1034C4001A60002907D0606900F008FA431C58000C
:1034D400C0180338FDD2E02243490B681A40802308
:1034E4005B012B431A60802380229B012B43120132
:1034F4001A60802380225B004B602C4BD202236233
:103504003B4B5968914200D25A608022394B616A20
:103514001201374D1A60002907D0606900F0DEF906
:10352400431C5800C0180338FDD2E02230490B6810
:103534001A4080235B012B431A60802380229B0165
:103544002B4312011A608023DB024B60184B636229
:10355400294B5A68FF2A02D8802252005A608022DE
:10356400264BA1691201244D1A60002907D0606915
:1035740000F0B4F9431C5800C0180338FDD2E0220F
:103584001D490B681A4080235B012B431A6080237A
:1035940080229B012B4312011A6080235B004B6045
:1035A4000E4BA361DAE6C046D4F40020006CDC02C2
:1035B4001BB70000008000403CB0004030B0004029
:1035C400002F685900800240008C864700C00240EA
:1035D40030800040001BB7003C8000404059730716
:1035E4005480004054B000406080004060B000400F
:1035F4006C8000406CB000404880004048B00040FF
:10360400014B8000C0587047D4F40020F8B5040082
:1036140021481D0017000E0000F060F90100380079
:1036240000F05CF9069B29041B0319432368002B53
:1036340020DB1A4B1A4DE21853425A4180235B0196
:103644009C461203174B62441A60174B1A6017000A
:10365400AB689F43FBD1C022231D92011A4321234F
:103664002660A06013602368002BFCDA0823E16065
:103674001360F8BD3F2322681340B342D9D1A36835
:103684001B051B0D8342D4D1EE22E368D202134002
:103694008B42CED1EDE7C046001BB7000040FDBF12
:1036A40000C0004000E0004000F000408023024AD7
:1036B4009B000343D362704700800540AA23064A57
:1036C4001B0113602F230549D360054B1960536810
:1036D400002BFCDA7047C0460040024000B0FA00FC
:1036E400006002402C4B2D4A70B51A602C4A2D4BB9
:1036F4002D491A6014008B689C43FBD12B4D2C4E32
:10370400B54208D2013E761BB60808CD984723007F
:103714000134B342F9D1FFF70BFE264A214B1A605C
:10372400214A9368DB43DB01DD09002BF9D14022F8
:10373400214B224C224E9A675A671A67DA66B442C2
:1037440008D223682000002B20D00C34FEF728FB7D
:10375400B442F6D31B4E1C4CC022A168300000F0CA
:10376400C5FBA660FFF710F8FFF7B6FAFEF7C2FC38
:10377400164C174EB44208D2013E361BB60808CC8C
:1037840098472B0001359E42F9D170BD0834FEF7ED
:10379400F9FAB442D5D3DDE700E00040BFCDFBFE2B
:1037A400FE7F3C0000F0004000C00040D49900209F
:1037B400E4990020FFFFFF0100F00140C4990020BC
:1037C400D49900200000002000ED00E0E4990020DE
:1037D400F099002000BEFDE710B5FFF7FBFFC046DF
:1037E4000FB400B5084883B000F0B2FC049B002B72
:1037F40007D005A91800019100F01EF8034800F055
:10380400A7FC0120FFF7E6FFDC950020E4930020ED
:1038140010B50148FFF7E4FFEC95002010B501480E
:10382400FFF7DEFFFC95002010B5002800D110BD85
:1038340000F042FCFBE7C04610B5094A03001468D7
:1038440084B0002C08D0012200910648524203A9FA
:10385400A047012004B010BD00F07AFC0020F9E775
:1038640054F90020E935002001480421014B184790
:103874006099002059360020142310B501001888DF
:1038840004331B88984710BD162310B5010018880F
:1038940002331B88984710BDF8B54746CE4680B51D
:1038A4000F1E19D014239946043304000025012661
:1038B40098464B461888434621681B88984701C49C
:1038C400431E9841013540420640AF42F1D13000D9
:1038D400C0BCB946B046F8BD0126F8E7114A936F5B
:1038E4009B0813D210665166002905D0FFE7FFE755
:1038F400FFE7516F106F704704B5002801D0002016
:10390400C04304F09BFF002104BDC046F0B5146E13
:10391400556E576F166FFFF7E5FF146655665767C8
:103924001667F0BD000000D094464A4A926F920890
:10393400624601D228E0C046F0B5464E346E756E3C
:10394400776F366F00F020F89446424A1466556645
:10395400576716676246F0BD94463E4A926F9208D6
:10396400624601D254E0C046F0B53A4E346E756EEC
:10397400776F366F00F04CF89446364A14665566F5
:10398400576716676246F0BD002B24DB11D000296F
:103994003EDA00B5C943404200D1013100F038F8A5
:1039A400C943404200D10131DB43524200D10133CB
:1039B40000BD002AEBD1002801D1002905D0002048
:1039C400C90FC90701D1C043410800B504F036FF4F
:1039D4000022002300BD00B500290ADBDB4352426C
:1039E40000D1013300F014F8C943404200D1013141
:1039F40000BDC943404200D10131DB43524200D1F2
:103A0400013300F005F8DB43524200D1013300BD1D
:103A1400002923D1002B18D1002A0CD0BC460D4F0D
:103A240038667A6600210023FFE7FFE7FFE77A6F35
:103A3400386F67467047002801D00748010000B579
:103A440004F0FCFE0022002300BD02000B00002055
:103A540000217047000000D0FFFFFFFF002B00D0C3
:103A6400BFE0130C28D1002AE7D080B4114F396687
:103A74007A66FFE7FFE730B4040C7B6F396F1B04F1
:103A840023433B667A66FFE7FFE7FFE7C04684B25D
:103A94007B6F3D6F1B0423433B667A66FFE7FFE7BA
:103AA400C04600232C042D0C7A6F386F001969412D
:103AB400B0BC7047000000D0F0B594460025140E49
:103AC40001D112020835140F01D112010435940FEB
:103AD40001D192000235D40F01D152000135D40B2B
:103AE4000134254F7C66254C3C660E0C93B2FFE7EF
:103AF400FFE7FFE73C6F6643360C7703BE4673432C
:103B0400DF0B5B04C01AB941130C7343DB18C91AE9
:103B1400CE086643360CB64493B273431F0F1B01A1
:103B2400C01AB941130C73431F0B1B05C01AB941CA
:103B3400860D8F023E436643360C092D24DB520A60
:103B44007243801A7703460A6643360C16235B1BBE
:103B5400DE40DF40BF1964466643821B704604356D
:103B640006330100D940A840C01900D30131A24254
:103B740006D20023F0BD0000000000D0FFFFFFFFCD
:103B8400121B0130F3D3F1E709277F1BFE40644683
:103B9400A2B27243801A00D20139220C7243130C70
:103BA4001204821A99410B00704604351337010040
:103BB400F940A840801900D30131002B02D1A24260
:103BC4000AD2F0BD013000D30131121BFAD2013BFD
:103BD400F8D1A24200D2F0BD013000D30131121B52
:103BE400F7E7F0B51C0C00D080E00CB400251C0AEB
:103BF40004D11B02160E3343120208351C0B04D1E8
:103C04001B01160F3343120104359C0B04D19B0096
:103C1400960F334392000235DC0B02D192185B41BC
:103C240001351C00971864410134464F7C66464CAC
:103C34003C660E0CFFE7FFE7FFE7C0463C6F6643B8
:103C4400360C7703BE4697B27743C01B00D20139C6
:103C5400C01B00D201399FB27743C91BC91B170C83
:103C640077437E04FF0B801BB941CE086643360CB4
:103C74000C2D33DBB644120B1F053A431B0B97B2D2
:103C84007743C01B00D201399FB27743C91B170C7D
:103C940077433E043F0C801BB941860D8F023E439F
:103CA400664329277F1BFE400C3D7746AF40BF1972
:103CB40030BCA2B2ABB272437343801A9941220C56
:103CC4007243130C1204801A994102000B0001374D
:103CD400001BA941F9D2781E0021F0BD0C277F1BDF
:103CE400FE4077467F0BAF40FF19E0E700245D1CE0
:103CF40007D0144F7D663966FFE7FFE7FFE7FFE76C
:103D04003C6F95B29EB265436643401BB141150CAE
:103D14001E0C6543664336042F0C3E432D04401BA2
:103D2400B141994204D202000B0020000021F0BDF1
:103D340001D19042F7D3801A994101349942F2D3C8
:103D4400F6E70000000000D0FFFFFFFF132370B56B
:103D54001D78012D15D010DD1C48FFF795FD1C4C76
:103D640001008022200000F0C1F8022D06D019487D
:103D7400FFF782FD184B186070BD154C174BA364F8
:103D8400F5E7164B124C23606360A360E360236184
:103D94006361A361E36123626362A362E3622363F9
:103DA4006363A363E36323646364A364E3642365D9
:103DB4006365A365E36523666366A366E3662367B9
:103DC4006367A367E367A364D1E7C0465344000075
:103DD400F09A00204C33000018FC0020A13B002086
:103DE40007B5604601880A0A0230DF2AFAD1C9B24F
:103DF400820804D3028840880004104300E000686D
:103E0400014A5050039007BDF09A002051434343A8
:103E1400C9188C46110C83B24B4310B4040C614393
:103E240092B280B2504362431C041B0C001910BCB4
:103E340059411304120CC0185141614470470000E9
:103E4400132310B512481C78FFF71EFD0100012C46
:103E54000AD003DD80220F4800F048F80E48FFF72F
:103E64000BFD0E4B186010BD0A4C5422200000F0CC
:103E74003DF80B4B6365A365E36523666366A36640
:103E8400E36623676367A367E3672362E361E5E7A8
:103E940053460000F09B00204C33000018FC002027
:103EA400653C002007B5604601880A0A0230DF2A13
:103EB400FAD1C9B2820804D30288408800041043AE
:103EC40000E00068014A5050039007BDF09B0020B9
:103ED40001480421014B18477099002059360020ED
:103EE400014B1B681847000070990020014B5B6868
:103EF4001847000070990020030010B50800110055
:103F04001B68984710BDC046F0B546464F46D64696
:103F1400C0B5437D80460E001700002B46D0002A12
:103F24003FDD4B1E9946244B0125002400209A4670
:103F34000DE04B461B5D0D3B5A425341325DDBB2F3
:103F44000A2A0BD02B00013401359F421ADD002CC4
:103F5400EFD14346325D1B7D0A2AF3D1002BF1D108
:103F6400A04204DA4346211A1B6830189847434696
:103F740050461B6802219847013428002B00013564
:103F84009F42E4DC874204DD4346391A1B6830183B
:103F94009847F619013E33780D3B5A425341424645
:103FA4001375E0BCBA46B146A846F0BD03681100DB
:103FB40030009847F5E7C0466C960020F0B5DE4621
:103FC40057464E464546E0B585B017001C0006002E
:103FD4000D00FEF759FA0023304A12184B41002B0A
:103FE40058DB2F4908008A4604F05AFC01906B1CE8
:103FF40003D1300004F024FC0500002C25D1294B0A
:104004009846294B1C68002C15D0002F20D1274F2F
:1040140002E02469002C0ED02368002BF9D03B6801
:10402400002B01D0A342F4D120002A003100C04764
:104034002469002CF0D1019B002B27D105B0F0BCE2
:10404400BB46B246A946A046F0BD194B9846D8E7F0
:10405400164B994602ABDF1D0A239B4602E02469F6
:10406400002CE8D02368002BF9D04B461B68002BAA
:1040740001D0A342F3D12A0031002000C0475B469F
:104084000122390020003B70C047E8E7504604F0A5
:1040940091FCD3E70122074B5242A2E740420F00B2
:1040A400CC990020C93C002040F5002048F50020B0
:1040B400B93C0020FFFFFF7FF0B5CE46474680B5F0
:1040C40083B06B460600DD1D2870FEF7DDF9002382
:1040D4001A4A12184B41002B2BDB19490800884659
:1040E40004F0DEFB174B81461C68002C14D0164FDD
:1040F40002E02469002C0FD02368002BF9D03B6820
:10410400002B01D0A342F4D1200001222900FFF7A3
:10411400FBFE2469002CEFD14B46002B05D1300067
:1041240003B0C0BCB946B046F0BD404604F042FC02
:10413400F5E70122054B5242CFE7C04640420F004B
:10414400CC99002040F5002048F50020FFFFFF7FB8
:1041540070B5040004F074FB002301000500012283
:104164002000FFF72BFF084B1C68002C06D0636867
:10417400002B05D098472469002CF8D1280070BD85
:104184002469002CF3D1F9E740F500200A4A1368AA
:10419400002B05D10CE01A001B691032002B07D04C
:1041A4009842F8D1002902D1036913600161704774
:1041B4000029FCD01060FAE740F50020F0B50D1E90
:1041C40015DD0E4B0D271A680D4B4519D3185942AE
:1041D4004B410C495B005E5E20210478A64207D067
:1041E40093691942FCD101301460A842F5D1F0BDA5
:1041F40093691942FCD11760F2E7C04644FC0020E1
:104204000080FCBF3CFC002030B504000D1E26DD00
:10421400002010211B4B013C1A689369194219D1E3
:10422400013093691942FCD1136823548542F4D1B7
:10423400154B1B68002B0CD050239363516B183B18
:1042440034320B401100802252010A4313600028CB
:1042540015D030BD0C4B1B68002BEDD1F7E70A4B92
:104264001B68002B0BD050223821064B1B689A6325
:104274005A6B3433114080225201134319600320D6
:104284004042E6E744FC0020C8F40020064B10B589
:104294001B68002B06D00021044A12689163044A6B
:1042A4001068984710BDC046C8F4002044FC0020A4
:1042B400CCF400201D4BF0B51A68C64698461C4B3A
:1042C4000E00D31859424B411A4F14331C000500F9
:1042D40000B53B68002807D0002B11D0164B3D6079
:1042E4001E6080BCB846F0BD002BF7D0906300215F
:1042F4002000FEF773FA20001049FEF7A7FBEDE754
:1043040020000E49FEF784FA01212000FEF766FA28
:104314004346502238211B689A635A6B3433114048
:104324008022520113431960D8E7C04644FC0020A0
:104334000080FCBFC8F40020CCF400204D400020D5
:104344000C4B10B51B780C4B0C4C1B780C4B0221FE
:1043540000202360FEF7ACFE02210120FEF7A8FE38
:10436400E12120684902FEF71FFF01210548FFF7FC
:104374000DFF10BDFC0200100003001044FC0020DF
:10438400004003408099002070B50C4E0D001C00C5
:104394003060002A03DB02211000FEF789FE002CA6
:1043A40003DB02212000FEF783FE29003068FEF7BC
:1043B400FBFE01210248FFF7E9FE70BD44FC00202A
:1043C4008099002010B5024800F00CF810BDC046DA
:1043D40010FC002010B508220149FFF787FD10BD2D
:1043E40010FC002030B5002589B00400092200210A
:1043F40001A80095FFF774FD0922002105A8049582
:10440400FFF76EFD4B236A466846137004A90D221C
:1044140004F01CFB1521082220006944FFF766FD07
:1044240009B030BD10B501210520FEF7D7F910BD44
:1044340010B500220021024800F05AF910BDC04610
:1044440070F500208022024B5202DA647047C046A5
:1044540000201150F0B5C64600B5060000F022F960
:104464000C231B4DFF22AB6705201A49FEF7FAF90E
:1044740040239846184C402200212000FFF730FDCD
:1044840043460127238321210023144A6770A26035
:10449400136063545F316184414621870539635455
:1044A4000F4A10496360E260A1620B606362E262DA
:1044B40004F02EFB80239B052F64EB6490230A4AAF
:1044C4003000EA50FFF7BEFF80BCB846F0BDC046DE
:1044D40000001150358A002050F50020840010504F
:1044E400000110508000105010D001000B785B06C2
:1044F40002D14B78052B00D070478A78014B1A60A3
:10450400FAE7C04600001150F0B5C64600B54B7935
:104514000C791B0288782343CC787F21A4070140BF
:10452400C509A20F4F001400324E7A195201B21875
:10453400907001206840507000205B055B0DD070C6
:104544001383D4768046CA00012D33D02A4884468A
:10455400880162448446B4446046826040461060E8
:10456400002933D0254AC90090466246414451602F
:104574003F223F339343022C00D15B0020487A1939
:1045840001685201B218D1601E4ACB180360514031
:104594005340802288465201934228D84346A406B9
:1045A4001C4380237F197F011B06F6191C43736883
:1045B4001C6011E014488446880162448446B44473
:1045C4006046826240461060002909D100236D01D3
:1045D400761973600D4BF360012080BCB846F0BDC2
:1045E400084AC9009046624641445162C0E7FFF759
:1045F40015F9D3E750F50020840010500400105042
:1046040058F9002000001050800010500001105094
:1046140010B504F07DFA10BD10B57F200C002040C9
:104624004000E409110000191A00034B4001C018AE
:1046340000F05EF8012010BD50F500207F22130029
:1046440010B50B400A420BD0C9098022580040180B
:104654000649400140181201002104F021FE10BD5A
:1046640002220348C909521A8266EEE750F5002077
:10467400002011507F22100010B508400A4200D1DA
:1046840010BD0023C909400040180449400108181E
:1046940000220349C37004F003FEF1E750F5002043
:1046A400FFF7FFFF80220D4B520410B51A600C4B2C
:1046B4000C491A6010008B689843FBD10A4C9C2269
:1046C40000212000FFF70CFC802200215201074842
:1046D400FFF706FC0923636710BDC04600E00040F5
:1046E40000F0004000C000400000115000001050D5
:1046F40070B5837E04000D001600002B17D1002333
:10470400E38201332000A682A376256104F022FD12
:10471400002804D080219023084A8902D150200027
:1047240004F02CFD002805D00123237770BD04F08C
:10473400B1FDE4E7200004F0DFFDF7E700201150AD
:10474400F0B5C64600B5244E244A0500002433784B
:10475400234F002A32D0234A9046A34224D8E31A96
:10476400DBB2022B1DD85A00D318DB00FB185B68A0
:104774002800984733780134E4B29A1CA242ECDA58
:10478400194C532200212000FFF7AAFB1022FF211D
:10479400E01CFFF7A5FB20002022FF211330FFF7C8
:1047A4009FFB80BCB846F0BD424612686300944645
:1047B4001B19DB006344002BD9D1F2E700247B688A
:1047C4002800984733780134023318379C42D7DCE9
:1047D400032CE6D0F3E7C04639FD0120FD1A002082
:1047E4009C970020689F0020E0B10020024B58787D
:1047F400431E9841C0B27047E0B10020024B1878C4
:104804004007C00F7047C046E0B10020034B187842
:10481400FF38431E9841C0B27047C046BC9900207F
:10482400F8B5CE46474680B5344E050033780120AE
:10483400FF2B03D0C0BCB946B046F8BD53220021BB
:104844002F48FFF74DFB2F4C2000FDF79BFA2E4B12
:104854001C602E4C20001430FDF7B2FA200001F049
:10486400A3FD2B4B2B4F1C602B4B9846002B04D0E5
:104874003800FDF763FA294B1860424600243B7860
:10488400002A1ED0264A9046244A9146A3422AD89A
:10489400E31ADBB2022B24D85A00D318DB004344BA
:1048A4001B6898473B780134E4B29A1CA242EDDAC3
:1048B40028003570FFF7CEFD2800FFF7B3FD012077
:1048C400B8E7174B0024984643461B6898471823BB
:1048D4009C463B7801340233E0449C42E8DC032CE0
:1048E400F2D10020A6E74A461268630094461B19D9
:1048F400DB006344002BD3D100209BE7BC9900204C
:10490400E0B1002098B1002034B20020A09900202A
:1049140038B2002039FD0120FD1A0020689F0020D4
:104924009C97002010B501F077FA002806D0044BBC
:10493400186801F05DFB01235840C0B210BDC046A9
:1049440038B20020F0B5DE4657464E464546E0B53F
:104954008FB001F061FA002800D1C8E0C84BC94FFC
:10496400994618239A46053B9B46C74D0BACBB445E
:104974002E687269EFF3108172B61368002BFCD0B5
:10498400BFF35F8FB1613000210001F04FFB72690A
:10499400B369BFF35F8F0021116083F3108800288F
:1049A40000D1A4E06378082BE2D84A469B00D35890
:1049B4009F466368002BDBD0A0689847D8E77F2226
:1049C4002179B04B0A4056009B199846C809804487
:1049D400404601233030C6789E43C670C678033300
:1049E4009E43C670002A00D188E04346A74ADB7C78
:1049F400002A05D0A64A1278934270D39B1ADBB2E0
:104A0400022B74D85A00D218A24BD2009B181E69EC
:104A140062792078A368B047AAE701223B78012095
:104A240013433B7033230421FA5C8243FA54FA5C47
:104A34008A43FA540133FA5C8243FA54FA5C002044
:104A44008A43FA542378984600F074FC6022237950
:104A54001A40602A0AD0402A56D0DB06DB0E012B0E
:104A640000D199E0022B68D0002B5BD02078002184
:104A7400FFF7E4FD80212078FFF7E0FD78E7814B24
:104A84001B78DB0700D473E7834B002B00D16FE75F
:104A940000E000BF6CE77B4B1A78D20700D467E7CD
:104AA4007E4A002A00D163E718780007C00F00E0AF
:104AB40000BF5DE72078FFF743FE00F031FC784B40
:104AC400002B00D154E700E000BF51E72078FFF746
:104AD40037FE00F025FC22796A4B9A7048E75A00A9
:104AE400D218704BD2001B689B18002B8FD10FB0CB
:104AF400F0BCBB46B246A946A046F0BD6279207818
:104B0400A36800F02BFC33E767480028AED000F020
:104B140011FC012140460CAAFCF70EFF002800D02E
:104B240026E7A3E7202A71D0002A9FD16379092BB5
:104B34009CD85E4A9B00D3589F467023217A0B422F
:104B440094D10F330B405B00F818CE0900934F4B00
:104B54008019C07C002B06D04D4B1B78984200D2A4
:104B6400B0E0C01AC0B202286AD843009C46494B40
:104B74006044C0009C46030063440193002A64D04F
:104B8400019EF3681800009300F0D4FB0121404615
:104B9400F3680CAA9847C1E7237A0F2B00D965E77D
:104BA4003A4AFB18DB78002A06D0394A1278934235
:104BB40000D27DE09B1ADBB2022B00D956E75E00DF
:104BC400F318344EDB00F618F06800F0B3FB012153
:104BD4004046F3680CAA9847002800D0C8E6602233
:104BE400160023791E401A4200D03FE763790A3B3E
:104BF400012B00D93AE700F09DFB63790A2B00D121
:104C040055E140460CA900F015FBB1E6237A0F2BC1
:104C140000D92BE71D4AFB18DB78002A06D01C4A72
:104C24001278934200D217E19B1ADBB2022B00D90F
:104C34001CE75E00F318174EDB00F618F068A3E7D4
:104C4400002A00D012E700230193607902230200B6
:104C540002909A43012A00D1DBE0002800D005E746
:104C6400009B0AAAFB189E193036F37802329B0780
:104C7400DB0F1380404602230CA900F0F3FA77E619
:104C840010970020E0B1002038B20020FD1A002067
:104C940039FD01209C970020000000000000000066
:104CA40000000000689F0020F916002034970020BF
:104CB400C44A5E00F3181668DB00F618002E00D113
:104CC400D4E681E743009C46BE4B60441B68C000A9
:104CD4009C46030063440193002AB6D0002B00D005
:104CE4004EE7C3E67B780AAA0232137040460123DA
:104CF4000CA900F0B7FA3BE6E088030AC0B20F2B18
:104D040000D9B3E6B0499A008A589746A379049328
:104D14001A007B789A4207D07B78002B00D038E1C8
:104D2400049B002B00D0CBE0049B40460CA97B7075
:104D340000F080FA1CE60CA800F002FB4046A179C2
:104D4400FFF776FB02223B7813433B7010E6E388BF
:104D5400012B00D08AE608223B78404613430CA975
:104D64003B7000F067FA03E6E388012B00D07DE690
:104D740008223B78404693430CA93B7000F05AFA52
:104D8400F6E5022039780AAB9A1C8B068908DB0FFA
:104D940001400B436DE78D4B002B00D166E6FCF719
:104DA40055FE021E00D161E6D37891781B020B43B5
:104DB40040460CA900F056FAB0E6854B002B00D112
:104DC40054E600E000BF021E00D14FE640461378CF
:104DD4000CA900F047FAA1E62189FCF7F7FD021EB1
:104DE400F4D143E6022B00D1DCE07A4B002B00D156
:104DF4003CE600E000BF0200002A00D136E6D3E71B
:104E0400FCF7D4FD122302000CA9404600F02AFA54
:104E140084E6E288002A08D1012827D0009BFB18E9
:104E24009E193036F3789B0734D5019E002E00D1AD
:104E34009EE5F3681800009300F07CFAF368012102
:104E44000CAA40469847002000F074FA3423FB5C17
:104E5400DB0700D58CE5D4E65A4A5E00F3181668E1
:104E6400DB00F618002E00D100E6E7E6009BFB18F5
:104E74009E193036F3789B07D7D5574B1878FFF730
:104E8400F9FB0222F3789343F370F378029A934385
:104E9400F370CAE7504B1878FFF7D0FB0222F3787F
:104EA40013430122F370F3781343F370BDE70AABA5
:104EB4009A1C404601230CA9167000F0D3F957E55B
:104EC400581EC0B2FCF77AFD002800D1CEE5437825
:104ED4000893022B00D0C9E501210600C2790936E6
:104EE400931152110B400A4012015B0113433A78AB
:104EF4002F318A4313433B70C37882781B021343D8
:104F0400C31807934346B0460693079B434500D80E
:104F14008CE0434601225B7803920B2B05D1434678
:104F2400DB78039343461B78984443465B78042B11
:104F340000D09BE542460021079B01919B1A9BB23E
:104F44000293264A264B00911B788A424CD0009A41
:104F54009A422BD3D31ADBB2022B00D986E55246F0
:104F64005343204AD6184146029A0698B368984794
:104F74008446082802D9029A824260D2009B0133F7
:104F8400D9B2174B00911B7801919A1C8A42DEDA40
:104F94006CE54046FFF73CFBBE784046FFF7D0FB8C
:104FA400BE70BDE6FCF70AFD020025E7054B564638
:104FB4001B6856430593059B9C466644002ED2D13C
:104FC40054E5C046689F00205C9700200D1800201F
:104FD4000000000000000000BC990020FD1A002021
:104FE40039FD01209C9700202C4B0593019AD3B2E4
:104FF4000093032A00D139E5059B41461E009B68B6
:10500400029A0698099398478446082802D9029A76
:10501400824214D2059B019A18330593204B013226
:105024001B78019202339A42E0DD1FE5069B984605
:105034001C4B002B00D177E600E000BF74E6039B15
:10504400012B23D0002240460BE08378D318DBB237
:10505400FB18D978FF2900D008E500990132D970EE
:10506400D2B2039B9A42F0D1664662468046010062
:10507400009B584600F054FFB446094B019A1B7834
:10508400E04402339A4200DC3FE7EFE4064BB268A7
:105094009A42D7D1089B0393D4E7C0469C9700203B
:1050A40039FD0120000000003D530020F8B55746AB
:1050B4004E46DE4645460C00E0B516001F00002AA9
:1050C4003CD0702398461E4B00259B461D4B9A46A8
:1050D4001AE05B461B78200099465346997800F005
:1050E400E3FE00281CD021004846FFF70DFA0028F3
:1050F40016D0A378DA09012A19D00A9A0135137057
:105104002378E418B54219DA6378052B08D1E378DB
:105114009B079B0FBB4203D14246A3781A42D8D0C7
:105124000020F0BCBB46B246A946A046F8BD0B9A87
:10513400013513702378E418B542E5DB0120F0E76C
:10514400BC990020E0B10020702270B58B780C006F
:105154001A4201D0002070BD064B20001D78064B7A
:10516400997800F0A1FE0028F4D021002800FFF770
:10517400CBF9F0E7BC990020E0B10020074B080010
:1051840019687F2310B50340C0095B003330181839
:10519400034B181800F044FE10BDC04634B2002082
:1051A400E0B10020074B080019687F2310B50340C5
:1051B400C0095B0033301818034B181800F058FE70
:1051C40010BDC04634B20020E0B100207F2070B58D
:1051D40008400F4C4000CD09241864193034E57898
:1051E4000020ED0700D570BD0126E5780948354358
:1051F4000078E570FFF710FA0028F4D10122E37873
:105204009343E370E37803329343E370EBE7C046E0
:10521400E0B10020BC9900207F22CB090A40044958
:1052240052008918C9183031C878C007C00F7047B8
:10523400E0B1002070B50A4E0500300008220C00D1
:10524400FEF754FE00237F21F3602278B36091427D
:105254005B412800D90100220023FFF7B7FF70BD8E
:10526400B4B00020F8B5CE46474691462A4E80B5E4
:105274000822070030000D009846FEF737FE4B4623
:10528400B3600023F381EC79A97924020C43231C35
:10529400444500D943469AB29046B381002C13D0BA
:1052A400002A1FD04B46002B34D0131C402A1FD891
:1052B4009BB2984633787F2B20D80021174A434667
:1052C4003800FFF783FF09E07F222B7838009A42E9
:1052D400644100230022E101FFF778FFC0BCB94616
:1052E400B046F8BD33787F2B11D980210022E6E740
:1052F40040239BB2984633787F2BDED9074C424635
:1053040049462000FEF7F2FD80212200D7E7002164
:105314000022D4E70020E1E7B4B00020A0B10020CF
:1053240010B5142200210248FEF7DAFD10BDC04674
:10533400B4B00020014B18617047C046B4B00020DF
:1053440010B5054C010008222000FEF7CFFD002314
:10535400A360E36010BDC046B4B00020F8B53B4C78
:105364001D0023780600DA09C9098A4213D00020F7
:10537400002D00D0F8BD364B002B03D021003000A7
:10538400FFF7B4F82369002B44D022000321300036
:1053940098470120EEE77F2B06D8A068002837D075
:1053A4002A002C49FEF7A2FDA368E2895919521973
:1053B400E38892B2E281A160934214D03F2D12D9C6
:1053C400A589A81A071C80B240282FD82378BFB219
:1053D4007F2B2DD80021AA4235D01E4A3B00300035
:1053E400FFF7F4FEC6E72369002B05D02200022153
:1053F4003000984700280FD07F2200212378300006
:105404009A42494100230022C901FFF7DFFEB1E7B8
:105414000020AFE70120ADE700213000FFF70EF9CF
:1054240030008021FFF70AF90120A3E74027CDE7E8
:10543400AA4207D0074C3A002000FEF757FD80210E
:105444002200CBE780210022C8E7C046B4B0002088
:10545400AD420020A0B10020F8B50400FFF7C6F962
:10546400002801D10020F8BDFFF7C8F90028F9D1C0
:105474001548164E444325002435AD19280000F084
:10548400A1FD0028EED037190020B978FFF776FE89
:105494000028E7D00E4B28009C466444A419210040
:1054A400402200F013FEB978051E08D00300220044
:1054B4000020FFF78BFE0028D4D02800D3E700207B
:1054C400FFF770FECEE7C046481100006C9F002035
:1054D4000811000070B51A4C82B000212000194A4E
:1054E400FEF7FEFCFF236371174B0025E3800126C2
:1054F400082321002000268123738022383100955F
:10550400073B103000F026FD210020008022B83136
:10551400520100960123243000F01CFD0B4BE618C9
:105524003000FCF72FFC86235B012662E61830006E
:10553400E561FCF727FC2663656302B070BDC046D5
:105544006C9F00204811000000C2FFFFB81000004B
:1055540010B5094C052200212000FEF7C1FC2000F3
:105564002434103000F020FF200000F01DFF012142
:10557400200000F039FF10BD6C9F0020F0B54B797E
:10558400060083B0022B02D18B79022B03D00025B5
:10559400280003B0F0BD2F4FBB78002BF7D18B78D8
:1055A40009253B700C780C196378242B0BD1082A3D
:1055B40002D80FE0AA420DD32378E418ED186378DB
:1055C400ADB2242BF6D0052B1FD0042B02D1637966
:1055D4000A2B2DD0204C200000F012FD3F28D7D9F3
:1055E4002600103E0020F178FFF7C8FD0028CFD038
:1055F400200000F005FD3F2815D9184BF178E2187A
:1056040000204023FFF7E2FDC2E721003000FFF74E
:105614009BFD0028BBD0A3787B702378ED18E41899
:105624006378ADB2D1E7F1780020FFF7BBFDAFE7B7
:105634000B4B27780193013300930222022330009D
:10564400E119FFF733FD0028A1D00E35ED19ADB2F5
:10565400C0E7C0466C9F00207C9F0020B81000006B
:105664006E9F0020F8B560231400127805001340E3
:105674000020202B12D12F4A6379277916781B0238
:105684003B439E420AD16378222B27D007D8202B94
:1056940017D0212B02D101293DD00120F8BD232BA5
:1056A400FCD101293FD00329F7D1234B002BF4D09F
:1056B400E178A37809020020194300E000BF01202B
:1056C400ECE7012927D00329E7D11C4B002BE4D0B8
:1056D4000020911D00E000BF0120DFE7012922D056
:1056E4000329DAD101252E00A378E47802392402B3
:1056F4001C431471264024321000714000F074FEE3
:105704000F4B002BC9D06208002031002A4000E072
:1057140000BF0120C2E7072321002800094AFFF740
:10572400A1FD0120BAE721002800FFF783FD012035
:10573400B4E7C0466C9F0020000000000000000099
:1057440000000000729F0020F8B557464E464546BB
:10575400DE46E0B5484F8046FA780C001E008A42C7
:1057640063D19AB2454BFD1810239B46BB442900D4
:10577400584600F065FD424BD946002B18D07B7982
:10578400D946FF2B14D0002E12D0AA19924603E05A
:10579400013555450CD07B792A789A42F8D1484690
:1057A40000F026FC0028F3D1797900E000BFEFE790
:1057B400344B002B04D0484600F01AFC002851D08A
:1057C400484600F01DFC3F2834D84A46103A9378E6
:1057D400A34207D001242000F0BCBB46B246A94630
:1057E400A046F8BD284B002B02D0002000E000BFEB
:1057F4000020FFF731FE0028ECD1244D280000F0F2
:10580400E1FB0028E6D1002EE4D0B306E2D1243D2A
:105814004046A978FFF7B2FC041EDBD00023002227
:105824004046A978FFF7D2FCD5E7BB788B42D9D0A4
:105834000024D0E74D46103D0020E978FFF79EFC98
:10584400002801D1AB78C3E7484600F0D9FB3F28D4
:105854000BD90F4A40230020E9784A44FFF7B6FCED
:10586400AB78B5E700E000BFAAE70020E978FFF7CE
:1058740099FCAB78ACE7C0466C9F0020C8100000D0
:10588400000000000000000000000000909F0020C5
:10589400B8100000F8B58C244746CE464443204E49
:1058A40080B53419050089460020617890461F00B0
:1058B400FFF764FC00281DD04B46002B1ED03B1C78
:1058C4003F2F29D88C244A466C439FB2331908349D
:1058D40034191A7241463A00601CFEF707FB01377F
:1058E400BFB28C20454376193B002200002071781A
:1058F400FFF76CFCC0BCB946B046F8BD3B1C402F5A
:105904000CD88C246C4308349FB234193A004146B5
:105914002000FEF7EBFAE4E73F23D3E74023F0E768
:1059240008B1002010B58C2200210248FEF7D8FAF5
:1059340010BDC04608B1002010B58C2200210248D9
:10594400FEF7CEFA10BDC04608B10020F0B54B7981
:1059540006000D0083B0032B0AD10879C400241A71
:105964001234A4B2944203D81B4F7B78002B03D08B
:105974000024200003B0F0BD097869184B78212B6E
:10598400F6D18823F9500B780200C9187B1C0193C7
:10599400BB1C009330000323FFF788FB0028E7D0EB
:1059A400AB79012B14D001233B71AB783B70882376
:1059B400FA58137AD1791B020B43B978FB8000297A
:1059C400D7D03A00402330004832FFF7FFFBD0E73E
:1059D400EB79FB70E7E7C04608B100201F23F0B560
:1059E40014001278050083B01340012B17D1614EC7
:1059F40020793378984212D1602318001040134262
:105A040008D020280BD163780B2B08D85A4A9B0066
:105A1400D3589F4601290DD16378062B0CD0002062
:105A240003B0F0BD012905D1012321002800534A08
:105A3400FFF718FC0120F3E7E378212B7ED0222B1B
:105A4400EDD10020FBF7B6FF21000200F388280007
:105A5400FFF708FC0120E3E7012917D00329E9D166
:105A6400A178474B3171002BE4D0002000E000BF47
:105A74000120D5E70129DDD1E178424B7171002B7A
:105A840004D0002000E000BF0028C8D02100280076
:105A9400FFF7D0FB0120C3E701295AD00329C9D15C
:105AA400E079A37900021843E278A178041C402825
:105AB40000D94024344BA4B2002908D0012806D9C7
:105AC4004820305C884202D1013C304BA4B2002013
