:020000041000EA
:1000000000B5324B212058609868022188439860DF
:10001000D860186158612E4B002199600221596106
:100020000121F02299502B49196001219960352056
:1000300000F044F80222904214D00621196600F024
:1000400034F8196E01211966002018661A6600F04E
:100050002CF8196E196E196E052000F02FF8012189
:100060000842F9D1002199601B49196000215960AB
:100070001A491B48016001219960EB211966A021F2
:10008000196600F012F800219960164914480160C1
:100090000121996001BC002800D000471248134993
:1000A000086003C880F30888084703B5996A0420EC
:1000B0000142FBD001200142F8D103BD02B5186610
:1000C0001866FFF7F2FF186E186E02BD00000240BE
:1000D000000000180000070000035F00212200005C
:1000E000F4000018222000A00001001008ED00E03C
:1000F00000000000000000000000000074B24E7A12
:1001000000200420F7010010C3010010C5010010F9
:10011000C1010010C1010010C1010010C101001097
:10012000C1010010C1010010C1010010C701001081
:10013000C1010010C1010010C9010010CB01001065
:10014000CD010010CD010010CD010010CD01001037
:10015000CD010010CD010010CD010010CD01001027
:10016000CD010010CD010010CD010010CD01001017
:10017000CD010010CD010010CD010010CD01001007
:10018000CD010010CD010010CD010010CD010010F7
:10019000CD010010CD010010CD010010CD010010E7
:1001A000CD010010CD010010CD010010CD010010D7
:1001B000CD010010CD010010CD010010CD010010C7
:1001C00000BE00BE00BE00BE00BE00BEEFF3058054
:1001D000103800BEF2EB8871D80200100403001042
:1001E0003402001090A31AE700202249086006C8D4
:1001F00081F30888104720480068002835D10DA4F5
:100200000ECC002902D000F012F8F9E71B491C4A75
:10021000002000E001C19142FCD11A4988471A49E7
:1002200088471A49884700BEFDE701C901C29A42C2
:10023000FBD3704704030010C0000020C8C1002099
:100240000CC40010D0C1002000DC00203CDE0010F7
:1002500000000420000004203CDE001000100420F8
:1002600000100420000000007047094800F014F856
:100270000047000008ED00E0000000D000DC002096
:10028000503F0220515200207D3300204553002072
:10029000575600000000000001B40248844601BC2B
:1002A000604700BF6969002006005250ABB360533D
:1002B00038D6002006005250861C030248D6002083
:1002C000060052505422A29D54D6002005005250E0
:0802D000DE65F4683CDE00105D
:1002D800CC020010C0020010B402001060D600204A
:1002E800A80200106CD6002078D6002030D8002054
:0C02F8003CD80020B4D60020C0D6002066
:10030400F8B5C0460448054B10B5834203D0044BEE
:10031400002B00D0984710BD00DC002000DC00203A
:100324000000000006480749091A8B10C90FC918B4
:1003340010B5491003D0044B002B00D0984710BDD2
:1003440000DC002000DC00200000000010B5074C99
:100354002378002B09D1FFF7D5FF054B002B02D0E2
:10036400044800E000BF0123237010BD40DF0020DB
:1003740000000000C8C10020054B10B5002B03D0BD
:100384000449054800E000BFFFF7CCFF10BDC0469C
:100394000000000044DF0020C8C10020F0B54E4634
:1003A4004546DE465746E0B5037805001A00803A14
:1003B400D2B289468FB01F2A09D90A0001320192AC
:1003C4000B701D2B0ED8CB499A008A58974603F020
:1003D400CBF8040020000FB0F0BCBB46B246A946DF
:1003E400A046F0BDFF234A46C34C1370F2E7022334
:1003F4004B444A469A46002353704278831C561E47
:10040400002A00D114E3012201923E329146D02207
:1004140012060124934615E000220121032004F072
:100424003FFD52464146280002F0C0FB002E00D199
:10043400E5E243460134DB193C19721E002E00D15B
:10044400D6E216005A1C1D7890464B464A460827A9
:100454002B402A4201D00733DF086BB2002BDBDAD2
:100464005B460822012103209A62002204F018FD51
:1004740052464146280002F099FB002E00D1D9E2F1
:10048400019B01349C46BC446346BA4401934346F1
:10049400D3E79A4B1A78022A00D0C6E24278DA7679
:1004A4009B7E934200D8C0E20E2001F09DFF01F034
:1004B4005DFE4A4600235370030A9070D370030C08
:1004C400000E8F4C1371507184E78C4A4378924626
:1004D4009376002B65D08178504611770022828470
:1004E400012B01D101F03EF9EA78C1844277521818
:1004F400022B27D0544628792285A0771218032B83
:1005040020D068796285E0771218042B1AD05646F9
:100514002024A879B28530551218052B12D0212435
:10052400E879F28530551218062B0BD02224287A4C
:10053400328630551218072B04D02324687A728629
:1005440030551218521A51468A86497F521A51461A
:10055400CA86022B25D05146897F521A51460A87F2
:10056400032B1ED0C97F521A51464A87042B18D038
:1005740050462021415C521A8287052B11D021213B
:10058400415C521AC287062B0BD02221415C521ABD
:1005940040214252072B04D01D39415C521A42219A
:1005A400425201331C0401231C43534B002249468D
:1005B4009C464A7064440DE7504A1378012B00D1DD
:1005C40098E2022B00D051E24378D376927E9A428D
:1005D40000D84BE2082001F007FFEB78A8781B0253
:1005E40003432879474C0004034368790006184301
:1005F40001F02AFE00234A465370EBE63F4B9A462D
:100604001B789B46012B01D100F0D5FE022B01D1B2
:1006140000F04FFE00234A46032053709370D370BA
:100624002B799B0700D42AE28024334BE4029C46B6
:1006340004436444CEE683784178C2781B020B43BA
:100644000179120413430906194300D122E22E4B07
:10065400994200D83CE20122284B5A705A60002388
:100664004A462A4C5370B5E600234A46284C9370F8
:100674005370AFE62A238178427809020A43534330
:10068400013BFDD100234A46224C5370A2E60025CB
:100694001A4BD0241D7004232406A36200220021D7
:1006A400022004F0FDFB08230022A36200210320A2
:1006B40004F0F6FB10230022A3620021042004F0BE
:1006C400EFFB20230022A3620021052004F0E8FBB5
:1006D40040230022A3620021062004F0E1FB8023D2
:1006E4000022A3620021072004F0DAFB4B460A4CE7
:1006F4005D706FE6A0CE002001000100DCDF002069
:1007040006000200020006009FACB90302000500C7
:100714000300010002000300020001004478022CDF
:1007240000D18DE1012C01D000F00AFFDC4BD02573
:100734001C7004232D066B626B610433AB62AB61E6
:100744007833AB62AB61703B002200210420AB62C2
:1007540004F0A6FB4023002200210620AB6204F033
:100764009FFB4B465C70CF4C34E64378012B89D910
:10077400FF234A46CC4C53702CE64278F12A01D12F
:1007840000F00CFF00D940E1042A01D100F0FCFE86
:10079400F02A01D001F056FA33234A46C34C937031
:1007A400323B4A46537015E603224378BC491A404B
:1007B4005B070132DB0F0A764B764A460023B94CBD
:1007C400537007E6811C4078002800D153E10123CF
:1007D400C41DE408013424041C43B54B9C46644402
:1007E40002F0B0F90023DCE702234B449B464A465F
:1007F400002353704778831C002F00D118E1012295
:10080400012401923E329146A04617E00736F608CD
:10081400731C9A4628005A4621006DB201F086FBEB
:10082400D044A319002D05DA019AB3449446B44484
:1008340062460192013F002F00D1D8E01D784E4658
:100844005C1C4B462E402B42E0D1092308269A46D5
:10085400E0E7431C0B93924B9A461B780A93012BB7
:1008640000D183E3022B00D165E18278C31C002A06
:1008740000D153E10220102406E00C4207D10133D9
:10088400013A002A00D149E119780842F5D105332B
:10089400F6E74378824A874C1373C37881781B0246
:1008A4000B431382437901791B020B4353820023C8
:1008B4004A4653708EE58178C478427800796B7922
:1008C40000020443A8791B042343000603430420C5
:1008D40004000C40A246084206D0D024240610424C
:1008E40001D100F00EFE6061082006000E40019662
:1008F400084206D0D0242406104201D100F004FEA0
:100904006061102005000D4008420BD0D0273F063F
:100914003C691600A4460F24A6433400664674407E
:100924002040F86148B2002804DAD0248027240645
:10093400A7626762002B41D040270F405E498B427B
:1009440000D90B009608B046D608B3465B49160991
:10095400B44696098C6A02965646D209002E01D0F6
:1009640000F0A8FD029E002E01D000F0FEFE00283B
:1009740001DB01F0BAF8D02000068046002F01D137
:1009840000F016FF0127019E002E05D04046406866
:10099400C008384083450DD1002D05D0404640683D
:1009A40000093840844505D140464068C0093840B4
:1009B400824203D0886A001B8342E5D8D0210423F5
:1009C40009064A684C681A40043323401343102232
:1009D40048684E684D68202110400343314070320E
:1009E4002A400B4313434A46354C5370F2E44446C1
:1009F400019B24041C432E4B9C466444EAE40022DD
:100A04000121032004F04CFA13E5FE2A01D100F081
:100A1400B4FDFF2A01D001F015F940234A46937032
:100A24000023284CD3700233BBE6FF234A4653709D
:100A34001C4CCFE400220121032004F031FA1FE50D
:100A4400174B04221C70D0231B065A625A610432CD
:100A54005A625A6108325A625A6130325A625A6191
:100A640040325A625A61603A9A627AE6FF234A46F1
:100A7400104C5370AEE48020134C4000B0E6EB7889
:100A8400AC781B021C430A4B01349C46A404044367
:100A940064449FE4FF234A460C4C53709AE4C046D6
:100AA400DCDF002002000200020003000300020059
:100AB4000100010002000600C0C62D0000400540F0
:100AC40002000700040002000200220002000500E8
:100AD400CD4B9A46002352465370CC4BC81806F0AF
:100AE400BDF8012803D00321013006F0B7F85346BE
:100AF4005860B4E5C278837812021A4303790DA9C9
:100B04001B041A43437900201B0613430D9302F080
:100B1400C5F900234A46BE4C53705BE400224946A3
:100B24004A708A700B9A9C1A022324041C43B94B02
:100B34009C4664444EE44B460333099300235246D7
:100B4400B54C23704378D376927E9A4201D800F054
:100B540052FDC31C9B4683780693002B01D101F000
:100B640093F800239846049307935B460393434604
:100B74000293039B5A1C1D7801232B400A330593CF
:100B84000223934608922B4200D1BDE0029B002B26
:100B940031D053461B8A079A9846059B934200D04E
:100BA400D0E0EB0600D5CDE047460DAE09E0002FBE
:100BB40001D100F0DCFC2378013F002B01D000F0D0
:100BC400D6FC3100280001F04DFD0228EFD00300CF
:100BD400012B01D001F01BF80D9B09991A0A0B7027
:100BE4004A701A0C1B0ECB70029B8A700A1D002BD4
:100BF40000D0AAE10992EB0600D5CFE0059B079A45
:100C0400934202D0180001F0EFFB53461E8A09E01C
:100C1400002E01D100F080FC2378013E002B01D08E
:100C240000F07AFC0021280001F01CFD0228EFD01E
:100C34000290012801D000F0E5FF059B6DB20793F7
:100C44005B460393002D0BDA53469B6809991A0AF5
:100C54000B704A701A0C1B0ECB700B1D8A70099313
:100C6400049B013304932378002B01D000F01FFE72
:100C7400069B013B0693002B00D07AE7039B9B461F
:100C8400029B9846079B0A2B02D00A2001F0ACFB7A
:100C94004346002B01D100F011FE53460DAF1D8ACF
:100CA40009E0002D01D100F019FE2378013D002B4D
:100CB40001D000F013FE39000E2001F0D3FC02280D
:100CC400EFD0012801D000F0AEFF0D9B09991A0A5C
:100CD4000B704A701A0C1B0ECB706B468A701A7C10
:100CE4000B1D09930A904B465A700A9A9A705B46F8
:100CF4000B9A9C1A099B2404019A9B1A1C43454B8A
:100D04009C466444FFF766FB029B002B00D0F2E094
:100D14005A465B4651781B789278090219431204AB
:100D24005B461143039ADB780532039220221B06AB
:100D34000B430D932A4200D1B6E05246536100237F
:100D440002938DE7079B0A2B02D00A2001F04CFB8B
:100D540047460DAE07E0002F00D1E1E32378013FC1
:100D6400002B00D0E6E331000E2001F07BFC0228CA
:100D7400F1D00A22079200220300029228E7534688
:100D84009B681A0A4A711A0C8A710A000B7108329C
:100D94001B0ECB710992EB0600D4DEE05B461A7899
:100DA4005B781B021A435B469B781B0413435A4629
:100DB400D27812061A43039B93460533089353468D
:100DC4005B8A079A9846059B934202D0180001F06B
:100DD4000BFB53461E8A07E0002E00D155E323780F
:100DE400013E002B00D050E30021280001F03AFC22
:100DF4000228F1D00300012801D000F041FF0DAE1C
:100E040053461F8A10E0C046DCDF00209FACB903C4
:100E14000200060001000100443F0220002F36D0EA
:100E24002278013F002A32D13100280001F01AFC57
:100E340003000228F2D0012829D152460D9B5269A1
:100E440013405A469A4200D1CFE34346002B06D0C2
:100E54000122524294462378E044002BD0D0029BD6
:100E640098461123089A9346059A07920221102066
:100E74005D46069A06E0304207D10135013A002A60
:100E840000D1A7E32E783142F5D10535F6E7514676
:100E9400029A496990460D9A0A4059469142E1D016
:100EA40010230343DBB2DDE7059B079A934202D08C
:100EB400180001F099FA53460DAE1F8A07E0002F7F
:100EC40000D180E32378013F002B00D073E331008D
:100ED400280001F0C7FB0228F1D00300012801D04B
:100EE40000F0AAFE6DB2002D00DA2EE3059B0793F5
:100EF40000230293B4E6079B0A2B02D00A2001F0D8
:100F040073FA53461B8A0DAE1F0005E0002F27D04D
:100F14002378013F002B23D131000E2001F0A2FBE6
:100F24000228F3D00300012801D000F076FE0D9BC7
:100F340009991A0A0B704A701A0C1B0ECB700B1D00
:100F440009930A238A700793E2E66BB2002B00DA56
:100F540015E70992EB0600D520E75B4603937FE68D
:100F6400029A030090460A2205927BE74B4603331C
:100F740005930023BE4C2370C31C984683780393C7
:100F8400002B01D100F0ACFD00230027069302934F
:100F940043460020B8461F007B1C9B460493022353
:100FA4003E78334200D1B1E04346002B2BD0534668
:100FB4001D8A11233340012B08D189E0002D00D173
:100FC40032E12378013D002B00D02DE10E200DA944
:100FD40001F064FF0228F1D000239846012800D0D4
:100FE400D0E00D9B05991A0A0B704A701A0C1B0E5F
:100FF400CB7043468A700A1D002B03D073B240465F
:10100400002B6CDB0592F30600D4BDE05B465A78F6
:101014001978120211435A469B78D2781B040B4369
:1010240012061A437B1D0493534693465F8AF307C3
:1010340013D553461D8A07E0002D00D1A2E0237882
:10104400013D002B00D09DE00021300001F026FF7F
:101054000228F1D0012800D094E053461D8A05E00F
:10106400002D48D02378013D002B44D130000DA938
:1010740001F014FF02000228F2D001283BD15246AD
:101084000D9B526913409B4500D10EE1002F00D106
:1010940008E12378013F002BDFD047461030049B42
:1010A4000222984610214546039B06E0314207D1AF
:1010B4000135013B002B00D145E22E783242F5D1B7
:1010C4000535F6E7002D5DD02378013D002B59D17D
:1010D40030000DA901F0E2FE0228F3D07EE753466A
:1010E4009B681A0A0B714A711A0C1B0E8A71CB7118
:1010F4000831059187E751460D9B496947460B40E6
:101104009B45CCD010201043C0B2C8E74346002B07
:1011140000D08BE05A465B4651781B78090219438C
:101124005B469278DB781204114320221B060B43A2
:101134000D930537324200D195E0524653610023A6
:1011440001209846029B013302932378002B00D0A0
:1011540004E3039B013B0393002B00D01CE73B00FB
:1011640047469846012800D1D4E2C3B20A934B46BD
:10117400029A5A700A9A9A7043460B9A9C1A24044B
:10118400059BB9E547468AE753461D8AF3070CD504
:101194004346002B35D000235F460693D2E7002D4B
:1011A400F0D02378013D002BECD130000DA901F0E3
:1011B40075FE0228F3D00128E4D176B2002E0BDAB2
:1011C40053469B6805991A0A0B704A701A0C1B0E39
:1011D400CB700B1D8A7005930D9B05991A0A0B7031
:1011E4004A701A0C1B0ECB700B1D059300235F462F
:1011F4008A700693A6E7002D16D02378013D002BB4
:10120400C0D10021300001F049FE0228F3D00128AA
:10121400B8D176B2002E00DAFEE100230693013342
:1012240098465F468EE70497002738E753461D8AA1
:1012340005E0002DA6D02378013D002BA2D10E207D
:101244000DA901F02BFE0228F3D001289AD10D9BA1
:1012540005991A0A0B704A701A0C1B0ECB700B1DE1
:101264008A70059356E753461B8A1D0009E0C04661
:10127400443F0220002D00D149E12378013D002B99
:10128400D1D130000DA901F009FE0228F2D00128C5
:10129400C9D176B2002E00DAFBE0012306930023C5
:1012A40098464FE747461120F9E60023049F06932A
:1012B40048E74B46043303931E0000235246D14CA7
:1012C40023704378D376927E9A4200D82EE1C37875
:1012D40082781B021343049300D127E103799846D3
:1012E4000123424613400A331800069301F07CF8A8
:1012F4005B464246134200D009E36B1D059300236D
:10130400029323004446A8461D000DAF05994A7870
:101314000B7812021A438B781B041A43CB781B06F2
:1013240013430D930B1D059353461E8A05E0002EAF
:101334003BD02B78013E002B37D13900200001F03F
:1013440091F90228F3D0012801D000F039FC029B66
:1013540001330293049B013B0493002BD6D1069BDB
:101364002C0045460A2B02D00A2001F03DF85346D2
:101374001E8A05E0002E09D02378013E002B05D1FA
:1013840000210E2001F06EF90228F3D08346029B5F
:10139400DAB21B0ADBB249464A705A468B70CA70ED
:1013A400039B019A981AFFF73BF9029B4546DAB270
:1013B4001B0ADBB2EFE74B4604331E000493002301
:1013C400904C82782370C3781B021343039300D19B
:1013D4009CE1037998469B0700D52FE10022431D29
:1013E400CB46250081464446984602920DAF4246BC
:1013F400434652781B7812021A4343469978DB78A5
:1014040009040A431B0613430D9304239C465346C5
:10141400E0441E8A05E0002E34D02B78013E002BD8
:1014240030D13900200001F039FD0228F3D0012821
:1014340028D1029B01330293039B013B0393002BAE
:10144400D5D153462C001E8A4D46D94605E0002EC0
:1014540009D02378013E002B05D100210E2001F094
:101464001DFD0228F3D08346029BDAB21B0ADBB2CD
:1014740049464A705A468B70CA70049B019A981A5E
:10148400FFF7CEF84D46D946EDE7029A03009046A1
:10149400E8E453469B6805991A0A0B704A701A0CC3
:1014A4001B0ECB70012306930B1D059300238A703A
:1014B400984647E6029E002E00D0D9E1019E002EF8
:1014C40000D095E1002800DB82E3D02701363F06F7
:1014D40078688008304080450DD1002D04D07868AC
:1014E40000093040844506D17868C0093040824202
:1014F40001D1FFF763FA886A001B8342E8D8FFF73B
:101504005DFAA061FFF7F0F9A061FFF7FAF9B846B8
:1015140043462F000493C2E5002202239046A1E42F
:10152400002290460A32030005929BE40023002225
:101534009B4630E70A22059200220300904691E47C
:101544000024FFF70EF9A8460CE653469B68099958
:101554001A0A0B704A701A0C1B0ECB70059B8A700A
:1015640007930B1D099300230293FFF779FB029A5B
:1015740003009046079A059274E402234A46224CDB
:101584009370013BFFF70DF94B460622981C1F4947
:1015940006F0F2F91E4C0623FFF703F94A464023EE
:1015A40093700233D370333B13710023194C53717E
:1015B4000433FFF7F6F8039B9B465A460892002231
:1015C400030090464EE4039BB8469B465A460300EC
:1015D400089247E4AB46012B01D1FFF753FB6A465F
:1015E400DBB2127C0A93FFF77EFB059B0793089BF3
:1015F4000393FFF735FB831C9B46002300220A93C9
:10160400FFF771FB443F02200300020098CE002044
:10161400080002000600020053469B6805991A0A56
:101624000B704A701A0C1B0ECB7000230693013307
:1016340098460B1D5F468A70059383E55B464246D8
:1016440013421BD053461F8A230044461D00804684
:1016540007E0002F00D10BE22B78013F002B00D0D4
:1016640006E20021200001F019FC0228F1D02B0031
:101674004546A0461C00012800D0D9E2039B0DAFCB
:10168400013B0293002303935B46AB46250044468B
:10169400B046059343460493029B002B31D0534636
:1016A4001E8A05E0002E24D02B78013E002B20D189
:1016B4003900200001F0F2FB0228F3D0012800D009
:1016C400C3E2424641460D9B13701A0A4A701A0C33
:1016D4008A7004229446049A1B0ED370039B029AC8
:1016E40001330393E044531E002A00D1C6E1029360
:1016F400D0E70221039B5D46DAB21B0A8B46DBB2BC
:10170400B6E601332342CAD00E24C8E700230022E0
:101714009B46ADE6002F00D1E4E053460DAF1D8A91
:1017240007E0002D00D19FE12378013D002B00D07C
:101734009AE139000E2001F0B1FB0228F1D0012812
:1017440000D0E2E00D9B05991A0A0B704A701A0C3E
:101754001B0ECB700B1D8A70059308E53B004746B2
:1017640004939CE48286FEF71CFF019E002E00D0A9
:101774002DE1002800DB6FE2D02000068046013610
:10178400002D05D04046406800093040844509D109
:10179400002F07D140464068C0093040824201D141
:1017A400FFF70CF9886A001B8342E9D8FFF706F9B2
:1017B4000127019E002E05D040464068C0083840ED
:1017C40083450FD1002D05D04046406800093840BC
:1017D400844507D140464068C0093840824201D15F
:1017E400FFF7ECF8886A001B8342E3D8FFF7E6F8BA
:1017F400D02701263F06002D1AD17D68AD0835405B
:10180400A8450FD17D68ED083540AB450AD10028C5
:1018140001DBFFF7D3F87D68ED093540AA4201D119
:10182400FFF7CCF88D6A2D1BAB42E6D8FFF7C6F85C
:101834007D68AD083540A84514D17D68ED08354074
:10184400AB450FD17D682D093540AC450AD1002840
:1018540001DBFFF7B3F87D68ED093540AA4201D1F9
:10186400FFF7ACF88D6A2D1BAB42E1D8FFF7A6F861
:10187400002800DB68E1D0200006002F00D1CCE076
:101884000127019E426892083A40904509D1002EF2
:1018940004D04268D2083A40934502D1002D00D0CA
:1018A40042688A6A121B9342ECD8FFF787F8039BBD
:1018B4009B46029B98460123FFF7D8FA53461D8A9C
:1018C40005E0002D09D02378013D002B05D100212E
:1018D4000E2000F0C7FE0228F3D00A906B461A7C53
:1018E400FFF701FA069B002B00D140E453461D8A02
:1018F40005E0002D09D02378013D002B05D10021FE
:101904000E2001F0CBFA0228F3D00A902FE45346BC
:101914001F8A23004446A8461D0005E0002F52D02C
:101924002B78013F002B4ED10021200000F09AFEBD
:101934000228F3D02B004546A0461C00012800D005
:1019440039E1049B0DAF013B05930023029323006F
:101954004446A8461D000496049B0393059B002B54
:1019640029D053461E8A07E0002E00D11DE52B78AE
:10197400013E002B00D018E53900200000F072FE73
:101984000228F1D0012800D01AE10D9B04991A0A0B
:101994004A701A0C8A700A1D0492039A0B701B0E6B
:1019A400D370029B059A01330293531E002A00D17F
:1019B4008CE00593D0E7069B0E240A2BD1D00A2095
:1019C40000F012FDCDE7002345461A00E3E4002DA4
:1019D4005ED0D0252D06A846012645466D68ED0843
:1019E4003540AB4513D145466D682D093540AC45AE
:1019F4000DD1002F0BD1002801DBFEF7DFFF454698
:101A04006D68ED093540AA4201D1FEF7D7FF8D6A12
:101A14002D1BAB42E1D8FEF7D1FF82460127019E80
:101A24005046406880083840804517D1002E05D0C4
:101A340050464068C008384083450FD1002D05D07A
:101A44005046406800093840844507D150464068F4
:101A5400C0093840824201D1FEF7B0FF886A001BFA
:101A64008342DDD8FEF7AAFF02230A93FFF77FFB28
:101A740002239B46002345461A00F9E44146059B90
:101A84005D469B46039B0491DAB21B0ADBB2EFE48A
:101A9400D0252D06AC46012665466D68ED08354017
:101AA400AB450DD1002F0BD1002801DBFEF786FFDB
:101AB40065466D68ED093540AA4201D1FEF77EFF07
:101AC4008D6A2D1BAB42E7D8FEF778FF0499029B81
:101AD40003910121DAB21B0A45468B46DBB25AE474
:101AE400002302930A93FFF742FBD026019A0120B8
:101AF4005F463606002A11D16746002D01D1FEF754
:101B04005DFF726812090240974201D1FEF756FF49
:101B14008A6A121B9342F0D8FEF750FF7268D2080B
:101B2400024097420AD1002D01D1FEF747FF7268A7
:101B340012090240944501D1FEF740FF8A6A121B44
:101B44009342EBD8FEF73AFFD026019A01203606DD
:101B5400002A15D172689208024090450AD1002DDE
:101B640004D0726812090240944503D1002F01D1B8
:101B7400FEF724FF8A6A121B9342EBD8FEF71EFF7E
:101B840072689208024090450FD17268D2080240F0
:101B940093450AD1002D04D072681209024094457D
:101BA40003D1002F01D1FEF709FF8A6A121B934269
:101BB400E6D8FEF703FF002383461A00FFF7EBFB8A
:101BC400029B4546DAB21B0A8346DBB2FFF7E3FB0E
:101BD400D026012047463606726892080240974292
:101BE4000AD1002D01D1FEF7E9FE72681209024004
:101BF400944501D1FEF7E2FE8A6A121B9342EBD8A8
:101C0400FEF7DCFE0022029B9046FFF72BF9029AB6
:101C14009046079A0592FFF725F9029A90460A2200
:101C24000592FFF71FF96B460A901A7CFFF75BF8E1
:101C3400002383461A001BE4039A0892002290466C
:101C4400FFF710F9134CFEF7ACFD039B5D46DAB2C7
:101C54001B0A8346DBB20BE4D02601203606002D96
:101C640004D0726812090240944503D1002F01D1B7
:101C7400FEF7A4FE8A6A121B9342F0D8FEF79EFE7A
:101C8400029A9046FFF7EEF800231A000A93FFF732
:101C94002AF8C04602000200F8B503787F2B04D06E
:101CA400FEF77CFB05002800F8BD0B7044780A4D54
:101CB400861C8F1C4C70002CF5D039003000FEF7C8
:101CC4006DFB030C2D180004000C013CF6183F18A2
:101CD400002CF2D1E7E7C0460200020000213D20BB
:101CE4000022174B10B51980586059612730013113
:101CF4001861198362381A739A7603F00DF9032078
:101D040003F00AF9042003F007F9052003F004F9AD
:101D1400062003F001F9072003F0FEF8D023042283
:101D24001B065A625A6104325A625A6108325A6274
:101D34005A6110329A6260329A625A6110BDC0468A
:101D4400DCDF002070B5774C200006F033F92378EF
:101D5400180901001A01D2B230319F2B00D9073182
:101D6400714B1009197000212170010030319F2A34
:101D740000D9D4E0597061780D0928000A01D2B263
:101D840030309F2900D9BFE000219870100961709C
:101D9400010030319F2A00D9B4E0D970A1780D092F
:101DA40028000A01D2B230309F2900D99FE00021D7
:101DB40018711009A170010030319F2A00D994E0F4
:101DC4005971E1780D0928000A01D2B230309F29F7
:101DD40000D97FE0002198711009E17001003031D1
:101DE4009F2A00D974E0D97121790D0928000A01CC
:101DF400D2B230309F2961D80021187210092171A4
:101E0400010030319F2A57D8597261790D09280091
:101E14000A01D2B230309F2944D8002198721009A7
:101E24006171010030319F2A3AD8D972A1790D0924
:101E340028000A01D2B230309F2927D80021187314
:101E44001009A171010030319F2A1DD85973E1791D
:101E54000D0928000A01D2B230309F290AD8002186
:101E640098731009E171010037319F2A00D80739AE
:101E7400D97370BD0021073098731009E171010016
:101E840037319F2AF4D8F2E70731DFE70021073022
:101E940018731009A171010030319F2AD6D9F3E7D4
:101EA4000731C2E7002107309872100961710100FF
:101EB40030319F2AB9D9F3E70731A5E7002107306C
:101EC400187210092171010030319F2A9CD9F3E75F
:101ED400073188E70021073098711009E17001008B
:101EE40030319F2A00D87EE7F2E7073168E7002106
:101EF400073018711009A170010030319F2A00D8F1
:101F04005EE7F2E7073148E70021073098701009CF
:101F14006170010030319F2A00D83EE7F2E70731B3
:101F240028E7C046403E0120583E0220F0B53F233A
:101F34004546DE4657464E46E0B51D0083B0019245
:101F44000540034200D14025430600D4FDE0D023E0
:101F540008221B065A618023042203400093824B0B
:101F640091469B46FB32D0238846042494461B06A4
:101F7400424610271078196902014A403A40DA6152
:101F84004A469A615A4651680A00013AFDD14E46C2
:101F94005A685E610E00013EFDD167465209D201C6
:101FA40046083A40012D00D1C1E01F6936017E4048
:101FB40010273E40DE610E009C61013EFDD15E684B
:101FC4000F005C61013FFDD18708BA466746760978
:101FD400F60152083E403243022D00D1BAE0574682
:101FE4001E693F017E4010273E40DE610E009C6169
:101FF400013EFDD15E680F005C61013FFDD1C70861
:10200400BA4667467609F60152083E403243032D2C
:1020140000D1A1E057461E693F017E4010273E4093
:10202400DE610E009C61013EFDD15E680F005C61C3
:10203400013FFDD167467609F60152083E4032431E
:10204400042D00D174E01E690F27B2460600BE437A
:1020540057467E4010273E40DE610E009C61013EE3
:10206400FDD15E680F005C61013FFDD14709BA46AE
:1020740067467609F60152083E403243052D00D1E9
:102084006CE057461E693F017E4010273E40DE61EA
:102094000E009C61013EFDD15E680F005C61013F52
:1020A400FDD18709BA4667467609F60152083E40D3
:1020B4003243062D00D153E057461E693F017E404E
:1020C40010273E40DE610E009C61013EFDD15E683A
:1020D4000F005C61013FFDD167467609F6015208A5
:1020E4003E40C0093243072D3CD01E6900017040B8
:1020F40010263040D86108009C610138FDD1586831
:102104005C610139FDD10099083D002908D05108CE
:102114004209D2013A400A4301990A704A1C0192C9
:1021240001229246D044002D00D021E706E0072585
:10213400009B002B02D0EA40019B1A7003B0F0BC54
:10214400BB46B246A946A046F0BDD02308221B06D2
:102154009A6100E70625EBE70525E9E70325E7E7AC
:102164000225E5E70125E3E7DCDF0020D022F0B516
:1021740004230824120633485461936141680D0016
:10218400013DFDD10D005361013DFDD194610C0071
:102194009361013CFDD10C005361013CFDD10C0065
:1021A4009361013CFDD153610B00013BFDD1C37E22
:1021B400002B0BD00424080094610138FDD10800E1
:1021C40054610138FDD1013B002BF4D10423D0220A
:1021D4001F2400269C46042712060B009761013B2E
:1021E400FDD153680D005761013DFDD15B09DB074B
:1021F4001E43013C7608002CEFD16046082353614E
:10220400906108000138FDD16446506854610C00A7
:10221400013CFDD1644694610C00013CFDD164464F
:1022240054610C00013CFDD19361634693610B0042
:10223400013BFDD1634653610139FDD14009C0071B
:102244003043F0BDDCDF0020D022F0B50423474644
:10225400CE4608246349120680B5546193618846CA
:1022640049680D00013DFDD10D005361013DFDD1D3
:1022740094610C009361013CFDD10C005361013C5D
:10228400FDD10C009361013CFDD153610B00013B76
:10229400FDD14346DB7E9C46002B0BD004250C006D
:1022A4009561013CFDD10C005561013CFDD1013B20
:1022B400002BF4D1D0221023120614692340D361D9
:1022C40004230C009361013CFDD153610C00013CDB
:1022D400FDD193610C00013CFDD153610C00013C24
:1022E400FDD193610C00013CFDD153610B00013B16
:1022F400FDD104231F2410269946042517690301E0
:102304007B403340D3610B009561013BFDD10B0051
:102314005561013BFDD1013C4008002CEED1434600
:102324009C7E6346E41A012C00D148E01369000145
:1023340058404B460640D66193610B00013BFDD1EA
:102344004B4653610B00013BFDD1A31E022C0DD063
:10235400D024042024060A00A061013AFDD10A0019
:102364006061013AFDD1013B002BF4D1D023082256
:102374001B065A61043A9A6108000138FDD15A617A
:102384000B00013BFDD1D02304221B069A610800F7
:102394000138FDD15A6108000138FDD10820986147
:1023A4009A6108000138FDD15A610139FDD11969DA
:1023B4000C328A43DA61C0BCB946B046F0BD08238A
:1023C40053611369000158404B463040D06193611A
:1023D4000B00013BFDD14B4653610B00013BFDD18A
:1023E400D1E7C046DCDF0020F0B5CE46474680B5D5
:1023F400854C6378002B5BD0D023042208211B0674
:1024040059619A615A619A615A6199619A615A61F2
:102414009A615A6119690C328A43DA61E27E944600
:1024240010325200A2189288002A05D00421013AE1
:1024340099615961002AFAD16346E3181B7F591E3A
:10244400012B0ED0D0221027042512061669030191
:1024540073403B400139D3614008956155610029BF
:10246400F4D1674618377F00E419A188002900D108
:10247400ACE0D02212061369000158401023184022
:10248400D06104209061506110698343D3614B1E75
:10249400012905D00421013B91615161002BFAD13E
:1024A400D02308221B065A61043A9A615A619AE0C1
:1024B400D0220825042112065561916163681E002B
:1024C400013EFDD11E005161013EFDD11E0091610E
:1024D400013EFDD11E005161013EFDD195611D00FB
:1024E4009161013DFDD11D005161013DFDD11D00F2
:1024F4009161013DFDD1516119000139FDD11021D6
:102504001569A943D161E17E8C46103149006118F7
:10251400898800290BD004271D009761013DFDD156
:102524001D005761013DFDD101390029F4D16246F6
:10253400A218127F551E012A18D01022D0219146CC
:10254400042709060A6990464646020172404E462F
:102554003240CA611A008F61013AFDD11A004F61FD
:10256400013AFDD1013D4008002DEBD166461836F5
:102574007600A419A188002948D0D0242406226911
:102584000001504010221040E06104201D00A061B1
:10259400013DFDD1606118000138FDD120698243FD
:1025A400E2614A1E01290BD004201900A0610139FF
:1025B400FDD1190060610139FDD1013A002AF4D13D
:1025C400D02208211206516104392AE0D0230822BE
:1025D4001B065A611A69000142401020104004226F
:1025E400D8619A615A61D023042208211B069A619A
:1025F4005A6199619A615A6119690C328A43DA61A4
:10260400C0BCB946B046F0BDDCDF0020D0220821B2
:102614001206516111690001484010210840D0613F
:102624000C39180091610138FDD151611A00013A49
:10263400FDD1D02204211206180091610138FDD188
:10264400180051610138FDD1082090611800916192
:102654000138FDD15161013BFDD1102311698B4338
:10266400D361CDE7F0B5DE4657464E464546E0B564
:102674008C4683B0384900904B78002B70D0D02220
:102684000423082412065461936153619461936195
:10269400536193615361CB7E04259A46002B04D089
:1026A400013B95615561002BFAD1D0231024009889
:1026B4001B061E694208120172402240DA6104229C
:1026C4009A615E685A611D693609A9464F468508B4
:1026D4002D017D402540DD619A615D685A611F6965
:1026E400AD06B946C70848463F0147402740DF6169
:1026F40002279A615C683E40E40814402643ED0FCB
:102704003543A9465A61012D00D134E108245C61A6
:102714009A615A61D023042208241B069A615A61E3
:102724009C619A615A611C690C32A243DA61009B74
:102734001B0602D5094B9B6A8B600A7B531E002A39
:1027440006D0D021042209068A614A61013BFBD2EA
:102754004B46D8B2B5E0C046DCDF0020004005405F
:10276400D0240825042224066561A2614B681E005A
:10277400013EFDD11E006261013EFDD1A5611D0037
:10278400A261013DFDD11D006261013DFDD11D002D
:10279400A261013DFDD162611A00013AFDD1CA7EF8
:1027A40004269046002A0AD01D00A661013DFDD1F1
:1027B4001D006661013DFDD1013A002AF4D1D02209
:1027C40010250098120616694408240174402C4010
:1027D400D4610424A94694611D00013DFDD15668CD
:1027E4001D005461013DFDD11569AA46574685086F
:1027F4002D017D404F463D40D5611D009461013D52
:10280400FDD157681D005461013DFDD11569AA46EB
:10281400C50850462D01454048460540D5611D0078
:102824009461013DFDD15568180054610138FDD112
:1028340002203609ED08064025403543BE06F60F52
:102844002E430196012E00D142E008255561946182
:102854001D00013DFDD154611A00013AFDD1D02281
:10286400042412061D009461013DFDD11D00546134
:10287400013DFDD1082595611D009461013DFDD107
:1028840054611C00013CFDD110241569AC43D46192
:10289400009A120602D5944A926A8A600A7B002A38
:1028A4000DD0D024042024061900A0610139FDD1E3
:1028B400190060610139FDD1013A002AF4D16B4657
:1028C400187903B0F0BCBB46B246A946A046F0BD99
:1028D400009C204200D1B9E004201F250026814637
:1028E40004271C009761013CFDD15468180057610E
:1028F4000138FDD16409E4072643013D7608002D23
:10290400EFD140468C7E241A012C00D1EEE04846DB
:102914001D009061013DFDD14D4657685561BF06CC
:102924001A00F80F013AFDD1A21E022C0DD0D027B7
:1029340004253F061C00BD61013CFDD11C007D61E6
:10294400013CFDD1013A002AF4D1D0220824120618
:102954005461043C94611D00013DFDD154611A0091
:10296400013AFDD16246002A00D178E7C407344316
:1029740014604B6873E7009A174234D004221F2571
:102984000026904604279F615A68013D5209D207E8
:1029940016435F617608002DF5D152468C7EA41A49
:1029A400012C00D1C4E042469A615D685A61AD06CB
:1029B400ED0FA31E022C07D0D02404222406013BD1
:1029C400A2616261002BFAD1D02308221B065A614E
:1029D400043A9A615A616346002B00D19AE6EA07E9
:1029E40032431A6096E66246156804221F241027B3
:1029F4009446042618692A0142403A40013CDA61AF
:102A04006D089E615E61002CF4D150468A7E141AD2
:102A1400012C00D15DE01A692D01554062462F401A
:102A2400DF619A615A61A31E022C07D0D0240422CC
:102A34002406013BA2616261002BFAD1D023082253
:102A44001B065A61043A9A615A6163E66046056856
:102A540004201F2710268246844610692C01444016
:102A640060463440D4611C009061013CFDD11C00DF
:102A74005061013CFDD1013F6D08002FEDD140466E
:102A84008C7E241A012C42D0504617692D017D40BA
:102A94003540D5611D009061013DFDD150611A00A2
:102AA400013AFDD1A21E022C0DD0D02704253F06E9
:102AB4001C00BD61013CFDD11C007D61013CFDD1C8
:102AC400013A002AF4D1D022082412065461043CAD
:102AD400BDE608225A611A692D01554062463D40FF
:102AE400DD619A615A6115E60040054008254846B3
:102AF40055611D009061013DFDD120004C46576891
:102B040054617F091A003840013AFDD12AE70824AC
:102B14005046546114692D0165403540D5611C004F
:102B24009061013CFDD150611A00013AFDD196E655
:102B340008225A6142469A615D685A616D092540CE
:102B440049E7C046F0B5C646421E00B5002827D066
:102B5400012008258046D020134BAC465E68002433
:102B640000230006043D10E04746013C1F4214D0F8
:102B74006746476137008561013FFDD137004561F4
:102B8400013FFDD15B08013A0AD3002CECD1474642
:102B94000B78072401311F42EAD167468761E9E7D0
:102BA40080BCB846F0BDC046DCDF00203F23F0B552
:102BB400D6464F4646461C00C0B50440034200D1E9
:102BC4004024030600D4ADE0554B92469C46D023E6
:102BD40004210427FF251B0662469F6152681000EA
:102BE4000138FDD1586816005F61013EFDD1C0086F
:102BF400C00128408046012C00D12FE110009961CA
:102C04000138FDD1586816005961013EFDD1464690
:102C1400C008C001760828403043022C00D122E1CC
:102C240016009961013EFDD15E685961B0461600F7
:102C3400013EFDD14646F608F60140082E403043D9
:102C4400032C00D113E116009961013EFDD15E68A9
:102C54005961B0461600013EFDD14646F608F6011C
:102C640040082E403043042C00D104E11600996141
:102C7400013EFDD15E685961B0461600013EFDD1AA
:102C84004646F608F60140082E403043052C00D194
:102C9400F5E016009961013EFDD15E685961B046C8
:102CA4001600013EFDD14646F608F60140082E40C6
:102CB4003043062C00D1E6E016009961013EFDD1B7
:102CC4005E685961B0461600013EFDD14646F608DD
:102CD400F60140082E403043072C00D1D7E01600FF
:102CE4009961013EFDD15E685961013AFDD1F20856
:102CF400D2012A40400810435246107001229046E7
:102D0400083CC244002C00D066E7D02380221B0676
:102D140092045A61E0BCBA46B146A846F0BDC0462A
:102D2400DCDF00200E0004205B4B84465A68D0236D
:102D34003078082504211B06002800D07EE05D625F
:102D440067469F611700013FFDD167465F61170029
:102D5400013FFDD14708012CD7D0002F00D06FE0F0
:102D64005D6217009961013FFDD117005961013F70
:102D7400FDD18708022CC8D0002F00D062E05D622C
:102D840017009961013FFDD117005961013FFDD141
:102D9400C708032C00D1B8E7002F00D054E05D62CF
:102DA40017009961013FFDD117005961013FFDD121
:102DB4000709042C00D1A8E7002F00D046E05D628B
:102DC40017009961013FFDD117005961013FFDD101
:102DD4004709052C00D198E7002F39D15D6217000F
:102DE4009961013FFDD117005961013FFDD1870968
:102DF400062C00D189E7002F2ED15D62170099615E
:102E0400013FFDD117005961013FFDD1C009072CD5
:102E140000D17AE700281DD15D6210009961013864
:102E2400FDD1100059610138FDD1083C0136002C58
:102E340000D16AE73078002800D180E79D627FE7FF
:102E44009D628EE79D629BE79D62A9E79D62B7E75D
:102E54009D62C4E79D62E0E79D62CFE74346D809DF
:102E64005346187051E75346800918704DE753468E
:102E74004009187049E753460009187045E753465E
:102E8400C008187041E75346800818703DE7534660
:102E94004008187039E7C046DCDF0020F8B54E461C
:102EA4004546DE465746E0B5424B060098465B78F9
:102EB4008946002B00D17FE0D023042208201B0682
:102EC40098629A615A61002E00D04CE158629A616E
:102ED4005A61D023082234001B065A62043A9A61CC
:102EE400B1085A61D02308221B065A62043A9A6137
:102EF40009195A61F408D02308221B065A62D02308
:102F040004221B0609199A615A61002900D148E17B
:102F140004329A62D024042308222406A3610121E6
:102F2400636103206262A3616361A262A36163615E
:102F3400A262002201F0B4FF4346197E04220B1E54
:102F440004D0013BA2616261002BFAD1D024042396
:102F540002202406A36162686361A36165686361FA
:102F6400A3616768AD087F08636105403B401D436A
:102F74001307DB0F1D43012D00D183E10B00AF1EAE
:102F8400042287432133002F00D153E1013BA26186
:102F94006261002BFAD100220121032001F080FF9D
:102FA4000823A362ECB22000F0BCBB46B246A9469B
:102FB400A046F8BDDCDF0020D022082104204346CF
:102FC4001206916290615B681C00013CFDD1506166
:102FD40018000138FDD1002E00D0C2E05162D0218A
:102FE4000422090618008A610138FDD14A611A00D9
:102FF400013AFDD10820720800D1DDE08862D021B9
:10300400042009061C008861013CFDD148611800B8
:103014000138FDD1B0081218002800D1C9E00820F9
:103024008862D021042009061C008861013CFDD17E
:10303400486118000138FDD10824B218F00800D105
:10304400B5E08C62D021042409061D008C61013D89
:10305400FDD14C611C00013CFDD11218002A00D1A5
:10306400A2E008228A62D024042224061900A26164
:103074000139FDD1190062610139FDD1082118001F
:103084006162A2610138FDD1180062610138FDD18D
:10309400A1621800A2610138FDD16261013BFDD13A
:1030A4000022A1620320073901F0FAFE43461F7E85
:1030B400002F00D17BE13A0004205B681900A06175
:1030C4000139FDD1190060610139FDD1013A002AAD
:1030D400F4D1D024042224069446A2611A00013AB1
:1030E400FDD161466268616119000139FDD1614613
:1030F400A16119000139FDD161466568616119005A
:103104000139FDD16146A16119000139FDD1614642
:103114006068616119000139FDD10221AD080D40DB
:103124008A4661464008084012070543D20F1543FA
:10313400012D00D1E2E05146AA1E8A4394463A008A
:10314400614604202132002938D01900A0610139D8
:10315400FDD1190060610139FDD1013A002AF4D191
:103164001AE791623BE7986274089A615A6100D148
:10317400AFE6986234199A61B1085A6100D1B1E698
:10318400986261189A61F4085A6100D1B3E69862B2
:10319400D02304221B0609199A615A61002900D020
:1031A400B6E608225A62B5E608224A625BE74C6238
:1031B40048E70820486234E7486220E74246527EE6
:1031C400002A03D05246324200D0B8E1002F0DD07D
:1031D400D020042100061A008161013AFDD11A00B1
:1031E4004161013AFDD1013F002FF4D100220121B8
:1031F400032001F055FE43465B7E002B14D0B30739
:1032040012D4D021082309064B62434604205C688B
:10321400212322008861013AFDD122004861013A4C
:10322400FDD1013B002BF4D1D02308221B069A6266
:10323400ECB2B8E643465B7E002B02D0304200D0AD
:1032440075E1002907D0D0220423120601399361C5
:1032540053610029FAD100220121032001F020FE4C
:1032640043465B7E002BDFD0B307DDD4D022082396
:103274000421120653621933013B91615161002B01
:10328400FAD1D1E705003540304200D0FFE00423F5
:10329400002904D00139A36163610029FAD1002215
:1032A4000121032001F0FCFD4B46D0211A680824BB
:1032B40020230420090607E0013B8C62AD188861D5
:1032C40052084861002B0BD0002AF5D1D0220820E7
:1032D40004211206013B506291615161002BF9D126
:1032E400D02308221B06002D00D038E15A62D023D7
:1032F40004221B069A6101245A6103E15146524695
:1033040031400D00324200D053E00421002F0AD096
:103314001A00A161013AFDD11A006161013AFDD19F
:10332400013F002FF4D100220121032001F0B8FD58
:103334004B46D02108201A6843462024844604279B
:103344005B6809060EE06046886218008F610138E8
:10335400FDD118004F610138FDD1013CAD18520870
:10336400002C11D0002AEED1D02208270420120606
:103374005762190090610139FDD11900506101397A
:10338400FDD1013C002CF3D1D02208211206002DDE
:1033940000D0E2E05162D0220421120618009161AB
:1033A4000138FDD15161013BFDD101244EE05B6840
:1033B4008FE60022924604329346033A5546202073
:1033C40000219446B2465A46A2611A00013AFDD140
:1033D40066466268D20832405E4666611E00013E5F
:1033E400FDD1AD184908D207013811430028EAD1AC
:1033F400042256461800A2610138FDD1606862615A
:10340400013BFDD16346C4081C406C401C400623AC
:10341400013C9C434B460834002B00D01960002F1C
:103424000FD04346D02104225868090603008A615C
:10343400013BFDD103004A61013BFDD1013F002F57
:10344400F4D100220121032001F02AFD330603D523
:103454004246444B9B6A936043461B7B002B11D02E
:10346400D021082209064A624246042055682A00EF
:103474008861013AFDD12A004861013AFDD1013B3E
:10348400002BF4D1D02308221B069A628BE500237B
:103494000A009A4620205146002504279246043308
:1034A4009C46033BA76162684908D2081A40AD18DC
:1034B4000138D207676111430028F3D152468A4686
:1034C400110062466046A26162686061D4081C40D3
:1034D4006C401C400623013C9C434B460834002BA3
:1034E40001D052461A60002907D0D02204231206C4
:1034F4000139936153610029FAD10022012103208B
:1035040001F0CEFC330603D54246164B9B6A93600A
:1035140043461B7B002BB5D0D022082112065162F2
:103524000439013B91615161002BFAD1AAE72123AF
:103534000422013BA2616261002BFAD181E62122BF
:1035440004201900A0610139FDD11900606101391D
:10355400FDD1013A002AF4D138E691621BE79A6260
:10356400C5E6C04600400540037801480B7070472B
:103574000100010030B583B008F042F8D0240125E1
:103584000190240601200021404204F0CBFF63682F
:103594005B0E1D420BD080239B04A36104F0B2FF99
:1035A4000028EFD1012101A808F0D6F9EAE704F0D8
:1035B4000DFF0028EFD004F011FFECE7D0238022A8
:1035C40010B51B06920482B09A6108F011F81548F0
:1035D40004F036FB08F008F9FEF780FB06F000FE65
:1035E400FEF7B0FB06F002FA04F09AFC0E4B8024BE
:1035F400019301236400220000930C4900230C482A
:1036040007F01AFD0B4B2200019302230A49009391
:103614000A48002307F010FD07F0FAFE002002B06C
:1036240010BDC04618CF00203C3E012030CF002002
:10363400353300200C37012034CF0020B136002070
:103644000020704770B51800084C04AB1D88210099
:10365400FCF7A4FE2B1C402D00D94023220000219E
:103664009BB2002005F006FF70BDC04620E000209C
:10367400F0B505001400012083B0012905D11378A9
:1036840000205B069B0F022B01D003B0F0BD5378E2
:10369400012BFAD1637912791B021343072BF4D15E
:1036A4006B46074E9F1D31000222380004F064F976
:1036B4003200210028003B88083A05F0C3FBE4E708
:1036C40058D000207047C04610B50248097801F070
:1036D4005DFFC04638CF002010B5014801F056FF09
:1036E40068CF00200048704718D000200048704779
:1036F4002CD000203E2306220148C2547047C04605
:103704007CD8002070B5002826D0062831D81A4B62
:103714008000C658300008F047FEC0B2011C1F28C4
:1037240015D8C9B2002821D00023144DAA1CF05C7E
:103734000133DCB210800232A142F8D8C023013137
:10374400C9B249009B0019432800298070BD1F217C
:10375400C9B20028E8D109E0084D074B02221968D4
:10376400A81C04F009F9C1218900EDE70449034DBF
:10377400EAE70020EAE7C046E0D80020D8F20020BB
:103784000203000000487047F4CF00207047C04691
:103794007047C04600207047F0B54646D6464F46AF
:1037A400C0B54B7906000C00FF2B1FD18B79002B81
:1037B4001CD1CB79002B19D1802081464F461E495C
:1037C4001E4D0B5004300B50A846EB512B5089254D
:1037D40004307F3F4B550F5441464B550F542379CA
:1037E400DD00ED1A0935ADB2AA4206D20025280043
:1037F400E0BCBA46B146A846F0BDE37A21009A4639
:1038040052460F4B300009311A7005F08DFA4346C9
:103814004A469A5851463A40920142444023300065
:1038240005F0C4FA2100A27C064B300010311A7056
:1038340005F07AFADBE7C046ECE0002060E0002007
:10384400473F0220463F0220F8B5CA090024012A56
:1038540014D0402B10D880268422214DAB59AF5868
:103864000133833A1340BB4219D18923EA541D4BD7
:103874000124186807F086FD2000F8BD402BFBD812
:1038840084258826184C635901336351A35D002BAA
:1038940012D0144B0124186807F074FDECE7AB59FF
:1038A4000133AB51AB591A4092014023521905F030
:1038B4007DFA8923EC54ECE767590C4B3A401B68BA
:1038C40092019BB2121905F071FA80226359A25831
:1038D40001339B1A5A425341DBB2A355D9E7C04680
:1038E40060E000200C370120ECE00020A4F300206D
:1038F400F0B54E46DE4645465746794BE0B59B4605
:10390400784B80269946784B784C984683B084232C
:10391400E258A3599A4200D197E084239A46534629
:10392400E55801272F40BF01E35D7E2B2AD107F024
:103934005FFE5346A159E258E35D6D489B00C358AE
:10394400E019407801350090584604F01BFA07F05E
:103954004BFF7F23E355A3599D42E2D107F048FE74
:10396400484604F06DF907F03FFF4346186807F036
:10397400A3FCA359AB42F1D001272F40BF01E35D63
:103984007E2BD4D053460125E15840222940890199
:103994006118584803F0F0FF07F02AFE5346A15976
:1039A400E258544B52481B7889279B00C35851480E
:1039B40040780090504804F0E5F907F015FF5346AD
:1039C4005246E3580133A350E35D002B73D14B49B6
:1039D4004848FEF761F94A4B186007F009FE524661
:1039E400484B434899599A58444B1B789B00C358F9
:1039F400454804F0C7F907F0F7FE07F0F9FD514612
:103A0400404B9A595B589A4224D001203D4B3C4A82
:103A14009B59126818403B4B80019C46120437495D
:103A24006044120C03F0A8FF364B364A9B593549C3
:103A34000133935188230022CA5407F0D5FE53461C
:103A4400E258A3599A4200D069E74346186807F040
:103A540033FC5CE72B4B01259859294B28401A6805
:103A6400284B80019C46120424496044120C03F044
:103A740083FF244B234A9B5922490133935113005A
:103A840052468C469A581E4B20491B682A40920184
:103A94009BB262440978002005F088F907F0A4FE7F
:103AA4005346E358A2599A4200D038E7434618686F
:103AB40007F002FC2BE707F09BFDA359002001331C
:103AC400A351A259124B2A4092011978A2184023FB
:103AD40005F06CF90023E35507F086FE77E7C0464E
:103AE40004D1002028D100200C37012060E0002000
:103AF400FCD800205CDF002034D100209CDF0020B3
:103B0400A4F30020ECE0002050D10020463F022026
:103B1400473F0220012303700048704754D300201C
:103B2400024B9C46614489000160704740000034A8
:103B340010B5040000F00CFD01002000FFF7F0FFB9
:103B440001235B426360BFF35F8F10BD10B50400B7
:103B540000F0FEFC01002000FFF7E2FF01235B42BE
:103B6400636000232372BFF35F8F10BD10B50400A0
:103B7400012000F0F9FC044B9C4660448000206066
:103B8400BFF35F8F10BDC0464000003483680B480C
:103B940010B5844661446244090112019A18591807
:103BA40054684B6801209C4201D802D00020C0B266
:103BB40010BD12680B689A42F9D8F7E7FFFFFF0FB0
:103BC400074810B50268EFF3108172B61368002B32
:103BD400FCD0BFF35F8F06F081FC0020002110BDF4
:103BE400283E0120F8B557464E464546DE46E0B528
:103BF40099460CAB1C780DAB1B78060090469A4690
:103C04000768002C11D1BC7B002C42D065003B68B6
:103C14002D19033D59194B78BB73002B00D1FB734D
:103C240000238B704B700B7004E065003B682D190A
:103C3400033D5919B2682A4B94464246E3181B01C6
:103C440063441A604A465A600A9A9A600B9ADA6088
:103C540000238B704B700B707B7B9B46002B2BD00F
:103C640022005946B8687B6898473A68002816D0FD
:103C74005B4658465B005B445519033BA870D1185A
:103C8400D35C002B00D06B705B460C707B73A34538
:103C940013D0F0BCBB46B246A946A046F8BD5B466D
:103CA4005B005B44033BD3189C705119525D002A9E
:103CB40000D05A705B460B707C7342464B46307D95
:103CC40000F032FB051E06D05346002B03D1210021
:103CD400306801F085F80E9B002BDAD01D70D8E710
:103CE400FFFFFF0FF0B5DE4657464E46454600231C
:103CF400E0B58BB00893674B8200D45800239B46F1
:103D0400099000F097FA626806000F00EFF310853F
:103D140072B61368002BFCD0BFF35F8F23689C46F8
:103D24005B7B9946002B00D169E0A2685A4B904610
:103D34004B441B01984443461A685B681000190001
:103D4400801BB941002900DC63E0099800F0ECFA1B
:103D540000230022984600230692079300239A46E4
:103D64006368BFF35F8F5A461A6085F31088534621
:103D7400002B08D10028C4D10BB0F0BCBB46B2461E
:103D8400A946A046F0BD089B414618024B4618437D
:103D9400D047626806000F00EFF3108572B613680F
:103DA400002BFCD0BFF35F8F002F50DB33003B436D
:103DB40002D02369002B61D12368D97B002907D065
:103DC4004A00521819688C4649466244033A5170B5
:103DD4009A7B002A01D14A469A734A46DA734B46C3
:103DE400E168013BCA5C0132CA545B4623616368E3
:103DF400BFF35F8F5A461A6085F3108881E700236A
:103E040000229846002306920793002300209A4636
:103E1400A6E7002902D1002800D096E700216046D9
:103E240000F05CFF43461A685B68069207934346BA
:103E34009B689A464346DB689846E3684B44013BDB
:103E44001B7808931B0203432361002088E723693E
:103E5400002BB1D0069A079B921BBB41002B15DBAC
:103E64005946049101210391494602914146019129
:103E7400514620000091FFF7B5FEB6E700F0DAF9ED
:103E840032003B0012184B41002BE9DA0122034BAC
:103E94005242E5E76C3B0120FFFFFF0FFFFFFF7F6E
:103EA40010B5144C6368002B04D00A211248FFF7A4
:103EB40037FE10BD2300114A1021206800F028FEAF
:103EC400032000F0ABF9032000F098FA03200C491A
:103ED40000F0E4F900F03CFB0A4B9C4603232375F5
:103EE400D0231B061B6860446375074B8000606029
:103EF400DC60DAE7FCDA0020283E01204D3900209E
:103F0400A53A0020400000346C3B01200048704773
:103F1400FCDA0020F0B54E464546DE465746E0B58D
:103F240085B0019310AB1B780600039300239946D8
:103F3400984600927268EFF3108B72B61368002BE8
:103F4400FCD0BFF35F8F3568AC7B002C3DD067009D
:103F54002B683F19033FDB195A78AA73002A00D152
:103F6400EA73B168474A8C4600980199A218120175
:103F74006244106051600E9991600F99D16042467D
:103F84009A705A701A706B7B9A46002B67D0220085
:103F94001900A8686B6898472A68002852D05346CD
:103FA40050465B005344D719033BB870D118D35C17
:103FB400002B00D07B7053460C706B7354454FD06C
:103FC400F3681B19013B187800E000207368BFF305
:103FD4005F8F42461A608BF31088002C4FD04B46FB
:103FE400002B08D10002204305B0F0BCBB46B2460A
:103FF400A946A046F0BD039B002B3ED00E9B00209B
:104004000F999847030004000D000B4335D0002995
:104014000ADA009A019B121BAB4100920193002B18
:104024000ADB039B994685E700F004F924184D4107
:1040340000940195002DF4DA0123134C5B420093A4
:104044000194EEE753465B005344033BD3189C7042
:10405400D119D25D002A00D05A7053460B706C738C
:10406400307D009A019B00F05FF981460028A7D0BB
:104074002100306800F0B4FEA2E70020B4E701207C
:104084004042B1E7FFFFFF0FFFFFFF7FF0B5EFF303
:104094000583CE46474680B505000C0085B0002B4D
:1040A40012D02C4A0020536A9C4203D8926A0130F1
:1040B400AA4204D305B0C0BCB946B046F0BDE01A6C
:1040C400421E9041C0B2F5E7234E02930193234B65
:1040D4000200009330000B00FFF71CFF031EE0DD1D
:1040E40020BF7168EFF3108772B60A68002AFCD00B
:1040F400BFF35F8FDAB294463068427B62451DD0CD
:10410400FF221A4051008946016891448846494675
:10411400414403398978002913D0F1681B0A884681
:104124004244013A1278DBB29A420FD07368BFF36B
:104134005F8F00221A6087F31088B2E7FF221A40CB
:10414400EBE732699342F1D13161EFE7614600F068
:1041540047FEEBE700400540FCDA002081390020EF
:10416400F0B5EFF30582D6464F4646461000C0B57B
:104174001038EFF3108872B6214C2368002BFCD062
:10418400BFF35F8F0123190081401E4D1F00696337
:10419400AA461D4D29601D4D2E78AC463500C540FC
:1041A4002F402B4209D1BFF35F8F276088F310881B
:1041B400E0BCBA46B146A846F0BD5346144D5F6A0A
:1041C40083005D59AF420ED3124A8E439B58624618
:1041D4001670BFF35F8F0022226088F31088002BD3
:1041E400E6D09847E4E70C4B92009C46624413687F
:1041F4001360BFF35F8F0023236088F31088D7E731
:10420400280100D0004005403C7005404C3F02208E
:104214002C3E0120C8350120D03F054010B50100D7
:10422400024A034800F016F910BDC0466CD30020C2
:104234004A3F0220034B596A0A00986A596A8A4223
:10424400FAD170470040054070B504000D00124AD1
:10425400536A1900966A536A8B42FAD130001900E6
:1042640024184D41AB4211D80ED02B000A494A6A9A
:104274009A42FCD307D1084A02E0516A994202D11A
:10428400916AA142F9D370BDA642EED9012301245B
:104294006442E5175B42E9E70040054070B504005D
:1042A4000D00EFF3108672B61A4A1368002BFCD087
:1042B400BFF35F8F002D1BD0200000F077F9164963
:1042C40081420AD0200000F079F90121200000F099
:1042D4005BF90123A340114A1360114BA400E5507C
:1042E400BFF35F8F00220B4B1A6086F3108870BDFA
:1042F4000B4BA200D5500122A2400A4920000B78A2
:1043040093430B70044900F077FA0021200000F079
:104314003BF9E5E7280100D0213F00203860054043
:10432400C83501204C3F0220F0B54F46D6464646DC
:10433400C0B507002C4C616A0D00A66A616AA942E7
:10434400FAD18B4208D805D00120E0BCBA46B14668
:10435400A846F0BDB242F7D9EFF3108A72B62348EB
:1043640001680029FCD0BFF35F8F0125BD402049BF
:104374001D4C8846097889462943C9B28C46414672
:1043840060460870391D1B48890065630A51B900ED
:104394000B50216A0020294219D0616A0800A66ADC
:1043A400616A8142FAD18B4219D801D1B24216D83E
:1043B400CC4516D00C4B1F201D625D6301230740C2
:1043C400BB400D4A1E38136043464A461A70BFF379
:1043D4005F8F0022054B1A608AF31088B5E700202E
:1043E400F5E70120F3E7C04600400540280100D06E
:1043F4004C3F02202C3E012080E200E0EFF3108CC1
:1044040072B60A490B68002BFCD0BFF35F8F0123FF
:104414008340074A0748136202789A430270BFF345
:104424005F8F00230B608CF310887047280100D045
:10443400004005404C3F0220024B18688007C00F23
:104444007047C04600C006408023DB051868000F93
:104454007047C04670B5EFF3108C72B60D4D2B68E3
:10446400002BFCD0BFF35F8F0724CB08C618C05CB9
:1044740001230C40A3401C000440034207D1034322
:104484003370BFF35F8F2C608CF3108870BD100005
:1044940001F07CF82C0100D0F8B54746CE4688469A
:1044A40080B5EFF3108C72B6214D2C68002CFCD033
:1044B400BFF35F8F9A422CD8D4080727055D0619ED
:1044C40001241740BC402C421FD0072101278946F4
:1044D40009E0D408055D06194C4639001440A14092
:1044E4000C00294211D001329342F2D20120404201
:1044F400BFF35F8F00220E4B1A608CF310880028E4
:104504000FDBC0BCB946B046F8BD2C431000347074
:10451400EEE7BFF35F8F00232B608CF3108801203C
:1045240040424346002BECD0089801F02FF8C046D7
:104534002C0100D00021044B044ABFF35F8F02C357
:104544009342FAD17047C046000100D0800100D0E8
:10455400044A1078431CDBB2172B00D910231370C4
:104564007047C04624DB002000B5054B83B0010032
:10457400009318221F230348FFF78EFF03B000BDEA
:1045840090D30020E036012001238340002904D089
:10459400034A1360034A13607047034A1360FBE73E
:1045A40080E200E000E100E080E100E0024B103036
:1045B4009B688000C058704700ED00E070B50D00A6
:1045C400EFF3108672B60F4A1368002BFCD0BFF3CA
:1045D4005F8F0D4B10309B6884001B590B4A93422C
:1045E40003D09D4201D000F0EFFF074B9B681D51A3
:1045F400BFF35F8FBFF35F8F0022024B1A6086F315
:10460400108870BD240100D000ED00E0CD01001041
:10461400F0B557464E46DE464546E0B585B0060041
:1046240002911700EFF3108B72B6674A1368002BE0
:10463400FCD0BFF35F8F0025644B5D579A46002D75
:1046440000DAA4E06B00624C03935B199B0098466C
:10465400A146C1444B4652469B79103613705D4BBC
:10466400B2009B68019299580B1B2F2B34D95A4BDB
:10467400994200D0A4E0039B584A9C46584B654499
:10468400AD006353434602336519E418554B0121C9
:10469400043B1B1B1B055B0D13436B80524BEF71DB
:1046A400AB80FF23AB71029BAB604B460B431900FD
:1046B400484B019A9B689950BFF35F8FBFF35F8F9C
:1046C4000022414B1A608BF3108805B0F0BCBB4646
:1046D400B246A946A046F0BD01200A008243D37920
:1046E400BB422FD845464E46130040491B1B5B4135
:1046F4005943090D3A4B63533A4B02356519043B50
:104704005B1B1B05354D5B0D2B4373800426B446A0
:10471400E0444444131F1B1B4C46A17102991B0522
:10472400A16049465B0D2B43A380314BE7710143E4
:104734001360BDE75800C01880002018C679BE4237
:104744002BD902000623D356002BF3DA101D824620
:104754002848804604267642B446E14450464E46F4
:10476400361A3005400D824656461C48957106435C
:104774009680039A944665441D4AAD0064192260EC
:104784004246A371029BA280E771A36090E700F008
:104794001BFF002553465D5754E7101D8246908841
:1047A4004005001584464046D4446646043020182B
:1047B400301AE0260005400D360230438046C9E732
:1047C40000F002FF57E7C046240100D04B3F02200F
:1047D40028DB002000ED00E0CD01001000E0FFFF29
:1047E40000A1FFFF58DB002001BDFFFFAAAA0000C3
:1047F4000148804701BD0000F0B5DE4657464E46ED
:104804004546E0B50C0083B0EFF3108972B6584A00
:104814001368002BFCD0BFF35F8F564B9A680300DC
:1048240010339F00D559544A9046954232D0A54240
:1048340043D0524EAA1B2F2A2CD8012282409246E2
:1048440051464F4A12681140019151464D4A116038
:10485400BFF35F8FEFF305829346002A33D1012320
:104864002A009A4393689C4208D177E04B005B1876
:104874009B00F3189968A1422AD01A0006215156C8
:104884000029F3DA019B002B19D052463E4B1A60E3
:104894003B4B1A60374B9B68DD51BFF35F8FBFF30F
:1048A4005F8F0022324B1A6089F3108803B0F0BC8A
:1048B400BB46B246A946A046F0BD1500EAE75246FB
:1048C400304B1A60E6E79342C9D000F07DFEC6E79C
:1048D40006215956002921DB4A005018800034185B
:1048E4008046A0689860E079D871062020569871B7
:1048F400002824DBA488F01A640524154444001914
:10490400E0240005400D24022043988052181F4BD8
:104914009200B6181A781970B271B3E75946002993
:104924000FD1FF3191711A49918018490A789A710F
:10493400184A9B1B5B415A43120D0A70A2E71648A2
:10494400E3E7164A1649D21A083A5002400D0143C9
:104954009980144952080A43DA8093E70621515694
:1049640013000029B8DA5A46002AEAD14546DCE7A2
:10497400240100D000ED00E0CD01001028DB002070
:1049840000E100E080E100E080E200E04B3F022033
:1049940001BDFFFFAAAA000001BD000062DB0020E8
:1049A40000F0FFFF00F8FFFF032310B50400074ADF
:1049B40018409446C0009C43FC33834064442268FE
:1049C40081409A4313000B43236010BD00E400E0D0
:1049D40070B5EFF3058101240443EFF3108C72B634
:1049E400214A1368002BFCD0BFF35F8F1F4B0500D7
:1049F4001F4AED1A6D416A43120D1E4D8900AE68BF
:104A040052B27658A6421CD00621595691421CD067
:104A140012215956914222D01E215956914220D03A
:104A24002A2159560324914210D0134B19781A7035
:104A34008171BFF35F8F00220B4B1A608CF31088D7
:104A440070BDAB680D4C5C50EFE7002461000919A0
:104A540089005B18FF21997109499980E5E70124D0
:104A6400F4E70224F2E7C046240100D028DB00204A
:104A7400AAAA000000ED00E04B3F0220CD01001087
:104A840001BDFFFF054B064A1360064A13605360DD
:104A94009360D36013615361936170478080808019
:104AA40000E400E004E400E070B505001400160022
:104AB400002915D00C00002A12D080686B68984732
:104AC400296800280ED073009B196200033B121959
:104AD400CB18033A9C7088188A5C002A15D106709A
:104AE400200070BD63001B197200033B9219CB18A0
:104AF400033A9E7088188A5C002A02D1047034003C
:104B0400EEE75A7004703400EAE75A700670E7E77B
:104B140030B583600023CCB2437301330473426025
:104B24008373C4730D000068012C06D9421C013341
:104B3400DBB2137003329C42F9D1FF2129404B00B0
:104B44005918002340180338437030BDF8B5CE46D9
:104B5400474606000C0080B5002907D04D000368C5
:104B64006D18033D5A195778002F04D12000C0BC9A
:104B7400B946B046F8BD7900C9190339884643449B
:104B84005978894600215970517073683A002100A0
:104B9400806898473368002814D042469A18947065
:104BA40059195B5D002B00D053700F7027004946E4
:104BB4003000FFF7CBFF390002003000FFF774FF2D
:104BC4000400D3E7424641465D19AF709A185B5C16
:104BD400002B00D06B701470E9E7C046F0B557465F
:104BE4004546DE464E46E0B50D006B0001685B1994
:104BF400DF1E0400C85D83B00192CA19002850D09A
:104C040043001B18033BCB185E78B446002E1AD120
:104C1400019E002E42D0E67B002E04D073009B1927
:104C2400CB18033B5D70A37B002B00D1A573E57308
:104C340000282FD10023537003B0F0BCBB46B2460A
:104C4400A946A046F0BD72006244033A89184A7826
:104C5400904600224A7091465A70010032002000AA
:104C6400FFF722FF43468246002B07D05B002168F2
:104C74004344033BCB185A78002A16D14246514686
:104C84002000FFF711FF2168019BCA19002BC2D134
:104C94000028CFD043001B18033BCB180021997088
:104CA400C8E7019B002BB6D1C4E750008018033835
:104CB4000918487883464846487058704146200091
:104CC400FFF7F2FE594680462000FFF73FFF4146BA
:104CD40002002000FFF7E8FE8046CFE7F0B5574614
:104CE4004546DE464E46E0B583B00191457B04005F
:104CF4006B0000685B19DF1EC15DC219002952D028
:104D04004B005B18033BC3185E78B446002E1CD1DD
:104D1400019E002E44D0E67B002E04D073009B1924
:104D2400C318033B5D70A37B002B00D1A573E5730F
:104D3400002931D1002328005370617303B0F0BC03
:104D4400BB46B246A946A046F0BD72006244033A8F
:104D54008018427890460022427091465A70200092
:104D64003200FFF7A1FE43468246002B07D05B00CA
:104D740021684344033BCB185A78002A17D1424692
:104D840051462000FFF790FE019B01002068C219E4
:104D9400002BC0D10029CDD04B005B18033BC318B6
:104DA40000209870C6E7019B002BB4D1C2E75000E5
:104DB4008018033809184878834648464870587064
:104DC40041462000FFF770FE594680462000FFF759
:104DD400BDFE414602002000FFF766FE8046CEE796
:104DE40070B5040000292CD0437B8B422ED005687B
:104DF40048004018033828188278002A21D053002C
:104E04009B18033BEA5CEE188A4202D11BE0002A9D
:104E140008D053009B18033BEB185A788A42F6D10A
:104E240042785A7000230122837043702000FFF7F8
:104E3400D5FE617B02002000FFF736FE607301207F
:104E440000E0002070BD43783370EBE701221900C5
:104E5400FFF7C4FE60730120F4E7C046094A8300EB
:104E640094464022634410B51C68C0006240C024CC
:104E740014408022520113431C60034B9C4660443F
:104E8400416010BD04C0014000400140034BC0001C
:104E94009C46604443681F2018407047004001400E
:104EA4000A4B80009C4604236044002901D00C2353
:104EB4000821002A00D10B00026853400C221A403A
:104EC40080235B01184302607047C04604C0014060
:104ED400074BC0009C466044036809045940C02342
:104EE4009B02194080235B01184301607047C04650
:104EF40004400140074BC0009C466044036809031A
:104F04005940C0239B01194080235B011843016071
:104F14007047C046044001400123D022834012065A
:104F240093629361094A830094464022634419685A
:104F3400C0004A40C021114080225201134319602D
:104F4400034B9C46052360444360704704C0014002
:104F540000400140F8B5CE464746040080B506201F
:104F64000E0000F023FA051E51D0524B5249E218AC
:104F740053425A418023DB039C4692054F4B6244C3
:104F84001A604F4B1A6010008B689843FBD1494B51
:104F94008021E3185A4253414A4A5B00490099521E
:104FA400062000F003FA3100C00001F057FEC309E7
:104FB40032D14022012190466162A362256BEB0746
:104FC40036D427008026E36A00232C3776013E433B
:104FD40033600620256300F0E9F94146800001F0C2
:104FE4003DFE236B05009846DB073BD46022E36A51
:104FF4005A406E23134033604346236380231022B8
:105004009B013B431A60304B23630323A3642800B2
:10501400C0BCB946B046F8BD2C4A93423FD90023E0
:105024002B492C4A6162A362256B9046EB07C8D5D5
:105034002200C02330329B011343234A06201A6006
:10504400666AA26AB601B61800F0B0F9224901F006
:1050540005FEB6020100300001F000FE0021FFF75A
:10506400F3F8AEE72200C02330329B011343164A03
:1050740006201A60636AA26A9B019946914400F073
:1050840095F94B4614499B02994601F0E7FD01004E
:10509400484601F0E3FD0021FFF7D6F8A6E77F229A
:1050A40099018846104001304008190080440300EB
:1050B40082E7C0460080FCBF00C0004000E0004022
:1050C40000F00040483E012001030000FEFF000004
:1050D400FFFF0000C0FF3F004E0E000030B50C2063
:1050E40083B000F0B9F9FFF7A7F900280ED0994B67
:1050F400994A1A605A609A60DA601A615A619A6130
:10510400DA611A62954A5A6203B030BD944CA067C2
:1051140000F0AAF90122934B1A60636C012BFCD1B5
:105124000322914B1A608E4A936B012BFCD10133FD
:1051340001218E4A8E480093043300F03DF9052383
:105144008C4A009301218C4800F036F98B4B5A6845
:10515400FF2A02D8802252005A6080227D4C824B62
:1051640021691201854D1A60002907D0606901F098
:1051740075FD431C5800C0180338FDD2E0217F4B55
:1051840002201A681140802252012A4311601968D2
:10519400484003210140116004219A681142FCD067
:1051A4008022802192012A43090111608022520049
:1051B4005A60734B2361734B5968FF2900D85A60B6
:1051C4000321684A6F4B116002399A681142FCD07E
:1051D400E0201A681040802252011A4310601868B7
:1051E4004840032101400220116066498A68104248
:1051F400FCD0802292011343802212011A60802283
:10520400614B52004A606361604B5968FF2900D8C2
:105214005A6080225E4BE16912015C4D1A600029DC
:1052240007D0606901F01AFD431C5800C018033808
:10523400FDD2E02255490B681A4080235B012B43C1
:105244001A60802380229B012B4312011A60802262
:10525400414B52004A60E3614E4B5968FF2900D824
:105264005A6080224C4B216A12014A4D1A6000296F
:1052740007D0606901F0F2FC431C5800C0180338E1
:10528400FDD2E02243490B681A4080235B012B4383
:105294001A60802380229B012B4312011A60802311
:1052A40080225B004B602C4BD20223623B4B59683B
:1052B400914200D25A608022394B616A1201374D03
:1052C4001A60002907D0606901F0C8FC431C58002B
:1052D400C0180338FDD2E02230490B681A408023FD
:1052E4005B012B431A60802380229B012B43120114
:1052F4001A608023DB024B60184B6362294B5A68A7
:10530400FF2A02D8802252005A608022264BA169CB
:105314001201244D1A60002907D0606901F09EFC37
:10532400431C5800C0180338FDD2E0221D490B6805
:105334001A4080235B012B431A60802380229B0147
:105344002B4312011A6080235B004B600E4BA36158
:10535400DAE6C046E4360120006CDC021BB700002C
:10536400008000403CB0004030B00040002F68593D
:1053740000800240008C864700C00240308000401C
:10538400001BB7003C800040405973075480004024
:1053940054B000406080004060B000406C80004029
:1053A4006CB000404880004048B00040014B800091
:1053B400C0587047E4360120F8B5040021481D00A8
:1053C40017000E0001F04AFC0100380001F046FC11
:1053D400069B29041B0319432368002B20DB1A4B6B
:1053E4001A4DE21853425A4180235B019C46120332
:1053F400174B62441A60174B1A601700AB689F433F
:10540400FBD1C022231D92011A4321232660A060F0
:1054140013602368002BFCDA0823E1601360F8BDF5
:105424003F2322681340B342D9D1A3681B051B0D47
:105434008342D4D1EE22E368D20213408B42CED110
:10544400EDE7C046001BB7000040FDBF00C00040B0
:1054540000E0004000F000408023024A9B00034328
:10546400D362704700800540AA23064A1B011360DB
:105474002F230549D360054B19605368002BFCDAD0
:105484007047C0460040024000B0FA00006002408D
:105494002C4B2D4A70B51A602C4A2D4B2D491A609D
:1054A40014008B689C43FBD12B4D2C4EB54208D283
:1054B400013E761BB60808CD984723000134B34259
:1054C400F9D1FFF70BFE264A214B1A60214A936853
:1054D400DB43DB01DD09002BF9D14022214B224CB7
:1054E400224E9A675A671A67DA66B44208D223686A
:1054F4002000002B20D00C34FEF728FBB442F6D356
:105504001B4E1C4CC022A168300002F035FAA66084
:10551400FFF710F8FFF7B6FAFEF7C2FC164C174E69
:10552400B44208D2013E361BB60808CC98472B007B
:1055340001359E42F9D170BD0834FEF7F9FAB44240
:10554400D5D3DDE700E00040BFCDFBFEFE7F3C008D
:1055540000F0004000C00040E4DB0020F4DB002049
:10556400FFFFFF0100F00140D4DB0020E4DB00205A
:105574000000002000ED00E0F4DB002000DC00204F
:1055840000BEFDE710B5FFF7FBFFC0460FB400B542
:10559400084883B002F054FB049B002B07D005A9F4
:1055A4001800019101F0E0FA034802F049FB0120E0
:1055B400FFF7E6FFACD3002064CF002010B501480C
:1055C400FFF7E4FFBCD3002010B50148FFF7DEFF6E
:1055D400CCD300207047C046F8B557464E464546E2
:1055E400DE46E0B599460A9B07009A460D9B88461D
:1055F400934615000B9E9B0710D10C9B9E420DD227
:105604009D1B14000E005D4422004B460134310002
:105614002020B847A542F7D1B0460B9E002E27D0D4
:10562400444675195346AA1B013E985D21004B461A
:10563400B847002EF6D123002C0098460D9B9B07FB
:105644000FD55B46E51A0C9BAB420AD946469846F1
:1056540022004B46310020200135B8470134A845CB
:10566400F6D82000F0BCBB46B246A946A046F8BD19
:105674002C00E3E7F0B54F464646D646C0B584B0A5
:1056840098460EAB1B78129F994694460D9C109B2E
:10569400119EBA0725D4002E4BD19C4200D3BFE003
:1056A40001223A4092461F2C00D9B8E00C9A551EAC
:1056B400302201E0202C03D001342A55A342F9D82A
:1056C4005246002A0DD0A6420BD9202C44D00C9A65
:1056D400551E302201E0202C3ED001342A55B4421C
:1056E400F9D1FA064DD57A053FD4002C39D10F9B58
:1056F400102B00D179E00F9B022B00D18AE03023DC
:105704000C9A012413704B46002B3FD02D230C9A86
:10571400135501340C9B624600930397434602964B
:105724000194FFF759FF04B0E0BCBA46B146A8465D
:10573400F0BD012215003D40AA463A422FD04A4608
:10574400002A02D10C323A4200D0013E9C42BAD225
:105754001F2CABD9202E27D92024FA06DAD57A05B6
:1057640003D4A3422DD0A6422BD00F9B102B32D0B2
:10577400022B20D0202CCDD030220C9B1B191A7068
:105784000134202CC6D04B46002BBFD17B070DD44F
:105794003B07BFD520230C9A13550134BAE79C422A
:1057A4009FD21F2C00D881E720249AE72B230C9A40
:1057B40013550134AEE7202CACD00C9B1B190134DB
:1057C4003AE0631E012C92D00F9A102A2AD0022AA2
:1057D4002FD01C00D0E7BB060ED4202C9AD00C9BF3
:1057E4001A19013478231370C4E7BB060DD4782347
:1057F4000C9A01241370BFE7202C00D18AE75822A9
:105804000C9B1B191A700134B4E758230C9A012419
:105814001370B1E70C9A603301241370ACE72024B1
:1058240000265EE7023CBA06E9D40C9A12191C0061
:10583400D8E70C9A9246534462221A709AE7C046FB
:1058440010B5002800D110BD02F0AEF9FBE7C04648
:105854000B0010B5002802D049681B68984710BD9A
:10586400F0B5DE4657464E464546E0B59BB09B46EE
:10587400249B89469846259B0B900C9240464246B1
:1058840019009A4601F0B3FC002800D0D8E00122A8
:1058940040465146774B524201F0A4FC002800D008
:1058A400CEE0012240465146734B524201F084FC43
:1058B400002800D0C4E0002200234046514601F0F5
:1058C4007BFC002800D0B9E1424653460A92099372
:1058D4008023289ADB001A400E92289A1A4201D19A
:1058E400062326930A9A099B1600134300D0C7E0A7
:1058F400289B002500261B0500D49BE100230D9363
:10590400269A0D9B9A4200DC9FE1D01A431E2693EF
:105914008023289ADB001A430023002728920D9342
:10592400279B0024BB4200D9DC1B0223289A1A407F
:105934000E92289A134203D07B427B415B421C4067
:105944000D9B002B07D00A9809992A00330001F017
:10595400D2FB0A900991002200234046514601F0EF
:105964002BFC002805D08020000684460999614458
:105974000991289A414B0B9D13400493269B0A9A44
:105984000293099B03940092019349465B462800C5
:105994000C9A00F08BF90400002F62D0289B22009F
:1059A40098061F23C0179843631C984649465B46D4
:1059B4006530A8470D9B0025DA179C18DB0F9A4623
:1059C4005440013F01E0202D13D00AAA94461F231E
:1059D400200063440A2101355E1901F03FF930319A
:1059E400317020000A2101F039F926000400092E43
:1059F400E9D805230693002304930A3303935346FB
:105A040005970B9F029312AB009342465B464946AF
:105A140038000195FFF72EFE0E9B0400002B20D0CA
:105A24000C9BC51A279BAB421BD91E0022005B4668
:105A3400494620200135B8470134AE42F6D810E07B
:105A4400289B42460493279B49460393269B0B9825
:105A540002935346009201935B460C9A00F026F998
:105A6400040020001BB0F0BCBB46B246A946A046C9
:105A7400F0BDC046FFFFEF7FFFFFEFFFFFF7FFFF23
:105A8400734B099F9C467800400D604401F0C2FBB3
:105A9400704A714B01F04DFB704A714B01F022FBCF
:105AA4003B03704A1B0B1A4304000D003000110025
:105AB4006D4B002201F00DFB6C4A6D4B01F039FB7C
:105AC40002000B002000290001F00CFB01F0BAFBDE
