:020000041000EA
:1000000000B5324B212058609868022188439860DF
:10001000D860186158612E4B002199600221596106
:100020000121F02299502B49196001219960352056
:1000300000F044F80222904214D00621196600F024
:1000400034F8196E01211966002018661A6600F04E
:100050002CF8196E196E196E052000F02FF8012189
:100060000842F9D1002199601B49196000215960AB
:100070001A491B48016001219960EB211966A021F2
:10008000196600F012F800219960164914480160C1
:100090000121996001BC002800D000471248134993
:1000A000086003C880F30888084703B5996A0420EC
:1000B0000142FBD001200142F8D103BD02B5186610
:1000C0001866FFF7F2FF186E186E02BD00000240BE
:1000D000000000180000070000035F00212200005C
:1000E000F4000018222000A00001001008ED00E03C
:1000F00000000000000000000000000074B24E7A12
:1001000000200420F7010010C3010010C5010010F9
:10011000C1010010C1010010C1010010C101001097
:10012000C1010010C1010010C1010010C701001081
:10013000C1010010C1010010C9010010CB01001065
:10014000CD010010CD010010CD010010CD01001037
:10015000CD010010CD010010CD010010CD01001027
:10016000CD010010CD010010CD010010CD01001017
:10017000CD010010CD010010CD010010CD01001007
:10018000CD010010CD010010CD010010CD010010F7
:10019000CD010010CD010010CD010010CD010010E7
:1001A000CD010010CD010010CD010010CD010010D7
:1001B000CD010010CD010010CD010010CD010010C7
:1001C00000BE00BE00BE00BE00BE00BEEFF3058054
:1001D000103800BEF2EB8871D80200100403001042
:1001E0003402001090A31AE700202249086006C8D4
:1001F00081F30888104720480068002835D10DA4F5
:100200000ECC002902D000F012F8F9E71B491C4A75
:10021000002000E001C19142FCD11A4988471A49E7
:1002200088471A49884700BEFDE701C901C29A42C2
:10023000FBD3704704030010C00000202892002068
:100240006C94001030920020B0A50020ECA70010A4
:100250000000042000000420ECA70010001004207F
:1002600000100420000000007047094800F014F856
:100270000047000008ED00E0000000D0B0A500201D
:1002800000090220E5400020C5220020D9410020BD
:10029000575600000000000001B40248844601BC2B
:1002A000604700BF7942002006005250ABB3605354
:1002B000E8A1002006005250861C0302F8A100208D
:1002C000060052505422A29D04A200200500525064
:0802D000DE65F468ECA70010E4
:1002D800CC020010C0020010B402001010A20020CE
:1002E800A80200101CA2002028A20020E0A30020E1
:0C02F800ECA3002064A2002070A20020F3
:10030400F8B5C0460448054B10B5834203D0044BEE
:10031400002B00D0984710BDB0A50020B0A5002048
:100324000000000006480749091A8B10C90FC918B4
:1003340010B5491003D0044B002B00D0984710BDD2
:10034400B0A50020B0A500200000000010B5074CA7
:100354002378002B09D1FFF7D5FF054B002B02D0E2
:10036400044800E000BF0123237010BDF0A8002062
:100374000000000028920020054B10B5002B03D08C
:100384000449054800E000BFFFF7CCFF10BDC0469C
:1003940000000000F4A8002028920020F0B5574681
:1003A400DE464E464546E0B5037804001A00803A1E
:1003B400D2B28A468FB01F2A09D9012252449346E9
:1003C4000B701D2B13D8BF499A008A58974602F028
:1003D40069F8040020000FB0F0BCBB46B246A94641
:1003E400A046F0BDFF235246B74C5370F2E7FF23FB
:1003F4005246B64C1370EDE700235246B44C93704A
:100404005370E7E72A238178427809020A43534369
:10041400013BFDD100235246AE4C5370DAE7AE4B9C
:100424001A78022A01D100F09DFDFF235246AB4CFD
:100434005370CFE7A84B98461B780193022B00D149
:10044400EEE200235246032053709370D370237955
:100454009B0700D48FE280249C4BE4029C46044317
:100464006444B7E7431C0A939B4B98461B780B9351
:10047400022B00D173E38278C31C002A00D157E217
:100484000220102406E00C4207D10133013A002A6D
:1004940000D14DE219780842F5D10533F6E74378E7
:1004A4008D4A8E4C1373C37881781B020B431382DD
:1004B400437901791B020B43538200235246537044
:1004C40088E70025844BD0241D7004232406A362EE
:1004D40000220021022003F02DFC08230022A36245
:1004E4000021032003F026FC10230022A362002134
:1004F400042003F01FFC20230022A3620021052016
:1005040003F018FC40230022A3620021062003F01C
:1005140011FC80230022A3620021072003F00AFCBF
:1005240053466F4C5D7055E74278022A00D10CE2C5
:1005340000225346644C5A704CE7674A437890460D
:100544009376002B65D0817840461177002282840F
:10055400012B01D100F083FDE278C1844277521867
:10056400022B27D0454620792A85A8771218032B19
:1005740020D060796A85E8771218042B1AD0464691
:100584002025A079B28570551218052B12D021258B
:10059400E079F28570551218062B0BD02225207AAB
:1005A400328670551218072B04D0607A2324728681
:1005B40030551218521A41468A86497F521A4146CA
:1005C400CA86022B25D04146897F521A41460A87A2
:1005D400032B1ED0C97F521A41464A87042B18D0D8
:1005E40040462021415C521A8287052B11D02121DB
:1005F400415C521AC287062B0BD02221415C521A4D
:1006040040214252072B04D01D39415C521A422129
:10061400425201331C0401231C432C4B002251463B
:100624009C464A706444D5E6022353449B46524692
:10063400002353704778831C002F00D1EEE1012280
:10064400012401923E329146A04617E00736F6088F
:10065400731C9A4628005A4621006DB201F0E2F854
:10066400D044A319002D05DA019AB3449446B44446
:1006740062460192013F002F00D151E11D784E46A0
:100684005C1C4B462E402B42E0D1092308269A4697
:10069400E0E782784178C37812020A4301791B04A7
:1006A4001A430906114300D174E10E4B994200D854
:1006B40075E10122084B5A705A60002352460A4CD5
:1006C400537087E6009F0020020002000100010031
:1006D40003000100020003008CA9002002000600B0
:1006E400020001009FACB90302000500057981787E
:1006F400C378427840792D022B4300041843A37930
:1007040004241B0603432000084080460C4205D005
:10071400D0200006144200D153E1446108252C0086
:100724000C4001940D4205D0D0200006154200D1A2
:1007340049E1456110252E000E400D420BD0D02713
:100744003F063869140084460F2084432000644621
:1007540060400540FD6148B2002804DAD0258027B6
:100764002D06AF626F62002B40D040270F40CD4969
:1007740002978B4200D90B0047469408A446CA4905
:10078400D408A1461409A3468D6A9409D209002FFE
:1007940000D01AE1002C01D000F0B4FC002801DBE9
:1007A40000F029FE0298002801D100F0CEFCD020F0
:1007B400000684460127019C002C05D06046406851
:1007C400C008384048450DD1002E05D06046406829
:1007D40000093840834505D160464068C009384067
:1007E400824203D0886A401B8342E5D8D021042387
:1007F40009064A684C681A40043323401343102204
:1008040048684E684D6820211040034331407032DF
:100814002A400B4313435246A44C5370DAE5A44BCD
:100824001A78022A00D0DDE54278DA769B7E93427C
:1008340000D8D7E50E2001F053FA01F013F952461F
:1008440000235370030A9070D370030C000E994C6C
:1008540013715071BEE5811C4078002800D195E0E9
:100864000123C41DE408013424041C43924B9C4618
:10087400644401F0E3FD002352465370AAE5437833
:10088400012B00D8C6E5FF2352468C4C5370A1E5DA
:100894004278F12A00D190E32CD8042A00D183E3D2
:1008A400F02A01D000F049FE32235246844C937062
:1008B400313BE1E7FF23524653704178831C4A1EC3
:1008C400002900D1AAE001243F2504E00134731873
:1008D4006418013A1DD328005E1C1B7808211840B7
:1008E4001D4201D00730C1085BB2002BEEDA3300A1
:1008F4000134EEE7FE2A00D16BE3FF2A01D000F0B9
:100904001CFE40235246937000236E4CD370023376
:10091400B2E7694B01209C4624040443644459E52E
:100924004446019B24041C43634B9C46644451E5A8
:10093400002251464A708A700A9A9C1A022324049F
:100944001C435D4B9C46644444E5594B04211A7096
:10095400D0231B0659625961043159625961083127
:100964005962596130315962596140315962596152
:1009740060399962DDE5504BA1789C46E478240205
:100984000C430134A4040443644423E580204E4C06
:1009940040006EE7FF2352464C4C53701AE5444B1B
:1009A4009846002342465370494BC81803F0B6FDDD
:1009B400012803D00321013003F0B0FD4346586001
:1009C4007BE68461AAE68561B4E6002C00D073E37B
:1009D400019C002C00D045E3002801DB00F08BFDD6
:1009E4001000D0271A00634684463F060134786815
:1009F4008008204083420CD1002E04D0786800097E
:100A04002040834505D17868C0092040844500D141
:100A1400ECE6886A401B8242E9D8E7E62D4CD9E42B
:100A24005346043303939946002342462A4D2B70C0
:100A34004378D376927E9A4200D8D6E2C3788278FD
:100A44001B021343049300D1CFE2012307793B40F7
:100A54000A331800069301F043F9019B3B4201D08D
:100A640000F040FC002202920DAA9146631D42460A
:100A740098464B46A1462C001D000592424643462B
:100A840051781B780902194343469278DB781204A3
:100A940011431B060B430D9304239C46059BE04422
:100AA4001E8A23E0C0C62D00004005400200070056
:100AB4008CA90020060002000100010002000300CE
:100AC40003000200040002000200220002000500EC
:100AD4009FACB90302000200F4080220002E00D1EA
:100AE4005CE22378013E002B00D057E22900380055
:100AF40001F034FA0228F1D0012801D000F026FDDB
:100B0400029B01330293049B013B0493002BB5D158
:100B1400059B25009846069B4C460A2B02D00A20CA
:100B240001F0DEF843461E8A05E0002E09D02B783A
:100B3400013E002B05D100210E2001F00FFA0228FE
:100B4400F3D0029B0190DAB21B0ADBB251464A7021
:100B5400019A8B70CA705A46039B981A77E45346DD
:100B64000333099300234246CA4D2B704378D3764E
:100B7400927E9A4200D819E3C31C019383780393AD
:100B8400002B01D100F066FC0023994602930593E3
:100B94005B460693019B5A1C1E78012393460892D8
:100BA400022233400A330493324200D186E04A469B
:100BB400002A00D1A0E04246148A059A934200D04C
:100BC400CFE0F30600D5CCE00DAF07E0002C00D158
:100BD40030E22B78013C002B00D02BE239003000AE
:100BE40001F0BCF90228F1D00300012B01D000F080
:100BF400BDFC0D9B09991A0A0B704A701A0C1B0E46
:100C0400CB704B468A700A1D002B74D073B2002B34
:100C140000DA13E10992F30600D51EE15B46019365
:100C2400029B013302932B78002B00D0C4E2039B78
:100C3400013B0393002BADD1069B9B46059B0A2BDE
:100C440002D00A2001F04CF84B46002B00D12CE3D3
:100C540043461C8A0DAB1E0007E0002C00D13EE386
:100C64002B78013C002B00D039E331000E2001F039
:100C740075F90228F1D0012801D000F056FC0D9B33
:100C840009991A0A0B704A701A0C1B0ECB706B462A
:100C94008A701A7A0B1D09930B9053465A700B9A5B
:100CA4009A70019B0A9A9C1A5A46099B2404981A22
:100CB400794B04439C466444FFF78CFB4B46002B62
:100CC40000D091E05A465B4651781B78927809022D
:100CD400194312045B461143019ADB7805320192F1
:100CE40020221B060B430D93324256D042465361D9
:100CF4000023994694E70992F30600D5ADE0059ADE
:100D0400049B9A4202D0180000F0EAFF43461C8A72
:100D140007E0002C00D162E12B78013C002B00D0CD
:100D24005DE10021300001F019F90228F1D081467B
:100D3400012801D000F004FC049B76B205935B46C5
:100D44000193002E00DB6BE743469B6809991A0A5E
:100D54000B704A701A0C1B0ECB700B1D8A70099312
:100D64005EE7059B0A2B02D00A2000F0B9FF0DAF05
:100D740007E0002C00D13CE12B78013C002B00D093
:100D84003FE139000E2001F0E9F80228F1D00A22EF
:100D9400059200220300914627E7049B059A93429B
:100DA40002D0180000F09CFF43461B8A0DAF1C00C4
:100DB40007E0002C00D143E12B78013C002B00D04C
:100DC40045E13900300001F0C9F80228F1D00300F0
:100DD400012800D0CFE376B2002E00DA19E1049B9B
:100DE4000593002399461BE7059B0A2B02D00A2092
:100DF40000F076FF43460DAF1C8A07E0002C00D1BB
:100E0400AAE02B78013C002B00D0A5E039000E208D
:100E140001F0A4F80228F1D00300012800D0B1E3C6
:100E24000D9B09991A0A0B704A701A0C1B0ECB7091
:100E34000B1D09930A238A70059343E743469B6875
:100E44001A0A4A711A0C8A710A000B7108321B0EB5
:100E5400CB710992F30600D4E0E65B465A78197820
:100E6400120211435A469B78D2781B040B43120694
:100E74001A43019B07920533089343465B8A059AFC
:100E84009B46049B934202D0180000F029FF43467E
:100E94001C8A09E0F408022001000100002C57D04C
:100EA4002B78013C002B53D10021300001F056F87F
:100EB4000228F3D00300012800D03BE30DAF4346E2
:100EC4001C8A05E0002C36D02A78013C002A32D155
:100ED4003900300001F042F803000228F2D0012862
:100EE40029D142460D9B52691340079A9A4200D178
:100EF40057E15B46002B06D00122524294462B78E0
:100F0400E344002BDBD0069B9B461123089A0192F5
:100F1400049A059202211020039A019C06E03042B3
:100F240007D10134013A002A00D131E12678314257
:100F3400F5D10534F6E74146069A496993460D9A78
:100F44000A4007999142E1D010230343DBB2DDE765
:100F5400069B9B460300D9E70A22069B04929B4604
:100F64000300D3E74278DA769B7E934201D8FFF7F9
:100F74005CFA082000F0B4FEE378A0781B02034377
:100F84002079000403436079C94C0006184300F03B
:100F9400D7FD002352465370FFF71CFA029B4C46C0
:100FA400DAB21B0ADBB2D1E553460622981CC149CA
:100FB40003F0BCFDC04C06235EE45246402393700C
:100FC4000233D370333B13710023BC4C537104338D
:100FD40052E402235246BA4C9370013B4CE4002283
:100FE400069B91469B46022390E70023002201932F
:100FF400ACE50022069B91460A329B46049203000C
:1010040084E70A2204920022069B91469B46030031
:101014007CE743469B6809991A0A0B704A701A0CBC
:101024001B0ECB70049B8A7005930B1D0993002340
:101034009946F5E5069B059A9B460492030065E7ED
:10104400069B019A9B46A146030008925EE7019A1B
:10105400069B089200229B469146030056E782862F
:10106400FFF7D7FAD0273F06002E00D1D0E01400B6
:1010740001261A006346A4467C68A4083440A342AF
:1010840014D17C68E4083440A1450FD17C6824095C
:101094003440A3450AD1002801DBFFF7A7FB7C6895
:1010A400E4093440A44501D1FFF7A0FB8C6A641B1A
:1010B400A242E1D8FFF79AFB002800DBCEE10298B8
:1010C400002800D1C4E06246D020B44601272E0097
:1010D4001D001300019C0006426892083A409342A6
:1010E4000AD1002C04D04268D2083A40914503D179
:1010F4006246002A00D042688A6A921B9542EBD865
:10110400FFF774FB019C002C5AD1002800DBDDE1C1
:10111400D02000068446029F0134002E05D060468C
:10112400406800092040834509D1002F07D160465B
:101134004068C0092040824201D1FFF757FB886A0A
:10114400401B8342E9D8FFF751FBD02000068446B8
:101154000127019C002C05D060464068C008384037
:1011640081450FD1002E05D0604640680009384003
:10117400834507D160464068C0093840824201D1A6
:10118400FFF734FB886A401B8342E3D8FFF72EFB4A
:101194000194012B00D151E56A46DBB2127A0B931C
:1011A4007BE5049B0593089B019339E5831C01931C
:1011B400002300220B9370E5069B9B460123A9E6BE
:1011C400D0242406A446002E00D1E8E00126029F84
:1011D40064466468E40834404C4513D1644664684A
:1011E400240934405C450DD1002F0BD1002801DBCC
:1011F400FFF7FCFA64466468E4093440A24201D172
:10120400FFF7F4FA8C6A641B9C42E1D3FFF7EEFA11
:10121400140001261A006346A4467C68A4083440DE
:10122400A3420FD17C68E4083440A1450AD10028C8
:1012340001DBFFF7DBFA7C68E4093440A44501D103
:10124400FFF7D4FA8C6A641BA242E6D8FFF7CEFA01
:10125400D02000068046100001271A006346844609
:10126400019C4046406880083840834217D1002CD6
:1012740005D040464068C008384081450FD1002E53
:1012840005D04046406800093840834507D14046B0
:101294004068C0093840844501D1FFF7A7FA886A3D
:1012A400401B8242DDD8FFF7A1FA43461C8A0FE0B7
:1012B40002000600F89E002008000200060002005A
:1012C40003000200002C09D02B78013C002B05D12F
:1012D40000210E2000F042FE0228F3D00B906B4652
:1012E4001A7ADAE443461E8A05E0002E74D02B787D
:1012F400013E002B70D10021380000F02FFE02289F
:10130400F3D0012867D10022049B0492013B0DAA6B
:1013140002934B469146424698464B46A1462C00C2
:101324001D00059243460393029B002B2FD0059B7F
:101334001E8A05E0002E23D02378013E002B1FD106
:101344002900380000F00AFE0228F3D0012800D05A
:1013540004E1424641460D9B13701A0A4A701A0C66
:101364008A7004229446039A1B0ED370049B029A3B
:1013740001330493E044531E002A31D00293D1E791
:10138400049B4C46DAB21B0ADBB2FFF7DFFB069B79
:101394000E270A2BCBD00A2000F0A2FCC7E70126B7
:1013A400029F64466468E4083440A1450DD1002FCF
:1013B4000BD1002801DBFFF719FA64466468E409DD
:1013C4003440A24201D1FFF711FA8C6A641BA34294
:1013D400E7D8FFF70BFA019000231A00FFF7B6FBDA
:1013E400414603910121049B4C46DAB21B0ADBB24D
:1013F4000191FFF7ABFBD024019A01204F4624064C
:10140400002A11D15F46002E01D1FFF7EFF962687F
:1014140012090240974201D1FFF7E8F98A6A521B88
:101424009342F0D8FFF7E2F96268D208024097428B
:101434000AD1002E01D1FFF7D9F9626812090240DE
:10144400934501D1FFF7D2F98A6A521B9342EBD834
:10145400FFF7CCF900231A000B931EE4D024019A61
:101464000120029F2406002A15D1626892080240D6
:1014740094450AD1002E04D06268120902409345B3
:1014840003D1002F01D1FFF7B1F98A6A521B9342AD
:10149400EBD8FFF7ABF962689208024094450FD18C
:1014A4006268D208024091450AD1002E04D06268D5
:1014B40012090240934503D1002F01D1FFF796F999
:1014C4008A6A521B9342E6D8FFF790F9D024012090
:1014D400029F2406002E04D062681209024093453C
:1014E40003D1002F01D1FFF781F98A6A521B93427D
:1014F400F0D8FFF77BF9D024012067462406626800
:101504009208024097420AD1002E01D1FFF76EF9EA
:10151400626812090240934501D1FFF767F98A6AAC
:10152400521B9342EBD8FFF761F96B460B901A7A82
:10153400FFF7B3FB069A9346E8E4154CFFF79CF9D2
:101544000022069B91469B460300DFE4029B4C4627
:10155400DAB21B0ADBB20190FFF7F8FA049B4C469F
:10156400DAB21B0ADBB20190FFF7F0FA069A93464F
:10157400059A0492CAE4069A9346019A08920022B4
:101584009146C3E4069A93460A220492BEE4C046F6
:1015940002000200F8B503787F2B04D0FEF7FEFEAC
:1015A40005002800F8BD0B7044780A4D861C8F1C7A
:1015B4004C70002CF5D039003000FEF7EFFE030C20
:1015C4002D180004000C013CF6183F18002CF2D131
:1015D400E7E7C046020002003D2000210022164B2E
:1015E40010B5586027301861198062381A739A76DA
:1015F400596102F0DBFB032002F0D8FB042002F067
:10160400D5FB052002F0D2FB062002F0CFFB072019
:1016140002F0CCFBD02304221B065A625A61043226
:101624005A625A6108325A625A6110329A626032BE
:101634009A625A6110BDC0468CA9002070B5774CDF
:10164400200003F0E7FC2378180901001A01D2B244
:1016540030319F2B00D90731714B100919700021CB
:101664002170010030319F2A00D9D4E0597061788B
:101674000D0928000A01D2B230309F2900D9BFE0F9
:101684000021987010096170010030319F2A00D93F
:10169400B4E0D970A1780D0928000A01D2B2303023
:1016A4009F2900D99FE0002118711009A170010041
:1016B40030319F2A00D994E05971E1780D0928004E
:1016C4000A01D2B230309F2900D97FE000219871FD
:1016D4001009E170010030319F2A00D974E0D971FA
:1016E40021790D0928000A01D2B230309F2961D82E
:1016F4000021187210092171010030319F2A57D836
:10170400597261790D0928000A01D2B230309F293B
:1017140044D80021987210096171010030319F2A68
:101724003AD8D972A1790D0928000A01D2B2303011
:101734009F2927D8002118731009A17101003031A5
:101744009F2A1DD85973E1790D0928000A01D2B2E4
:1017540030309F290AD8002198731009E1710100E3
:1017640037319F2A00D80739D97370BD002107305B
:1017740098731009E171010037319F2AF4D8F2E718
:101784000731DFE70021073018731009A171010048
:1017940030319F2AD6D9F3E70731C2E70021073059
:1017A400987210096171010030319F2AB9D9F3E7A9
:1017B4000731A5E7002107301872100921710100D3
:1017C40030319F2A9CD9F3E7073188E7002107309D
:1017D40098711009E170010030319F2A00D87EE72A
:1017E400F2E7073168E70021073018711009A1708A
:1017F400010030319F2A00D85EE7F2E7073148E75D
:1018040000210730987010096170010030319F2A5F
:1018140000D83EE7F2E7073128E7C046F007012089
:1018240008080220F0B53F234546DE4657464E469B
:10183400E0B51D0083B001920540034200D140256C
:10184400430600D4FDE0D02308221B065A618023FE
:10185400042203400093824B91469B46FB32D023E3
:101864008846042494461B064246102710781969BA
:1018740002014A403A40DA614A469A615A4651683E
:101884000A00013AFDD14E465A685E610E00013EDF
:10189400FDD167465209D20146083A40012D00D1D4
:1018A400C1E01F6936017E4010273E40DE610E0014
:1018B4009C61013EFDD15E680F005C61013FFDD17A
:1018C4008708BA4667467609F60152083E40324315
:1018D400022D00D1BAE057461E693F017E40102711
:1018E4003E40DE610E009C61013EFDD15E680F004A
:1018F4005C61013FFDD1C708BA4667467609F60127
:1019040052083E403243032D00D1A1E057461E69E0
:101914003F017E4010273E40DE610E009C61013E87
:10192400FDD15E680F005C61013FFDD16746760919
:10193400F60152083E403243042D00D174E01E6982
:101944000F27B2460600BE4357467E4010273E404E
:10195400DE610E009C61013EFDD15E680F005C619A
:10196400013FFDD14709BA4667467609F601520898
:101974003E403243052D00D16CE057461E693F01BD
:101984007E4010273E40DE610E009C61013EFDD189
:101994005E680F005C61013FFDD18709BA46674666
:1019A4007609F60152083E403243062D00D153E039
:1019B40057461E693F017E4010273E40DE610E00FF
:1019C4009C61013EFDD15E680F005C61013FFDD169
:1019D40067467609F60152083E40C0093243072D96
:1019E4003CD01E690001704010263040D8610800C8
:1019F4009C610138FDD158685C610139FDD10099C1
:101A0400083D002908D051084209D2013A400A434E
:101A140001990A704A1C019201229246D044002D79
:101A240000D021E706E00725009B002B02D0EA4006
:101A3400019B1A7003B0F0BCBB46B246A946A0464F
:101A4400F0BDD02308221B069A6100E70625EBE7C8
:101A54000525E9E70325E7E70225E5E70125E3E7AF
:101A64008CA90020D022F0B50423082412063348A0
:101A74005461936141680D00013DFDD10D00536136
:101A8400013DFDD194610C009361013CFDD10C003A
:101A94005361013CFDD10C009361013CFDD15361C4
:101AA4000B00013BFDD1C37E002B0BD004240800A6
:101AB40094610138FDD1080054610138FDD1013B26
:101AC400002BF4D10423D0221F2400269C46042793
:101AD40012060B009761013BFDD153680D0057615D
:101AE400013DFDD15B09DB071E43013C7608002C58
:101AF400EFD1604608235361906108000138FDD19D
:101B04006446506854610C00013CFDD16446946104
:101B14000C00013CFDD1644654610C00013CFDD134
:101B24009361634693610B00013BFDD163465361AE
:101B34000139FDD14009C0073043F0BD8CA9002014
:101B4400D022F0B504234746CE4608246349120642
:101B540080B554619361884649680D00013DFDD10B
:101B64000D005361013DFDD194610C009361013C72
:101B7400FDD10C005361013CFDD10C009361013C8B
:101B8400FDD153610B00013BFDD14346DB7E9C46F6
:101B9400002B0BD004250C009561013CFDD10C00F9
:101BA4005561013CFDD1013B002BF4D1D02210231F
:101BB400120614692340D36104230C009361013C91
:101BC400FDD153610C00013CFDD193610C00013C3B
:101BD400FDD153610C00013CFDD193610C00013C2B
:101BE400FDD153610B00013BFDD104231F241026BA
:101BF40099460425176903017B403340D3610B00E8
:101C04009561013BFDD10B005561013BFDD1013CC8
:101C14004008002CEED143469C7E6346E41A012C16
:101C240000D148E01369000158404B460640D66194
:101C340093610B00013BFDD14B4653610B00013B0B
:101C4400FDD1A31E022C0DD0D024042024060A00AA
:101C5400A061013AFDD10A006061013AFDD1013B66
:101C6400002BF4D1D02308221B065A61043A9A614E
:101C740008000138FDD15A610B00013BFDD1D0238E
:101C840004221B069A6108000138FDD15A6108003C
:101C94000138FDD1082098619A6108000138FDD10E
:101CA4005A610139FDD119690C328A43DA61C0BC29
:101CB400B946B046F0BD082353611369000158408A
:101CC4004B463040D06193610B00013BFDD14B4644
:101CD40053610B00013BFDD1D1E7C0468CA9002024
:101CE400F0B5CE46474680B5854C6378002B5BD073
:101CF400D023042208211B0659619A615A619A6112
:101D04005A6199619A615A619A615A6119690C32EE
:101D14008A43DA61E27E944610325200A218928815
:101D2400002A05D00421013A99615961002AFAD1A7
:101D34006346E3181B7F591E012B0ED0D0221027B7
:101D4400042512061669030173403B400139D3612F
:101D54004008956155610029F4D1674618377F0022
:101D6400E419A188002900D1ACE0D022120613693D
:101D74000001584010231840D06104209061506144
:101D840010698343D3614B1E012905D00421013B13
:101D940091615161002BFAD1D02308221B065A61AC
:101DA400043A9A615A619AE0D02208250421120665
:101DB4005561916163681E00013EFDD11E005161B1
:101DC400013EFDD11E009161013EFDD11E00516115
:101DD400013EFDD195611D009161013DFDD11D00C4
:101DE4005161013DFDD11D009161013DFDD1516164
:101DF40019000139FDD110211569A943D161E17E92
:101E04008C46103149006118898800290BD00427B9
:101E14001D009761013DFDD11D005761013DFDD1BC
:101E240001390029F4D16246A218127F551E012AF5
:101E340018D01022D0219146042709060A69904639
:101E44004646020172404E463240CA611A008F6112
:101E5400013AFDD11A004F61013AFDD1013D40081C
:101E6400002DEBD1664618367600A419A188002906
:101E740048D0D0242406226900015040102210408A
:101E8400E06104201D00A061013DFDD160611800E6
:101E94000138FDD120698243E2614A1E01290BD039
:101EA40004201900A0610139FDD1190060610139D4
:101EB400FDD1013A002AF4D1D02208211206516141
:101EC40004392AE0D02308221B065A611A6900014A
:101ED4004240102010400422D8619A615A61D023F4
:101EE400042208211B069A615A6199619A615A6118
:101EF40019690C328A43DA61C0BCB946B046F0BDF8
:101F04008CA90020D0220821120651611169000118
:101F1400484010210840D0610C3918009161013803
:101F2400FDD151611A00013AFDD1D02204211206DB
:101F3400180091610138FDD1180051610138FDD1BB
:101F440008209061180091610138FDD15161013B75
:101F5400FDD1102311698B43D361CDE7F0B5DE4683
:101F640057464E464546E0B58C4683B03849009006
:101F74004B78002B70D0D02204230824120654611D
:101F84009361536194619361536193615361CB7E17
:101F940004259A46002B04D0013B95615561002B22
:101FA400FAD1D023102400981B061E69420812019E
:101FB40072402240DA6104229A615E685A611D69A6
:101FC4003609A9464F4685082D017D402540DD612F
:101FD4009A615D685A611F69AD06B946C7084846EB
:101FE4003F0147402740DF6102279A615C683E4019
:101FF400E40814402643ED0F3543A9465A61012DE8
:1020040000D134E108245C619A615A61D02304222E
:1020140008241B069A615A619C619A615A611C6981
:102024000C32A243DA61009B1B0602D5094B9B6A62
:102034008B600A7B531E002A06D0D0210422090695
:102044008A614A61013BFBD24B46D8B2B5E0C04637
:102054008CA9002000400540D02408250422240631
:102064006561A2614B681E00013EFDD11E006261E4
:10207400013EFDD1A5611D00A261013DFDD11D0000
:102084006261013DFDD11D00A261013DFDD162618E
:102094001A00013AFDD1CA7E04269046002A0AD0CD
:1020A4001D00A661013DFDD11D006661013DFDD10C
:1020B400013A002AF4D1D02210250098120616699C
:1020C4004408240174402C40D4610424A94694613A
:1020D4001D00013DFDD156681D005461013DFDD137
:1020E4001569AA46574685082D017D404F463D4057
:1020F400D5611D009461013DFDD157681D005461F7
:10210400013DFDD11569AA46C50850462D0145403B
:1021140048460540D5611D009461013DFDD15568D7
:10212400180054610138FDD102203609ED0806403B
:1021340025403543BE06F60F2E430196012E00D1ED
:1021440042E00825556194611D00013DFDD15461B3
:102154001A00013AFDD1D022042412061D00946114
:10216400013DFDD11D005461013DFDD1082595615E
:102174001D009461013DFDD154611C00013CFDD161
:1021840010241569AC43D461009A120602D5944A0E
:10219400926A8A600A7B002A0DD0D0240420240687
:1021A4001900A0610139FDD1190060610139FDD127
:1021B400013A002AF4D16B46187903B0F0BCBB464F
:1021C400B246A946A046F0BD009C204200D1B9E029
:1021D40004201F250026814604271C009761013C2A
:1021E400FDD15468180057610138FDD16409E40732
:1021F4002643013D7608002DEFD140468C7E241AFB
:10220400012C00D1EEE048461D009061013DFDD156
:102214004D4657685561BF061A00F80F013AFDD1C3
:10222400A21E022C0DD0D02704253F061C00BD6140
:10223400013CFDD11C007D61013CFDD1013A002A25
:10224400F4D1D022082412065461043C94611D0088
:10225400013DFDD154611A00013AFDD16246002AC4
:1022640000D178E7C407344314604B6873E7009ADD
:10227400174234D004221F250026904604279F616C
:102284005A68013D5209D20716435F617608002D52
:10229400F5D152468C7EA41A012C00D1C4E04246EA
:1022A4009A615D685A61AD06ED0FA31E022C07D03A
:1022B400D02404222406013BA2616261002BFAD1DE
:1022C400D02308221B065A61043A9A615A61634674
:1022D400002B00D19AE6EA0732431A6096E662467A
:1022E400156804221F2410279446042618692A011D
:1022F40042403A40013CDA616D089E615E61002C07
:10230400F4D150468A7E141A012C00D15DE01A697A
:102314002D01554062462F40DF619A615A61A31E28
:10232400022C07D0D02404222406013BA26162615E
:10233400002BFAD1D02308221B065A61043A9A6171
:102344005A6163E66046056804201F27102682460A
:10235400844610692C01444060463440D4611C001A
:102364009061013CFDD11C005061013CFDD1013F55
:102374006D08002FEDD140468C7E241A012C42D0EA
:10238400504617692D017D403540D5611D0090618F
:10239400013DFDD150611A00013AFDD1A21E022C6B
:1023A4000DD0D02704253F061C00BD61013CFDD1A2
:1023B4001C007D61013CFDD1013A002AF4D1D022F8
:1023C400082412065461043CBDE608225A611A69C5
:1023D4002D01554062463D40DD619A615A6115E622
:1023E400004005400825484655611D009061013DA7
:1023F400FDD120004C46576854617F091A003840CB
:10240400013AFDD12AE708245046546114692D018C
:1024140065403540D5611C009061013CFDD150619F
:102424001A00013AFDD196E608225A6142469A61A1
:102434005D685A616D09254049E7C046F0B5C64656
:10244400421E00B5002827D0012008258046D02050
:10245400134BAC465E68002400230006043D10E0E4
:102464004746013C1F4214D06746476137008561E7
:10247400013FFDD137004561013FFDD15B08013AC1
:102484000AD3002CECD147460B78072401311F42B4
:10249400EAD167468761E9E780BCB846F0BDC0462B
:1024A4008CA90020037801480B70704701000100DB
:1024B40030B583B006F0D4F8D02401250190240669
:1024C40001200021404203F05DF863685B0E1D4269
:1024D4000BD080239B04A36103F044F80028EFD1C0
:1024E400012101A806F068FAEAE702F09FFF00283C
:1024F400EFD002F0A3FF0028EBD180239B0463619B
:10250400EAE7C046D023802210B51B06920482B0AD
:102514009A61FFF761F804F093FEFFF78FF804F077
:1025240095FA02F02DFD0D4B8024019301236400E4
:10253400220000930A4900230A4805F0ADFD0A4B26
:10254400220001930223094900930948002305F05E
:10255400A3FD05F08DFF002002B010BDEC070120A3
:10256400789F002071220020BC0001207C9F002065
:10257400E52500200020704770B51800084C04AB16
:102584001D882100FDF70AFF2B1C402D00D9402394
:10259400220000219BB2002003F09CFF70BDC046C6
:1025A400D0A90020F0B505001400012083B0012952
:1025B40005D1137800205B069B0F022B01D003B0DA
:1025C400F0BD5378012BFAD1637912791B021343BE
:1025D400072BF4D16B46074E9F1D310002223800B1
:1025E40002F0A4FA3200210028003B88083A03F0E4
:1025F40059FCE4E7A0A000207047C04610B502488B
:10260400097801F00DFFC046809F002010B50148F5
:1026140001F006FFB09F00200048704760A0002032
:102624000048704774A000203E2306220148C2548B
:102634007047C0462CA4002070B5002826D0062878
:1026440031D81A4B8000C658300006F0DDFEC0B207
:10265400011C1F2815D8C9B2002821D00023144D0D
:10266400AA1CF05C0133DCB210800232A142F8D81B
:10267400C0230131C9B249009B00194328002980B5
:1026840070BD1F21C9B20028E8D109E0084D074BED
:1026940002221968A81C02F049FAC1218900EDE759
:1026A4000449034DEAE70020EAE7C04690A400206D
:1026B40088BC002002030000004870473CA00020B2
:1026C4007047C0467047C04600207047F0B5464684
:1026D400D6464F46C0B54B7906000C00FF2B1FD1E0
:1026E4008B79002B1CD1CB79002B19D1802081460A
:1026F4004F461E491E4D0B5004300B50A846EB515B
:102704002B50892504307F3F4B550F5441464B5580
:102714000F542379DD00ED1A0935ADB2AA4206D271
:1027240000252800E0BCBA46B146A846F0BDE37ACD
:1027340021009A4652460F4B300009311A7003F0BB
:1027440023FB43464A469A5851463A409201424432
:102754004023300003F05AFB2100A27C064B3000DA
:1027640010311A7003F010FBDBE7C0469CAA00206E
:1027740010AA0020F7080220F6080220F8B5CA09BA
:102784000024012A14D0402B10D880268422214D05
:10279400AB59AF580133833A1340BB4219D1892353
:1027A400EA541D4B0124186805F01CFE2000F8BDF6
:1027B400402BFBD884258826184C63590133635178
:1027C400A35D002B12D0144B0124186805F00AFEF7
:1027D400ECE7AB590133AB51AB591A40920140239A
:1027E400521903F013FB8923EC54ECE767590C4BA3
:1027F4003A401B6892019BB2121903F007FB802236
:102804006359A25801339B1A5A425341DBB2A35570
:10281400D9E7C04610AA0020BC0001209CAA0020D1
:1028240054BD0020F8B55746DE464E464546564B45
:10283400E0B59B46554B80269A46554C554F84230C
:10284400E258A3599A425BD08423E558833B2B403A
:102854009B01E25C7E2A15D1013291467E3A904674
:102864004A46E254A35901359D4205D1386805F022
:1028740053FDA359AB42F9D043462B409B01E25C84
:102884007E2AEDD084220125A1584348294089019C
:10289400443A611802F04AF98422A3580133A35040
:1028A40089239846E35C002B59D13C493A48FEF70A
:1028B40071FE5B46186005F0CBFE534684219A599D
:1028C4005B589A4220D053465A4601209B591268BD
:1028D4001840800112043149120C504402F026F9C8
:1028E400534652469B595146013393518823002243
:1028F400CA5405F0A9FF8423E258A3599A42A3D1EC
:10290400386805F009FD9AE7534698595B46012556
:102914001A682840800112042049120C504402F025
:1029240005F9534652469B59594601339351842322
:10293400D2580B682A401A4992019BB25244097832
:10294400002003F063FA05F07FFF8423E358A259C3
:102954009A4200D078E7386805F0DEFC6FE705F0AE
:1029640077FEA35900200133A351A2590D4B2A40ED
:1029740092011978A218402303F048FA0023424632
:10298400A35405F061FF90E754BD00209CAA0020E9
:1029940010AA0020BC0001200CA900204CA9002092
:1029A400F6080220F708022001230370004870474C
:1029B4004CA10020024B9C46614489000160704791
:1029C4004000003410B5040000F00CFD01002000AC
:1029D400FFF7F0FF01235B426360BFF35F8F10BD1D
:1029E40010B5040000F0FEFC01002000FFF7E2FF38
:1029F40001235B42636000232372BFF35F8F10BD2A
:102A040010B50400012000F0F9FC044B9C4660441E
:102A140080002060BFF35F8F10BDC04640000034CB
:102A240083680B4810B5844661446244090112016D
:102A34009A18591854684B6801209C4201D802D056
:102A44000020C0B210BD12680B689A42F9D8F7E7AB
:102A5400FFFFFF0F074810B50268EFF3108172B64D
:102A64001368002BFCD0BFF35F8F04F067FD0020D8
:102A7400002110BDD8070120F8B557464E464546FB
:102A8400DE46E0B599460CAB1C780DAB1B7806000E
:102A940090469A460768002C11D1BC7B002C42D08A
:102AA40065003B682D19033D59194B78BB73002B06
:102AB40000D1FB7300238B704B700B7004E0650036
:102AC4003B682D19033D5919B2682A4B9446424676
:102AD400E3181B0163441A604A465A600A9A9A60D2
:102AE4000B9ADA6000238B704B700B707B7B9B46D8
:102AF400002B2BD022005946B8687B6898473A6867
:102B0400002816D05B4658465B005B445519033BCE
:102B1400A870D118D35C002B00D06B705B460C708E
:102B24007B73A34513D0F0BCBB46B246A946A0466E
:102B3400F8BD5B465B005B44033BD3189C705119A2
:102B4400525D002A00D05A705B460B707C7342467B
:102B54004B46307D00F032FB051E06D05346002B59
:102B640003D12100306801F085F80E9B002BDAD0E8
:102B74001D70D8E7FFFFFF0FF0B5DE4657464E46FF
:102B840045460023E0B58BB00893674B8200D458C8
:102B940000239B46099000F097FA626806000F0034
:102BA400EFF3108572B61368002BFCD0BFF35F8F70
:102BB40023689C465B7B9946002B00D169E0A268A0
:102BC4005A4B90464B441B01984443461A685B6831
:102BD40010001900801BB941002900DC63E009984A
:102BE40000F0ECFA00230022984600230692079393
:102BF40000239A466368BFF35F8F5A461A6085F3D1
:102C040010885346002B08D10028C4D10BB0F0BC67
:102C1400BB46B246A946A046F0BD089B41461802F1
:102C24004B461843D047626806000F00EFF3108547
:102C340072B61368002BFCD0BFF35F8F002F50DBFC
:102C440033003B4302D02369002B61D12368D97B35
:102C5400002907D04A00521819688C464946624434
:102C6400033A51709A7B002A01D14A469A734A4624
:102C7400DA734B46E168013BCA5C0132CA545B46D5
:102C840023616368BFF35F8F5A461A6085F3108827
:102C940081E700230022984600230692079300232D
:102CA40000209A46A6E7002902D1002800D096E722
:102CB4000021604600F05CFF43461A685B68069298
:102CC400079343469B689A464346DB689846E36805
:102CD4004B44013B1B7808931B02034323610020F0
:102CE40088E72369002BB1D0069A079B921BBB414E
:102CF400002B15DB594604910121039149460291A9
:102D040041460191514620000091FFF7B5FEB6E718
:102D140000F0DAF932003B0012184B41002BE9DADB
:102D24000122034B5242E5E71C050120FFFFFF0F80
:102D3400FFFFFF7F10B5144C6368002B04D00A21F9
:102D44001248FFF737FE10BD2300114A10212068F6
:102D540000F028FE032000F0ABF9032000F098FAFD
:102D640003200C4900F0E4F900F03CFB0A4B9C46BC
:102D740003232375D0231B061B6860446375074B2C
:102D840080006060DC60DAE7ACA40020D807012092
:102D9400E127002039290020400000341C050120CF
:102DA40000487047ACA40020F0B54E464546DE46C8
:102DB4005746E0B585B0019310AB1B78060003932A
:102DC40000239946984600927268EFF3108B72B60E
:102DD4001368002BFCD0BFF35F8F3568AC7B002CED
:102DE4003DD067002B683F19033FDB195A78AA735B
:102DF400002A00D1EA73B168474A8C4600980199C9
:102E0400A21812016244106051600E9991600F99EA
:102E1400D16042469A705A701A706B7B9A46002BA6
:102E240067D022001900A8686B6898472A680028B0
:102E340052D0534650465B005344D719033BB870F5
:102E4400D118D35C002B00D07B7053460C706B738D
:102E540054454FD0F3681B19013B187800E000205B
:102E64007368BFF35F8F42461A608BF31088002C9F
:102E74004FD04B46002B08D10002204305B0F0BCD4
:102E8400BB46B246A946A046F0BD039B002B3ED0EC
:102E94000E9B00200F999847030004000D000B437C
:102EA40035D000290ADA009A019B121BAB4100922B
:102EB4000193002B0ADB039B994685E700F004F994
:102EC40024184D4100940195002DF4DA0123134C8C
:102ED4005B4200930194EEE753465B005344033B8B
:102EE400D3189C70D119D25D002A00D05A70534671
:102EF4000B706C73307D009A019B00F05FF9814682
:102F04000028A7D02100306800F0B4FEA2E700201A
:102F1400B4E701204042B1E7FFFFFF0FFFFFFF7F4F
:102F2400F0B5EFF30583CE46474680B505000C00A7
:102F340085B0002B12D02C4A0020536A9C4203D83F
:102F4400926A0130AA4204D305B0C0BCB946B04667
:102F5400F0BDE01A421E9041C0B2F5E7234E029341
:102F64000193234B0200009330000B00FFF71CFF7A
:102F7400031EE0DD20BF7168EFF3108772B60A68A4
:102F8400002AFCD0BFF35F8FDAB294463068427BEC
:102F940062451DD0FF221A405100894601689144C0
:102FA40088464946414403398978002913D0F16899
:102FB4001B0A88464244013A1278DBB29A420FD087
:102FC4007368BFF35F8F00221A6087F31088B2E73B
:102FD400FF221A40EBE732699342F1D13161EFE706
:102FE400614600F047FEEBE700400540ACA400203A
:102FF40015280020F0B5EFF30582D6464F46464625
:103004001000C0B51038EFF3108872B6214C236855
:10301400002BFCD0BFF35F8F0123190081401E4DAC
:103024001F006963AA461D4D29601D4D2E78AC46CC
:103034003500C5402F402B4209D1BFF35F8F276075
:1030440088F31088E0BCBA46B146A846F0BD5346A2
:10305400144D5F6A83005D59AF420ED3124A8E430A
:103064009B5862461670BFF35F8F0022226088F37C
:103074001088002BE6D09847E4E70C4B92009C465E
:10308400624413681360BFF35F8F0023236088F3E7
:103094001088D7E7280100D0004005403C70054067
:1030A400FC080220DC07012078FF0020D03F054007
:1030B40010B50100024A034800F016F910BDC046DD
:1030C40064A10020FA080220034B596A0A00986A96
:1030D400596A8A42FAD170470040054070B504002D
:1030E4000D00124A536A1900966A536A8B42FAD148
:1030F4003000190024184D41AB4211D80ED02B00DA
:103104000A494A6A9A42FCD307D1084A02E0516A42
:10311400994202D1916AA142F9D370BDA642EED977
:10312400012301246442E5175B42E9E700400540BE
:1031340070B504000D00EFF3108672B61A4A1368D6
:10314400002BFCD0BFF35F8F002D1BD0200000F0BC
:1031540077F9164981420AD0200000F079F901215B
:10316400200000F05BF90123A340114A1360114BC6
:10317400A400E550BFF35F8F00220B4B1A6086F367
:10318400108870BD0B4BA200D5500122A2400A4901
:1031940020000B7893430B70044900F077FA002168
:1031A400200000F03BF9E5E7280100D0B52D002010
:1031B4003860054078FF0020FC080220F0B54F4637
:1031C400D6464646C0B507002C4C616A0D00A66A77
:1031D400616AA942FAD18B4208D805D00120E0BC2B
:1031E400BA46B146A846F0BDB242F7D9EFF3108A09
:1031F40072B6234801680029FCD0BFF35F8F012514
:10320400BD4020491D4C8846097889462943C9B2E6
:103214008C46414660460870391D1B488900656329
:103224000A51B9000B50216A0020294219D0616A61
:103234000800A66A616A8142FAD18B4219D801D189
:10324400B24216D8CC4516D00C4B1F201D625D63CC
:1032540001230740BB400D4A1E38136043464A46CB
:103264001A70BFF35F8F0022054B1A608AF310882F
:10327400B5E70020F5E70120F3E7C046004005402C
:10328400280100D0FC080220DC07012080E200E0D5
:10329400EFF3108C72B60A490B68002BFCD0BFF315
:1032A4005F8F01238340074A0748136202789A43D9
:1032B4000270BFF35F8F00230B608CF3108870479C
:1032C400280100D000400540FC080220024B186889
:1032D4008007C00F7047C04600C006408023DB054E
:1032E4001868000F7047C04670B5EFF3108C72B6C3
:1032F4000D4D2B68002BFCD0BFF35F8F0724CB0848
:10330400C618C05C01230C40A3401C0004400342C7
:1033140007D103433370BFF35F8F2C608CF31088A5
:1033240070BD100001F07CF82C0100D0F8B54746C0
:10333400CE46884680B5EFF3108C72B6214D2C68CA
:10334400002CFCD0BFF35F8F9A422CD8D4080727F7
:10335400055D061901241740BC402C421FD00721EB
:103364000127894609E0D408055D06194C46390051
:103374001440A1400C00294211D001329342F2D2F0
:1033840001204042BFF35F8F00220E4B1A608CF382
:10339400108800280FDBC0BCB946B046F8BD2C43EA
:1033A40010003470EEE7BFF35F8F00232B608CF3C3
:1033B4001088012040424346002BECD0089801F0CD
:1033C4002FF8C0462C0100D00021044B044ABFF35F
:1033D4005F8F02C39342FAD17047C046000100D008
:1033E400800100D0044A1078431CDBB2172B00D9AB
:1033F400102313707047C046D4A4002000B5054BB9
:1034040083B00100009318221F230348FFF78EFFA7
:1034140003B000BD88A10020900001200123834057
:10342400002904D0034A1360034A13607047034A17
:103434001360FBE780E200E000E100E080E100E0EF
:10344400024B10309B688000C058704700ED00E0CC
:1034540070B50D00EFF3108672B60F4A1368002B97
:10346400FCD0BFF35F8F0D4B10309B6884001B5959
:103474000B4A934203D09D4201D000F0EFFF074B6B
:103484009B681D51BFF35F8FBFF35F8F0022024B18
:103494001A6086F3108870BD240100D000ED00E0AE
:1034A400CD010010F0B557464E46DE464546E0B520
:1034B40085B0060002911700EFF3108B72B6674ACD
:1034C4001368002BFCD0BFF35F8F0025644B5D575E
:1034D4009A46002D00DAA4E06B00624C03935B195A
:1034E4009B009846A146C1444B4652469B791036F0
:1034F40013705D4BB2009B68019299580B1B2F2BE4
:1035040034D95A4B994200D0A4E0039B584A9C46B4
:10351400584B6544AD006353434602336519E418C0
:10352400554B0121043B1B1B1B055B0D13436B8097
:10353400524BEF71AB80FF23AB71029BAB604B46E8
:103544000B431900484B019A9B689950BFF35F8F56
:10355400BFF35F8F0022414B1A608BF3108805B0D4
:10356400F0BCBB46B246A946A046F0BD01200A0005
:103574008243D379BB422FD845464E461300404977
:103584001B1B5B415943090D3A4B63533A4B0235BC
:103594006519043B5B1B1B05354D5B0D2B43738089
:1035A4000426B446E0444444131F1B1B4C46A1713B
:1035B40002991B05A16049465B0D2B43A380314B47
:1035C400E77101431360BDE75800C018800020185C
:1035D400C679BE422BD902000623D356002BF3DA58
:1035E400101D82462848804604267642B446E144AB
:1035F40050464E46361A3005400D824656461C4803
:10360400957106439680039A944665441D4AAD001D
:10361400641922604246A371029BA280E771A360F1
:1036240090E700F01BFF002553465D5754E7101D3B
:10363400824690884005001584464046D444664638
:1036440004302018301AE0260005400D36023043BD
:103654008046C9E700F002FF57E7C046240100D0C6
:10366400FB080220D8A4002000ED00E0CD010010EA
:1036740000E0FFFF00A1FFFF08A5002001BDFFFF40
:10368400AAAA00000148804701BD0000F0B5DE464B
:1036940057464E464546E0B50C0083B0EFF310891B
:1036A40072B6584A1368002BFCD0BFF35F8F564B99
:1036B4009A68030010339F00D559544A90469542A6
:1036C40032D0A54243D0524EAA1B2F2A2CD8012215
:1036D4008240924651464F4A126811400191514628
:1036E4004D4A1160BFF35F8FEFF305829346002AC2
:1036F40033D101232A009A4393689C4208D177E08E
:103704004B005B189B00F3189968A1422AD01A0059
:10371400062151560029F3DA019B002B19D0524699
:103724003E4B1A603B4B1A60374B9B68DD51BFF32D
:103734005F8FBFF35F8F0022324B1A6089F31088CA
:1037440003B0F0BCBB46B246A946A046F0BD150086
:10375400EAE75246304B1A60E6E79342C9D000F0DC
:103764007DFEC6E706215956002921DB4A00501880
:10377400800034188046A0689860E079D8710620EB
:1037840020569871002824DBA488F01A64052415B7
:1037940044440019E0240005400D2402204398808D
:1037A40052181F4B9200B6181A781970B271B3E709
:1037B400594600290FD1FF3191711A499180184956
:1037C4000A789A71184A9B1B5B415A43120D0A707E
:1037D400A2E71648E3E7164A1649D21A083A5002F5
:1037E400400D01439980144952080A43DA8093E753
:1037F4000621515613000029B8DA5A46002AEAD1A4
:103804004546DCE7240100D000ED00E0CD010010C6
:10381400D8A4002000E100E080E100E080E200E0C4
:10382400FB08022001BDFFFFAAAA000001BD0000A1
:1038340012A5002000F0FFFF00F8FFFF032310B5DE
:103844000400074A18409446C0009C43FC3383405C
:103854006444226881409A4313000B43236010BDE3
:1038640000E400E070B5EFF3058101240443EFF3B5
:10387400108C72B6214A1368002BFCD0BFF35F8F03
:103884001F4B05001F4AED1A6D416A43120D1E4D70
:103894008900AE6852B27658A6421CD00621595609
:1038A40091421CD012215956914222D01E215956C0
:1038B400914220D02A2159560324914210D0134B0F
:1038C40019781A708171BFF35F8F00220B4B1A6055
:1038D4008CF3108870BDAB680D4C5C50EFE700248E
:1038E4006100091989005B18FF21997109499980C0
:1038F400E5E70124F4E70224F2E7C046240100D0FE
:10390400D8A40020AAAA000000ED00E0FB080220D1
:10391400CD01001001BDFFFF054B064A1360064AA6
:10392400136053609360D360136153619361704774
:103934008080808000E400E004E400E070B50500CD
:1039440014001600002915D00C00002A12D080683B
:103954006B689847296800280ED073009B19620091
:10396400033B1219CB18033A9C7088188A5C002A0E
:1039740015D10670200070BD63001B197200033B53
:103984009219CB18033A9E7088188A5C002A02D1D7
:1039940004703400EEE75A7004703400EAE75A7099
:1039A4000670E7E730B583600023CCB2437301337C
:1039B400047342608373C4730D000068012C06D93C
:1039C400421C0133DBB2137003329C42F9D1FF2154
:1039D40029404B005918002340180338437030BD68
:1039E400F8B5CE46474606000C0080B5002907D03E
:1039F4004D0003686D18033D5A195778002F04D100
:103A04002000C0BCB946B046F8BD7900C9190339D5
:103A14008846434459788946002159705170736827
:103A24003A002100806898473368002814D0424641
:103A34009A18947059195B5D002B00D053700F7065
:103A4400270049463000FFF7CBFF39000200300061
:103A5400FFF774FF0400D3E7424641465D19AF7097
:103A64009A185B5C002B00D06B701470E9E7C046B9
:103A7400F0B557464546DE464E46E0B50D006B00B0
:103A840001685B19DF1E0400C85D83B00192CA1986
:103A9400002850D043001B18033BCB185E78B44673
:103AA400002E1AD1019E002E42D0E67B002E04D0B7
:103AB40073009B19CB18033B5D70A37B002B00D1D3
:103AC400A573E57300282FD10023537003B0F0BC15
:103AD400BB46B246A946A046F0BD72006244033A12
:103AE40089184A78904600224A7091465A7001001B
:103AF40032002000FFF722FF43468246002B07D006
:103B04005B0021684344033BCB185A78002A16D142
:103B1400424651462000FFF711FF2168019BCA1954
:103B2400002BC2D10028CFD043001B18033BCB1875
:103B340000219970C8E7019B002BB6D1C4E750005F
:103B440080180338091848788346484648705870E6
:103B540041462000FFF7F2FE594680462000FFF759
:103B64003FFF414602002000FFF7E8FE8046CFE712
:103B7400F0B557464546DE464E46E0B583B0019162
:103B8400457B04006B0000685B19DF1EC15DC21930
:103B9400002952D04B005B18033BC3185E78B4462F
:103BA400002E1CD1019E002E44D0E67B002E04D0B2
:103BB40073009B19C318033B5D70A37B002B00D1DA
:103BC400A573E573002931D1002328005370617374
:103BD40003B0F0BCBB46B246A946A046F0BD720095
:103BE4006244033A8018427890460022427091461B
:103BF4005A7020003200FFF7A1FE43468246002B94
:103C040007D05B0021684344033BCB185A78002A51
:103C140017D1424651462000FFF790FE019B010058
:103C24002068C219002BC0D10029CDD04B005B18ED
:103C3400033BC31800209870C6E7019B002BB4D146
:103C4400C2E750008018033809184878834648466C
:103C54004870587041462000FFF770FE5946804670
:103C64002000FFF7BDFE414602002000FFF766FE7C
:103C74008046CEE770B5040000292CD0437B8B42EC
:103C84002ED0056848004018033828188278002A86
:103C940021D053009B18033BEA5CEE188A4202D100
:103CA4001BE0002A08D053009B18033BEB185A78FA
:103CB4008A42F6D142785A700023012283704370FD
:103CC4002000FFF7D5FE617B02002000FFF736FEDF
:103CD4006073012000E0002070BD43783370EBE78F
:103CE40001221900FFF7C4FE60730120F4E7C04607
:103CF400094A830094464022634410B51C68C000FE
:103D04006240C02414408022520113431C60034BC0
:103D14009C466044416010BD04C001400040014025
:103D2400034BC0009C46604443681F201840704702
:103D3400004001400A4B80009C4604236044002953
:103D440001D00C230821002A00D10B000268534043
:103D54000C221A4080235B01184302607047C0465E
:103D640004C00140074BC0009C466044036809043A
:103D74005940C0239B02194080235B011843016012
:103D84007047C04604400140074BC0009C46604455
:103D9400036809035940C0239B01194080235B0138
:103DA400184301607047C046044001400123D022FB
:103DB4008340120693629361094A83009446402229
:103DC40063441968C0004A40C02111408022520156
:103DD40013431960034B9C460523604443607047BA
:103DE40004C0014000400140F8B5CE4647460400F7
:103DF40080B506200E0000F023FA051E51D0524B68
:103E04005249E21853425A418023DB039C469205EF
:103E14004F4B62441A604F4B1A6010008B689843F2
:103E2400FBD1494B8021E3185A4253414A4A5B0073
:103E340049009952062000F003FA3100C00000F056
:103E44006DFBC30932D14022012190466162A36215
:103E5400256BEB0736D427008026E36A00232C3732
:103E640076013E4333600620256300F0E9F94146BC
:103E7400800000F053FB236B05009846DB073BD41E
:103E84006022E36A5A406E2313403360434623633F
:103E9400802310229B013B431A60304B236303238E
:103EA400A3642800C0BCB946B046F8BD2C4A93426E
:103EB4003FD900232B492C4A6162A362256B9046AB
:103EC400EB07C8D52200C02330329B011343234A99
:103ED40006201A60666AA26AB601B61800F0B0F944
:103EE400224900F01BFBB6020100300000F016FB73
:103EF4000021FFF7F3F8AEE72200C02330329B0124
:103F04001343164A06201A60636AA26A9B01994603
:103F1400914400F095F94B4614499B02994600F0F0
:103F2400FDFA0100484600F0F9FA0021FFF7D6F83F
:103F3400A6E77F2299018846104001304008190005
:103F44008044030082E7C0460080FCBF00C00040FC
:103F540000E0004000F00040F807012001030000E9
:103F6400FEFF0000FFFF0000C0FF3F004E0E0000F8
:103F740030B50C2083B000F0B9F9FFF7A7F9002899
:103F84000ED0994B994A1A605A609A60DA601A61A5
:103F94005A619A61DA611A62954A5A6203B030BD75
:103FA400944CA06700F0AAF90122934B1A60636C49
:103FB400012BFCD10322914B1A608E4A936B012B87
:103FC400FCD1013301218E4A8E480093043300F062
:103FD4003DF905238C4A009301218C4800F036F901
:103FE4008B4B5A68FF2A02D8802252005A608022E2
:103FF4007D4C824B21691201854D1A60002907D03E
:10400400606900F08BFA431C5800C0180338FDD2D5
:10401400E0217F4B02201A681140802252012A437A
:1040240011601968484003210140116004219A6815
:104034001142FCD08022802192012A43090111609F
:10404400802252005A60734B2361734B5968FF29D5
:1040540000D85A600321684A6F4B116002399A688C
:104064001142FCD0E0201A681040802252011A4309
:10407400106018684840032101400220116066491D
:104084008A681042FCD080229201134380221201DC
:104094001A608022614B52004A606361604B596828
:1040A400FF2900D85A6080225E4BE16912015C4D01
:1040B4001A60002907D0606900F030FA431C5800E8
:1040C400C0180338FDD2E02255490B681A408023FA
:1040D4005B012B431A60802380229B012B43120136
:1040E4001A608022414B52004A60E3614E4B59688A
:1040F400FF2900D85A6080224C4B216A12014A4D94
:104104001A60002907D0606900F008FA431C5800BF
:10411400C0180338FDD2E02243490B681A408023BB
:104124005B012B431A60802380229B012B431201E5
:104134001A60802380225B004B602C4BD2022362E6
:104144003B4B5968914200D25A608022394B616AD4
:104154001201374D1A60002907D0606900F0DEF9BA
:10416400431C5800C0180338FDD2E02230490B68C4
:104174001A4080235B012B431A60802380229B0119
:104184002B4312011A608023DB024B60184B6362DD
:10419400294B5A68FF2A02D8802252005A60802292
:1041A400264BA1691201244D1A60002907D06069C9
:1041B40000F0B4F9431C5800C0180338FDD2E022C3
:1041C4001D490B681A4080235B012B431A6080232E
:1041D40080229B012B4312011A6080235B004B60F9
:1041E4000E4BA361DAE6C04694000120006CDC02A9
:1041F4001BB70000008000403CB0004030B00040DD
:10420400002F685900800240008C864700C002409D
:1042140030800040001BB7003C80004040597307C9
:104224005480004054B000406080004060B00040C2
:104234006C8000406CB000404880004048B00040B2
:10424400014B8000C058704794000120F8B5040069
:1042540021481D0017000E0000F060F9010038002D
:1042640000F05CF9069B29041B0319432368002B07
:1042740020DB1A4B1A4DE21853425A4180235B014A
:104284009C461203174B62441A60174B1A601700BE
:10429400AB689F43FBD1C022231D92011A43212303
:1042A4002660A06013602368002BFCDA0823E16019
:1042B4001360F8BD3F2322681340B342D9D1A368E9
:1042C4001B051B0D8342D4D1EE22E368D2021340B6
:1042D4008B42CED1EDE7C046001BB7000040FDBFC6
:1042E40000C0004000E0004000F000408023024A8B
:1042F4009B000343D362704700800540AA23064A0B
:104304001B0113602F230549D360054B19605368C3
:10431400002BFCDA7047C0460040024000B0FA00AF
:10432400006002402C4B2D4A70B51A602C4A2D4B6C
:104334002D491A6014008B689C43FBD12B4D2C4EE5
:10434400B54208D2013E761BB60808CD9847230033
:104354000134B342F9D1FFF70BFE264A214B1A6010
:10436400214A9368DB43DB01DD09002BF9D14022AC
:10437400214B224C224E9A675A671A67DA66B44276
:1043840008D223682000002B20D00C34FEF728FB31
:10439400B442F6D31B4E1C4CC022A168300000F07E
:1043A400C5FBA660FFF710F8FFF7B6FAFEF7C2FCEC
:1043B400164C174EB44208D2013E361BB60808CC40
:1043C40098472B0001359E42F9D170BD0834FEF7A1
:1043D400F9FAB442D5D3DDE700E00040BFCDFBFEDF
:1043E400FE7F3C0000F0004000C0004094A5002087
:1043F400A4A50020FFFFFF0100F0014084A50020D8
:1044040094A500200000002000ED00E0A4A50020F9
:10441400B0A5002000BEFDE710B5FFF7FBFFC046C6
:104424000FB400B5084883B000F0B2FC049B002B25
:1044340007D005A91800019100F01EF8034800F008
:10444400A7FC0120FFF7E6FFA4A10020AC9F0020F9
:1044540010B50148FFF7E4FFB4A1002010B50148EE
:10446400FFF7DEFFC4A1002010B5002800D110BD65
:1044740000F042FCFBE7C04610B5094A030014688B
:1044840084B0002C08D0012200910648524203A9AE
:10449400A047012004B010BD00F07AFC0020F9E729
:1044A400100501202942002001480421014B18472E
:1044B40020A5002099420020142310B5010018887B
:1044C40004331B88984710BD162310B501001888C3
:1044D40002331B88984710BDF8B54746CE4680B5D1
:1044E4000F1E19D014239946043304000025012615
:1044F40098464B461888434621681B88984701C450
:10450400431E9841013540420640AF42F1D130008C
:10451400C0BCB946B046F8BD0126F8E7114A936F0E
:104524009B0813D210665166002905D0FFE7FFE708
:10453400FFE7516F106F704704B5002801D00020C9
:10454400C04304F05FFF002104BDC046F0B5146E03
:10455400556E576F166FFFF7E5FF1466556657677C
:104564001667F0BD000000D094464A4A926F920844
:10457400624601D228E0C046F0B5464E346E756EF0
:10458400776F366F00F020F89446424A14665566F9
:10459400576716676246F0BD94463E4A926F92088A
:1045A400624601D254E0C046F0B53A4E346E756EA0
:1045B400776F366F00F04CF89446364A14665566A9
:1045C400576716676246F0BD002B24DB11D0002923
:1045D4003EDA00B5C943404200D1013100F038F859
:1045E400C943404200D10131DB43524200D101337F
:1045F40000BD002AEBD1002801D1002905D00020FC
:10460400C90FC90701D1C043410800B504F0FAFE3F
:104614000022002300BD00B500290ADBDB4352421F
:1046240000D1013300F014F8C943404200D10131F4
:1046340000BDC943404200D10131DB43524200D1A5
:10464400013300F005F8DB43524200D1013300BDD1
:10465400002923D1002B18D1002A0CD0BC460D4FC1
:1046640038667A6600210023FFE7FFE7FFE77A6FE9
:10467400386F67467047002801D00748010000B52D
:1046840004F0C0FE0022002300BD02000B00002045
:1046940000217047000000D0FFFFFFFF002B00D077
:1046A400BFE0130C28D1002AE7D080B4114F39663B
:1046B4007A66FFE7FFE730B4040C7B6F396F1B04A5
:1046C40023433B667A66FFE7FFE7FFE7C04684B211
:1046D4007B6F3D6F1B0423433B667A66FFE7FFE76E
:1046E400C04600232C042D0C7A6F386F00196941E1
:1046F400B0BC7047000000D0F0B594460025140EFD
:1047040001D112020835140F01D112010435940F9E
:1047140001D192000235D40F01D152000135D40BDE
:104724000134254F7C66254C3C660E0C93B2FFE7A2
:10473400FFE7FFE73C6F6643360C7703BE467343DF
:10474400DF0B5B04C01AB941130C7343DB18C91A9D
:10475400CE086643360CB64493B273431F0F1B0155
:10476400C01AB941130C73431F0B1B05C01AB9417E
:10477400860D8F023E436643360C092D24DB520A14
:104784007243801A7703460A6643360C16235B1B72
:10479400DE40DF40BF1964466643821B7046043521
:1047A40006330100D940A840C01900D30131A24208
:1047B40006D20023F0BD0000000000D0FFFFFFFF81
:1047C400121B0130F3D3F1E709277F1BFE40644637
:1047D400A2B27243801A00D20139220C7243130C24
:1047E4001204821A99410B007046043513370100F4
:1047F400F940A840801900D30131002B02D1A24214
:104804000AD2F0BD013000D30131121BFAD2013BB0
:10481400F8D1A24200D2F0BD013000D30131121B05
:10482400F7E7F0B51C0C00D080E00CB400251C0A9E
:1048340004D11B02160E3343120208351C0B04D19B
:104844001B01160F3343120104359C0B04D19B004A
:10485400960F334392000235DC0B02D192185B4170
:1048640001351C00971864410134464F7C66464C60
:104874003C660E0CFFE7FFE7FFE7C0463C6F66436C
:10488400360C7703BE4697B27743C01B00D201397A
:10489400C01B00D201399FB27743C91BC91B170C37
:1048A40077437E04FF0B801BB941CE086643360C68
:1048B4000C2D33DBB644120B1F053A431B0B97B286
:1048C4007743C01B00D201399FB27743C91B170C31
:1048D40077433E043F0C801BB941860D8F023E4353
:1048E400664329277F1BFE400C3D7746AF40BF1926
:1048F40030BCA2B2ABB272437343801A9941220C0A
:104904007243130C1204801A994102000B00013700
:10491400001BA941F9D2781E0021F0BD0C277F1B92
:10492400FE4077467F0BAF40FF19E0E700245D1C93
:1049340007D0144F7D663966FFE7FFE7FFE7FFE71F
:104944003C6F95B29EB265436643401BB141150C62
:104954001E0C6543664336042F0C3E432D04401B56
:10496400B141994204D202000B0020000021F0BDA5
:1049740001D19042F7D3801A994101349942F2D37C
:10498400F6E70000000000D0FFFFFFFF132370B51F
:104994001D78012D15D010DD1C48FFF795FD1C4C2A
:1049A40001008022200000F0C1F8022D06D0194831
:1049B400FFF782FD184B186070BD154C174BA364AC
:1049C400F5E7164B124C23606360A360E360236138
:1049D4006361A361E36123626362A362E3622363AD
:1049E4006363A363E36323646364A364E36423658D
:1049F4006365A365E36523666366A366E36623676D
:104A04006367A367E367A364D1E7C0465344000028
:104A1400B0A600204C330000D4070120E147002059
:104A240007B5604601880A0A0230DF2AFAD1C9B202
:104A3400820804D3028840880004104300E0006820
:104A4400014A5050039007BDB0A600205143434390
:104A5400C9188C46110C83B24B4310B4040C614347
:104A640092B280B2504362431C041B0C001910BC68
:104A740059411304120CC01851416144704700009D
:104A8400132310B512481C78FFF71EFD0100012CFA
:104A94000AD003DD80220F4800F048F80E48FFF7E3
:104AA4000BFD0E4B186010BD0A4C5422200000F080
:104AB4003DF80B4B6365A365E36523666366A366F4
:104AC400E36623676367A367E3672362E361E5E75C
:104AD40053460000B0A700204C330000D407012047
:104AE400A548002007B5604601880A0A0230DF2A7B
:104AF400FAD1C9B2820804D3028840880004104362
:104B040000E00068014A5050039007BDB0A70020A0
:104B140001480421014B184730A500209942002088
:104B2400014B1B681847000030A50020014B5B684F
:104B34001847000030A50020030010B5080011003C
:104B44001B68984710BDC046F0B546464F46D6464A
:104B5400C0B5437D80460E001700002B46D0002AC6
:104B64003FDD4B1E9946244B0125002400209A4624
:104B74000DE04B461B5D0D3B5A425341325DDBB2A7
:104B84000A2A0BD02B00013401359F421ADD002C78
:104B9400EFD14346325D1B7D0A2AF3D1002BF1D1BC
:104BA400A04204DA4346211A1B683018984743464A
:104BB40050461B6802219847013428002B00013518
:104BC4009F42E4DC874204DD4346391A1B683018EF
:104BD4009847F619013E33780D3B5A4253414246F9
:104BE4001375E0BCBA46B146A846F0BD036811008F
:104BF40030009847F5E7C04634A20020F0B5DE4601
:104C040057464E464546E0B585B017001C000600E1
:104C14000D00FEF759FA0023304A12184B41002BBD
:104C240058DB2F4908008A4604F022FC01906B1CD3
:104C340003D1300004F0E8FB0500002C25D1294BFA
:104C44009846294B1C68002C15D0002F20D1274FE3
:104C540002E02469002C0ED02368002BF9D03B68B5
:104C6400002B01D0A342F4D120002A003100C04718
:104C74002469002CF0D1019B002B27D105B0F0BC96
:104C8400BB46B246A946A046F0BD194B9846D8E7A4
:104C9400164B994602ABDF1D0A239B4602E02469AA
:104CA400002CE8D02368002BF9D04B461B68002B5E
:104CB40001D0A342F3D12A0031002000C0475B4653
:104CC4000122390020003B70C047E8E7504604F059
:104CD40059FCD3E70122074B5242A2E740420F009E
:104CE4008CA50020094900200001012008010120B1
:104CF400F9480020FFFFFF7FF0B5CE46474680B558
:104D040083B06B460600DD1D2870FEF7DDF9002335
:104D14001A4A12184B41002B2BDB1949080088460C
:104D240004F0A6FB174B81461C68002C14D0164FC8
:104D340002E02469002C0FD02368002BF9D03B68D3
:104D4400002B01D0A342F4D1200001222900FFF757
:104D5400FBFE2469002CEFD14B46002B05D130001B
:104D640003B0C0BCB946B046F0BD404604F00AFCEE
:104D7400F5E70122054B5242CFE7C04640420F00FF
:104D84008CA500200001012008010120FFFFFF7F06
:104D940070B5040004F038FB002301000500012273
:104DA4002000FFF72BFF084B1C68002C06D063681B
:104DB400002B05D098472469002CF8D1280070BD39
:104DC4002469002CF3D1F9E7000101200A4A136891
:104DD400002B05D10CE01A001B691032002B07D000
:104DE4009842F8D1002902D1036913600161704728
:104DF4000029FCD01060FAE700010120F0B50D1E77
:104E040015DD0E4B0D271A680D4B4519D318594261
:104E14004B410C495B005E5E20210478A64207D01A
:104E240093691942FCD101301460A842F5D1F0BD58
:104E340093691942FCD11760F2E7C04600080120CB
:104E44000080FCBFF807012030B504000D1E26DDEC
:104E5400002010211B4B013C1A689369194219D197
:104E6400013093691942FCD1136823548542F4D16B
:104E7400154B1B68002B0CD050239363516B183BCC
:104E840034320B401100802252010A43136000287F
:104E940015D030BD0C4B1B68002BEDD1F7E70A4B46
:104EA4001B68002B0BD050223821064B1B689A63D9
:104EB4005A6B34331140802252011343196003208A
:104EC4004042E6E70008012088000120064B10B5A7
:104ED4001B68002B06D00021044A12689163044A1F
:104EE4001068984710BDC0468800012000080120C2
:104EF4008C0001201D4BF0B51A68C64698461C4B21
:104F04000E00D31859424B411A4F14331C000500AC
:104F140000B53B68002807D0002B11D0164B3D602C
:104F24001E6080BCB846F0BD002BF7D09063002112
:104F34002000FEF773FA20001049FEF7A7FBEDE707
:104F440020000E49FEF784FA01212000FEF766FADC
:104F54004346502238211B689A635A6B34331140FC
:104F64008022520113431960D8E7C046000801208B
:104F74000080FCBF880001208C0001208D4C0020A3
:104F84000C4B10B51B780C4B0C4C1B780C4B0221B2
:104F940000202360FEF7ACFE02210120FEF7A8FEEC
:104FA400E12120684902FEF71FFF01210548FFF7B0
:104FB4000DFF10BDFC0200100003001000080120CA
:104FC4000040034040A5002070B50C4E0D001C00AD
:104FD4003060002A03DB02211000FEF789FE002C5A
:104FE40003DB02212000FEF783FE29003068FEF770
:104FF400FBFE01210248FFF7E9FE70BD0008012015
:1050040040A5002010B5024800F00CF810BDC046C1
:10501400CC07012010B508220149FFF787FD10BD18
:10502400CC07012030B5002589B0040009220021F5
:1050340001A80095FFF774FD0922002105A8049535
:10504400FFF76EFD4B236A466846137004A90D22D0
:1050540004F0E4FA1521082220006944FFF766FDF4
:1050640009B030BD10B501210520FEF7D7F910BDF8
:1050740010B500220021024800F05AF910BDC046C4
:10508400300101208022024B5202DA647047C0468C
:1050940000201150F0B5C64600B5060000F022F914
:1050A4000C231B4DFF22AB6705201A49FEF7FAF9C2
:1050B40040239846184C402200212000FFF730FD81
:1050C40043460127238321210023144A6770A260E9
:1050D400136063545F316184414621870539635409
:1050E4000F4A10496360E260A1620B606362E2628E
:1050F40004F0F6FA80239B052F64EB6490230A4A9C
:105104003000EA50FFF7BEFF80BCB846F0BDC04691
:105114000000115005960020100101208400105059
:10512400000110508000105010D001000B785B0675
:1051340002D14B78052B00D070478A78014B1A6056
:10514400FAE7C04600001150F0B5C64600B54B79E9
:105154000C791B0288782343CC787F21A407014073
:10516400C509A20F4F001400324E7A195201B21829
:10517400907001206840507000205B055B0DD0707A
:105184001383D4768046CA00012D33D02A4884463E
:10519400880162448446B44460468260404610609C
:1051A400002933D0254AC9009046624641445160E3
:1051B4003F223F339343022C00D15B0020487A19ED
:1051C40001685201B218D1601E4ACB1803605140E5
:1051D4005340802288465201934228D84346A4066D
:1051E4001C4380237F197F011B06F6191C43736837
:1051F4001C6011E014488446880162448446B44427
:105204006046826240461060002909D100236D0186
:10521400761973600D4BF360012080BCB846F0BD75
:10522400084AC9009046624641445162C0E7FFF70C
:1052340015F9D3E710010120840010500400105028
:10524400140501200000105080001050000110507F
:1052540010B504F045FA10BD10B57F200C002040B5
:105264004000E409110000191A00034B4001C01862
:1052740000F05EF8012010BD100101207F22130010
:1052840010B50B400A420BD0C909802258004018BF
:105294000649400140181201002104F0E9FD10BD47
:1052A40002220348C909521A8266EEE7100101205E
:1052B400002011507F22100010B508400A4200D18E
:1052C40010BD0023C90940004018044940010818D2
:1052D40000220349C37004F0CBFDF1E71001012063
:1052E400FFF7FFFF80220D4B520410B51A600C4BE0
:1052F4000C491A6010008B689843FBD10A4C9C221D
:1053040000212000FFF70CFC8022002152010748F5
:10531400FFF706FC0923636710BDC04600E00040A8
:1053240000F0004000C00040000011500000105088
:1053340070B5837E04000D001600002B17D10023E6
:10534400E38201332000A682A376256104F0EAFCFF
:10535400002804D080219023084A8902D1502000DB
:1053640004F0F4FC002805D00123237770BD04F079
:1053740079FDE4E7200004F0A7FDF7E700201150D1
:10538400F0B5C64600B5244E244A050000243378FF
:10539400234F002A32D0234A9046A34224D8E31A4A
:1053A400DBB2022B1DD85A00D318DB00FB185B6854
:1053B4002800984733780134E4B29A1CA242ECDA0C
:1053C400194C532200212000FFF7AAFB1022FF21D1
:1053D400E01CFFF7A5FB20002022FF211330FFF77C
:1053E4009FFB80BCB846F0BD4246126863009446F9
:1053F4001B19DB006344002BD9D1F2E700247B683E
:105404002800984733780134023318379C42D7DC9C
:10541400032CE6D0F3E7C046F508022069270020F4
:1054240064A3002028AB0020A0BD0020024B5878C4
:10543400431E9841C0B27047A0BD0020024B1878AB
:105444004007C00F7047C046A0BD0020034B18782A
:10545400FF38431E9841C0B27047C0467CA5002067
:10546400F8B5CE46474680B5344E05003378012062
:10547400FF2B03D0C0BCB946B046F8BD532200216F
:105484002F48FFF74DFB2F4C2000FDF79BFA2E4BC6
:105494001C602E4C20001430FDF7B2FA200001F0FD
:1054A400A3FD2B4B2B4F1C602B4B9846002B04D099
:1054B4003800FDF779FA294B1860424600243B78FE
:1054C400002A1ED0264A9046244A9146A3422AD84E
:1054D400E31ADBB2022B24D85A00D318DB0043446E
:1054E4001B6898473B780134E4B29A1CA242EDDA77
:1054F40028003570FFF7CEFD2800FFF7B3FD01202B
:10550400B8E7174B0024984643461B68984718236E
:105514009C463B7801340233E0449C42E8DC032C93
:10552400F2D10020A6E74A461268630094461B198C
:10553400DB006344002BD3D100209BE77CA5002033
:10554400A0BD002058BD0020F4BD002060A50020AF
:10555400F8BD0020F50802206927002028AB0020B0
:1055640064A3002010B501F077FA002806D0044B9C
:10557400186801F05DFB01235840C0B210BDC0465D
:10558400F8BD0020F0B5DE4657464E464546E0B528
:105594008FB001F061FA002800D1C8E0C84BC94FB0
:1055A400994618239A46053B9B46C74D0BACBB4412
:1055B4002E687269EFF3108172B61368002BFCD069
:1055C400BFF35F8FB1613000210001F04FFB7269BE
:1055D400B369BFF35F8F0021116083F31088002843
:1055E40000D1A4E06378082BE2D84A469B00D35844
:1055F4009F466368002BDBD0A0689847D8E77F22DA
:105604002179B04B0A4056009B199846C80980443A
:10561400404601233030C6789E43C670C6780333B3
:105624009E43C670002A00D188E04346A74ADB7C2B
:10563400002A05D0A64A1278934270D39B1ADBB293
:10564400022B74D85A00D218A24BD2009B181E69A0
:1056540062792078A368B047AAE701223B78012049
:1056640013433B7033230421FA5C8243FA54FA5CFB
:105674008A43FA540133FA5C8243FA54FA5C0020F8
:105684008A43FA542378984600F074FC6022237904
:105694001A40602A0AD0402A56D0DB06DB0E012BC2
:1056A40000D199E0022B68D0002B5BD02078002138
:1056B400FFF7E4FD80212078FFF7E0FD78E7814BD8
:1056C4001B78DB0700D473E7834B002B00D16FE713
:1056D40000E000BF6CE77B4B1A78D20700D467E781
:1056E4007E4A002A00D163E718780007C00F00E063
:1056F40000BF5DE72078FFF743FE00F031FC784BF4
:10570400002B00D154E700E000BF51E72078FFF7F9
:1057140037FE00F025FC22796A4B9A7048E75A005C
:10572400D218704BD2001B689B18002B8FD10FB07E
:10573400F0BCBB46B246A946A046F0BD62792078CB
:10574400A36800F02BFC33E767480028AED000F0D4
:1057540011FC012140460CAAFCF724FF002800D0CC
:1057640026E7A3E7202A71D0002A9FD16379092B69
:105774009CD85E4A9B00D3589F467023217A0B42E3
:1057840094D10F330B405B00F818CE0900934F4BB4
:105794008019C07C002B06D04D4B1B78984200D258
:1057A400B0E0C01AC0B202286AD843009C46494BF4
:1057B4006044C0009C46030063440193002A64D003
:1057C400019EF3681800009300F0D4FB01214046C9
:1057D400F3680CAA9847C1E7237A0F2B00D965E731
:1057E4003A4AFB18DB78002A06D0394A12789342E9
:1057F40000D27DE09B1ADBB2022B00D956E75E0093
:10580400F318344EDB00F618F06800F0B3FB012106
:105814004046F3680CAA9847002800D0C8E66022E6
:10582400160023791E401A4200D03FE763790A3BF1
:10583400012B00D93AE700F09DFB63790A2B00D1D4
:1058440055E140460CA900F015FBB1E6237A0F2B75
:1058540000D92BE71D4AFB18DB78002A06D01C4A26
:105864001278934200D217E19B1ADBB2022B00D9C3
:105874001CE75E00F318174EDB00F618F068A3E788
:10588400002A00D012E7002301936079022302006A
:1058940002909A43012A00D1DBE0002800D005E7FA
:1058A400009B0AAAFB189E193036F37802329B0734
:1058B400DB0F1380404602230CA900F0F3FA77E6CD
:1058C400D8A20020A0BD0020F8BD00206927002038
:1058D400F508022064A3002000000000000000007E
:1058E4000000000028AB002065230020FCA200205B
:1058F400C44A5E00F3181668DB00F618002E00D1C7
:10590400D4E681E743009C46BE4B60441B68C0005C
:105914009C46030063440193002AB6D0002B00D0B8
:105924004EE7C3E67B780AAA02321370404601238D
:105934000CA900F0B7FA3BE6E088030AC0B20F2BCB
:1059440000D9B3E6B0499A008A589746A3790493DC
:105954001A007B789A4207D07B78002B00D038E17C
:10596400049B002B00D0CBE0049B40460CA97B7029
:1059740000F080FA1CE60CA800F002FB4046A17976
:10598400FFF776FB02223B7813433B7010E6E38873
:10599400012B00D08AE608223B78404613430CA929
:1059A4003B7000F067FA03E6E388012B00D07DE644
:1059B40008223B78404693430CA93B7000F05AFA06
:1059C400F6E5022039780AAB9A1C8B068908DB0FAE
:1059D40001400B436DE78D4B002B00D166E6FCF7CD
:1059E4006BFE021E00D161E6D37891781B020B4353
:1059F40040460CA900F056FAB0E6854B002B00D1C6
:105A040054E600E000BF021E00D14FE64046137882
:105A14000CA900F047FAA1E62189FCF70DFE021E4D
:105A2400F4D143E6022B00D1DCE07A4B002B00D109
:105A34003CE600E000BF0200002A00D136E6D3E7CE
:105A4400FCF7EAFD122302000CA9404600F02AFAF2
:105A540084E6E288002A08D1012827D0009BFB189D
:105A64009E193036F3789B0734D5019E002E00D161
:105A74009EE5F3681800009300F07CFAF3680121B6
:105A84000CAA40469847002000F074FA3423FB5CCB
:105A9400DB0700D58CE5D4E65A4A5E00F318166895
:105AA400DB00F618002E00D100E6E7E6009BFB18A9
:105AB4009E193036F3789B07D7D5574B1878FFF7E4
:105AC400F9FB0222F3789343F370F378029A934339
