:020000041000EA
:1000000000B5324B212058609868022188439860DF
:10001000D860186158612E4B002199600221596106
:100020000121F02299502B49196001219960352056
:1000300000F044F80222904214D00621196600F024
:1000400034F8196E01211966002018661A6600F04E
:100050002CF8196E196E196E052000F02FF8012189
:100060000842F9D1002199601B49196000215960AB
:100070001A491B48016001219960EB211966A021F2
:10008000196600F012F800219960164914480160C1
:100090000121996001BC002800D000471248134993
:1000A000086003C880F30888084703B5996A0420EC
:1000B0000142FBD001200142F8D103BD02B5186610
:1000C0001866FFF7F2FF186E186E02BD00000240BE
:1000D000000000180000070000035F00212200005C
:1000E000F4000018222000A00001001008ED00E03C
:1000F00000000000000000000000000074B24E7A12
:1001000000200420F7010010C3010010C5010010F9
:10011000C1010010C1010010C1010010C101001097
:10012000C1010010C1010010C1010010C701001081
:10013000C1010010C1010010C9010010CB01001065
:10014000CD010010CD010010CD010010CD01001037
:10015000CD010010CD010010CD010010CD01001027
:10016000CD010010CD010010CD010010CD01001017
:10017000CD010010CD010010CD010010CD01001007
:10018000CD010010CD010010CD010010CD010010F7
:10019000CD010010CD010010CD010010CD010010E7
:1001A000CD010010CD010010CD010010CD010010D7
:1001B000CD010010CD010010CD010010CD010010C7
:1001C00000BE00BE00BE00BE00BE00BEEFF3058054
:1001D000103800BEF2EB8871D80200100403001042
:1001E0003402001090A31AE700202249086006C8D4
:1001F00081F30888104720480068002835D10DA4F5
:100200000ECC002902D000F012F8F9E71B491C4A75
:10021000002000E001C19142FCD11A4988471A49E7
:1002200088471A49884700BEFDE701C901C29A42C2
:10023000FBD3704704030010C0000020C8C2002098
:100240000CC50010D0C2002090DC0020CCDE0010D5
:100250000000042000000420CCDE00100010042068
:1002600000100420000000007047094800F014F856
:100270000047000008ED00E0000000D090DC002006
:1002800074410220F551002001330020E952002082
:10029000575600000000000001B40248844601BC2B
:1002A000604700BFA56A002006005250ABB3605300
:1002B00030D3002006005250861C030240D3002099
:1002C000060052505422A29D4CD3002005005250EB
:0802D000DE65F468CCDE0010CD
:1002D80088D7002094D70020A8020010A0D70020BB
:1002E800B4020010C0020010CC020010D4D80020C4
:0C02F800C8D80020BCD70020B0D70020E0
:10030400F8B5C0460448054B10B5834203D0044BEE
:10031400002B00D0984710BD90DC002090DC00201A
:100324000000000006480749091A8B10C90FC918B4
:1003340010B5491003D0044B002B00D0984710BDD2
:1003440090DC002090DC00200000000010B5074C79
:100354002378002B09D1FFF7D5FF054B002B02D0E2
:10036400044800E000BF0123237010BDF8DF002023
:1003740000000000C8C20020054B10B5002B03D0BC
:100384000449054800E000BFFFF7CCFF10BDC0469C
:1003940000000000FCDF0020C8C20020F0B5DE46EB
:1003A40057464E464546E0B503788DB01A00803A6C
:1003B400D2B2019000911F2A09D90A000131029199
:1003C40013701D2B0ED8C2499A008A58974603F021
:1003D4008DF8050028000DB0F0BCBB46B246A94616
:1003E400A046F0BDFF23009ABA4D1370F2E7009ABD
:1003F400931C994600235370019A931C5278551EFE
:10040400002A00D146E2012200923E329046373A59
:100414009346D02212060124924613E05A465346CC
:1004240039005A624A4602F083FB002D02D153463A
:100434005A465A620134BB19A4196A1E002D00D110
:10044400C1E2150018785F1C424643460826034063
:10045400024201D00733DE0843B2002BDEDA5A46EB
:10046400534639009A624A4602F062FB002D02D1DB
:1004740053465A465A62009B01349C46B444634630
:10048400B14400933B00D8E7934B1A78022A00D07A
:100494009FE2019A5278DA769B7E934200D898E2E2
:1004A4000E2001F071FF01F039FE0023009A8B4DFC
:1004B4005370030A9070D370030C000E13715071C3
:1004C40088E7019B844A5B7893469376002B6BD034
:1004D400019A002195785A4615779184012B01D110
:1004E40001F084F95846019CE278C584427750199A
:1004F400022B01D101F07DF95E4621793085B17777
:100504000918032B01D101F08CF860797185F0771B
:100514004018042B01D101F069F82027A179B08596
:10052400F1550918052B01D101F07BF8E079013769
:10053400F055F1854018062B01D101F057F8217AC6
:1005440001373086F1550818072B01D101F04EF818
:10055400617A232431550918491BB186891AB27F5F
:1005640070868A1AF18632875946C97F521A5946CB
:100574004A87042B18D058462021415C521A82879E
:10058400052B11D02121415C521AC287062B0BD0B6
:100594002221415C521A40214252072B04D01D39BA
:1005A400415C521A4221425201331D0401231D436E
:1005B400484B00229C46009965444A700AE7464B22
:1005C4001A78012A00D142E3022A00D021E2019ADA
:1005D4005278DA769B7E934200D81AE2082001F022
:1005E400D3FE01993E4DCA788B7812021A430B79D7
:1005F40048791B0413430006184301F0F7FD002358
:10060400009A5370E6E6344B1D789B46012D00D1C9
:10061400BBE2022D00D121E20023009A53709370B3
:10062400D3700333019A1279920700D4F6E180253E
:10063400ED021D43274B9C466544CBE6019B0133E9
:100644000993254B9B461B780793012B01D100F09E
:100654001BFD022B00D112E3019B9A78DD1C002ABA
:1006640001D101F068F90220102407E01C4208D1EE
:100674000135013A002A01D100F0C5FE2B78184259
:10068400F4D10535F5E701998A784B7812021A43BB
:10069400CB7809791B0413430906194300D1ECE212
:1006A400104B994201D900F09AFEC81806F074FB69
:1006B400012803D00321013006F06EFB0022064B13
:1006C4005A7058600023009A074D537082E6C04662
:1006D400F8D300200100010028E2002006000200F7
:1006E400020006009FACB90302000500019C2379B7
:1006F400E0781B0203436079A27800041843A379CD
:1007040061781B060343042007001740104206D0FB
:10071400D0242406084201D100F0FDFE60610820C7
:1007240004001440A046104206D0D02424060842F7
:1007340001D100F0F3FE6061102004001440A146D2
:1007440010420BD0D0252D062C690E00A4460F2490
:10075400A6433400664674402040E86154B2002C3D
:1007640004DAD0208025000685624562002B27D05C
:10077400D948834200D90300D848856A002F01D0A4
:1007840000F09BFE4646002E01D000F055FF4E4679
:10079400002E01D001F03DF8520601D501F0DCF83D
:1007A400002C0DDAD0270124C9093F0603E0826A30
:1007B400521B934204D97A68D20922409142F6D15D
:1007C400D02204251206536854682B4004352C406B
:1007D40023431024506851682040034320200140E3
:1007E4000B4380215268BE4D0A401343009A537054
:1007F400F0E50025BB4BD0241D7004232406002201
:1008040000210220A36204F023FB0823002200211C
:100814000320A36204F01CFB102300220021042007
:10082400A36204F015FB2023002200210520A3620B
:1008340004F00EFB4023002200210620A36204F0F2
:1008440007FB80230022A3620021072004F000FBA1
:10085400009B5D70A44DBDE5019B5B78012B00D826
:10086400B9E0022B55D19F4A04211370D0221206FD
:1008740051625161043151625161083151625161D7
:10088400303151625161403151625161603991623C
:10089400009A5370954D9DE5019B5A78012393422C
:1008A4009B41DBB2009A924D537093E5019A5278C2
:1008B400F12A01D100F07AFE00D9BFE0042A01D167
:1008C40000F084FE3321F02A01D000F07CFE009B6E
:1008D400884D99700123009A53707BE50023009A98
:1008E400854D9370537075E5019A5378927812028E
:1008F4001A432A235343013BFDD10023D2E70322A9
:10090400019B78495B781A405B070132DB0F0A765A
:100914004B760023BCE70023009A5370971C019A7E
:10092400931C52789346002AB4D0012290463E325A
:10093400BA46012491465F465A1C1D7893464B469D
:100944004A4608262B402A4201D00733DE08524685
:100954002800594601F0D2F95B46721C6DB29B190E
:10096400A418002D01DAB244B044013F002FE3D1B2
:10097400434624041C43614BE5182BE5019B58783E
:10098400991C002856D00123C51DED0801352D04FE
:100994001D435A4B9C46654402F096F800239AE79F
:1009A4000198504A4378564D1373C37881781B02DB
:1009B4000B431382437901791B020B4353820023B7
:1009C400009A537006E5009B24041C434B4BE51826
:1009D40000E5FF235CE70122424BD0241A70042374
:1009E4002406636163620433636163627833636121
:1009F4006362703B002200210420A36204F028FA01
:100A040040230022A3620021062004F021FA0123DE
:100A14003EE7FF23009A3A4D5370DBE40199CD7809
:100A24008A782D0215430135AD041D43334B9C4692
:100A34006544CFE48020334D4000ADE7FE2A01D168
:100A440000F0D1FDFF2A01D000F0BDFD4023009A43
:100A54002D4D93700023D37002333CE700235A4694
:100A64002A4F019C3B706378D376927E9A4201D8D8
:100A740000F0C1FCE378A2781B021343039301D175
:100A840000F0B9FC012321790B40884619000A3192
:100A94000800059101F078FC41460D4201D000F0B8
:100AA400D7FE0021039A89460BA94646AA469046DA
:100AB4003D000F00631D5A78197812020A43997891
:100AC40009041143DA78043312060A430B925A4696
:100AD400148A029322E0C046C0C62D00004005409F
:100AE4000200070028E200200200010002000200C8
:100AF40002000300030002000300010001000100E2
:100B040002000600020022000400020068410220E4
:100B1400002C38D02B78013C002B34D13900300024
:100B240001F06AFD0228F3D0029B012801D000F0F5
:100B340050FF01229446023AE1449446E04442467E
:100B4400002AB8D1059B2F000A2B02D00A2001F0FD
:100B54001BFC5B461C8A05E0002C09D03B78013C59
:100B6400002B05D100210E2001F046FD0228F3D010
:100B740005004B461A0AD9B20323D2B20098417039
:100B84008270C5704EE55546F3E700230198C04FC7
:100B940082783B70C3781B021343994601D100F05D
:100BA4002AFC037998465B461A8A43469B0701D57B
:100BB40000F091FD0023441D02930BAB9A462300E1
:100BC4003D0044465746984643461A785B781B02D4
:100BD40013434246927812041A434346DB781B06B9
:100BE40013430B9304239C465B46E0441E8A05E0B2
:100BF400002E25D02B78013E002B21D13900200076
:100C040002F01EF90228F3D0012819D1029B013306
:100C1400029301235B429C46E1444B46002BD3D113
:100C24005B462F001C8A05E0002C09D03B78013C70
:100C3400002B05D100210E2002F002F90228F3D086
:100C4400029B05001A0AD9B2D2B2032396E701998E
:100C54000020CB788A781B0213430A798D4D120445
:100C64001A434B790BA91B0613430B9302F0E8F8C4
:100C74000023009A5370FFF7ADFBFF2323E5002305
:100C84005A46834F01993B704B78D376927E9A42B1
:100C940001D800F08EFDCB1C9A468B780393002B71
:100CA40001D100F0AAFE009B002203330693002327
:100CB4001C000193012353449946059353461D7820
:100CC400012302212B400A330493294200D125E158
:100CD400002C00D13CE15946098A8846934200D051
:100CE40068E1EB0600D565E153460BAE089333008B
:100CF400A0462E0092460D001C0009E0002D01D1F3
:100D040000F06EFC3B78013D002B01D000F068FC44
:100D14002100300001F070FC0228EFD008995246FF
:100D24004446350003008A46012B01D000F05EFEE4
:100D34000B9B069E190A33707170190C1B0EF3700D
:100D44001023B1702B40311D002C65D068B20028EF
:100D540001DA00F01AFC0691002B61D1CA46019B0E
:100D6400013301933B78002B01D000F04BFD039B32
:100D7400013B0393002B9DD16B461E795346A0463D
:100D8400099904925D1A2D04049B0A2B02D00A20AF
:100D940001F0FAFA5B461C8A4346002B28D00BABC1
:100DA4009A4605E0002C2AD03B78013C002B26D142
:100DB40051460E2001F020FC0228F3D001281DD159
:100DC4000B9B06991A0A4A701A0C0B708A701B0E38
:100DD400029ACB700B1D9B1A1D432F4B07909C4608
:100DE400654413E0002C09D03B78013C002B05D16D
:100DF40000210E2001F000FC0228F3D00790069B8E
:100E0400029A9B1A1D43244B9C466544009B079AF7
:100E14005E709A70FFF7DEFA0691002B00D19AE01B
:100E240049464B4649781B78090219434B469B783F
:100E34001B040B434946C978090619435346053335
:100E440005935B465B8A89469846049B934202D08D
:100E5400180001F099FA5B461E8A07E0002E00D1C3
:100E6400C6E23B78013E002B00D0C1E200212800FD
:100E740001F0C2FB0228F1D00300012801D000F0E8
:100E8400B9FD0BAEA24634002E005B461D8A0BE072
:100E9400684102200200060001000100002D32D04A
:100EA4003A78013D002A2ED12100300001F0A4FB44
:100EB40003000228F2D05A460B9952690A400128CD
:100EC40001D000F0A0FD914500D1AFE34346002BD3
:100ED40006D00122524294463B78E044002BD4D001
:100EE400D046112302211020039A059C06E02842D3
:100EF40007D10134013A002A00D12AE32578294296
:100F0400F5D10534F6E7D0460B9C5A465269224087
:100F14009145E7D010230343DBB2E3E7002C63D110
:100F24004B4619785B781B020B43494689780904C0
:100F340019434B46DB781B060B4305218C461B31BA
:100F44000B93E24429427BD0594600244B6106E7C7
:100F5400EB0600D564E7049B934202D0180001F02D
:100F640013FA5B461E8A07E0002E00D1D9E23B78D3
:100F7400013E002B00D0D4E20021280001F03CFB0C
:100F84000228F1D00400012801D000F050FD6DB218
:100F9400CA46049A002D00DBE1E65B469B6806988E
:100FA400190A03704170190C1B0EC370031D817064
:100FB4000693D4E60A2A02D00A2001F0E5F9444651
:100FC4000BAE07E0002C00D1BBE23B78013C002BC8
:100FD40000D0BBE231000E2001F00EFB0228F1D05C
:100FE40003000A2200249FE60A2A02D00A2001F004
:100FF400CBF95B461B8AA8460BAE1D0007E0002D0B
:1010040000D1E7E13B78013D002B00D0E2E1310063
:101014000E2001F0F1FA0228F1D045460300012820
:1010240001D000F0DEFC0B9B06991A0A0B704A7083
:101034001A0C1B0ECB700B1D8A7006930A226FE7E5
:10104400049B934202D0180001F09EF95B460BAE5C
:101054001C8A07E0002C00D1DEE23B78013C002B27
:1010640000D0D3E23100280001F0C6FA0228F1D002
:101074000300012801D000F0D4FC6DB2002D00DA89
:1010840073E20024049A6AE6009BB84F033398463F
:1010940000233B70019BD91C9B780393002B01D147
:1010A40000F092FC002500230022AA465D46089326
:1010B4000192059302200E784A1C0492304200D11A
:1010C400ADE050462C8A002834D0112389463340A1
:1010D400012B00D133E1924607E0002C00D1B7E1A7
:1010E4003B78013C002B00D0B4E10E200BA901F0A9
:1010F400A7FE0228F1D00023524649469A4603002F
:101104000590012B01D000F0A6FC444643460B9801
:101114002070040A5C70040C000E9C70D8701C1DB6
:101124005346002B05D073B2002B00DA95E15346E9
:101134000593A04601202B8A30400693F30600D481
:10114400ACE013789C46644653781B021C439378A6
:10115400D2781B04234312061A434B1D04936B8A53
:1011640091469B46002816D0069C07E0002C00D12F
:101174009EE03B78013C002B00D099E00021300038
:1011840001F05EFE0228F1D003000590012802D090
:10119400AB46554625E02C8A05E0002C32D03B783E
:1011A400013C002B2ED130000BA901F049FE0200B6
:1011B4000228F2D06B690B9C2340012801D000F077
:1011C400FFFB994500D10EE15B46002B06D00122BE
:1011D400524294463B78E344002BDCD0AB461123C7
:1011E400554602211020039A049C06E0304207D1A0
:1011F4000134013A002A00D103E126783142F5D1C5
:101204000534F6E7AB46030055460B9C594649693D
:1012140021408945E5D010231343DBB2E1E753466F
:10122400002B49D1537810781B0203439078053181
:1012340000041843D37820221B0603430B93324245
:101244005ED06B6100239A4601330593019A013203
:1012540001923A78002A00D0C3E2039A013A039239
:10126400002A00D026E7AB465546059B0491012B86
:1012740000D109E2DBB20793009B019A5A70079AE6
:101284009A70049B099A9D1A4346029A2D049B1A4C
:101294001D43374B9C466544FFF79CF8002861D0FA
:1012A4005346002B00D1E8E0002311000893CDE75A
:1012B400AB460300554694E7894693462C8A05E0DD
:1012C400002CF5D03B78013C002BF1D10E200BA96A
:1012D40001F0B6FD0228F3D049465A46059001288C
:1012E40000D0B8E3404644460B9B0370180A607074
:1012F400180C1B0EE37004239C46A070E04491E795
:101304002B8A89461C0007E0002C00D113E13B78AE
:10131400013C002B00D008E130000BA901F090FD46
:101324000228F1D049460590012800D08DE376B219
:10133400002E7CDB0123089300239A4686E793461C
:1013440005E0002C6DD03B78013C002B69D13000C6
:101354000BA901F075FD0228F3D049465A46030053
:101364000590CEE69146069C0AE0C04668410220FC
:1013740001000100002C9BD03B78013C002B97D14D
:1013840030000BA901F05CFD0228F3D04A46059019
:10139400012800D05FE376B2002E0BDA4346A96839
:1013A400080A19705870080C090E9870D970042333
:1013B4009C46E04443460B99080A19705870080C7F
:1013C400090ED970987004239C4600231100E04450
:1013D40008933BE70A22A0460300049282E5012217
:1013E4000120FFF76CF900230499059008932DE779
:1013F400A046030076E50323002500220021FFF721
:10140400BDFB049433E7099BED1A02232D041D430D
:10141400C84B9C4665440023009A53709370FEF7B2
:10142400D9FFAB4655462C0025000223D9E6434696
:10143400AA68100A1A705870100C120E9870DA709C
:101444000123089303339C460023E0449A46FDE6B7
:10145400AB46E9E7AB460024E6E740464446AB68C2
:101464000371180A6071180C1B0EE371534605933F
:1014740008239C46A071E0445CE69146069C07E084
:10148400002C00D1BAE13B78013C002B00D00FE7DF
:101494000021300001F0D4FC0228F1D04A46059026
:1014A400012800D0D7E276B2002E00DA87E10023CB
:1014B400089301339A461100C8E6012294467F320C
:1014C400D0279346783A924689083F0666467A685A
:1014D40092083240914213D14246002A16D14A461C
:1014E400002A03D010267A68164209D1002C01DBA9
:1014F400FFF766F95E467A68164201D1FFF760F994
:10150400826A521B9342E1D8FFF75AF956467A6829
:101514001642E4D0F4E7A061FFF701F9A061FFF7F8
:101524000BF9002202239046DCE44946AB46030053
:101534000025049155E64946AB4603002500049175
:101544004FE60A22A04602230492CBE40A22002496
:10155400F8E769460E790999651A2D04012B01D122
:10156400FFF712FCDBB2079349E45B469B680699DC
:101574001A0A0B704A701A0C1B0ECB700B1D8A7062
:101584000024049A0693FFF7EAFB59468968080A7F
:101594007071080CB071300031710830090EF171AE
:1015A4000690002B01D1FFF7D9FB39E44023009AC0
:1015B400614D93700233D370333B13710023537125
:1015C4000433FFF788F95D4DFFF785F9009B062288
:1015D400981C5B4906F068FA5A4D0623FFF77BF91D
:1015E40052464446AEE70221FFF771F9401B821AC6
:1015F40084B291B25846C186817F8486521A02878A
:10160400032B01D0FEF7B0FFFEF7CEFF5246059242
:1016140000220300904665E45246A046030005926A
:1016240060E4491B8A1A8CB291B2E3E7059B5446E5
:10163400049A9A46FFF793FBCA0894461022D027CF
:101644009246703201219046A34666463F067A6868
:10165400D2080A40964211D14A46002A03D0544681
:101664007A6814420AD15A46002A01DBFFF7A8F827
:1016740044467A68144201D1FFF7A2F8826A521BE9
:101684009342E4D8FFF79CF8002D00D13EE15B467D
:101694001C8A0BAB1D0007E0002C00D18DE13B78C8
:1016A400013C002B00D088E129000E2001F0C8FB8A
:1016B4000228F1D0012800D03BE1424641460B9B71
:1016C40013701A0A4A701A0C1B0ECB7004239C4622
:1016D4008A70E044D0E543461D4214D014004646C7
:1016E40007E0002C00D128E13B78013C002B00D01E
:1016F40023E10021300001F0A3FB0228F1D0B04621
:10170400012800D044E100214A4689460BA90595E9
:1017140001264546B8460F00009B013A04339A4619
:10172400002A42D059460C8A039252469A460492A1
:1017340011E0C046010001000600020002000200A0
:1017440060CF002008000200002C24D043461B7800
:10175400013C002B1FD13900280001F071FB022845
:10176400F2D004995346039A8A46012800D063E1D3
:101774000B99080A5870080C987050461970090E95
:10178400C17001218C460433E144511E002A00D16A
:10179400D9E00A00C3E74A4653460298D1B2120A76
:1017A4000225D2B21B1AFFF7E9F92E42BAD00E2550
:1017B400B8E700230026A94D0793FFF727FB43460C
:1017C400A968080A19705870080C090ED970987025
:1017D4000023089301339A4603339C461100E044E6
:1017E40034E5AB46059B55460491FAE49186FEF731
:1017F400DBFE58468286C186FEF7D6FEAB46030062
:101804000025EEE45346A046059304920123FFF716
:1018140069FB0A0994460122D02791467F329046FB
:1018240066463F0649467A6812090A40964209D13B
:10183400002C01DBFEF7C4FF41467A68114201D156
:10184400FEF7BEFF826A521B9342EBD8FEF7B8FF45
:101854005B4646461C8A07E0002C00D19EE03B789C
:10186400013C002B00D094E00021300000F0C4FEC5
:101874000228F1D0012800D08AE0039BAA46013B4C
:101884000493009B04330393002399460BAB1D0080
:10189400039B9846049B002B30D05B461C8A05E0D2
:1018A400002C21D03B78013C002B1DD129003000B5
:1018B40000F0A2FE0228F3D0012800D0A7E00B9B81
:1018C40003991A0A4A701A0C8A700A1D0392424636
:1018D4000B701B0ED37001239C46049AE144531EE3
:1018E400002A60D00493D3E74B4602981A0AD9B26F
:1018F400039B5546D2B21B1AFFF740F9059B0A2BEE
:1019040002D00A2000F040FD0E26C6E7089B002BFB
:1019140000D1B1E45B461C8A05E0002C4DD03B7835
:10192400013C002B49D100210E2001F089FA022844
:10193400F3D00790A0E44A4D6DE50022032302256D
:101944001100FFF71BF94A460298D1B2120A059D0D
:10195400D2B21B1AFFF712F98909002905D0826A4D
:10196400521B9342F9D8FEF72BFF002C01DBFEF744
:1019740027FFD020803100064268114201D1FEF7D2
:101984001FFF384A926A521B9342F5D8FEF718FF9C
:101994000500002203231100FFF7F0F803230022BF
:1019A4000021FFF7EBF84B4602981A0AD9B2039BC1
:1019B4006546D2B21B1AFFF7E1F8022307935BE4F2
:1019C400AB460300554621E4002304910193079399
:1019D40052E44B461A0AD9B205000323D2B2FFF7E8
:1019E400CDF80A22A0460492FFF77CFAA04604929E
:1019F400FFF778FAA046FFF775FA0023184D1E008A
:101A04000793FFF703FAD0460C00FFF77EFA4B4624
:101A1400029C1A0AD9B2039B0500D2B21B1BFFF722
:101A2400ADF85246059200229046FFF75BFA002279
:101A340003009046FFF756FA4A46029CD1B2120AB6
:101A44000500D2B21B1BFFF799F8AB46059B002596
:101A54000491FFF7C6FB059BFFF79AFB0300020006
:101A64000300030000400540F8B503787F2B04D041
:101A7400FEF794FC05002800F8BD0B7044780A4D6D
:101A8400861C8F1C4C70002CF5D039003000FEF7FA
:101A940085FC030C2D180004000C013CF6183F18BB
:101AA400002CF2D1E7E7C046020002003D200021ED
:101AB4000022174B10B558602730198018615961FE
:101AC400623801311A739A76198303F0F7F9032007
:101AD40003F0F4F9042003F0F1F9052003F0EEF922
:101AE400062003F0EBF9072003F0E8F9D0230422E1
:101AF4001B065A625A6104325A625A6108325A62A7
:101B04005A6110329A6260329A625A6110BDC046BC
:101B140028E2002070B5774C200006F0A3FA237861
:101B2400180901001A01D2B230319F2B00D90731B4
:101B3400714B1009197000212170010030319F2A66
:101B440000D9D4E0597061780D0928000A01D2B295
:101B540030309F2900D9BFE00021987010096170CE
:101B6400010030319F2A00D9B4E0D970A1780D0961
:101B740028000A01D2B230309F2900D99FE0002109
:101B840018711009A170010030319F2A00D994E026
:101B94005971E1780D0928000A01D2B230309F2929
:101BA40000D97FE0002198711009E1700100303103
:101BB4009F2A00D974E0D97121790D0928000A01FE
:101BC400D2B230309F2961D80021187210092171D6
:101BD400010030319F2A57D8597261790D092800C4
:101BE4000A01D2B230309F2944D8002198721009DA
:101BF4006171010030319F2A3AD8D972A1790D0957
:101C040028000A01D2B230309F2927D80021187346
:101C14001009A171010030319F2A1DD85973E1794F
:101C24000D0928000A01D2B230309F290AD80021B8
:101C340098731009E171010037319F2A00D80739E0
:101C4400D97370BD0021073098731009E171010048
:101C540037319F2AF4D8F2E70731DFE70021073054
:101C640018731009A171010030319F2AD6D9F3E706
:101C74000731C2E700210730987210096171010031
:101C840030319F2AB9D9F3E70731A5E7002107309E
:101C9400187210092171010030319F2A9CD9F3E791
:101CA400073188E70021073098711009E1700100BD
:101CB40030319F2A00D87EE7F2E7073168E7002138
:101CC400073018711009A170010030319F2A00D823
:101CD4005EE7F2E7073148E7002107309870100902
:101CE4006170010030319F2A00D83EE7F2E70731E6
:101CF40028E7C046644001207C400220F0B5DE465F
:101D040057464E464546E0B583B001923F224023F4
:101D14000091110003400140024200D1F7E0002B82
:101D240000D1D2E1D023373A1B065A61000600D411
:101D3400F8E0002310229846814B94469B460C3AC7
:101D4400D023042591461B064046009A145C18696A
:101D54002201424060460240DA614A469A615A468C
:101D640050680200013AFDD14E465A685E61060091
:101D7400013EFDD1FF275209D20166083A400129EC
:101D840000D1A7E11F6936017E4067463E40DE610F
:101D940006009D61013EFDD15E6807005D61013F63
:101DA400FDD1A708BA46FF277609F60152083E403E
:101DB4003243022900D193E157461E693F017E4018
:101DC40067463E40DE6106009D61013EFDD15E68CE
:101DD40007005D61013FFDD1E708BA46FF27760998
:101DE400F60152083E403243032900D17EE15746B2
:101DF4001E693F017E4067463E40DE6106009D61EC
:101E0400013EFDD15E6807005D61013FFDD1FF2702
:101E14007609F60152083E403243042900D15AE1C2
:101E24001E69F03FB2462600BE4357467E406746D1
:101E34003E40DE6106009D61013EFDD15E68070003
:101E44005D61013FFDD16709BA46FF277609F601B6
:101E540052083E403243052900D14DE157461E69E0
:101E64003F017E4067463E40DE6106009D61013EC3
:101E7400FDD15E6807005D61013FFDD1A709BA4647
:101E8400FF277609F60152083E403243062900D165
:101E940038E157461E693F017E4067463E40DE6199
:101EA40006009D61013EFDD15E6807005D61013F52
:101EB400FDD1FF277609F60152083E40E40932437A
:101EC400072900D124E11E69240174406646344088
:101ED400DC6104009D61013CFDD15C685D610138F9
:101EE400FDD1500862094446D2013A4002430198A8
:101EF4000839025501229246D044002900D023E734
:101F040003B0F0BCBB46B246A946A046F0BD002BC8
:101F140000D1D5E0D02308221B065A6140210006D7
:101F240000D506E7064B04225868D023009E92464B
:101F34000B32102504249446B3461B06A4E0C04685
:101F440028E200201E69B14646463601B0464E4698
:101F540047467E402E40DE6106009C61013EFDD175
:101F64005E6806005C61013EFDD19608B046022918
:101F7400C6D01E69B14646463601B0464E4647466F
:101F84007E402E40DE6106009C61013EFDD15E680C
:101F940006005C61013EFDD1D608B046032900D19C
:101FA400AEE71E69B14646463601B0464E46474640
:101FB4007E402E40DE6106009C61013EFDD15E68DC
:101FC40006005C61013EFDD1042900D198E71E6939
:101FD4006746B1461600BE43B0464E4647467E406D
:101FE4002E40DE6106009C61013EFDD15E68060064
:101FF4005C61013EFDD15609B046052900D17FE759
:102004001E69B14646463601B0464E4647467E40B6
:102014002E40DE6106009C61013EFDD15E68060033
:102024005C61013EFDD19609B046062900D167E7FF
:102034001E69B14646463601B0464E4647467E4086
:102044002E40DE6106009C61013EFDD15E68060003
:102054005C61013EFDD1D209072900D150E71E6918
:10206400120172402A40DA6102009C61013AFDD1FA
:102074005A6802005C61013AFDD101229046083998
:10208400C344002900D13BE75A461E691278B14681
:102094001601B0464E4647467E402E40DE61564607
:1020A4009E610600013EFDD15E6856465E610600F3
:1020B400013EFDD15608B046012900D042E71FE792
:1020C400D02308221B069A6128E7D02308221B0686
:1020D4009A6124E70721CA404146019B5A540FE7FD
:1020E4000621CA404146019B5A5409E70521CA40CA
:1020F4004146019B5A5403E70321CA404146019BD0
:102104005A54FDE60221CA404146019B5A54F7E65F
:102114000121CA404146019B5A54F1E6D021F0B551
:1021240004230824090630484C618B614268150079
:10213400013DFDD115004B61013DFDD18C611400C1
:102144008B61013CFDD114004B61013CFDD11400B5
:102154008B61013CFDD14B611300013BFDD1C37E7A
:10216400002B0BD0042410008C610138FDD1100029
:102174004C610138FDD1013B002BF4D1D0231F2148
:102184000025042704261B0614009E61013CFDD192
:10219400586814005E61013CFDD14009C007054345
:1021A40001396D080029EFD10831596110009F6190
:1021B4000138FDD1586814005F61013CFDD19F6175
:1021C4001400013CFDD15F611400013CFDD1996113
:1021D4009F6111000139FDD15F61013AFDD14009D0
:1021E400C0072843F0BDC04628E20020D022F0B545
:1021F40004234746CE4608246249120680B554613A
:102204009361884649680D00013DFDD10D0053617D
:10221400013DFDD194610C009361013CFDD10C00A2
:102224005361013CFDD10C009361013CFDD153612C
:102234000B00013BFDD14346DB7E04259946002B70
:102244000AD00C009561013CFDD10C005561013CA4
:10225400FDD1013B002BF4D1D022102312061469C6
:102264002340D36104230C009361013CFDD15361ED
:102274000C00013CFDD193610C00013CFDD1536184
:102284000C00013CFDD193610C00013CFDD1536174
:102294000B00013BFDD104231F2410269C4604257A
:1022A400176903017B403340D3610B009561013B07
:1022B400FDD10B005561013BFDD1013C4008002CD0
:1022C400EED143469C7E4B460001E41A012C00D11A
:1022D40047E0136943403340D361634693610B0085
:1022E400013BFDD1634653610B00013BFDD1A31EAD
:1022F400022C0DD0D024042024060A00A061013A47
:10230400FDD10A006061013AFDD1013B002BF4D1FB
:10231400D02308221B065A61043A9A610800013846
:10232400FDD15A610B00013BFDD1D02304221B06D1
:102334009A6108000138FDD15A6108000138FDD1C5
:10234400082098619A6108000138FDD15A61013969
:10235400FDD119690C328A43DA61C0BCB946B04672
:10236400F0BD08235361136943401E406346D661A0
:1023740093610B00013BFDD1634653610B00013BAC
:10238400FDD1D2E728E20020F0B5CE46474680B51D
:10239400824DEB7E994610335B00EB189A886B787C
:1023A400002B56D0D023042108261B065E619961B8
:1023B4005961996159619E61996159619961596144
:1023C4001E690C31B143D9610421002A04D0013AB9
:1023D40099615961002AFAD14B46EB181B7F591EAB
:1023E400012B10D01023D0229C4604261206176914
:1023F40003017B40674601393B40D3614008966145
:1024040056610029F3D14C46183464002C19A48871
:102414000001002C00D0A3E0D02308221B065A613F
:102424001A69504010220240DA6104229A615A610A
:10243400D023042208211B069A615A6199619A618A
:102444005A6119690C328A43DA61C0BCB946B04694
:10245400F0BDD0210827042609064F618E616B6800
:102464001C00013CFDD11C004E61013CFDD11C004F
:102474008E61013CFDD11C004E61013CFDD18F6198
:102484001F008E61013FFDD11F004E61013FFDD150
:102494001F008E61013FFDD14E611E00013EFDD142
:1024A40010260F69BE43CE610427002A0AD01E00FD
:1024B4008F61013EFDD11E004F61013EFDD1013A05
:1024C400002AF4D14A46AA18127F561E012A18D0AF
:1024D4001022D0219446042709060A6990464446EE
:1024E4000201624064462240CA611A008F61013AC7
:1024F400FDD11A004F61013AFDD1013E4008002E82
:10250400EBD14C46183464002D19A9880001002928
:1025140046D0D024240622691D00424010200240E7
:10252400E2610422A261013DFDD162611A00013A17
:10253400FDD122699043E0614A1E042001290AD09A
:102544001900A0610139FDD1190060610139FDD183
:10255400013A002AF4D1D02208211206516128E060
:10256400D022120613690421584010231840D06168
:102574009161516111698B43D3610421631E012C64
:1025840004D0013B91615161002BFAD1D023082280
:102594001B065A61043A9A615A6149E728E200200D
:1025A400D0220821120651611169484010210140CE
:1025B400D1610421180091610138FDD151611A00E3
:1025C400013AFDD1D022042112061800916101388C
:1025D400FDD1180051610138FDD108209061180027
:1025E40091610138FDD15161013BFDD11023116985
:1025F4008B43D36129E7C046F0B54546DE465746CE
:102604004E46E0B58C4683B037490090CB7E984661
:102614001A004B78002B6BD0D023042408251B060A
:102624005D619C615C619D619C615C619C615C61BC
:10263400002A04D0013A9C615C61002AFAD1D023BB
:10264400102700981B061C694208120162403A4098
:10265400DA6104229A615C685A611E6985082D0159
:1026640075403D40DD619A615E685A611D692409C7
:10267400A946C50848462D0145402F400225DF6183
:102684009A615F682C40FF081740B6063C43F60F7A
:102694002643B2465A61012E00D134E108245C611C
:1026A4009A615A61D023042208241B069A615A6154
:1026B4009C619A615A611C690C32A243DA61009BE5
:1026C400180602D5094B9B6A8B600A7B531E002AAD
:1026D40006D0D021042209068A614A61013BFBD25B
:1026E4005346D8B2B5E0C04628E200200040054079
:1026F400D0240826042524066661A5614B681F00C2
:10270400013FFDD11F006561013FFDD1A6611E009F
:10271400A561013EFDD11E006561013EFDD11E0093
:10272400A561013EFDD165611D00013DFDD1042679
:10273400002A0AD01D00A661013DFDD11D0066617D
:10274400013DFDD1013A002AF4D1D022102700988E
:1027540012061569440824016C403C40D4610424E9
:102764001D009461013DFDD155681E00AB465461C6
:10277400013EFDD11669B1464D46860836016E40CC
:102784003E40D6611E009461013EFDD156681D0095
:102794005461013DFDD1C00800018146156928003E
:1027A4004D4668400740D7611F009461013FFDD149
:1027B40050681F0081465461013FFDD15846050908
:1027C40048460227C0083D402040B6060543F60FA0
:1027D4002E430196012E00D142E0082555619461F3
:1027E4001D00013DFDD154611A00013AFDD1D022F2
:1027F400042412061D009461013DFDD11D005461A5
:10280400013DFDD1082595611D009461013DFDD177
:1028140054611C00013CFDD110241569AC43D46102
:10282400009A100602D5964A926A8A600A7B002AA8
:102834000DD0D024042024061900A0610139FDD153
:10284400190060610139FDD1013A002AF4D16B46C7
:10285400187903B0F0BCBB46B246A946A046F0BD09
:102864000098074200D1B7E004201F2500268146C6
:1028740004271C009761013CFDD15468180057617E
:102884000138FDD16409E4072643013D7608002D93
:10289400EFD140468C7E241A012C00D1DFE048465B
:1028A4001D009061013DFDD14D4657685561BF063D
:1028B4001A00F80F013AFDD1A21E022C0DD0D02728
:1028C40004253F061C00BD61013CFDD11C007D6157
:1028D400013CFDD1013A002AF4D1D0220824120689
:1028E4005461043C94611D00013DFDD154611A0002
:1028F400013AFDD16246002A00D178E7C707374381
:1029040017604B6873E7009A154232D01F240026E3
:10291400042704259D615A68013C5209D2071643D5
:102924005D617608002CF5D140468A7E121A012A90
:1029340000D1B7E09F615D685F61AD06ED0F931E46
:10294400022A07D0D02404222406013BA26162613A
:10295400002BFAD1D02308221B065A61043A9A614B
:102964005A616346002B00D19CE6ED0735431D6098
:1029740098E66246146804221F261027914604250F
:102984001869220142403A40013EDA6164089D61BF
:102994005D61002EF4D140468A7E2401121A012A78
:1029A40000D187E01869444048463C40DC619861A6
:1029B4005861931E022A07D0D02404222406013B26
:1029C400A2616261002BFAD1D02308221B065A614E
:1029D400043A9A615A6165E66046056804201F2737
:1029E40010268246844610692C01444060463440D7
:1029F400D4611C009061013CFDD11C005061013C7C
:102A0400FDD1013F6D08002FEDD140468C7E2D0194
:102A1400241A012C36D0504617697D403540D561C3
:102A24001D009061013DFDD150611A00013AFDD1B4
:102A3400A21E022C0DD0D02704253F061C00BD6128
:102A4400013CFDD11C007D61013CFDD1013A002A0D
:102A5400F4D1D022082412065461043CBFE60825B0
:102A6400484655611D009061013DFDD120004C4652
:102A7400576854617F091A003840013AFDD139E79B
:102A84000040054008245046546114696C403440A9
:102A9400D4611C009061013CFDD150611A00013ADF
:102AA400FDD1A4E608245C619F615D685F616D09E6
:102AB400154056E708225A611A6954404A4627408D
:102AC400DF619A615A61EDE5F0B5C646421E00B574
:102AD400002827D0012008258046D020134BAC467F
:102AE4005E68002400230006043D10E04746013CD4
:102AF4001F4214D06746476137008561013FFDD10D
:102B040037004561013FFDD15B08013A0AD3002C2F
:102B1400ECD147460B78072401311F42EAD16746BE
:102B24008761E9E780BCB846F0BDC04628E20020D2
:102B3400F0B54546DE4657464E46E0B53F252C00E7
:102B4400802383B0044001940340054200D19FE0F8
:102B5400002B00D0A1E04D4B02245A680123A0466B
:102B64000E349C46A146D0231034082604200427A2
:102B7400A2461B0664460D782C4200D038E19E61C3
:102B840014009F61013CFDD114005F61013CFDD143
:102B9400019C012C00D171E044462C4200D029E173
:102BA4009E6114009861013CFDD114005861013C00
:102BB400FDD1019C022C00D160E0284200D01BE131
:102BC4009E6114009861013CFDD114005861013CE0
:102BD400FDD1019C032C00D150E02E4200D00DE128
:102BE4009E6114009861013CFDD114005861013CC0
:102BF400FDD1019C042C00D140E04C462C4200D075
:102C0400FEE09E6114009861013CFDD114005861FE
:102C1400013CFDD1019C052C30D054462C4200D0FF
:102C2400F0E09E6114009861013CFDD114005861EC
:102C3400013CFDD1019C062C20D06C0600D5E5E0BA
:102C44009E6114009861013CFDD114005861013C5F
:102C5400FDD1019C072C11D0ED0900D0D4E09E6178
:102C640015009861013DFDD115005861013DFDD16C
:102C7400083C01940131002C00D07BE703B0F0BC88
:102C8400BB46B246A946A046F0BDC04628E2002095
:102C9400002B00D1A9E040230193684B16009C4609
:102CA400D02304200427FF251B0662469F61516838
:102CB4000A00013AFDD15A680C005F61013CFDD164
:102CC400D208D201019C2A409046012C00D19FE0F9
:102CD4000A009861013AFDD15A680C005861013C20
:102CE400FDD14446D208D20164082A402243019C03
:102CF400022C00D190E00C009861013CFDD15C688D
:102D04005861A0460C00013CFDD14446E408E401AE
:102D14002C4052082243019C032C00D17FE00C007C
:102D24009861013CFDD15C685861A0460C00013CEF
:102D3400FDD14446E408E4012C4052082243019C9E
:102D4400042C00D16EE00C009861013CFDD15C685C
:102D54005861A0460C00013CFDD14446E408E4015E
:102D64002C4052082243019C052C00D15DE00C004C
:102D74009861013CFDD15C685861A0460C00013C9F
:102D8400FDD14446E408E4012C4052082243019C4E
:102D9400062C4DD00C009861013CFDD15C68586153
:102DA400A0460C00013CFDD14446E408E4012C405B
:102DB40052082243019C072C3DD00C009861013C31
:102DC400FDD15C685861A0460139FDD14146C9086E
:102DD400019CC90152082940083C0A4332700194FD
:102DE4000136002C00D060E748E740230193B2E6A7
:102DF4005E61C5E65E61D4E65E61E2E65E61F0E6D0
:102E04005E61FFE65E610DE75E6129E75E6118E7DA
:102E14004346DA09327031E7920932702EE75209DB
:102E240032702BE71209327028E7D208327025E796
:102E34009208327022E7520832701FE728E200201D
:102E4400F0B54E464546DE465746E0B5050001203E
:102E54008946434983B04B782840002B00D181E058
:102E6400D023042408221B065A619C615C6100285B
:102E740000D050E19A61D022042312069361536179
:102E84006B08A80700D450E108205061D022042028
:102E9400120690615061A8081B18C00700D453E1C2
:102EA40008205061D022042012069061EB18506172
:102EB400EC08280700D444E108205061D022042003
:102EC40012061B1990615061DB0700D436E1082318
:102ED4005361D023042208201B069A615A61986129
:102EE4009A615A6158619A615A6198620C7E0438F9
:102EF400221E04D0013A98615861002AFAD1D023E5
:102F040004221B069A615E685A619A6158685A6184
:102F14009A615F688008BC4602273840B846674615
:102F24007F085A613A4010433207D20F10430128F8
:102F340000D1C0E14646821EB24394462200674651
:102F440004262132002F00D129E1013A9E615E61FD
:102F5400002AFAD108325A62C0B25A61D2E0C0469D
:102F640028E20020D0220824042612065461966127
:102F74004B681F00013FFDD156611E00013EFDD18B
:102F8400002800D0C5E09461D020042200061C0073
:102F94008261013CFDD142611A00013AFDD16A0807
:102FA400AC0700D4C4E008244461D02604203606CB
:102FB4001C00B061013CFDD1706118000138FDD1E5
:102FC400A8081218C00700D4C4E008207061D026F5
:102FD400042036061C00B061013CFDD1706118006C
:102FE4000138FDD1AA18EF08280700D4AFE0082063
:102FF4007061D026042036061C00B061013CFDD16E
:10300400706118000138FDD1D219D20700D492E0C2
:1030140008227261D022042012061C009061013C37
:10302400FDD11C005061013CFDD108241E009461B7
:103034009061013EFDD11E005061013EFDD15461FD
:103044001E009061013EFDD1506118000138FDD190
:1030540094620E7E0427301E0AD01C009761013C46
:10306400FDD11C005761013CFDD101380028F4D189
:10307400D02204241206180094610138FDD150684E
:103084005461804618000138FDD11800946101385C
:10309400FDD150681F005461013FFDD11F009461B0
:1030A400013FFDD157685461BA461F00013FFDD16D
:1030B400022780083840BC4657467F0827404446CC
:1030C40024073843E40F2043012800D1BCE06746BD
:1030D400841EBC43A04634002134A1464446042740
:1030E400002C3AD04C46190097610139FDD11900E2
:1030F40057610139FDD1013C002CF4D10823C0B241
:103104005362536103B0F0BCBB46B246A946A04625
:10311400F0BD546138E75A61D0220423120693614A
:1031240053616B08A80700D5AEE608209061ADE6B0
:103134000824846139E70822B2616BE708239361AC
:10314400C7E608209061B9E608209061AAE6082045
:10315400B0614EE70820B06139E7497E884600290E
:103164003FD06146294230D1002E3DD10821516221
:10317400D024082204252406A26119321900A5616D
:103184000139FDD1190065610139FDD1013A002AE7
:10319400F4D1D02308221B065A61C0B2B2E74E7E96
:1031A400002E3FD042462A4235D1002C3DD1082280
:1031B4005A62D02208230421120693611933013B79
:1031C40091615161002BFAD1E3E721211C00976141
:1031D400013CFDD11C005761013CFDD1013900299E
:1031E400F4D1002E00D178E1D021042409061A007C
:1031F4008C61013AFDD11A004C61013AFDD1013EC6
:10320400002EF4D108224A624246002AC1D0AD07FA
:1032140000D4ADE7BDE721220421013A9961596147
:10322400002AFAD1002C00D15AE1D02304221B0633
:10323400013C9A615A61002CFAD108225A62002E8C
:10324400A7D0AD07B5D5A4E7674660462F4028420E
:103254005AD10424002E0AD0180094610138FDD1FB
:10326400180054610138FDD1013E002EF4D1D02064
:1032740008220126000642624A46B0460736B14695
:1032840020248C461268043E0FE04946416119002F
:1032940086610139FDD1190046610139FDD1013C36
:1032A400BF185208002C00D1F2E041461142ECD183
:1032B40049468161EBE7464642462E402A4200D009
:1032C40094E00422002C04D0013C9A615A61002C41
:1032D400FAD1D02208231206012453624B46A44695
:1032E4002020082788461B68033408E0576101380A
:1032F4009461F61854615B08002800D1DBE0614654
:103304001942F3D19761F2E70024A4460434A3469A
:10331400A046033CA2460C00202061460027A44698
:103324000196444694611C00013CFDD15646546804
:10333400E4083440464656611E00013EFDD1091999
:103344007F08E407013827430028EAD160468C4609
:1033540001005846019E906118000138FDD15C4679
:1033640050685461013BFDD15246C3081340624684
:1033740053405246072013405B4218404B460130ED
:10338400002B00D01F60002E0ED0D02404224F68E2
:1033940024063B00A261013BFDD13B006261013B7D
:1033A400FDD1013E002EF4D1D02308221B065A621F
:1033B4002D0602D54C4B9B6A8B600B7B002B10D0E7
:1033C400D02408222406A2614D6804212A00A161A8
:1033D400013AFDD12A006161013AFDD1013B002B84
:1033E400F4D1D02308221B065A618BE600229246B0
:1033F40004329046033A94460A002020514600269F
:103404000427A346924664469F615A684908D20835
:103414002240B6180138D2075F6111430028F2D167
:1034240052468A461100424640469A615A6858619B
:10343400D308624607201340734013405B42184090
:103444004B465C460130002B01D052461A60002CDA
:1034540007D0D02204231206013C93615361002C4F
:10346400FAD1D02308221B065A622D0602D51E4B20
:103474009B6A8B600B7B002BB3D0D02208211206F1
:1034840091610439013B91615161002BFAD1A8E7A4
:10349400D022614608201206FF071CD49061D02276
:1034A400042012061C009061013CFDD15061013BD7
:1034B400FDD103387CE7D023414608221B06F607DA
:1034C40007D49A61D02304221B069A6101205A6111
:1034D400CBE75A61F6E75061E1E70823536258E607
:1034E40008225A6255E6C046004005400378014868
:1034F4000B7070470100010030B583B008F09AF8F2
:10350400D02401250190240601200021404205F029
:1035140037F863685B0E1D420BD080239B04A361C4
:1035240005F01EF80028EFD1012101A808F022FAC5
:10353400EAE704F089FF0028EFD004F08DFFECE700
:10354400D023802210B51B06920482B09A6108F041
:1035540069F8154804F076FB08F058F9FEF7A6FA66
:1035640006F04AFEFEF7D6FA06F034FA04F030FD0F
:103574000E4B8024019301236400220000930C4924
:1035840000230C4807F092FD0B4B22000193022309
:103594000A4900930A48002307F088FD07F056FF04
:1035A400002002B010BDC04668CF0020604001205A
:1035B40080CF0020B93200203039012084CF002090
:1035C400253600200020704770B51800084C04AB65
:1035D4001D882100FCF7E2FE2B1C402D00D940235E
:1035E400220000219BB2002005F030FF70BDC046D0
:1035F4006CE20020F0B505001400012083B001291D
:1036040005D1137800205B069B0F022B01D003B079
:10361400F0BD5378012BFAD1637912791B0213435D
:10362400072BF4D16B46074E9F1D31000222380050
:1036340004F03AFA3200210028003B88083A05F0E9
:1036440001FCE4E778D400207047C04610B5024876
:10365400097801F06DFFC04688CF002010B50148FD
:1036640001F066FFB8CF00200048704770D50020F5
:10367400004870474CD500203E2306220148C2541E
:103684007047C04624D9002070B5002822D00628EF
:1036940029D8164B8000C558280008F0A9FEC0B2EE
:1036A400041C1F2814D8C026E4B2631CDBB25B00E0
:1036B400B6001E43002808D000230D4AE95C0133FC
:1036C4001180D9B202328C42F8D80A48068070BD03
:1036D4001F24E8E7C126054B02220548196804F0B7
:1036E400E3F9B600F1E70020F1E7C04608D900206D
:1036F40026F5002024F500200048704724D500203A
:103704007047C0467047C04600207047F0B5464633
:10371400D6464F46C0B54B7906000C00FF2B1FD18F
:103724008B79002B1CD1CB79002B19D180208146B9
:103734004F461E491E4D0B5004300B50A846EB510A
:103744002B50892504307F3F4B550F5441464B5530
:103754000F542379DD00ED1A0935ADB2954206D92F
:1037640000252800E0BCBA46B146A846F0BDE37A7D
:1037740021009A4652460F4B300009311A7005F069
:10378400D5FA4A4643469B5851461F40BA01424423
:103794004023300005F00CFB2100074BA27C3000D5
:1037A40010311A7005F0C2FADBE7C04638E3002096
:1037B400ACE200206B4102206A410220F8B5CA093C
:1037C4000024012A14D0402B10D880268422214DB5
:1037D400AB59AF580133833A1340BB4219D1892303
:1037E400EA541D4B0124186807F0E8FD2000F8BDD9
:1037F400402BFBD884258826184C63590133635128
:10380400A35D002B12D0144B0124186807F0D6FDD9
:10381400ECE7AB590133AB51AB591A409201402349
:10382400521905F0C5FA8923EC54ECE767590C4B9F
:103834003A401B6892019BB2121905F0B9FA802232
:103844006359A25801339B1A5A425341DBB2A35520
:10385400D9E7C046ACE200203039012038E300202B
:10386400F0F50020F0B557464E464546DE46E0B535
:103874008026814B8DB09A46804B814C0293814BBC
:10388400814F9846814B0593814B0893814B0A9352
:10389400814B0693814B0793814B0393814B09938F
:1038A400814B0B938423E258A3599A4200D1A1E09F
:1038B400842342469946B84604924B460120E55873
:1038C400284083019B46E35C7E2B31D1049B5F46F9
:1038D4009B4607F0A7FE4B465046A159E258E35DCC
:1038E40001359B00C358E01940780090029804F019
:1038F4009BFA07F08BFF7F23E355A3599D420FD119
:103904005F4607F08FFE380004F09CF907F07EFF55
:103914004346186807F0ECFCA359AB42F1D0BB4610
:1039240001272F40BF01E35D7E2BD2D05B46049379
:103934004B460125E158059F294089014022611821
:10394400380004F0B1F807F06DFE4B463800A15979
:10395400E2583B78574640789B00FB580090089803
:1039640004F062FA07F052FF4B464A46E35801332B
:10397400A35089239B46E35C002B67D1069F0598DF
:103984003900FEF771F8079B186007F04BFE4B46B1
:103994005046039DA959EA583B789B00C35809989F
:1039A40004F042FA07F032FF07F03CFE4B46AA59F6
:1039B400EB589A4222D0039D0120AC46079AAB599A
:1039C400126818408001120406996044120C04F035
:1039D4006BF8AB5900220133AB518823EA5407F04A
:1039E40015FF4B46E258A3599A4200D065E7049B61
:1039F40047469846386807F07BFC53E7039901254E
:103A04008C46079F88593A68284080011204069919
:103A14006044120C04F048F8039900208B598C463A
:103A240001338B514B46CA583B680B992A4092018B
:103A34009BB26244097805F0BBF907F0E7FE4B46F8
:103A4400E358A2599A4200D037E7D0E707F0EAFDDD
:103A5400A35900200133A351A3591D400A9BAA0175
:103A64001978A218402305F0A3F900235A46A35459
:103A740007F0CCFE82E7C04688D9002040D0002061
:103A8400ACE2002064D0002030390120A8E10020FD
:103A940070D000206B410220E8E10020F0F5002006
:103AA40038E300208CD000206A41022001230370F7
:103AB4000048704784D50020024B9C46614489002D
:103AC400016070474000003410B5040000F012FD9E
:103AD40001002000FFF7F0FF01235B426360BFF3A6
:103AE4005F8F10BD10B5040000F004FD010020003C
:103AF400FFF7E2FF01235B42636000232372BFF3FD
:103B04005F8F10BD10B50400012000F0FFFC034BD3
:103B1400C3189B002360BFF35F8F10BD40000034C7
:103B240083680B4810B5844661446244120109015C
:103B340059189B185C684A680120944201D802D045
:103B44000020C0B210BD1A680B689A42F9D8F7E792
:103B5400FFFFFF0F074810B50268EFF3108172B63C
:103B64001368002BFCD0BFF35F8F06F0BFFC00206E
:103B7400002110BD4C400120F8B5574645464E463D
:103B8400DE46E0B598460CAB1C780DAB1B780700FD
:103B940091469A460568002C59D1AC7B002C3BD049
:103BA400660029683619033E89194B78AB73002BDC
:103BB40000D1EB7300238B704B700B702D4BE2180C
:103BC400BB6812019B184A461A6042465A600A9A18
:103BD4009A600B9ADA6000238B704B700B706B7BCE
:103BE4009B46002B26D022006B685946A86898474C
:103BF4005B465B005B442A68033B002812D05846AE
:103C04009619B070D118D35C002B00D073705B464A
:103C14000C706B735C450ED0F0BCBB46B246A94633
:103C2400A046F8BDD3189C709119925D002A1CD14E
:103C34005B460B706C734A464346387D00F048FB84
:103C4400051E0AD10E9B002BE6D01D70E4E766002A
:103C540029683619033E8919B0E75346002BF1D180
:103C64002100386801F096F8ECE75A705B460B7057
:103C74006C73E0E7FFFFFF0FF0B5DE4657464E4694
:103C840045460023E0B58BB00893684B8200D458B6
:103C940000239B46099000F097FA02000B0060682D
:103CA400EFF3108A72B6564601680029FCD0B2467A
:103CB400BFF35F8F21684F7B8C46002F2ED0A56801
:103CC4005B49A94679180901894449460868496845
:103CD40005000E00AD1A9E41002E5FDD02000B00B0
:103CE400099800F0F5FA0023002299460023069271
:103CF4000793002398466368BFF35F8F5A461A60A0
:103D04008AF310884346002B12D10028C3D10BB08C
:103D1400F0BCBB46B246A946A046F0BD0023002233
:103D24009946002306920793002300209846E2E771
:103D3400089B494618023843C047626805000E00D4
:103D4400EFF3108A72B61368002BFCD0BFF35F8FB9
:103D5400002E41DB2B00334302D02369002B56D1C4
:103D64002368D97B002905D01A68480041185218E5
:103D7400033A57709A7B002A00D19F73DF73E2687D
:103D8400013FD35D0133D3555B4623616368BFF3C1
:103D94005F8F5A461A608AF310887CE7002E02D19E
:103DA400002D00D09AE70021604600F071FF4B46D9
:103DB4001A685B68069207934B469B6898464B4685
:103DC400DB689946E368DB19013B1B7808931B0207
:103DD4000343236100208EE72369002BC0D0069A99
:103DE400079B8021521BB34109068B4202D3012257
:103DF400104B524200210491013103914946019133
:103E04004146200002970091FFF7B6FEBCE700F0A0
:103E1400DBF92A00330012184B41802109068B423A
:103E2400E8D30122034B5242E4E7C046903D01200F
:103E3400FFFFFF0FFFFFFF7F10B5144C6368002BDB
:103E440004D00A211248FFF737FE10BD2300114A9F
:103E54001021206800F038FE032000F0A9F90320A7
:103E640000F09EFA03200C4900F0ECF900F042FB4C
:103E74000A4B9C4603232375D0231B061B6860440E
:103E84006375074B80006060DC60DAE788DB002044
:103E94004C400120E1380020393A00204000003431
:103EA400903D01200048704788DB0020F0B557465C
:103EB4004E464546DE46E0B585B0019310AB1B780F
:103EC4000600039300239A46984600927268EFF323
:103ED400108B72B61368002BFCD0BFF35F8F35686C
:103EE400AC7B002C00D16EE067002B683F19033FC8
:103EF400DB195A78AA73002A00D1EA73484AA11838
:103F0400B2680901521800980199106051600E9925
:103F140091600F99D16042469A705A701A706B7B07
:103F24009946002B00D16BE022006B684946A868D3
:103F340098474B465B004B442A68033B002856D005
:103F44004846D719B870D118D35C002B00D07B70C9
:103F54004B460C706B734C4553D0F3681B19013BF3
:103F640018787368BFF35F8F42461A608BF310882A
:103F74005346002B08D10002204305B0F0BCBB46D9
:103F8400B246A946A046F0BD039B002B46D00E9B2B
:103F940000200F99984703000B433FD004000D1EE7
:103FA4001ADA009A019B121BAB4100920193802202
:103FB4001206934204D301231A4C5B4200930194EA
:103FC400039B9A4682E77368BFF35F8F1C608BF391
:103FD400108801204042D0E700F0F6F88022001952
:103FE40069411206009001919142E9D3E3E7D318A5
:103FF4009C70D119D25D002A00D05A704B460B70C8
:104004006C73307D009A019B00F062F982460028AF
:10401400A3D02100306800F0BDFE9EE70020ACE78D
:10402400FFFFFF0FFFFFFF7FF0B5EFF30583CE46E1
:10403400474680B505000C0085B0002B12D02A4AF3
:104044000020536AA34203D3926A0130AA4204D3E4
:1040540005B0C0BCB946B046F0BD1B1B5A1E934107
:10406400D8B2F5E7214E02930193214B020000934D
:1040740030000B00FFF71AFF031EE0DD20BF71685C
:10408400EFF3108772B60A68002AFCD0BFF35F8F83
:10409400DAB29446FF2230681A40417B61450FD062
:1040A4000168894651008846494690444144033991
:1040B4008978002904D13269934209D1316107E03A
:1040C400F1681B0A8A18013A1278DBB29A4207D0C7
:1040D4007368BFF35F8F00221A6087F31088AEE71E
:1040E400614600F057FEF3E70040054088DB0020FE
:1040F40015390020F0B5EFF30582D6464F46464603
:104104001000C0B51038EFF3108872B6214C236844
:10411400002BFCD0BFF35F8F0123190081401E4D9B
:104124001F006963AA461D4D29601D4D2E78AC46BB
:104134003500C5402F402B4215D053465F6A194BBA
:104144008500EB589F4218D36246174B8E43EB58B9
:104154001670BFF35F8F0022226088F31088002B53
:1041640006D0984704E0BFF35F8F276088F3108878
:10417400E0BCBA46B146A846F0BD0C4B92009C4642
:10418400624413681360BFF35F8F0023236088F3D6
:104194001088EDE7280100D0004005403C70054040
:1041A400704102205040012014380120D03F0540C6
:1041B40010B5034B01001800024A00F01DF910BDB0
:1041C4006E41022090D20020034B596A0A00986A7B
:1041D400596A8A42FAD170470040054070B504001C
:1041E4000D00174A536A1900966A536A8B42FAD132
:1041F4003000190024184D41AB4216D813D0104B8F
:104204002A005B6A9D4203D90D494B6A9342FCD351
:10421400934207D10A4A02E0516A994202D1916A53
:10422400A142F9D370BDA642E9D9054B5B6A1C00D3
:104234005A1CEFD0012201246442E5175242E3E7FD
:104244000040054070B504000D00EFF3108672B60F
:104254001A4A1368002BFCD0BFF35F8F002D1BD0CC
:10426400200000F077F9164981420AD0200000F0BE
:1042740079F90121200000F05BF90123A340114AE0
:104284001360114BA400E550BFF35F8F00220B4B6A
:104294001A6086F3108870BD0121A1400A4BA20068
:1042A400D5500A4B20001A788A4305491A7000F049
:1042B4007DFA0021200000F03BF9E5E7280100D059
:1042C400B53E0020386005401438012070410220BA
:1042D400F0B54F46D6464646C0B507002B4C616A3A
:1042E4000D00A66A616AA942FAD18B4208D805D0AA
:1042F4000120E0BCBA46B146A846F0BDB242F7D9A7
:10430400EFF3108A72B6224801680029FCD0BFF38B
:104314005F8F0125BD401F491C4C8846097889469A
:104324002943C9B28C46414660460870391D89004C
:1043340065630A511849B8004350216A0020294294
:1043440019D0616A0800A66A616A8142FAD18B4277
:1043540019D801D1B24216D8CC450BD00B4B1F2231
:104364001D625D6301233A4093400C4A1360434647
:104374004A461A700120BFF35F8F0022044B1A6073
:104384008AF31088B5E70020F5E7C04600400540F1
:10439400280100D0704102205040012080E200E05A
:1043A400EFF3108C72B60A490B68002BFCD0BFF3F4
:1043B4005F8F01238340074A0748136202789A43B8
:1043C4000270BFF35F8F00230B608CF3108870477B
:1043D400280100D00040054070410220024B1868BB
:1043E4008007C00F7047C04600C006408023DB052D
:1043F4001868000F7047C04670B5EFF3108C72B6A2
:104404000D4D2B68002BFCD0BFF35F8F0724CB0826
:10441400C618C05C01230C40A3401C0004400342A6
:1044240007D118433070BFF35F8F2C608CF3108872
:1044340070BD100001F07CF82C0100D0F8B547469F
:10444400CE46884680B5EFF3108C72B6214D2C68A9
:10445400002CFCD0BFF35F8F9A422CD8D4080727D6
:10446400055D061901241740BC402C421FD00721CA
:104474000127894609E0D408055D06194C46390030
:104484001440A1400C00294211D001329342F2D2CF
:1044940001204042BFF35F8F00220E4B1A608CF361
:1044A400108800280FDBC0BCB946B046F8BD2543D0
:1044B40010003570EEE7BFF35F8F00232B608CF3A1
:1044C4001088012040424346002BECD0089801F0AC
:1044D4002FF8C0462C0100D00021044B044ABFF33E
:1044E4005F8F02C39342FAD17047C046000100D0E7
:1044F400800100D0044A1078431CDBB2172B00D98A
:10450400102313707047C046B0DB002010B5064B73
:10451400064C82B00100009318221F232000FFF7ED
:104524008DFF02B010BDC046B4D200202C3901204A
:1045340001238340002904D0034A1360034A136013
:104544007047034A1360FBE780E200E000E100E00B
:1045540080E100E0024B10309B688000C058704737
:1045640000ED00E070B50D00EFF3108672B60F4A4F
:104574001368002BFCD0BFF35F8F0D4B10309B688A
:1045840084001B590B4A934203D09D4201D000F092
:10459400EDFF074B9B681D51BFF35F8FBFF35F8F28
:1045A4000022024B1A6086F3108870BD240100D0EB
:1045B40000ED00E0CD010010F0B557464E46DE4652
:1045C4004546E0B585B0060000911700EFF3108B67
:1045D40072B66A4A1368002BFCD0BFF35F8F0025C4
:1045E400674B5D579A46002D00DAA9E06B00654CD5
:1045F40001935B199B009846A146C1444B46524621
:104604009B7910361370604BB6009B6899590B1B4D
:104614002F2B33D95D4B994200D0ACE0019B42462D
:104624009C465B4B6544AD0063535A4B0232A2185F
:10463400043B9B1A1B05584A5B0D651913436B8099
:10464400564B0121AB80FF23AB71009BEF71AB6034
:104654004B460B4319004C4B9B689951BFF35F8F3A
:10466400BFF35F8F0022454B1A608BF3108805B0AF
:10467400F0BCBB46B246A946A046F0BD01200A00E4
:104684008243D3798C46BB4231D845461300444912
:104694001B1B5B415943090D3D4B63533D4B023595
:1046A4006519043B5B1B1B053B4D5B0D2B43AA4665
:1046B4004D466B800425AC465546E044131F4444E4
:1046C4001B1B1B055B0D1D434B46997100999D8077
:1046D40099604946DF71334B01431360BBE75800CF
:1046E400C01880002018C179B9422FD902000623CE
:1046F400D356002BF3DA02932B4B61460393131D1D
:104704009A4604235B429C46E14450464B461B1A9E
:104714001B055B0D9C46204B9571984663464046AD
:1047240003439380019B5A199200039BA418A3800E
:10473400029B1C4AA371009B2260E771A3608AE775
:1047440000F014FF002553465D574FE7908802930D
:104754004005131D9A46031561469C464046D444C1
:10476400634604302018181AE0230005400D1B028C
:1047740018430390C5E700F0F9FE4FE7240100D089
:104784006F410220B4DB002000ED00E0CD010010F9
:1047940000A1FFFFE4DB002000E0FFFF01BDFFFFFD
:1047A400AAAA00000148804701BD0000F0B5DE461A
:1047B40057464E464546E0B50C0083B0EFF31088EB
:1047C40072B65D4A1368002BFCD0BFF35F8F5B4B5E
:1047D4005B499A68030010339F00D5598D4239D044
:1047E400A5424AD0574EAA1B2F2A33D801229246FB
:1047F400824091464846544A126810400190484607
:10480400524A1060BFF35F8FEFF305829346002A8C
:1048140035D0934201D000F0A9FE2A0053469A43B2
:104824009068844208D175E04B005B189B00F31834
:104834009868A04234D01A00062151560029F3DAB0
:10484400844253D0019B002B26D04A46404B1A6029
:104854003D4B1A60394B9B68DD51BFF35F8FBFF34B
:104864005F8F0022344B1A6088F3108803B0F0BCC9
:10487400BB46B246A946A046F0BD0D00EAE72A00B1
:1048840053469A4390688442D6D1062010561300AA
:10489400002809DA0D0031E04A462C4B1A60D9E7AA
:1048A40006201856002822DB4200111889007418CB
:1048B4008A46A1689960E179D97106216156997196
:1048C400002925DBA488F11A640524155444091928
:1048D400E0240905490D24022143998013181D4A37
:1048E4009B001178F31899711070ABE713005946C7
:1048F400002914D1FF3191711749918015490A7823
:104904009A71164A9B1B5B415A43120D0A7099E730
:104914001349E2E70620105613000028C4DA114AAE
:104924001149D21A083A5002400D014399800F49A7
:1049340052080A43DA8085E7240100D000ED00E044
:10494400CD010010B4DB002000E100E080E100E0D4
:1049540080E200E06F41022001BDFFFFAAAA00002F
:1049640001BD0000EEDB002000F0FFFF00F8FFFFB8
:10497400032310B50400074A18409446C0009C4322
:10498400FC3383406444226881409A4313000B4300
:10499400236010BD00E400E070B5EFF3058101244D
:1049A4000443EFF3108C72B6214A1368002BFCD039
:1049B400BFF35F8F1F4B05001F4AED1A6D416A4319
:1049C400120D1E4D8900AE6852B27658A6421CD014
:1049D4000621595691421CD012215956914222D097
:1049E4001E215956914220D02A215956032491421E
:1049F40010D0134B19781A708171BFF35F8F0022A6
:104A04000B4B1A608CF3108870BDAB680D4C5C5076
:104A1400EFE700246100091989005B18FF219971EF
:104A240009499980E5E70124F4E70224F2E7C04646
:104A3400240100D0B4DB0020AAAA000000ED00E0AD
:104A44006F410220CD01001001BDFFFF054B064A56
:104A54001360064A136053609360D360136153611B
:104A6400936170478080808000E400E004E400E00B
:104A740070B506000D00140000291DD0002A12D0C4
:104A840073688068984762006B0012195B1931687B
:104A9400033A033B002808D08A189570C818CB5CE9
:104AA400002B0BD10470280070BDCB189C708818A3
:104AB4008A5C002A05D105702000F5E75370047064
:104AC400F1E75A700570F7E710B583600023CCB2A4
:104AD40043730133426004738373C4730068421CDC
:104AE400012C05D90133DBB2137003329C42F9D196
:104AF400FF230B405A00D318C01800230338437017
:104B040010BDC04670B505000C1E07D063000168D7
:104B14001B19033BCB185A78002A01D1200070BD21
:104B2400500080180338091800204E78487021007E
:104B340058702800FFF79CFF310004002800FFF79D
:104B4400E1FF0600002C20D00028E7D0320021002D
:104B54006B68A86898477200630092191B1929684A
:104B6400033A033B002808D08A189470C818CB5C19
:104B7400002B00D053700670D0E7CB189E708818B5
:104B84008A5C002A00D05A7004703400C6E7C0461C
:104B9400F0B557464546DE464E46E0B50D006F007B
:104BA40001687F19033F0400C85D83B00192CA19EC
:104BB400002850D043001B18033BCB185E78B44642
:104BC400002E1AD1019E002E42D0E67B002E04D086
:104BD40073009B19CB18033B5D70A37B002B00D1A2
:104BE400A573E57300282FD10023537003B0F0BCE4
:104BF400BB46B246A946A046F0BD72006244033AE1
:104C04008A185178884600215170894659703200BB
:104C140001002000FFF72CFF43468246002B07D0FB
:104C24005B0021684344033BCB185A78002A16D111
:104C3400424651462000FFF71BFF2168019BCA1919
:104C4400002BC2D10028CFD043001B18033BCB1844
:104C540000219970C8E7019B002BB6D1C4E750002E
:104C640080180338091848788346484648705870B5
:104C740041462000FFF7FCFE594680462000FFF71E
:104C840041FF414602002000FFF7F2FE8046CFE7D5
:104C9400F0B557464546DE464E46E0B583B0019131
:104CA400457B04006F0000687F19033FC15DC21992
:104CB400002952D04B005B18033BC3185E78B446FE
:104CC400002E1CD1019E002E44D0E67B002E04D081
:104CD40073009B19C318033B5D70A37B002B00D1A9
:104CE400A573E573002931D1002328005370617343
:104CF40003B0F0BCBB46B246A946A046F0BD720064
:104D04006244033A821850788046002050708146ED
:104D1400587032002000FFF7ABFE43468246002B5A
:104D240007D05B0021684344033BCB185A78002A20
:104D340017D1424651462000FFF79AFE019B01001D
:104D44002068C219002BC0D10029CDD04B005B18BC
:104D5400033BC31800209870C6E7019B002BB4D115
:104D6400C2E750008018033809184878834648463B
:104D74004870587041462000FFF77AFE5946804635
:104D84002000FFF7BFFE414602002000FFF770FE3F
:104D94008046CEE770B5050000292CD0437B8B42BA
:104DA4002ED04C0000686418033C0419A278002A31
:104DB40021D053009B18033BC25CC6188A4202D11F
:104DC4001BE0002A08D053009B18033BC3185A78F1
:104DD4008A42F6D162785A70002301222800A37017
:104DE4006370FFF7D5FE697B02002800FFF740FEE1
:104DF4006873012000E0002070BD63783370EBE736
:104E040001221900FFF7C4FEF2E7C046094A10B5B3
:104E140094464024830063441A68C000624080348E
:104E240014408022520113431C60034B9C4660448F
:104E3400416010BD04C0014000400140034BC0006C
:104E44009C46604443681F2018407047004001405E
:104E5400074B80009C4660440368C90092000A43E3
:104E64005A400C231A4080235B0103431A607047A5
:104E740004C00140074BC0009C4660440368090419
:104E84005940C0239B02194080235B0103431960EE
:104E94007047C04604400140074BC0009C46604434
:104EA400036809035940C0239B01194080235B0117
:104EB400034319607047C046044001400123D022D7
:104EC4008340120693629361094A40219446830009
:104ED40063441A68C0004A40803111408022520164
:104EE40013431960034B9C46052360444360704799
:104EF40004C0014000400140F8B5CE4647460400D6
:104F040080B506200D0000F021FA061E53D0534B45
:104F14005349E3185A1E93418022120494465B427B
:104F24009B0D504A9B05634413604F4A136018005D
:104F34008A689043FBD1494B4C4AE31859424B4190
:104F440080215B0049000620995200F0FFF92900F6
:104F5400C00001F021FFC30932D140220121904653
:104F64006162A362266BF30736D427008025E36AC7
:104F740000232C376D013D432B600620266300F08F
:104F8400E5F94146800001F007FF236B06009846CF
:104F9400DB073BD46023E26A5A400E3313402B6094
:104FA40043462363802310229B013B431A60304B0A
:104FB40023630323A3643000C0BCB946B046F8BDE4
:104FC4002C4A93423FD900232B492C4A6162A362A5
:104FD400266B9046F307C8D52200C02330329B01CC
:104FE4001343234A06201A60656AA36AAD01ED18CB
:104FF40000F0ACF9224901F0CFFEAD020100280017
:1050040001F0CAFE0021FFF7E9F8AEE72200C02351
:1050140030329B011343164A06201A60636AA26A5F
:105024009B019946914400F091F94B4614499B0227
:10503400994601F0B1FE0100484601F0ADFE0021A1
:10504400FFF7CCF8A6E77F22990188460240013297
:10505400520819009044130082E7C0460080FCBF48
:1050640000C0004000E0004000F000406C4001201F
:1050740001030000FEFF0000FFFF0000C0FF3F002F
:105084004E0E000010B50C2082B000F0B7F9FFF707
:10509400A5F9002810D08B4B8B488B498B4A18609C
:1050A40059609860D960186159619861D961186232
:1050B40059625A6202B010BD854CA06700F0A6F98F
:1050C4000122844B1A60636C012BFCD10322824BB6
:1050D4001A607F4A936B012BFCD1013301217F4A73
:1050E4007F480093043300F037F905237D4A009389
:1050F40001217D4800F030F97C4B5A68FF2A02D820
:10510400802252005A608022734B6E4C12011A6046
:105114002169002907D0606901F03EFE0130430097
:105124001B18033BFDD2E022704B714819680A40FA
:10513400026002221968514001320A4004210260CF
:105144009A681142FCD080216A4A090111608022C8
:1051540052005A60684B2361684B5968FF2900D894
:105164005A60032201215B4B1A60644A9368194216
:10517400FCD0E023106803406148036012680323F5
:105184004A40022113405D4A036093681942FCD0EF
:1051940080215C4B0901196080215B4B49005160FF
:1051A40063615A4B5A68FF2A00D859608022584BD1
:1051B40012011A60E169002907D0606901F0ECFD71
:1051C400013043001B18033BFDD2E0234F4A116812
:1051D4000B4050490B6080214F4B0901196080211D
:1051E400394B49005160E3614C4B5A68FF2A00D89F
:1051F400596080224A4B12011A60216A002907D0A3
:10520400606901F0C9FD013043001B18033BFDD266
:10521400E023424A11680B4042490B608021424B13
:105224000901196080235B0053608022264BD2025F
:1052340023623E4B5968914200D25A6080223C4B13
:1052440012011A60616A002907D0606901F0A4FDA7
:10525400013043001B18033BFDD2E023334A11689D
:105264000B4034490B608021334B090119608023C2
:10527400DB025360154B6362304B5A68FF2A02D835
:10528400802252005A6080222D4B12011A60A169BB
:10529400002907D0606901F07FFD013043001B182D
:1052A400033BFDD2E023254A11680B4025490B60DE
:1052B4008021254B0901196080235B005360124B48
:1052C400A361F7E690DC0020006CDC021BB7000051
:1052D400008000403CB0004030B00040002F6859CE
:1052E40000800240008C864700C0024030800040AD
:1052F4003090004030A00040001BB7003C800040CC
:105304003C9000403CA0004040597307548000404A
:1053140054B000405490004054A0004060800040CD
:1053240060B000406090004060A000406C8000408D
:105334006CB000406C9000406CA00040488000407D
:1053440048B000404890004048A00040014B800015
:10535400C058704790DC0020F8B5040022481E00B5
:1053640017000D0001F018FD0100380001F014FDD4
:10537400069B36041B031E432368002B22DB1B4BB6
:105384001B49E3185A1E93418022920194465B42C2
:105394001B0B184A1B0363441360174A13601F0056
:1053A4008A689743FBD1C022231D92011A4321230B
:1053B4002560A06013602368002BFCDA0823E660F4
:1053C4001360F8BD3F2322681340AB42D7D1A368D2
:1053D4001B051B0D8342D2D1EE22E368D202134097
:1053E400B342CCD1EDE7C046001BB7000040FDBF7F
:1053F40000C0004000E0004000F000408023024A6A
:105404009B000343D362704700800540AA23064AE9
:105414001B0113602F230549D360054B19605368A2
:10542400002BFCDA7047C0460040024000B0FA008E
:10543400006002402C4B2D4A70B51A602C4A2D4B4B
:105444002D491A6014008B689C43FBD12B4D2C4EC4
:10545400B54208D2013E761BB60808CD9847230012
:105464000134B342F9D1FFF70DFE264A214B1A60ED
:10547400214A9368DB43DB01DD09002BF9D140228B
:10548400214B224C224E9A675A671A67DA66B44255
:1054940008D223682000002B20D00C34FEF722FB16
:1054A400B442F6D31B4C1C4EC022B168200002F05B
:1054B400FBFAB460FFF710F8FFF7C8FAFEF7BCFC7C
:1054C400164C174EB44208D2013E361BB60808CC1F
:1054D40098472B0001359E42F9D170BD0834FEF780
:1054E400F3FAB442D5D3DDE700E00040BFCDFBFEC4
:1054F400FE7F3C0000F0004000C0004070DC002053
:1055040080DC0020FFFFFF0100F0014060DC002090
:1055140070DC00200000002000ED00E080DC0020B2
:1055240090DC002000BEFDE710B5FFF7FBFFC0468E
:105534000FB400B5084883B002F084FB049B002B31
:1055440007D005A91800019101F0ACFB034802F053
:1055540079FB0120FFF7E6FFD0D20020E0D2002043
:1055640010B50148FFF7E4FFE4D2002010B501486C
:10557400FFF7DEFFF4D200207047C046F8B5574667
:10558400DE464E464546E0B599460A9B07009A46D4
:105594000D9B884693460B9C9B073BD10C9B9C42DE
:1055A4003DD21E1B0B9415000C005E442A004B4692
:1055B400013521002020B847B542F7D1A0460B9C05
:1055C400002C20D0454636195346321B013C185D49
:1055D40029004B46B847002CF6D12B0035009846DD
:1055E4000D9B9B070FD55B46EC1A0C9BA3420AD973
:1055F400464698462A004B46310020200134B847DD
:1056040001354445F6D32800F0BCBB46B246A94652
:10561400A046F8BD16001500002CD3D1E0E7160013
:10562400002CCFD11500EEE7F0B54F464646D646DE
:10563400C0B584B098460EAB1B7894469946129B2D
:105644000D9C109F119E9A0725D4002E65D1BC4253
:1056540021D201221A409246202C00D1E9E00C9A72
:10566400551E302202E0202C00D17BE001342A5563
:10567400A742F8D85246002A0DD0B4420BD20C9A55
:10568400551E3022202C02D171E0202C2DD0013463
:105694002A55B442F9D1DA063CD55A052ED4002C49
:1056A40028D10F9A102A00D1B6E0022A00D1BCE01A
:1056B40030220C9C227001244A46002A65D15A07E4
:1056C40000D499E02B220C9D2A55013403930C9BA2
:1056D40062460093029643460194FFF74FFF04B0DD
:1056E400E0BCBA46B146A846F0BD2024DA06EDD5A2
:1056F4005A0503D4A74266D0B44264D00F9A102A44
:1057040071D0022A57D0202CE0D022000134302559
:105714000C9FBD54202CD9D0CEE7012215001D408A
:10572400AA461A4236D04A46002A4AD10C321A42B4
:1057340047D1BC42A1D2202C91D1202E17D82024AD
:10574400DA06C3D55A051BD4202F01D0202ED5D17B
:105754001F220F9D102D6FD0022DD8D162250C9FD2
:10576400BD54D0E75246002A79D0202EBDD920243A
:10577400DA06ABD55A0503D4202FE9D0202EE7D082
:105784000F9A102AA2D12024A0E72D220C9D2A557D
:1057940001349BE7BC4200D37DE7202C00D05EE7B8
:1057A400DA06F0D55A05EED4202F62D0202EEAD1A5
:1057B40034001F22CDE7202C00D187E722000134DA
:1057C400CCE7013EB5E7621E012CC2D10F9A102A24
:1057D40000D06AE79A063BD558220C9C2270283ADE
:1057E4006270022468E79A060ED4202CCBD078226B
:1057F4000C9D2A55013486E71A0700D466E7202257
:105804000C9D2A55013461E7202CBCD058250C9AF4
:1058140012191570013476E79A0608D558220C9CA3
:10582400227030226270022446E76032F7E7782261
:10583400F5E7002A83D1B3E7A21E013C9D0603D4F9
:1058440078250C9FBD5460E758250C9FBD545CE738
:1058540078220C9C2270483A627002242CE7DA0603
:1058640000D433E75A058BD4202F00D044E71F22FD
:105874006FE73C001F226CE710B5002800D110BD73
:1058840002F094F9FBE7C0460B0010B5002802D0E3
:1058940049681B68984710BDF0B557464E464546C3
:1058A400DE46E0B599B08246894690460893229A2E
:1058B400239B1000190001F030FD002800D0CDE03A
:1058C400229823990122D94B524201F021FD00284C
:1058D40000D0C3E0229823990122D54B524201F013
:1058E40009FD002800D0B9E0229823990022002362
:1058F40001F000FD002800D0F1E1229E239F8023C7
:10590400269ADB001A400D92269A1A4201D10623E8
:1059140024938023269A1B011A403B009346099640
:10592400334300D0B3E0002A00D0C2E100230024B6
:105934000A930B94002304250993259B0024AB426E
:1059440000D95C1B0223269A1A400C92269A134211
:1059540003D06B426B415B421C40099B002B07D078
:105964000A9A0B9B3000390001F063FC06000F001B
:10597400229823990022002301F0BCFC002803D0C4
:10598400802109067B181F00269AAA4B00960197CE
:105994001340089E0493249B0394029342463300CD
:1059A4004946504600F0AAF90400002D67D0202093
:1059B400269A4946024013005A4253415B42621CF4
:1059C40018400A92330022004530D047099A6F1ECE
:1059D400D317D4185C40D30F9B46002501E0202D3B
:1059E40013D008AA94461F23200063440A210135DA
:1059F4005E1901F0D1F93031317020000A2101F033
:105A0400CBF926000400092EE9D8052306930023C8
:105A140004930A3303935B46089E029310AB0A9ADD
:105A2400009349463300504605970195FFF7FCFD66
:105A34000C9A0400002A22D04246851A259AAA42CA
:105A44001DD9B04657461600220043464946202039
:105A54000135B8470134AE42F6D810E0269B4246E1
:105A64000493259B49460393249B50460293229B0F
:105A7400239C00930194089B00F040F9040020004B
:105A840019B0F0BCBB46B246A946A046F0BD6A4B6D
:105A940078009C46400D604401F052FC674A684B14
:105AA40001F0E5FB674A684B01F0BAFB674A3B0328
:105AB4001B0B1A4304000D0009981100644B0022CB
:105AC40001F0A5FB634A644B01F0D1FB02000B001B
