:020000041000EA
:1000000000B5324B212058609868022188439860DF
:10001000D860186158612E4B002199600221596106
:100020000121F02299502B49196001219960352056
:1000300000F044F80222904214D00621196600F024
:1000400034F8196E01211966002018661A6600F04E
:100050002CF8196E196E196E052000F02FF8012189
:100060000842F9D1002199601B49196000215960AB
:100070001A491B48016001219960EB211966A021F2
:10008000196600F012F800219960164914480160C1
:100090000121996001BC002800D000471248134993
:1000A000086003C880F30888084703B5996A0420EC
:1000B0000142FBD001200142F8D103BD02B5186610
:1000C0001866FFF7F2FF186E186E02BD00000240BE
:1000D000000000180000070000035F00212200005C
:1000E000F4000018222000A00001001008ED00E03C
:1000F00000000000000000000000000074B24E7A12
:1001000000200420F7010010C3010010C5010010F9
:10011000C1010010C1010010C1010010C101001097
:10012000C1010010C1010010C1010010C701001081
:10013000C1010010C1010010C9010010CB01001065
:10014000CD010010CD010010CD010010CD01001037
:10015000CD010010CD010010CD010010CD01001027
:10016000CD010010CD010010CD010010CD01001017
:10017000CD010010CD010010CD010010CD01001007
:10018000CD010010CD010010CD010010CD010010F7
:10019000CD010010CD010010CD010010CD010010E7
:1001A000CD010010CD010010CD010010CD010010D7
:1001B000CD010010CD010010CD010010CD010010C7
:1001C00000BE00BE00BE00BE00BE00BEEFF3058054
:1001D000103800BEF2EB8871D80200100403001042
:1001E0003402001090A31AE700202249086006C8D4
:1001F00081F30888104720480068002835D10DA4F5
:100200000ECC002902D000F012F8F9E71B491C4A75
:10021000002000E001C19142FCD11A4988471A49E7
:1002200088471A49884700BEFDE701C901C29A42C2
:10023000FBD3704704030010C0000020F8C000206A
:100240003CC3001000C10020C0DA0020FCDC00101C
:100250000000042000000420FCDC0010001004203A
:1002600000100420000000007047094800F014F856
:100270000047000008ED00E0000000D0C0DA0020D8
:10028000A43F0220255000203131002019510020C8
:10029000575600000000000001B40248844601BC2B
:1002A000604700BFD568002006005250ABB36053D2
:1002B00060D1002006005250861C030270D100203D
:1002C000060052505422A29D7CD1002005005250BD
:0802D000DE65F468FCDC00109F
:1002D800B8D50020C4D50020A8020010D0D5002031
:1002E800B4020010C0020010CC02001004D7002095
:0C02F800F8D60020ECD50020E0D5002056
:10030400F8B5C0460448054B10B5834203D0044BEE
:10031400002B00D0984710BDC0DA0020C0DA0020BE
:100324000000000006480749091A8B10C90FC918B4
:1003340010B5491003D0044B002B00D0984710BDD2
:10034400C0DA0020C0DA00200000000010B5074C1D
:100354002378002B09D1FFF7D5FF054B002B02D0E2
:10036400044800E000BF0123237010BD28DE0020F4
:1003740000000000F8C00020054B10B5002B03D08E
:100384000449054800E000BFFFF7CCFF10BDC0469C
:10039400000000002CDE0020F8C00020F0B5DE468E
:1003A40057464E464546E0B503788DB01A00803A6C
:1003B400D2B2019000911F2A09D90A000131029199
:1003C40013701D2B0ED8D5499A008A58974602F00F
:1003D400A5FF050028000DB0F0BCBB46B246A946F7
:1003E400A046F0BDFF23009ACD4D1370F2E7009AAA
:1003F400931C994600235370019A931C5278551EFE
:10040400002A00D109E2012200923E329046D02215
:1004140012060124924616E08023DB019B465346D4
:100424005A4639005A624A4602F094FA002D02D123
:1004340053465A465A620134BB19A4196A1E002D48
:1004440000D16FE2150018785F1C42464346082627
:100454000340024201D00733DE0843B2002BDBDA4B
:100464008023DB019B4653465A4639009A624A462A
:1004740002F070FA002D02D153465A465A62009B8C
:1004840001349C46B4446346B14400933B00D5E731
:10049400A44B1A78022A00D04AE2019A5278DA76FA
:1004A4009B7E934200D843E20E2001F053FE01F0FC
:1004B40019FD0023009A9C4D5370030A9070D37069
:1004C400030C000E1371507184E7019B954A5B780D
:1004D40093469376002B6BD0019A002190785A466C
:1004E40010779184012B01D101F0B5F85D46019C90
:1004F400E278E8846A778518022B01D101F0C5F807
:100504005E4621793585B1774919032B01D100F075
:10051400FBFF65797185F5776D18042B01D100F027
:10052400D6FF2027A179B585F1554919052B01D1AD
:1005340000F0EAFFE5790137F555F1856D18062BD2
:1005440001D100F0C4FF217A01373586F1554D19E8
:10055400072B01D100F0BBFF617A232431554919DF
:10056400091AB186891AB27F75868A1AF18632878A
:100574005946C97F521A59464A87042B18D05846FF
:100584002021415C521A8287052B11D02121415C24
:10059400521AC287062B0BD02221415C521A4021E9
:1005A4004252072B04D01D39415C521A4221425257
:1005B40001331D0401231D43594B00229C4600991D
:1005C40065444A7006E7574B1A78012A01D100F0B6
:1005D4000CFC022A00D0D0E1019A5278DA769B7E94
:1005E400934200D8C9E1082001F0B4FD01994F4DB0
:1005F400CA788B7812021A430B7948791B04134387
:100604000006184301F0D8FC0023009A5370E1E679
:10061400444B1D789B46012D01D100F07CFC022D3A
:1006240001D100F0FFFB0023009A53709370D37044
:100634000333019A1279920700D4A7E18025ED02D1
:100644001D43374B9C466544C4E6019B0133099323
:10065400344B9B461B780793012B01D100F0BBFC64
:10066400022B00D1AEE1019B9A78DD1C002A01D156
:1006740001F09BF80220102407E01C4208D1013548
:10068400013A002A01D100F05EFE2B781842F4D121
:100694000535F5E701998A784B7812021A43CB782D
:1006A40009791B0413430906194300D1B3E3204B12
:1006B400994201D900F031FEC81806F085FA0128E4
:1006C40003D00321013006F07FFA0022154B5A7043
:1006D40058600023009A174D53707BE601990B79FB
:1006E400CA781B0213434A7912041A438B791B06F6
:1006F400134301D0104B9B6AD0231B065A685A68D7
:100704005A685A685B680023009A0C4D537061E67E
:100714000023009A0A4D937053705BE628D20020A0
:100724000100010058E0002006000200020006005B
:100734009FACB90302000500004005400200070019
:1007440003000100019A5378927812021A432A2373
:100754005343013BFDD10023009AE34D537039E626
:100764000025E24BD0241D70802324061B030022A5
:1007740000211320A36204F083FA8023DB0100220A
:1007840000210E20A36204F07BFA8023DB02002206
:1007940000211220A36204F073FA80239B03002239
:1007A40000211520A36204F06BFA80231B020022AF
:1007B40000210F20A36204F063FA80235B02A3628A
:1007C40000220021102004F05BFA009B5D70C84DEC
:1007D40000E6019B5B78012B00D8ABE0022B5AD1D9
:1007E400C24A80211370D02209031206516251615A
:1007F4008021C901516251618021C9025162516154
:100804008021090251625161802149025162516182
:10081400802189039162009A5370B64DDAE5019BF9
:100824005A78012393429B41DBB295E7019A5278AF
:10083400F12A01D100F02BFE00D9B3E0042A01D142
:1008440000F035FE3321F02A01D000F02DFE009B8C
:10085400A94D99700123009A5370BBE50198A34AEE
:100864004378A64D1373C37881781B020B4313821C
:10087400437901791B020B4353820023009A53707E
:10088400A8E50322019B99495B781A405B07013272
:10089400DB0F0A764B760023BDE7019B5878991C41
:1008A40000286FD00123C51DED0801352D041D431B
:1008B400934B9C46654402F017F80023CBE70023D2
:1008C400009A5370971C019A931C52789346002AFD
:1008D400A3D0012290463E32BA46012491465F4697
:1008E4005A1C1D7893464B464A4608262B402A42FA
:1008F40001D00733DE0852462800594601F00CF9AE
:100904005B46721C6DB29B19A418002D01DAB24427
:10091400B044013F002FE3D1434624041C43784BE9
:10092400E51857E5009B24041C43754BE51851E575
:10093400FF2370E701226D4BD0241A708023240614
:100944001B03636163628023DB0163616362802351
:100954005B02636163628023DB02002200211220B8
:10096400A36204F08DF980231B02A36200220021FC
:100974000F2004F085F901234DE7FF23009A5F4D12
:10098400537027E580205F4D400094E70199CD78AE
:100994008A782D0215430135AD041D43584B9C46FE
:1009A400654417E5FE2A01D100F08EFDFF2A01D02F
:1009B40000F07AFD4023009A534D93700023D370C6
:1009C400023348E700235A46504F01993B704B7855
:1009D400D376927E9A4201D800F0A1FDCB1C9A46B0
:1009E4008B780393002B01D100F02DFF009B002294
:1009F4000333069300231C000193012353449946B7
:100A0400059353461D78012302212B400A33049396
:100A1400294200D133E1002C00D14AE15946098A28
:100A24008846934200D076E1EB0600D573E1534645
:100A34000BAEA2469046340008932E000D0009E048
:100A4400002D01D100F03DFD3B78013D002B01D08C
:100A540000F037FD2100300001F0CEFC0228EFD079
:100A6400089954464246350003008A46012B01D0BA
:100A740000F0D2FE0B9B069E190A33707170190C9C
:100A84001B0EF3701023B1702B40311D002C78D055
:100A940068B2002801DA00F0E8FC0691002B74D15A
:100AA400CA46019B013301933B78002B01D000F02F
:100AB400F5FD039B013B0393002B9ED16B461E79EE
:100AC4005346A046099904925D1A2D04049B0A2BEF
:100AD40002D00A2001F03EFB5B461C8A4346002BF1
:100AE4003CD00BAB9A4619E00200030058E000200A
:100AF40002000100020002000300020002000600DE
:100B0400010001000200220004000200983F0220BC
:100B1400002C2AD03B78013C002B26D151460E20D4
:100B240001F06AFC0228F3D001281DD10B9B069921
:100B34001A0A4A701A0C0B708A701B0E029ACB7038
:100B44000B1D9B1A1D43B54B07909C46654413E04F
:100B5400002C09D03B78013C002B05D100210E204C
:100B640001F04AFC0228F3D00790069B029A9B1AD4
:100B74001D43AA4B9C466544009B079A5E709A707D
:100B840028E40691002B00D196E049464B4649786B
:100B94001B78090219434B469B781B040B434946B7
:100BA400C978090619435346053305935B465B8AA6
:100BB40089469846049B934202D0180001F0CAFA71
:100BC4005B461E8A07E0002E00D1B4E33B78013E69
:100BD400002B00D0AFE30021280001F00DFC022817
:100BE400F1D00300012801D000F02AFE0BAEA2468A
:100BF40034002E005B461D8A05E0002D34D03A787F
:100C0400013D002A30D12100300001F0F5FB030042
:100C14000228F2D05A460B9952690A40012801D0A1
:100C240000F017FE914501D100F073FC4346002B00
:100C340006D00122524294463B78E044002BD9D09E
:100C4400D046112302211020039A059C07E0284274
:100C540008D10134013A002A01D100F0F9FB2578CA
:100C64002942F4D10534F5E7D0460B9C5A46526923
:100C740022404A45E6D010230343DBB2E2E7002CCE
:100C840063D14B4619785B781B020B43494689783C
:100C9400090419434B46DB781B060B4305218C469C
:100CA4001B310B93E24429427BD0594600244B610B
:100CB400F7E6EB0600D568E7049B934202D01800E0
:100CC40001F048FA5B461E8A07E0002E00D196E345
:100CD4003B78013E002B00D091E30021280001F075
:100CE4008BFB0228F1D00400012801D000F0BEFDE6
:100CF4006DB2CA46049A002D00DBD2E65B469B68BF
:100D04000698190A03704170190C1B0EC370031D59
:100D140081700693C5E60A2A02D00A2001F01AFA65
:100D240044460BAE07E0002C00D178E33B78013C4D
:100D3400002B00D079E331000E2001F05DFB022886
:100D4400F1D003000A22002490E60A2A02D00A20E5
:100D540001F000FA5B461B8AA8460BAE1D0007E0B3
:100D6400002D00D1DDE23B78013D002B00D0D8E21C
:100D740031000E2001F040FB0228F1D0454603006B
:100D8400012801D000F043FD0B9B06991A0A0B7051
:100D94004A701A0C1B0ECB700B1D8A7006930A2224
:100DA4006FE7049B934202D0180001F0D3F95B462D
:100DB4000BAE1C8A07E0002C00D19FE33B78013C7A
:100DC400002B00D093E33100280001F015FB02282A
:100DD400F1D00300012801D000F022FD6DB2002DF6
:100DE40000DA25E30024049A5BE601990020CB781D
:100DF4008A781B0213430A79094D12041A434B796A
:100E04000BA91B0613430B9301F012FF0023009A56
:100E14005370FFF7DFFAFF235CE4C04601000100D2
:100E24000200060000235A46C94F019C3B706378B8
:100E3400D376927E9A4200D880E2E378A2781B02AD
:100E44001343039300D179E2012321790B408846AF
:100E540019000A310800059101F07CF941460D4260
:100E640001D000F022FC0021039A89460BA94646D2
:100E7400AA4690463D000F00631D5A781978120265
:100E84000A43997809041143DA78043312060A43B1
:100E94000B925A46148A029305E0002C39D02B7821
:100EA400013C002B35D13900300001F0A5FA0228AD
:100EB400F3D0029B012801D000F09AFC0122944651
:100EC400023AE1449446E0444246002AD5D1059BC7
:100ED4002F000A2B02D00A2001F03CF95B461C8A41
:100EE40005E0002C09D03B78013C002B05D1002102
:100EF4000E2001F081FA0228F3D005004B461A0AAD
:100F0400D9B20323D2B2009841708270C570FFF742
:100F140090FB5546F2E7002301988D4F82783B7091
:100F2400C3781B021343994600D107E2037998461C
:100F34005B461A8A43469B0700D5F6E20023441D0C
:100F440002930BAB9A4623003D004446574698460D
:100F540043461A785B781B02134342469278120484
:100F64001A434346DB781B0613430B9304239C4626
:100F74005B46E0441E8A05E0002E25D02B78013E16
:100F8400002B21D13900200001F052FE0228F3D0B9
:100F9400012819D1029B0133029301235B429C4631
:100FA400E1444B46002BD3D15B462F001C8A05E05D
:100FB400002C09D03B78013C002B05D100210E20E8
:100FC40001F036FE0228F3D0029B05001A0AD9B2BA
:100FD400D2B2032397E7009B5D4F03339846002367
:100FE4003B70019BD91C9B780393002B01D100F02B
:100FF400F7FB002500230022AA465D4608930192D0
:10100400059302200E784A1C0492304200D1AEE0CF
:1010140050462C8A002833D0112389463340012BB3
:1010240000D134E1924607E0002C00D1B2E13B78D4
:10103400013C002B00D0AFE10E200BA901F0F8FD1C
:101044000228F1D00023524649469A4603000590EF
:10105400012B00D0D9E3444643460B982070040A80
:101064005C70040C000E9C70D8701C1D5346002B41
:1010740005D073B2002B00DA91E153460593A046E4
:1010840001202B8A30400693F30600D4AEE0137897
:101094009C46644653781B021C439378D2781B0405
:1010A400234312061A434B1D04936B8A91469B46B5
:1010B400002816D0069C07E0002C00D1A0E03B7865
:1010C400013C002B00D09BE00021300001F0B0FD7A
:1010D4000228F1D003000590012802D0AB46554602
:1010E40024E02C8A05E0002C34D03B78013C002B12
:1010F40030D130000BA901F09BFD02000228F2D090
:101104006B690B9C2340012800D065E3994500D10D
:101114000CE15B46002B06D00122524294463B78F8
:10112400E344002BDDD0AB461123554602211020A9
:10113400039A049C06E0304207D10134013A002AA4
:1011440000D10EE126783142F5D10534F6E7C046E8
:10115400983F0220AB46030055460B9C594649690B
:1011640021404945E2D010231343DBB2DEE7534666
:10117400002B49D1537810781B0203439078053132
:1011840000041843D37820221B0603430B933242F6
:101194005ED06B6100239A4601330593019A0132B4
:1011A40001923A78002A00D06AE2039A013A039243
:1011B400002A00D025E7AB465546059B0491012B38
:1011C40000D121E2DBB20793009B019A5A70079A7F
:1011D4009A70049B099A9D1A4346029A2D049B1AFD
:1011E4001D43D54B9C466544FFF7F4F8002861D0B5
:1011F4005346002B00D1E2E0002311000893CDE711
:10120400AB460300554691E7894693462C8A05E090
:10121400002CF5D03B78013C002BF1D10E200BA91A
:1012240001F006FD0228F3D049465A4605900128EC
:1012340000D0EAE2404644460B9B0370180A6070F3
:10124400180C1B0EE37004239C46A070E04491E745
:101254002B8A89461C0007E0002C00D1D9E03B789A
:10126400013C002B00D0CEE030000BA901F0E0FCE3
:101274000228F1D049460590012800D0C0E276B298
:10128400002E76DB0123089300239A4686E79346D3
:1012940005E0002C67D03B78013C002B63D1300083
:1012A4000BA901F0C5FC0228F3D049465A460300B5
:1012B4000590CDE69146069C05E0002CA0D03B7835
:1012C400013C002B9CD130000BA901F0B1FC022899
:1012D400F3D04A460590012800D096E276B2002E5B
:1012E4000BDA4346A968080A19705870080C090EED
:1012F4009870D97004239C46E04443460B99080A2D
:1013040019705870080C090ED970987004239C4603
:1013140000231100E044089340E701220120FFF775
:10132400D5F90A220300A04604928BE40023049911
:101334000590089332E70300A04683E403230025C5
:1013440000220021DFE5099BED1A02232D041D4331
:10135400794B9C4665440023009A53709370FFF7C1
:1013640039F804942BE7AB4655462C00250002239C
:10137400DCE64346AA68100A1A705870100C120E64
:101384009870DA700123089303339C460023E044E9
:101394009A4603E7AB46E9E7AB460024E6E7404656
:1013A4004446AB680371180A6071180C1B0EE37194
:1013B4005346059308239C46A071E04460E6914699
:1013C400069C07E0002C00D164E13B78013C002B33
:1013D40000D015E70021300001F02AFC0228F1D0EA
:1013E4004A460590012800D00FE276B2002E00DABA
:1013F40034E10023089301339A461100CEE600221B
:10140400022390461EE44946AB460300002504919E
:101414008CE64946AB4603002500049186E60A2281
:10142400A04602230492FFF70DFC0A220024F7E7EA
:101434005B469B6806991A0A0B704A701A0C1B0EBD
:10144400CB700B1D8A700024049A0693FFF729FBC6
:1014540069460E790999651A2D04012B01D1FFF70C
:1014640035FBDBB20793FFF780FB59468968080A0E
:101474007071080CB071300031710830090EF171CF
:101484000690002B01D1FFF70BFBFFF77EFB4023F7
:10149400009A2A4D93700233D370333B13710023A7
:1014A40053710433FFF7D7F9254DFFF7D4F9009BA7
:1014B4000622981C234906F00FFA234D0623FFF752
:1014C400CAF942465446ABE70221FFF7C0F92D1A88
:1014D400AA1AA8B291B25C46E186A17FA086521AEC
:1014E4002287032B01D0FFF743F8FFF761F8524638
:1014F4000592002203009046FFF7A4FB5246030026
:10150400A0460592FFF79EFB091A8A1A88B291B287
:10151400E1E7059B5446049A9A46FFF7C2FA002372
:1015240000260A4D0793FFF727FB43461D4221D0AF
:101534001400464614E0C046010001000600020003
:101544000200020090CD0020080002000300020007
:10155400002C00D11AE13B78013C002B00D015E1AE
:101564000021300001F064FB0228F1D0B0460128CC
:1015740000D01CE100214A4689460BA905950126A5
:101584004546B8460F00009B013A04339A46002AA8
:1015940036D059460C8A514604929A46039106E085
:1015A400002C24D043461B78013C002B1FD139006A
:1015B400280001F03DFB0228F2D003995346049A17
:1015C4008A46012800D048E10B99080A5870080C93
:1015D400987050461970090EC17001218C4604336D
:1015E400E144511E002A00D1D6E00A00CEE74A4663
:1015F40053460298D1B2120A0225D2B21B1A82E4CF
:101604002E42C6D00E25C4E7002D00D1A9E05B46CA
:101614001C8A0BAB1D0007E0002C00D1E5E03B78F1
:10162400013C002B00D0E0E029000E2001F000FB7B
:101634000228F1D0012800D0A6E0424641460B9B87
:1016440013701A0A4A701A0C1B0ECB7004239C46A2
:101654008A70E044B8E59186FEF7AAFF4346A9687C
:10166400080A19705870080C090ED9709870002374
:10167400089301339A4603339C461100E0448DE5F8
:10168400AB46059B5546049150E558468286C18673
:10169400FEF78EFFAB460300002547E55346A04600
:1016A400059304920123FFF7CDFA5B4646461C8A54
:1016B40006E0002C00D180E03B78013C002B77D180
:1016C4000021300000F098FE0228F2D001286ED1EB
:1016D400039BAA46013B0493009B0433039300231A
:1016E40099460BAB1D00039B9846049B002B30D0FE
:1016F4005B461C8A05E0002C21D03B78013C002B82
:101704001DD12900300000F077FE0228F3D0012813
:1017140000D08BE00B9B03991A0A4A701A0C8A704A
:101724000A1D039242460B701B0ED37001239C4684
:10173400049AE144531E002A44D00493D3E74B4651
:1017440002981A0AD9B2039B5546D2B21B1AFFF764
:10175400DAFB059B0A2B02D00A2000F0FBFC0E26C4
:10176400C6E7089B002B00D12EE55B461C8A05E0EA
:10177400002C3AD03B78013C002B36D100210E20BE
:1017840001F056FA0228F3D007901DE50022032346
:1017940002251100FFF7B7FB4A460298D1B2120A9C
:1017A400059DD2B21B1AFFF7AEFB334DD3E50500FE
:1017B400002203231100FFF7A6FB032300220021CC
:1017C400FFF7A1FB4B4602981A0AD9B2039B654660
:1017D400D2B21B1AFFF797FBAB4603005546BDE494
:1017E4000023049101930793EEE402230793EBE4AF
:1017F4004B461A0AD9B205000323D2B2FFF783FB82
:10180400AB46059B0025049190E4059B66E40A22FF
:10181400A0460492FFF716FAA0460492FFF712FAC4
:101824005246059200229046FFF70CFA4B46029C62
:101834001A0AD9B2039B0500D2B21B1BFFF763FB44
:10184400A046FFF7FFF900230B4D1E000793FFF797
:1018540093F9D0460C00FFF709FA4A46029CD1B22C
:10186400120A0500D2B21B1BFFF74DFB0022030036
:101874009046FFF7E7F9C04603000300F8B5037884
:101884007F2B04D0FEF78AFD05002800F8BD0B70FD
:1018940044780A4D861C8F1C4C70002CF5D03900FE
:1018A4003000FEF77BFD030C2D180004000C013CF6
:1018B400F6183F18002CF2D1E7E7C04602000200F8
:1018C4003D2000210022194B10B5586027301980A3
:1018D40018615961513801311A739A76198303F0EA
:1018E40005FA0E2003F002FA122003F0FFF9152086
:1018F40003F0FCF90F2003F0F9F9102003F0F6F9D6
:10190400D02380221B0612035A625A618022D2011C
:101914005A625A618022D2025A625A618022920328
:101924009A62802252029A625A6110BD58E00020E5
:1019340070B5774C200006F0ADFA23781809010041
:101944001A01D2B230319F2B00D90731714B1009E3
:10195400197000212170010030319F2A00D9D4E090
:10196400597061780D0928000A01D2B230309F29DC
:1019740000D9BFE000219870100961700100303176
:101984009F2A00D9B4E0D970A1780D0928000A0172
:10199400D2B230309F2900D99FE00021187110097C
:1019A400A170010030319F2A00D994E05971E17887
:1019B4000D0928000A01D2B230309F2900D97FE0F6
:1019C400002198711009E170010030319F2A00D97B
:1019D40074E0D97121790D0928000A01D2B230309E
:1019E4009F2961D80021187210092171010030313A
:1019F4009F2A57D8597261790D0928000A01D2B279
:101A040030309F2944D80021987210096171010077
:101A140030319F2A3AD8D972A1790D0928000A01D8
:101A2400D2B230309F2927D8002118731009A17130
:101A3400010030319F2A1DD85973E1790D0928001E
:101A44000A01D2B230309F290AD8002198731009B4
:101A5400E171010037319F2A00D80739D97370BD6D
:101A64000021073098731009E171010037319F2A72
:101A7400F4D8F2E70731DFE70021073018731009C3
:101A8400A171010030319F2AD6D9F3E70731C2E7AB
:101A940000210730987210096171010030319F2ACA
:101AA400B9D9F3E70731A5E7002107301872100907
:101AB4002171010030319F2A9CD9F3E7073188E76F
:101AC4000021073098711009E170010030319F2A1C
:101AD40000D87EE7F2E7073168E700210730187184
:101AE4001009A170010030319F2A00D85EE7F2E7A7
:101AF400073148E700210730987010096170010030
:101B040030319F2A00D83EE7F2E7073128E7C04684
:101B1400943E0120AC3E0220F0B54546DE465746D1
:101B24004E46E0B583B001923F224023140088461C
:101B340004400340024200D1F6E0002B00D1A7E1AB
:101B4400D02380221B06D2015A61000600D4F7E09C
:101B54000023802299467F4B80269B46D202D023C5
:101B640094461B06360342464846155C1869AA0487
:101B7400424060460240DA615A469E615068020063
:101B8400013AFDD15A6807005E61013FFDD1FF2192
:101B9400520DD2016F080A40012C00D17EE119696F
:101BA400BF044F4061460F40DF6107009E61013F63
:101BB400FDD15F6801005E610139FDD1A9088A4643
:101BC400FF217F0DFF0152080F403A43022C00D140
:101BD4006AE151461F6989044F4061460F40DF6145
:101BE40007009E61013FFDD15F6801005E6101391C
:101BF400FDD1E9088A46FF217F0DFF0152080F40FD
:101C04003A43032C00D155E151461F6989044F40E2
:101C140061460F40DF6107009E61013FFDD15F68AF
:101C240001005E610139FDD129098A46FF217F0D3A
:101C3400FF0152080F403A43042C00D12FE15146D2
:101C44001F6989044F4061460F40DF6107009E61B0
:101C5400013FFDD15F6801005E610139FDD1690971
:101C64008A46FF217F0DFF0152080F403A43052C9D
:101C740000D125E151461F6989044F4061460F4058
:101C8400DF6107009E61013FFDD15F6801005E6175
:101C94000139FDD1A9098A46FF217F0DFF015208B0
:101CA4000F403A43062C00D110E151461F698904C4
:101CB4004F4061460F40DF6107009E61013FFDD147
:101CC4005F6801005E610139FDD1FF217F0DFF01D5
:101CD40052080F40ED093A43072C00D1FCE061465D
:101CE4001F69AD047D400D40DD6105009E61013D2D
:101CF400FDD15D685E610138FDD1FF2150086A0D98
:101D0400D2010A40024348460199083C0A54012280
:101D14009246D144002C00D025E703B0F0BCBB466A
:101D2400B246A946A046F0BD002B00D1AAE0D023BC
:101D340080221B06D2015A614024000600D507E721
:101D4400044B802680215868D023F6021B06090321
:101D540081E0C04658E000201F69AD047D40354055
:101D6400DD6105009961013DFDD15D6805005961A2
:101D7400013DFDD19508022CCFD01F69AD047D40F3
:101D84003540DD6105009961013DFDD15D680500C7
:101D94005961013DFDD1D508032CBED01F69AD04A6
:101DA4007D403540DD6105009961013DFDD15D68EF
:101DB40005005961013DFDD11509042C00D1ACE7A2
:101DC4001F69AD047D403540DD6105009961013D29
:101DD400FDD15D6805005961013DFDD15509052C12
:101DE40000D19AE71F69AD047D403540DD610500EF
:101DF4009961013DFDD15D6805005961013DFDD149
:101E04009509062C00D188E71F69AD047D40354053
:101E1400DD6105009961013DFDD15D6805005961F1
:101E2400013DFDD1D209072C00D176E71D6992044A
:101E34006A403240DA6102009961013AFDD15A6880
:101E440002005961013AFDD101229446083CE04464
:101E5400002C00D161E71D694246AC466746127802
:101E640095047D403540DD6105009961013DFDD15A
:101E74005D6805005961013DFDD15508012C00D074
:101E84006AE74AE7D02380221B06D2019A6153E70E
:101E9400D02380221B06D2019A614EE70724E24038
:101EA4004946019B5A5438E706244946E240019BBF
:101EB4005A5432E705244946E240019B5A542CE720
:101EC40003244946E240019B5A5426E7022449462A
:101ED400E240019B5A5420E701244946E240019B19
:101EE4005A541AE770B5D021802080240906314B5A
:101EF400C001240348618C615A681500013DFDD17D
:101F040015004C61013DFDD1886110008C610138E0
:101F1400FDD110004C610138FDD110008C610138F5
:101F2400FDD110004C610138FDD1DB7E002B0AD0BD
:101F340010008C610138FDD110004C610138FDD1D5
:101F4400013B002BF4D1D02380251F2100261B0642
:101F54002D0314009D61013CFDD1586814005D619E
:101F6400013CFDD1400DC007064301397608002924
:101F7400EFD18021C901596110009D610138FDD163
:101F8400586814005D61013CFDD19D611400013C61
:101F9400FDD15D611400013CFDD199619D61110089
:101FA4000139FDD15D61013AFDD1400DC0073043D7
:101FB40070BDC04658E00020F0B5D02280238025B3
:101FC400C64663491206DB012D0300B553619561D2
:101FD4008C4649680C00013CFDD10C005561013C64
:101FE400FDD193610B009561013BFDD10B0055615F
:101FF400013BFDD10B009561013BFDD10B00556107
:10200400013BFDD16346DB7E9846002B0AD00C00D1
:102014009561013CFDD10C005561013CFDD1013BB2
:10202400002BF4D1D0228026802512061369F602F3
:1020340033402D03D36195610B00013BFDD1556104
:102044000B00013BFDD195610B00013BFDD15561B6
:102054000B00013BFDD195610B00013BFDD15561A6
:102064000B00013BFDD11F24176983047B403340DF
:10207400D3610B009561013BFDD10B005561013B20
:10208400FDD1013C4008002CEED163469C7E4346C2
:102094008004E41A012C00D14AE013694340334020
:1020A400D3610B009561013BFDD10B005561013BF0
:1020B400FDD1A31E022C0ED0D024802024060003C0
:1020C4000A00A061013AFDD10A006061013AFDD124
:1020D400013B002BF4D1D02380221B06D2015A618C
:1020E400802212039A6108000138FDD15A610B0065
:1020F400013BFDD1D02380221B0612039A61080004
:102104000138FDD15A6108000138FDD18020C00199
:1021140098619A6108000138FDD15A610139FDD1F5
:1021240080221969D2028A43DA6180BCB846F0BDC4
:102134008023DB015361136943403340D3610B00B7
:102144009561013BFDD10B005561013BFDD1D1E708
:1021540058E00020F0B5CE46474680B58C4DEB7E66
:10216400994610335B00EB189A886B78002B60D08B
:10217400D023802680211B060903F6015E61996144
:102184005961996159619E6180269961596199618A
:1021940059611F69F602BE43DE61002A04D0013A88
:1021A40099615961002AFAD14B46EB181B7F591EDD
:1021B400012B12D08023D0228026DB029C461206FB
:1021C4003603176983047B40674601393B40D3617A
:1021D4004008966156610029F3D14C4618346400D6
:1021E4002C19A4888004002C00D0AFE0D0238022D6
:1021F4001B06D2015A611A6950408022D202104053
:1022040080221203D8619A615A61D02380228021EE
:102214001B061203C9019A615A6199619A615A6154
:1022240080221969D2028A43DA61C0BCB946B04639
:10223400F0BDD021802780260906FF0136034F61B7
:102244008E616B681C00013CFDD11C004E61013C99
:10225400FDD11C008E61013CFDD11C004E61013C8E
:10226400FDD18F611F008E61013FFDD11F004E61C2
:10227400013FFDD11F008E61013FFDD11F004E6162
:10228400013FFDD180270C69FF02A743CF61002ADB
:102294000AD01F008E61013FFDD11F004E61013F36
:1022A400FDD1013A002AF4D14A46AA18127F561EDB
:1022B400012A1AD08022D0218027D202944609060E
:1022C4003F030A69904644468204624064462240C1
:1022D400CA611A008F61013AFDD11A004F61013AB7
:1022E400FDD1013E4008002EEBD14C461834640069
:1022F4002D19A988800400294CD0D02424062269F1
:10230400802542408020ED022A400003E2611A0049
:10231400A061013AFDD11A006061013AFDD1226940
:102324009543E5614A1E01290AD01900A0610139CB
:10233400FDD1190060610139FDD1013A002AF4D1BF
:10234400D02280211206C90151612EE0D02212064A
:102354001369802158408023DB0218400903D061AF
:102364009161516110698343D361631E012C04D0D0
:10237400013B91615161002BFAD1D02380221B06CD
:10238400D2015A61802212039A615A613DE7C04624
:1023940058E00020D02280211206C9015161116940
:1023A40041408020C0020140D1618021090318000E
:1023B40091610138FDD151611A00013AFDD1D02259
:1023C400802112060903180091610138FDD118001B
:1023D40051610138FDD18020C001906118009161E4
:1023E4000138FDD15161013BFDD180231169DB022C
:1023F4008B43D36119E7C046F0B5DE464E464546E9
:102404005746E0B5404D83B00190EB7E89469B462C
:102414001A006B78002B00D17AE0D0238027802427
:102424001B062403FF015F619C615C619F619C61E9
:102434005C619C615C61002A04D0013A9C615C612E
:10244400002AFAD1D02301981B061C694208802671
:10245400920462408024F60224033240DA619C61D3
:1024640059685C611A698708BF0457403740DF61C7
:102474009C615A68C708944604205C611A69BF04C9
:1024840057403740DF619C615F680222FF0C0740C0
:102494006046090D114039438702FF0F0F43BC46C4
:1024A4005C61012F00D13CE18022D2015A619C6120
:1024B4005C61D023802280211B061203C9019A612A
:1024C4005A6199619A615A6180221969D2028A43D8
:1024D400DA61019B180602D50C4B9B6AAB602A7B20
:1024E400531E002A07D0D0218022090612038A61D4
:1024F4004A61013BFBD26346D8B203B0F0BCBB4691
:10250400B246A946A046F0BD58E000200040054070
:10251400D024802780212406FF0109036761A1617B
:102524006B681E00013EFDD11E006161013EFDD1BC
:10253400A7611F00A161013FFDD11F006161013F3F
:10254400FDD11F00A161013FFDD11F006161013F69
:10255400FDD1002A0AD01F00A161013FFDD11F0057
:102564006161013FFDD1013A002AF4D1D0220198E2
:102574001206176944088021A4047C408027C902FC
:102584000C403F03D46188461C009761013CFDD197
:102594005468190057610139FDD111698608B604E0
:1025A400714046463140D161190097610139FDD12E
:1025B400516857618C4619000139FDD1C60840465F
:1025C4001169B60471400140D16119009761013964
:1025D400FDD15668190057610139FDD1F00C04266C
:1025E400022106406046240D0C4026438402E40F79
:1025F4003443A446012C00D140E08021C90151613B
:10260400976119000139FDD157611A00013AFDD1D2
:10261400D0228021120609031C009161013CFDD1E6
:102624001C005161013CFDD18024E40194611C0033
:102634009161013CFDD1516119000139FDD1802125
:102644001469C902A143D161019A100602D5974ABF
:10265400926AAA602A7B002A00D14CE7D024802009
:10266400240600031900A0610139FDD1190060613D
:102674000139FDD1013A002AF4D13CE70198014225
:1026840000D1B6E01F2100261C009761013CFDD15A
:102694005468180057610138FDD1640DE4072643DE
:1026A400013976080029EFD15946AC7E611A012917
:1026B40000D1EBE01C009761013CFDD154685761E7
:1026C400A402E00F80461A00013AFDD18A1E0229B5
:1026D4000ED0D02780213F0609031C00B961013CBC
:1026E400FDD11C007961013CFDD1013A002AF4D1ED
:1026F400D02280241206E4015461802424039461CE
:1027040019000139FDD154611A00013AFDD14A463C
:10271400002A00D17CE74346DB07334313606B6830
:1027240076E701990A4233D01F2600219C615A683A
:10273400013E520DD20711435C614908002EF5D1C8
:102744005846AA7E121A012A00D1BAE09C615E683A
:102754005C61B602F60F931E022A08D0D0248022B0
:1027640024061203013BA2616261002BFAD1D0233B
:1027740080221B06D2015A61802212039A615A6197
:102784004B46002B00D194E6F6070E431E6090E6FC
:102794004A461F27116818698A0442403240013FA3
:1027A400DA6149089C615C61002FF4D15846AA7E25
:1027B4008904121A012A00D18CE018694140314081
:1027C400D9619C615C61931E022A08D0D0218022C9
:1027D40009061203013B8A614A61002BFAD1D02316
:1027E40080221B06D2015A61802212039A615A6127
:1027F4005FE649461F260C6811698A465046A104C3
:10280400414040460140D161190097610139FDD131
:10281400190057610139FDD1013E6408002EEBD146
:102824005846A97EA404091A012900D140E0404673
:10283400166974400440D4611C009761013CFDD1C9
:1028440057611A00013AFDD18A1E02290ED0D02602
:102854008024360624031900B4610139FDD119001E
:1028640074610139FDD1013A002AF4D1D0228021CA
:102874001206C9015161802109031C009161013CC8
:10288400FDD151611A00013AFDD1C1E68024E40171
:1028940054611C009761013CFDD154685761640D7B
:1028A400214088461A00013AFDD130E70040054036
:1028B40080214046C9015161116961400140D161E3
:1028C4009EE68026F6015E619C615E685C61760D21
:1028D400164055E78022D2015A611A6951403140AD
:1028E400D9619C615C61E4E5F0B5C646421E00B561
:1028F400002829D080250120ED018046AC46D02057
:102904008025134B00245E68000600232D0310E08D
:102914004746013C1F4214D0674647613700856132
:10292400013FFDD137004561013FFDD15B08013A0C
:102934000AD3002CECD147460B78072401311F42FF
:10294400EAD167468761E9E780BCB846F0BDC04676
:1029540058E00020F0B53F25D6464F4646462C00A9
:102964008023C0B504400340054200D14024002B1D
:1029740000D1A5E0514B80209946D0231600FF25B5
:102984001B0600034A46986151680A00013AFDD1CA
:102994005A680F005861013FFDD1920BD2012A40C1
:1029A4009446012C00D12AE10A009861013AFDD134
:1029B4005A680F005861013FFDD16746920BD2015E
:1029C4007F082A403A43022C00D11CE10F00986191
:1029D400013FFDD15F685861BC460F00013FFDD146
:1029E4006746BF0BFF0152082F403A43032C00D126
:1029F4000CE10F009861013FFDD15F685861BC464E
:102A04000F00013FFDD16746BF0BFF0152082F4065
:102A14003A43042C00D1FCE00F009861013FFDD142
:102A24005F685861BC460F00013FFDD16746BF0B8C
:102A3400FF0152082F403A43052C00D1ECE00F006F
:102A44009861013FFDD15F685861BC460F00013FAA
:102A5400FDD16746BF0BFF0152082F403A43062CB5
:102A640000D1DCE00F009861013FFDD15F6858613F
:102A7400BC460F00013FFDD16746BF0BFF01520862
:102A84002F403A43072C00D1CCE00F009861013F5E
:102A9400FDD15F6858610139FDD1B90BC9015208F4
:102AA40029400A43083C32700136002C00D069E703
:102AB400E0BCBA46B146A846F0BDC04658E0002086
:102AC4005A4B0225586801239C468026D023802235
:102AD4006746A8460235A9460435AA460D781B0662
:102AE400F60112032F4200D079E09E6107009A613B
:102AF400013FFDD107005A61013FFDD1012CD7D020
:102B040047462F4200D06CE09E6107009A61013F66
:102B1400FDD107005A61013FFDD1022CC8D04F46B8
:102B24002F4200D05FE09E6107009A61013FFDD112
:102B340007005A61013FFDD1032C00D1B8E7574685
:102B44002F4200D051E09E6107009A61013FFDD100
:102B540007005A61013FFDD1042C00D1A8E7EF061C
:102B640000D544E09E6107009A61013FFDD1070052
:102B74005A61013FFDD1052C00D199E7AF0638D445
:102B84009E6107009A61013FFDD107005A61013F30
:102B9400FDD1062C00D18BE76F062ED49E61070071
:102BA4009A61013FFDD107005A61013FFDD1072C15
:102BB40000D17DE7ED091ED19E6105009A61013DBA
:102BC400FDD105005A61013DFDD1083C0131002CC5
:102BD40000D16DE767460D782F4200D185E75E612D
:102BE40084E75E6191E75E619EE75E61ACE75E61EA
:102BF400B9E75E61C5E75E61DFE75E61CFE7634623
:102C0400DA09327054E79209327051E7520932708E
:102C14004EE7120932704BE7D208327048E7920847
:102C2400327045E75208327042E7C04658E000204F
:102C3400F0B54546DE4657464E46E0B50500012050
:102C4400494B83B0019100935B782840002B00D15D
:102C54008CE0D023802280241B062403D2015A61F5
:102C64009C615C61002800D061E19A61D0228023DC
:102C740012061B03936153616B08A80700D46CE12F
:102C84008020C0015061D022802012060003906190
:102C94005061A8081B18C00700D45AE18020C00165
:102CA4005061D0228020120600039061EB1850611D
:102CB400EC08280700D448E18020C0015061D022EC
:102CC4008020120600031B1990615061DB0700D4B9
:102CD40037E18023DB015361D023802080221B064F
:102CE4000003D201986158619A61986158615A61F0
:102CF400986158619A62009A177E3A1E04D0013A8C
:102D040098615861002AFAD1D02380241B06240339
:102D14009C615A685C619C6158685C619C615968FB
:102D24000226090B8846400B3040B446042146462F
:102D3400520431400843D20F5C611043012800D192
:102D440048E26246811E91433A002132002900D1B3
:102D540036E1013A9C615C61002AFAD18022D201F9
:102D64005A62C0B25A61D9E058E00020D0228024CF
:102D740080271206009BE4013F03546197615B685E
:102D840019000139FDD157611F00013FFDD1002811
:102D940000D0CAE09461D0208022000612031C00F7
:102DA4008261013CFDD142611A00013AFDD16A08F9
:102DB400AC0700D4BDE08024E4014461D027802026
:102DC4003F0600031C00B861013CFDD17861180086
:102DD4000138FDD1A8081218C00700D4C5E080202E
:102DE400C0017861D02780203F0600031C00B86131
:102DF400013CFDD1786118000138FDD1AA18E90819
:102E0400280700D4ADE08020C0017861D02780205D
:102E14003F0600031C00B861013CFDD17861180035
:102E24000138FDD15218D20700D486E08022D201A5
:102E34007A61D022802712063F0318009761013877
:102E4400FDD1180057610138FDD18020C001906187
:102E54001C009761013CFDD11C005761013CFDD170
:102E640050611C009761013CFDD11C005761013C7D
:102E7400FDD100999062097E8C46081E0AD01C0080
:102E84009761013CFDD11C005761013CFDD1013823
:102E94000028F4D1D022802712063F03180097613E
:102EA4000138FDD15168180057610138FDD118006F
:102EB40097610138FDD150681C005761013CFDD178
:102EC4001C009761013CFDD154681E005761013E0E
:102ED400FDD10226400B3040B046240B023634406C
:102EE40020434C04E40F2043012800D1C9E04146AB
:102EF400841E8C4361462131002C3AD01C0097611A
:102F0400013CFDD11C005761013CFDD10139002970
:102F1400F4D18023DB015362C0B2536103B0F0BC2F
:102F2400BB46B246A946A046F0BD546133E75A6198
:102F34009CE68024E401846140E78022D201BA61E6
:102F440077E78023DB019361C6E68020C0019061AE
:102F5400B5E68020C0019061A3E68020C0019061A5
:102F640091E68020C001B86150E78020C001B861BB
:102F740038E700994E7E002E48D04146294239D187
:102F84006146002946D18021C9015162D0248022A2
:102F94008025D2012406A26121222D031900A561F6
:102FA4000139FDD1190065610139FDD1013A002AC9
:102FB400F4D1D02380221B06D2015A61C0B2ADE7FE
:102FC400009A517E002947D062462A423ED1002F02
:102FD40045D18022D2015A62D02280238021DB0194
:102FE4001206936121230903013B91615161002B76
:102FF400FAD1DEE721211C009761013CFDD11C00C0
:103004005761013CFDD101390029F4D16146002901
:1030140000D179E1D0218024090624031A008C61AF
:10302400013AFDD11A004C61013AFDD1012252420C
:103034009046C4446246002AF0D18022D2014A62FA
:10304400002EB6D0AD0700D4A0E7B2E72122013AA2
:103054009C615C61002AFAD1002F00D158E1D02391
:1030640080221B061203013F9A615A61002FFAD194
:103074008022D2015A62002900D19AE7AD07ABD56C
:1030840097E7444641462C40294200D17BE0002189
:10309400012420208A46A1461C009761013CFDD1F1
:1030A4004E4654685761A40B34401E00013EFDD1C6
:1030B400564609197608E40726430138B246002823
:1030C400EAD1180097610138FDD150685761013B7E
:1030D400FDD14A46830B072013404B4013405B420B
:1030E4001840019B0130002B00D01E606346002B6A
:1030F40014D0D0218022009B09065C6812032300AF
:103104008A61013BFDD123004A61013BFDD10123CA
:103114005B429846C4446346002BF0D1D0238022FE
:103124001B06D2015A622D0603D57B4B009A9B6A7B
:103134009360009B1B7B002B13D0D0218022802422
:10314400D20109068A61009A240355682A008C6119
:10315400013AFDD12A004C61013AFDD1013B002B1B
:10316400F4D1D02380221B06D2015A61D6E697619E
:1031740018000138FDD1576118000138FDD1012133
:1031840049428846C44461460029F0D1D0208022B7
:1031940001268027D201000642629046019A20212E
:1031A400B14612683F030FE0464646611E00876140
:1031B400013EFDD11E004761013EFDD10139A41835
:1031C4005208002900D183E04E461642ECD146460F
:1031D4008661EBE762462A40904662462A424DD019
:1031E40000229446013220200021904646469C61EC
:1031F4005A684908920B324094440138D2075C6102
:1032040011430028F2D19C615A685C61930B6246B9
:103214003340534033405B4207301840019B013038
:10322400002B00D01960002F08D0D0228023120672
:103234001B03013F93615361002FFAD1D0238022F5
:103244001B06D2015A622D0603D5334B009A9B6AA2
:103254009360009B1B7B002B00D182E7D02280214E
:103264001206C901916180210903013B91615161F9
:10327400002BFAD175E79C61013F5C61002FFAD104
:10328400D02280248020019B1206E4015462202174
:1032940001271B68000307E05461013990619844D9
:1032A40050615B08002903D01F42F5D19461F4E713
:1032B4004346DB0722D4D02380221B06D2019A6125
:1032C400D02380221B0612039A6101205A61BAE7B7
:1032D400D02280211206C901E4070DD49161D022C5
:1032E400802112060903180091610138FDD1516152
:1032F400013BFDD1012016E75161F0E7D023802284
:103304001B06D2015A61DBE78023DB01536250E6DE
:103314008022D2015A624CE60040054003780148FD
:103324000B7070470100010030B583B008F09AF8C3
:10333400D02401250190240601200021404205F0FB
:1033440037F863685B0E1D420BD080239B04A36196
:1033540005F01EF80028EFD1012101A808F022FA97
:10336400EAE704F089FF0028EFD004F08DFFECE7D2
:10337400D023802210B51B06920482B09A6108F013
:1033840069F8154804F076FB08F058F9FEF798FA46
:1033940006F04AFEFEF7CCFA06F034FA04F030FDEB
:1033A4000E4B8024019301236400220000930C49F6
:1033B40000230C4807F092FD0B4B220001930223DB
:1033C4000A4900930A48002307F088FD07F056FFD6
:1033D400002002B010BDC04698CD0020903E0120D0
:1033E400B0CD0020E930002060370120B4CD0020AA
:1033F400553400200020704770B51800084C04AB09
:103404001D882100FCF7CAFF2B1C402D00D9402346
:10341400220000219BB2002005F030FF70BDC046A1
:103424009CE00020F0B505001400012083B00129C0
:1034340005D1137800205B069B0F022B01D003B04B
:10344400F0BD5378012BFAD1637912791B0213432F
:10345400072BF4D16B46074E9F1D31000222380022
:1034640004F03AFA3200210028003B88083A05F0BB
:1034740001FCE4E7A8D200207047C04610B502481A
:10348400097801F06DFFC046B8CD002010B50148A1
:1034940001F066FFE8CD002000487047A0D300206B
:1034A400004870477CD300203E2306220148C254C2
:1034B4007047C04654D7002070B5002822D0062893
:1034C40029D8164B8000C558280008F0A9FEC0B2C0
:1034D400041C1F2814D8C026E4B2631CDBB25B00B2
:1034E400B6001E43002808D000230D4AE95C0133CE
:1034F4001180D9B202328C42F8D80A48068070BDD5
:103504001F24E8E7C126054B02220548196804F088
:10351400E3F9B600F1E70020F1E7C04638D7002010
:1035240056F3002054F300200048704754D3002081
:103534007047C0467047C04600207047F0B5464605
:10354400D6464F46C0B54B7906000C00FF2B1FD161
:103554008B79002B1CD1CB79002B19D1802081468B
:103564004F461E491E4D0B5004300B50A846EB51DC
:103574002B50892504307F3F4B550F5441464B5502
:103584000F542379DD00ED1A0935ADB2954206D901
:1035940000252800E0BCBA46B146A846F0BDE37A4F
:1035A40021009A4652460F4B300009311A7005F03B
:1035B400D5FA4A4643469B5851461F40BA014244F5
:1035C4004023300005F00CFB2100074BA27C3000A7
:1035D40010311A7005F0C2FADBE7C04668E100203A
:1035E400DCE000209B3F02209A3F0220F8B5CA0984
:1035F4000024012A14D0402B10D880268422214D87
:10360400AB59AF580133833A1340BB4219D18923D4
:10361400EA541D4B0124186807F0E8FD2000F8BDAA
:10362400402BFBD884258826184C635901336351F9
:10363400A35D002B12D0144B0124186807F0D6FDAB
:10364400ECE7AB590133AB51AB591A40920140231B
:10365400521905F0C5FA8923EC54ECE767590C4B71
:103664003A401B6892019BB2121905F0B9FA802204
:103674006359A25801339B1A5A425341DBB2A355F2
:10368400D9E7C046DCE000206037012068E1002073
:1036940020F40020F0B557464E464546DE46E0B5D8
:1036A4008026814B8DB09A46804B814C0293814B8E
:1036B400814F9846814B0593814B0893814B0A9324
:1036C400814B0693814B0793814B0393814B099361
:1036D400814B0B938423E258A3599A4200D1A1E071
:1036E400842342469946B84604924B460120E55845
:1036F400284083019B46E35C7E2B31D1049B5F46CB
:103704009B4607F0A7FE4B465046A159E258E35D9D
:1037140001359B00C358E01940780090029804F0EA
:103724009BFA07F08BFF7F23E355A3599D420FD1EA
:103734005F4607F08FFE380004F09CF907F07EFF27
:103744004346186807F0ECFCA359AB42F1D0BB46E2
:1037540001272F40BF01E35D7E2BD2D05B4604934B
:103764004B460125E158059F2940890140226118F3
:10377400380004F0B1F807F06DFE4B463800A1594B
:10378400E2583B78574640789B00FB5800900898D5
:1037940004F062FA07F052FF4B464A46E3580133FD
:1037A400A35089239B46E35C002B67D1069F0598B1
:1037B4003900FEF763F8079B186007F04BFE4B4691
:1037C4005046039DA959EA583B789B00C358099871
:1037D40004F042FA07F032FF07F03CFE4B46AA59C8
:1037E400EB589A4222D0039D0120AC46079AAB596C
:1037F400126818408001120406996044120C04F007
:103804006BF8AB5900220133AB518823EA5407F01B
:1038140015FF4B46E258A3599A4200D065E7049B32
:1038240047469846386807F07BFC53E7039901251F
:103834008C46079F88593A682840800112040699EB
:103844006044120C04F048F8039900208B598C460C
:1038540001338B514B46CA583B680B992A4092015D
:103864009BB26244097805F0BBF907F0E7FE4B46CA
:10387400E358A2599A4200D037E7D0E707F0EAFDAF
:10388400A35900200133A351A3591D400A9BAA0147
:103894001978A218402305F0A3F900235A46A3542B
:1038A40007F0CCFE82E7C046B8D7002070CE0020D7
:1038B400DCE0002094CE002060370120D8DF002017
:1038C400A0CE00209B3F022018E0002020F400201E
:1038D40068E10020BCCE00209A3F0220012303703F
:1038E40000487047B4D30020024B9C4661448900D1
:1038F400016070474000003410B5040000F012FD70
:1039040001002000FFF7F0FF01235B426360BFF377
:103914005F8F10BD10B5040000F004FD010020000D
:10392400FFF7E2FF01235B42636000232372BFF3CE
:103934005F8F10BD10B50400012000F0FFFC034BA5
:10394400C3189B002360BFF35F8F10BD4000003499
:1039540083680B4810B5844661446244120109012E
:1039640059189B185C684A680120944201D802D017
:103974000020C0B210BD1A680B689A42F9D8F7E764
:10398400FFFFFF0F074810B50268EFF3108172B60E
:103994001368002BFCD0BFF35F8F06F0BFFC002040
:1039A400002110BD7C3E0120F8B5574645464E46E1
:1039B400DE46E0B598460CAB1C780DAB1B780700CF
:1039C40091469A460568002C59D1AC7B002C3BD01B
:1039D400660029683619033E89194B78AB73002BAE
:1039E40000D1EB7300238B704B700B702D4BE218DE
:1039F400BB6812019B184A461A6042465A600A9AEA
:103A04009A600B9ADA6000238B704B700B706B7B9F
:103A14009B46002B26D022006B685946A86898471D
:103A24005B465B005B442A68033B002812D058467F
:103A34009619B070D118D35C002B00D073705B461C
:103A44000C706B735C450ED0F0BCBB46B246A94605
:103A5400A046F8BDD3189C709119925D002A1CD120
:103A64005B460B706C734A464346387D00F048FB56
:103A7400051E0AD10E9B002BE6D01D70E4E76600FC
:103A840029683619033E8919B0E75346002BF1D152
:103A94002100386801F096F8ECE75A705B460B7029
:103AA4006C73E0E7FFFFFF0FF0B5DE4657464E4666
:103AB40045460023E0B58BB00893684B8200D45888
:103AC40000239B46099000F097FA02000B006068FF
:103AD400EFF3108A72B6564601680029FCD0B2464C
:103AE400BFF35F8F21684F7B8C46002F2ED0A568D3
:103AF4005B49A94679180901894449460868496817
:103B040005000E00AD1A9E41002E5FDD02000B0081
:103B1400099800F0F5FA0023002299460023069242
:103B24000793002398466368BFF35F8F5A461A6071
:103B34008AF310884346002B12D10028C3D10BB05E
:103B4400F0BCBB46B246A946A046F0BD0023002205
:103B54009946002306920793002300209846E2E743
:103B6400089B494618023843C047626805000E00A6
:103B7400EFF3108A72B61368002BFCD0BFF35F8F8B
:103B8400002E41DB2B00334302D02369002B56D196
:103B94002368D97B002905D01A68480041185218B7
:103BA400033A57709A7B002A00D19F73DF73E2684F
:103BB400013FD35D0133D3555B4623616368BFF393
:103BC4005F8F5A461A608AF310887CE7002E02D170
:103BD400002D00D09AE70021604600F071FF4B46AB
:103BE4001A685B68069207934B469B6898464B4657
:103BF400DB689946E368DB19013B1B7808931B02D9
:103C04000343236100208EE72369002BC0D0069A6A
:103C1400079B8021521BB34109068B4202D3012228
:103C2400104B524200210491013103914946019104
:103C34004146200002970091FFF7B6FEBCE700F072
:103C4400DBF92A00330012184B41802109068B420C
:103C5400E8D30122034B5242E4E7C046C03B0120B3
:103C6400FFFFFF0FFFFFFF7F10B5144C6368002BAD
:103C740004D00A211248FFF737FE10BD2300114A71
:103C84001021206800F038FE032000F0A9F9032079
:103C940000F09EFA03200C4900F0ECF900F042FB1E
:103CA4000A4B9C4603232375D0231B061B686044E0
:103CB4006375074B80006060DC60DAE7B8D90020E8
:103CC4007C3E012011370020693800204000003478
:103CD400C03B012000487047B8D90020F0B55746D2
:103CE4004E464546DE46E0B585B0019310AB1B78E1
:103CF4000600039300239A46984600927268EFF3F5
:103D0400108B72B61368002BFCD0BFF35F8F35683D
:103D1400AC7B002C00D16EE067002B683F19033F99
:103D2400DB195A78AA73002A00D1EA73484AA11809
:103D3400B2680901521800980199106051600E99F7
:103D440091600F99D16042469A705A701A706B7BD9
:103D54009946002B00D16BE022006B684946A868A5
:103D640098474B465B004B442A68033B002856D0D7
:103D74004846D719B870D118D35C002B00D07B709B
:103D84004B460C706B734C4553D0F3681B19013BC5
:103D940018787368BFF35F8F42461A608BF31088FC
:103DA4005346002B08D10002204305B0F0BCBB46AB
:103DB400B246A946A046F0BD039B002B46D00E9BFD
:103DC40000200F99984703000B433FD004000D1EB9
:103DD4001ADA009A019B121BAB41009201938022D4
:103DE4001206934204D301231A4C5B4200930194BC
:103DF400039B9A4682E77368BFF35F8F1C608BF363
:103E0400108801204042D0E700F0F6F88022001923
:103E140069411206009001919142E9D3E3E7D31876
:103E24009C70D119D25D002A00D05A704B460B7099
:103E34006C73307D009A019B00F062F98246002881
:103E4400A3D02100306800F0BDFE9EE70020ACE75F
:103E5400FFFFFF0FFFFFFF7FF0B5EFF30583CE46B3
:103E6400474680B505000C0085B0002B12D02A4AC5
:103E74000020536AA34203D3926A0130AA4204D3B6
:103E840005B0C0BCB946B046F0BD1B1B5A1E9341D9
:103E9400D8B2F5E7214E02930193214B020000931F
:103EA40030000B00FFF71AFF031EE0DD20BF71682E
:103EB400EFF3108772B60A68002AFCD0BFF35F8F55
:103EC400DAB29446FF2230681A40417B61450FD034
:103ED4000168894651008846494690444144033963
:103EE4008978002904D13269934209D1316107E00C
:103EF400F1681B0A8A18013A1278DBB29A4207D099
:103F04007368BFF35F8F00221A6087F31088AEE7EF
:103F1400614600F057FEF3E700400540B8D90020A1
:103F240045370020F0B5EFF30582D6464F464646A6
:103F34001000C0B51038EFF3108872B6214C236816
:103F4400002BFCD0BFF35F8F0123190081401E4D6D
:103F54001F006963AA461D4D29601D4D2E78AC468D
:103F64003500C5402F402B4215D053465F6A194B8C
:103F74008500EB589F4218D36246174B8E43EB588B
:103F84001670BFF35F8F0022226088F31088002B25
:103F940006D0984704E0BFF35F8F276088F310884A
:103FA400E0BCBA46B146A846F0BD0C4B92009C4614
:103FB400624413681360BFF35F8F0023236088F3A8
:103FC4001088EDE7280100D0004005403C70054012
:103FD400A03F0220803E012044360120D03F05400E
:103FE40010B5034B01001800024A00F01DF910BD82
:103FF4009E3F0220C0D00020034B596A0A00986AF1
:10400400596A8A42FAD170470040054070B50400ED
:104014000D00174A536A1900966A536A8B42FAD103
:104024003000190024184D41AB4216D813D0104B60
:104034002A005B6A9D4203D90D494B6A9342FCD323
:10404400934207D10A4A02E0516A994202D1916A25
:10405400A142F9D370BDA642E9D9054B5B6A1C00A5
:104064005A1CEFD0012201246442E5175242E3E7CF
:104074000040054070B504000D00EFF3108672B6E1
:104084001A4A1368002BFCD0BFF35F8F002D1BD09E
:10409400200000F077F9164981420AD0200000F090
:1040A40079F90121200000F05BF90123A340114AB2
:1040B4001360114BA400E550BFF35F8F00220B4B3C
:1040C4001A6086F3108870BD0121A1400A4BA2003A
:1040D400D5500A4B20001A788A4305491A7000F01B
:1040E4007DFA0021200000F03BF9E5E7280100D02B
:1040F400E53C00203860054044360120A03F022002
:10410400F0B54F46D6464646C0B507002B4C616A0B
:104114000D00A66A616AA942FAD18B4208D805D07B
:104124000120E0BCBA46B146A846F0BDB242F7D978
:10413400EFF3108A72B6224801680029FCD0BFF35D
:104144005F8F0125BD401F491C4C8846097889466C
:104154002943C9B28C46414660460870391D89001E
:1041640065630A511849B8004350216A0020294266
:1041740019D0616A0800A66A616A8142FAD18B4249
:1041840019D801D1B24216D8CC450BD00B4B1F2203
:104194001D625D6301233A4093400C4A1360434619
:1041A4004A461A700120BFF35F8F0022044B1A6045
:1041B4008AF31088B5E70020F5E7C04600400540C3
:1041C400280100D0A03F0220803E012080E200E0D0
:1041D400EFF3108C72B60A490B68002BFCD0BFF3C6
:1041E4005F8F01238340074A0748136202789A438A
:1041F4000270BFF35F8F00230B608CF3108870474D
:10420400280100D000400540A03F0220024B18685E
:104214008007C00F7047C04600C006408023DB05FE
:104224001868000F7047C04670B5EFF3108C72B673
:104234000D4D2B68002BFCD0BFF35F8F0724CB08F8
:10424400C618C05C01230C40A3401C000440034278
:1042540007D118433070BFF35F8F2C608CF3108844
:1042640070BD100001F07CF82C0100D0F8B5474671
:10427400CE46884680B5EFF3108C72B6214D2C687B
:10428400002CFCD0BFF35F8F9A422CD8D4080727A8
:10429400055D061901241740BC402C421FD007219C
:1042A4000127894609E0D408055D06194C46390002
:1042B4001440A1400C00294211D001329342F2D2A1
:1042C40001204042BFF35F8F00220E4B1A608CF333
:1042D400108800280FDBC0BCB946B046F8BD2543A2
:1042E40010003570EEE7BFF35F8F00232B608CF373
:1042F4001088012040424346002BECD0089801F07E
:104304002FF8C0462C0100D00021044B044ABFF30F
:104314005F8F02C39342FAD17047C046000100D0B8
:10432400800100D0044A1078431CDBB2172B00D95B
:10433400102313707047C046E0D9002010B5064B17
:10434400064C82B00100009318221F232000FFF7BF
:104354008DFF02B010BDC046E4D000205C370120C0
:1043640001238340002904D0034A1360034A1360E5
:104374007047034A1360FBE780E200E000E100E0DD
:1043840080E100E0024B10309B688000C058704709
:1043940000ED00E070B50D00EFF3108672B60F4A21
:1043A4001368002BFCD0BFF35F8F0D4B10309B685C
:1043B40084001B590B4A934203D09D4201D000F064
:1043C400EDFF074B9B681D51BFF35F8FBFF35F8FFA
:1043D4000022024B1A6086F3108870BD240100D0BD
:1043E40000ED00E0CD010010F0B557464E46DE4624
:1043F4004546E0B585B0060000911700EFF3108B39
:1044040072B66A4A1368002BFCD0BFF35F8F002595
:10441400674B5D579A46002D00DAA9E06B00654CA6
:1044240001935B199B009846A146C1444B465246F2
:104434009B7910361370604BB6009B6899590B1B1F
:104444002F2B33D95D4B994200D0ACE0019B4246FF
:104454009C465B4B6544AD0063535A4B0232A21831
:10446400043B9B1A1B05584A5B0D651913436B806B
:10447400564B0121AB80FF23AB71009BEF71AB6006
:104484004B460B4319004C4B9B689951BFF35F8F0C
:10449400BFF35F8F0022454B1A608BF3108805B081
:1044A400F0BCBB46B246A946A046F0BD01200A00B6
:1044B4008243D3798C46BB4231D8454613004449E4
:1044C4001B1B5B415943090D3D4B63533D4B023567
:1044D4006519043B5B1B1B053B4D5B0D2B43AA4637
:1044E4004D466B800425AC465546E044131F4444B6
:1044F4001B1B1B055B0D1D434B46997100999D8049
:1045040099604946DF71334B01431360BBE75800A0
:10451400C01880002018C179B9422FD9020006239F
:10452400D356002BF3DA02932B4B61460393131DEE
:104534009A4604235B429C46E14450464B461B1A70
:104544001B055B0D9C46204B95719846634640467F
:1045540003439380019B5A199200039BA418A380E0
:10456400029B1C4AA371009B2260E771A3608AE747
:1045740000F014FF002553465D574FE790880293DF
:104584004005131D9A46031561469C464046D44493
:10459400634604302018181AE0230005400D1B025E
:1045A40018430390C5E700F0F9FE4FE7240100D05B
:1045B4009F3F0220E4D9002000ED00E0CD0100106F
:1045C40000A1FFFF14DA002000E0FFFF01BDFFFFA0
:1045D400AAAA00000148804701BD0000F0B5DE46EC
:1045E40057464E464546E0B50C0083B0EFF31088BD
:1045F40072B65D4A1368002BFCD0BFF35F8F5B4B30
:104604005B499A68030010339F00D5598D4239D015
:10461400A5424AD0574EAA1B2F2A33D801229246CC
:10462400824091464846544A1268104001904846D8
:10463400524A1060BFF35F8FEFF305829346002A5E
:1046440035D0934201D000F0A9FE2A0053469A4384
:104654009068844208D175E04B005B189B00F31806
:104664009868A04234D01A00062151560029F3DA82
:10467400844253D0019B002B26D04A46404B1A60FB
:104684003D4B1A60394B9B68DD51BFF35F8FBFF31D
:104694005F8F0022344B1A6088F3108803B0F0BC9B
:1046A400BB46B246A946A046F0BD0D00EAE72A0083
:1046B40053469A4390688442D6D10620105613007C
:1046C400002809DA0D0031E04A462C4B1A60D9E77C
:1046D40006201856002822DB42001118890074189D
:1046E4008A46A1689960E179D97106216156997168
:1046F400002925DBA488F11A6405241554440919FA
:10470400E0240905490D24022143998013181D4A08
:104714009B001178F31899711070ABE71300594698
:10472400002914D1FF3191711749918015490A78F4
:104734009A71164A9B1B5B415A43120D0A7099E702
:104744001349E2E70620105613000028C4DA114A80
:104754001149D21A083A5002400D014399800F4979
:1047640052080A43DA8085E7240100D000ED00E016
:10477400CD010010E4D9002000E100E080E100E078
:1047840080E200E09F3F022001BDFFFFAAAA0000D3
:1047940001BD00001EDA002000F0FFFF00F8FFFF5B
:1047A400032310B50400074A18409446C0009C43F4
:1047B400FC3383406444226881409A4313000B43D2
:1047C400236010BD00E400E070B5EFF3058101241F
:1047D4000443EFF3108C72B6214A1368002BFCD00B
:1047E400BFF35F8F1F4B05001F4AED1A6D416A43EB
:1047F400120D1E4D8900AE6852B27658A6421CD0E6
:104804000621595691421CD012215956914222D068
:104814001E215956914220D02A21595603249142EF
:1048240010D0134B19781A708171BFF35F8F002277
:104834000B4B1A608CF3108870BDAB680D4C5C5048
:10484400EFE700246100091989005B18FF219971C1
:1048540009499980E5E70124F4E70224F2E7C04618
:10486400240100D0E4D90020AAAA000000ED00E051
:104874009F3F0220CD01001001BDFFFF054B064AFA
:104884001360064A136053609360D36013615361ED
:10489400936170478080808000E400E004E400E0DD
:1048A40070B506000D00140000291DD0002A12D096
:1048B40073688068984762006B0012195B1931684D
:1048C400033A033B002808D08A189570C818CB5CBB
:1048D400002B0BD10470280070BDCB189C70881875
:1048E4008A5C002A05D105702000F5E75370047036
:1048F400F1E75A700570F7E710B583600023CCB276
:1049040043730133426004738373C4730068421CAD
:10491400012C05D90133DBB2137003329C42F9D167
:10492400FF230B405A00D318C018002303384370E8
:1049340010BDC04670B505000C1E07D063000168A9
:104944001B19033BCB185A78002A01D1200070BDF3
:10495400500080180338091800204E784870210050
:1049640058702800FFF79CFF310004002800FFF76F
:10497400E1FF0600002C20D00028E7D032002100FF
:104984006B68A86898477200630092191B1929681C
:10499400033A033B002808D08A189470C818CB5CEB
:1049A400002B00D053700670D0E7CB189E70881887
:1049B4008A5C002A00D05A7004703400C6E7C046EE
:1049C400F0B557464546DE464E46E0B50D006F004D
:1049D40001687F19033F0400C85D83B00192CA19BE
:1049E400002850D043001B18033BCB185E78B44614
:1049F400002E1AD1019E002E42D0E67B002E04D058
:104A040073009B19CB18033B5D70A37B002B00D173
:104A1400A573E57300282FD10023537003B0F0BCB5
:104A2400BB46B246A946A046F0BD72006244033AB2
:104A34008A1851788846002151708946597032008D
:104A440001002000FFF72CFF43468246002B07D0CD
:104A54005B0021684344033BCB185A78002A16D1E3
:104A6400424651462000FFF71BFF2168019BCA19EB
:104A7400002BC2D10028CFD043001B18033BCB1816
:104A840000219970C8E7019B002BB6D1C4E7500000
:104A94008018033809184878834648464870587087
:104AA40041462000FFF7FCFE594680462000FFF7F0
:104AB40041FF414602002000FFF7F2FE8046CFE7A7
:104AC400F0B557464546DE464E46E0B583B0019103
:104AD400457B04006F0000687F19033FC15DC21964
:104AE400002952D04B005B18033BC3185E78B446D0
:104AF400002E1CD1019E002E44D0E67B002E04D053
:104B040073009B19C318033B5D70A37B002B00D17A
:104B1400A573E573002931D1002328005370617314
:104B240003B0F0BCBB46B246A946A046F0BD720035
:104B34006244033A821850788046002050708146BF
:104B4400587032002000FFF7ABFE43468246002B2C
:104B540007D05B0021684344033BCB185A78002AF2
:104B640017D1424651462000FFF79AFE019B0100EF
:104B74002068C219002BC0D10029CDD04B005B188E
:104B8400033BC31800209870C6E7019B002BB4D1E7
:104B9400C2E750008018033809184878834648460D
:104BA4004870587041462000FFF77AFE5946804607
:104BB4002000FFF7BFFE414602002000FFF770FE11
:104BC4008046CEE770B5050000292CD0437B8B428C
:104BD4002ED04C0000686418033C0419A278002A03
:104BE40021D053009B18033BC25CC6188A4202D1F1
:104BF4001BE0002A08D053009B18033BC3185A78C3
:104C04008A42F6D162785A70002301222800A370E8
:104C14006370FFF7D5FE697B02002800FFF740FEB2
:104C24006873012000E0002070BD63783370EBE707
:104C340001221900FFF7C4FEF2E7C046094A10B585
:104C440094464024830063441A68C0006240803460
:104C540014408022520113431C60034B9C46604461
:104C6400416010BD04C0014000400140034BC0003E
:104C74009C46604443681F20184070470040014030
:104C8400074B80009C4660440368C90092000A43B5
:104C94005A400C231A4080235B0103431A60704777
:104CA40004C00140074BC0009C46604403680904EB
:104CB4005940C0239B02194080235B0103431960C0
:104CC4007047C04604400140074BC0009C46604406
:104CD400036809035940C0239B01194080235B01E9
:104CE400034319607047C046044001400123D022A9
:104CF4008340120693629361094A402194468300DB
:104D040063441A68C0004A40803111408022520135
:104D140013431960034B9C4605236044436070476A
:104D240004C0014000400140F8B5CE4647460400A7
:104D340080B506200D0000F021FA061E53D0534B17
:104D44005349E3185A1E93418022120494465B424D
:104D54009B0D504A9B05634413604F4A136018002F
:104D64008A689043FBD1494B4C4AE31859424B4162
:104D740080215B0049000620995200F0FFF92900C8
:104D8400C00001F021FFC30932D140220121904625
:104D94006162A362266BF30736D427008025E36A99
:104DA40000232C376D013D432B600620266300F061
:104DB400E5F94146800001F007FF236B06009846A1
:104DC400DB073BD46023E26A5A400E3313402B6066
:104DD40043462363802310229B013B431A60304BDC
:104DE40023630323A3643000C0BCB946B046F8BDB6
:104DF4002C4A93423FD900232B492C4A6162A36277
:104E0400266B9046F307C8D52200C02330329B019D
:104E14001343234A06201A60656AA36AAD01ED189C
:104E240000F0ACF9224901F0CFFEAD0201002800E8
:104E340001F0CAFE0021FFF7E9F8AEE72200C02323
:104E440030329B011343164A06201A60636AA26A31
:104E54009B019946914400F091F94B4614499B02F9
:104E6400994601F0B1FE0100484601F0ADFE002173
:104E7400FFF7CCF8A6E77F22990188460240013269
:104E8400520819009044130082E7C0460080FCBF1A
:104E940000C0004000E0004000F000409C3E0120C3
:104EA40001030000FEFF0000FFFF0000C0FF3F0001
:104EB4004E0E000010B50C2082B000F0B7F9FFF7D9
:104EC400A5F9002810D08B4B8B488B498B4A18606E
:104ED40059609860D960186159619861D961186204
:104EE40059625A6202B010BD854CA06700F0A6F961
:104EF4000122844B1A60636C012BFCD10322824B88
:104F04001A607F4A936B012BFCD1013301217F4A44
:104F14007F480093043300F037F905237D4A00935A
:104F240001217D4800F030F97C4B5A68FF2A02D8F1
:104F3400802252005A608022734B6E4C12011A6018
:104F44002169002907D0606901F03EFE0130430069
:104F54001B18033BFDD2E022704B714819680A40CC
:104F6400026002221968514001320A4004210260A1
:104F74009A681142FCD080216A4A0901116080229A
:104F840052005A60684B2361684B5968FF2900D866
:104F94005A60032201215B4B1A60644A93681942E8
:104FA400FCD0E023106803406148036012680323C7
:104FB4004A40022113405D4A036093681942FCD0C1
:104FC40080215C4B0901196080215B4B49005160D1
:104FD40063615A4B5A68FF2A00D859608022584BA3
:104FE40012011A60E169002907D0606901F0ECFD43
:104FF400013043001B18033BFDD2E0234F4A1168E4
:105004000B4050490B6080214F4B090119608021EE
:10501400394B49005160E3614C4B5A68FF2A00D870
:10502400596080224A4B12011A60216A002907D074
:10503400606901F0C9FD013043001B18033BFDD238
:10504400E023424A11680B4042490B608021424BE5
:105054000901196080235B0053608022264BD20231
:1050640023623E4B5968914200D25A6080223C4BE5
:1050740012011A60616A002907D0606901F0A4FD79
:10508400013043001B18033BFDD2E023334A11686F
:105094000B4034490B608021334B09011960802394
:1050A400DB025360154B6362304B5A68FF2A02D807
:1050B400802252005A6080222D4B12011A60A1698D
:1050C400002907D0606901F07FFD013043001B18FF
:1050D400033BFDD2E023254A11680B4025490B60B0
:1050E4008021254B0901196080235B005360124B1A
:1050F400A361F7E6C0DA0020006CDC021BB70000F5
:10510400008000403CB0004030B00040002F68599F
:1051140000800240008C864700C00240308000407E
:105124003090004030A00040001BB7003C8000409D
:105134003C9000403CA0004040597307548000401C
:1051440054B000405490004054A00040608000409F
:1051540060B000406090004060A000406C8000405F
:105164006CB000406C9000406CA00040488000404F
:1051740048B000404890004048A00040014B8000E7
:10518400C0587047C0DA0020F8B5040022481E0059
:1051940017000D0001F018FD0100380001F014FDA6
:1051A400069B36041B031E432368002B22DB1B4B88
:1051B4001B49E3185A1E93418022920194465B4294
:1051C4001B0B184A1B0363441360174A13601F0028
:1051D4008A689743FBD1C022231D92011A432123DD
:1051E4002560A06013602368002BFCDA0823E660C6
:1051F4001360F8BD3F2322681340AB42D7D1A368A4
:105204001B051B0D8342D2D1EE22E368D202134068
:10521400B342CCD1EDE7C046001BB7000040FDBF50
:1052240000C0004000E0004000F000408023024A3B
:105234009B000343D362704700800540AA23064ABB
:105244001B0113602F230549D360054B1960536874
:10525400002BFCDA7047C0460040024000B0FA0060
:10526400006002402C4B2D4A70B51A602C4A2D4B1D
:105274002D491A6014008B689C43FBD12B4D2C4E96
:10528400B54208D2013E761BB60808CD98472300E4
:105294000134B342F9D1FFF70DFE264A214B1A60BF
:1052A400214A9368DB43DB01DD09002BF9D140225D
:1052B400214B224C224E9A675A671A67DA66B44227
:1052C40008D223682000002B20D00C34FEF722FBE8
:1052D400B442F6D31B4C1C4EC022B168200002F02D
:1052E400FBFAB460FFF710F8FFF7C8FAFEF7BCFC4E
:1052F400164C174EB44208D2013E361BB60808CCF1
:1053040098472B0001359E42F9D170BD0834FEF751
:10531400F3FAB442D5D3DDE700E00040BFCDFBFE95
:10532400FE7F3C0000F0004000C00040A0DA0020F6
:10533400B0DA0020FFFFFF0100F0014090DA002006
:10534400A0DA00200000002000ED00E0B0DA002028
:10535400C0DA002000BEFDE710B5FFF7FBFFC04632
:105364000FB400B5084883B002F084FB049B002B03
:1053740007D005A91800019101F0ACFB034802F025
:1053840079FB0120FFF7E6FF00D1002010D10020B7
:1053940010B50148FFF7E4FF14D1002010B501480F
:1053A400FFF7DEFF24D100207047C046F8B557460A
:1053B400DE464E464546E0B599460A9B07009A46A6
:1053C4000D9B884693460B9C9B073BD10C9B9C42B0
:1053D4003DD21E1B0B9415000C005E442A004B4664
:1053E400013521002020B847B542F7D1A0460B9CD7
:1053F400002C20D0454636195346321B013C185D1B
:1054040029004B46B847002CF6D12B0035009846AE
:105414000D9B9B070FD55B46EC1A0C9BA3420AD944
:10542400464698462A004B46310020200134B847AE
:1054340001354445F6D32800F0BCBB46B246A94624
:10544400A046F8BD16001500002CD3D1E0E71600E5
:10545400002CCFD11500EEE7F0B54F464646D646B0
:10546400C0B584B098460EAB1B7894469946129BFF
:105474000D9C109F119E9A0725D4002E65D1BC4225
:1054840021D201221A409246202C00D1E9E00C9A44
:10549400551E302202E0202C00D17BE001342A5535
:1054A400A742F8D85246002A0DD0B4420BD20C9A27
:1054B400551E3022202C02D171E0202C2DD0013435
:1054C4002A55B442F9D1DA063CD55A052ED4002C1B
:1054D40028D10F9A102A00D1B6E0022A00D1BCE0EC
:1054E40030220C9C227001244A46002A65D15A07B6
:1054F40000D499E02B220C9D2A55013403930C9B74
:1055040062460093029643460194FFF74FFF04B0AE
:10551400E0BCBA46B146A846F0BD2024DA06EDD573
:105524005A0503D4A74266D0B44264D00F9A102A15
:1055340071D0022A57D0202CE0D02200013430252B
:105544000C9FBD54202CD9D0CEE7012215001D405C
:10555400AA461A4236D04A46002A4AD10C321A4286
:1055640047D1BC42A1D2202C91D1202E17D820247F
:10557400DA06C3D55A051BD4202F01D0202ED5D14D
:105584001F220F9D102D6FD0022DD8D162250C9FA4
:10559400BD54D0E75246002A79D0202EBDD920240C
:1055A400DA06ABD55A0503D4202FE9D0202EE7D054
:1055B4000F9A102AA2D12024A0E72D220C9D2A554F
:1055C40001349BE7BC4200D37DE7202C00D05EE78A
:1055D400DA06F0D55A05EED4202F62D0202EEAD177
:1055E40034001F22CDE7202C00D187E722000134AC
:1055F400CCE7013EB5E7621E012CC2D10F9A102AF6
:1056040000D06AE79A063BD558220C9C2270283AAF
:105614006270022468E79A060ED4202CCBD078223C
:105624000C9D2A55013486E71A0700D466E7202228
:105634000C9D2A55013461E7202CBCD058250C9AC6
:1056440012191570013476E79A0608D558220C9C75
:10565400227030226270022446E76032F7E7782233
:10566400F5E7002A83D1B3E7A21E013C9D0603D4CB
:1056740078250C9FBD5460E758250C9FBD545CE70A
:1056840078220C9C2270483A627002242CE7DA06D5
:1056940000D433E75A058BD4202F00D044E71F22CF
:1056A4006FE73C001F226CE710B5002800D110BD45
:1056B40002F094F9FBE7C0460B0010B5002802D0B5
:1056C40049681B68984710BDF0B557464E46454695
:1056D400DE46E0B599B08246894690460893229A00
:1056E400239B1000190001F030FD002800D0CDE00C
:1056F400229823990122D94B524201F021FD00281E
:1057040000D0C3E0229823990122D54B524201F0E4
:1057140009FD002800D0B9E0229823990022002333
:1057240001F000FD002800D0F1E1229E239F802398
:10573400269ADB001A400D92269A1A4201D10623BA
:1057440024938023269A1B011A403B009346099612
:10575400334300D0B3E0002A00D0C2E10023002488
:105764000A930B94002304250993259B0024AB4240
:1057740000D95C1B0223269A1A400C92269A1342E3
:1057840003D06B426B415B421C40099B002B07D04A
:105794000A9A0B9B3000390001F063FC06000F00ED
:1057A400229823990022002301F0BCFC002803D096
:1057B400802109067B181F00269AAA4B00960197A0
:1057C4001340089E0493249B03940293424633009F
:1057D4004946504600F0AAF90400002D67D0202065
:1057E400269A4946024013005A4253415B42621CC6
:1057F40018400A92330022004530D047099A6F1EA0
:10580400D317D4185C40D30F9B46002501E0202D0C
:1058140013D008AA94461F23200063440A210135AB
:105824005E1901F0D1F93031317020000A2101F004
:10583400CBF926000400092EE9D80523069300239A
:1058440004930A3303935B46089E029310AB0A9AAF
:10585400009349463300504605970195FFF7FCFD38
:105864000C9A0400002A22D04246851A259AAA429C
:105874001DD9B0465746160022004346494620200B
:105884000135B8470134AE42F6D810E0269B4246B3
:105894000493259B49460393249B50460293229BE1
:1058A400239C00930194089B00F040F9040020001D
:1058B40019B0F0BCBB46B246A946A046F0BD6A4B3F
:1058C40078009C46400D604401F052FC674A684BE6
:1058D40001F0E5FB674A684B01F0BAFB674A3B03FA
:1058E4001B0B1A4304000D0009981100644B00229D
:1058F40001F0A5FB634A644B01F0D1FB02000B00ED
:105904002000290001F0A4FB01F04AFC099001F0F9
:105914002FFC5E4A5E4B04000D0001F0C0FB002228
:105924005C4B01F095FB01F03BFC5B4A5B4B2900AF
:105934000C90200001F0B3FB04000C980D0001F062
:1059440017FC574A574B01F0AAFB02000B0020003A
:10595400290001F074FB04000D0002000B000A94FE
:105964000B9501F09CFB04000D000A980B990200B2
:105974000B0001F06DFB00220E900F914A4B2000AA
:10598400290001F06EFB0022484B01F061FB02008C
:105994000B002000290001F064FB0022444B01F0BD
:1059A40057FB02000B002000290001F05AFB0A9A61
:1059B4000B9B0D0080210400C905002001F03FFB72
:1059C40002000B002000290001F042FB02000B0042
:1059D4000E980F9901F045FB0022284B01F038FB8B
:1059E400344B0C9C9C4664442305002201F057FB75
:1059F40004000D0002000B00300039000A940B95DE
:105A040001F090FB00285DD123002A00C6250999E6
:105A140063318D42AD4159466D420435002900D1B0
:105A2400A3E6134363D030003900234A234B01F02B
:105A34007FFB002807D0002230003900204B01F002
:105A440071FB002853D1249B002B00D18DE60D9BC4
:105A54005A1E9341249AD31A249386E6FFFFEF7FBC
:105A6400FFFFEFFFFFF7FFFF01FCFFFFFB799F50F4
:105A74001344D33FB3C8608B288AC63F0000F03F6D
:105A84000000F83F61436F63A787D23F71A3790990
:105A94004F930A400000E03F1655B5BBB16B02407E
:105AA400EF39FAFE422EE63F00002C40000024406D
:105AB40000001840FF0300002D431CEBE2361A3FA0
:105AC40080842E41099B0022013B09932000164B40
